:030000000225CD09
:0C25CD00787FE4F6D8FD758158022614D2
:1023DE00A2AF920CC2AF75C7AA75C755E4F591A20C
:1023EE000C92AF43B10153B2FEA2AF920CC2AF75C5
:1023FE00C7AA75C755F591A20C92AF43B30153B45A
:10240E00FEA2AF920CC2AF75C7AA75C755F591A2C1
:10241E000C92AF53B3FD43B402A2AF920CC2AF7590
:10242E00C7AA75C755F591A20C92AF53B3FB43B42F
:10243E0004A2AF920CC2AF75C7AA75C755F591A28B
:10244E000C92AF53B3F753B4F7A2AF920CC2AF7561
:10245E00C7AA75C755F591A20C92AF53B3EF53B4FB
:10246E00EFA2AF920CC2AF75C7AA75C755F591A270
:0A247E000C92AF53B1BF53B2BF225E
:102C8A004389015389FD438E085389FB5389F722EF
:100003008E268F27E5274526600DE52715277002E5
:080013001526122B7880ED2266
:102B7800E4F58CF58AD28CAF8CEFFEAD8A7C00E44C
:102B88002DFFEC3EFEC3EF9480EE943E40E9C28CEC
:012B9800221A
:061B78008E268F278D2848
:101B7E00E4F529E5277807CEC313CE13D8F97807F5
:101B8E00C333CE33CED8F9F52B8E2AE4F529C3E52F
:101B9E002994807480948050217E00E52B2529FFA6
:101BAE00EE352AFE122CE77E0074002529F582E41C
:101BBE003400F583EFF0052980D47E00E527547FAD
:101BCE002400F582EE3400F583E528F0E52BF5A62A
:101BDE00E52AF5A775AEFFA2AF920CC2AF75C7AAE4
:101BEE0075C755439F01A20C92AFA2AF920CC2AF24
:101BFE0075C7AA75C75543A501A20C92AF75AF2242
:101C0E00A2AF920CC2AF75C7AA75C75543A401A265
:101C1E000C92AFA2AF920CC2AF75C7AA75C755434F
:101C2E009F01A20C92AFA2AF920CC2AF75C7AA755C
:101C3E00C75543A501A20C92AF75AF21E4F529C398
:101C4E00E529948074809480502FE52B2529F5A6E4
:101C5E00E52AF5A774002529F582E43400F583E022
:101C6E00F5AEA2AF920CC2AF75C7AA75C75543A405
:101C7E0001A20C92AF052980C6A2AF920CC2AF751D
:101C8E00C7AA75C75553A5FEA20C92AFA2AF920C70
:0F1C9E00C2AF75C7AA75C755539FFEA20C92AF70
:011CAD002214
:042CE7008F828E83C7
:032CEB00E493FF70
:012CEE0022C3
:0A2659008E088F098B0A8A0B890C8A
:10266300E5097807CEC313CE13D8F9FDE509250E86
:10267300FFE508350DFEEF7807CEC313CE13D8F967
:10268300F50FED650F6043AB0AAA0BA90C75158016
:10269300AF09AE0812181BAC07EC2509F509E435A0
:1026A30008F508EC250CF50CE4350BF50BECC3E54C
:1026B3000E9FF50EE50D9400F50DAE08E5097807BC
:1026C300CEC313CE13D8F9FD80B8E50E450D6010C7
:1026D300AB0AAA0BA90C850E15AF09AE0812181B7D
:0126E30022D4
:0A29F5008E188F198B1A8A1B891C9B
:1029FF00E4FFFEC3EF951EEE951D5021E5192FFD47
:102A0F00E5183E8D82F583E493AB1AAA1BA91C8FA0
:0D2A1F00828E83120B950FBF00010E80D632
:012A2C002287
:0A181B008E108F118B128A138914AE
:10182500A2AF920CC2AF75C7AA75C755439F01A257
:101835000C92AFA2AF920CC2AF75C7AA75C755433C
:10184500A501A20C92AFE511547FF517C3748095DD
:1018550017F516E515D395164003851615AD11AC8C
:1018650010E4F516E516C395155012ED2516F5820B
:10187500E43CF583E493F47004051680E7E516650A
:1018850015707875AF218511A6E510F5A7E4F51655
:10189500E516C39515502AAB12AA13A9148516820D
:1018A500758300120B56F5AEA2AF920CC2AF75C789
:1018B500AA75C75543A401A20C92AF05A6051680CB
:1018C500CFE4F516E516C395155022AB12AA13A958
:1018D50014851682758300120B56FFED2516F582C9
:1018E500E43CF583E493B50704051680D7E5166552
:1018F5001570030219F580030219F5E5115480AC42
:1019050010FDE4F516C3E516948074809480501D8F
:10191500ED2516F582E43CF583E493FF74802516E6
:10192500F582E43400F583EFF0051680D8E4F5166A
:10193500E516C395155023AB12AA13A91485168273
:10194500758300120B56FFE51725162480F582E4F2
:101955003400F583EFF0051680D6E5115480F5A621
:10196500E510F5A775AF2275AEFFA2AF920CC2AF19
:1019750075C7AA75C75543A401A20C92AF75AF21CF
:10198500E4F516C3E516948074809480502774801E
:101995002516F582E43400F583E0F5AEA2AF920C8E
:1019A500C2AF75C7AA75C75543A401A20C92AF056E
:1019B500A6051680CEE4F516AF167E00C3EF94801B
:1019C500748094805021ED2516F582E43CF583E47E
:1019D50093FB74802516F582E43400F583E0FAEB79
:1019E500B50204051680D1EF64804E600302195FCD
:1019F500A2AF920CC2AF75C7AA75C755539FFEA279
:051A05000C92AFAF15CB
:011A0A0022B9
:10228200A2AF920CC2AF75C7AA75C755439F01A2F0
:102292000C92AF75A604E4F5A775AE0F75AFE1A277
:1022A200AF920CC2AF75C7AA75C75543A504A20C5D
:1022B20092AFA2AF920CC2AF75C7AA75C75543A41D
:1022C20001A20C92AFE59F5440644060F8A2AF9225
:1022D2000CC2AF75C7AA75C75553A5FBA20C92AF26
:1022E200A2AF920CC2AF75C7AA75C755539FFEA283
:1022F2000C92AF75C7AA75C75575AA07A2AF920C03
:10230200C2AF75C7AA75C75543AA40A20C92AFAF18
:10231200AAEF44BF74FF60F7D2AFA2AF920CC2AF74
:0E23220075C7AA75C75543AA80A20C92AF22B8
:0C002600C109C10A024D0000024F000099
:102C3700E54E2480FFE4354DFEC3EF9550FFEE953A
:062C47004FEF547FFF2255
:102BF100E54E2401FFE4354DFEEFB55008EEB54F2B
:082C0100047F0180027F002224
:102C0900E4F54DF54EF54FF550FE7F80FD7B017AD9
:072C1900017900120F812276
:102B3200EFF5827583007E00FDC3E5509DFDE54FF4
:102B42009400FC74002DF974013CFA7B017D0012A3
:032B52000F8122CE
:102C7900E54EB55009E54DB54F047F0180027F004F
:012C89002228
:0F2C9A0074FF254EF5827400354DF583E0FF225F
:102B0D00AD07122BF1EF701C054EE54EAE4D700268
:102B1D00054D142400F58274013EF583EDF0534EFE
:052B2D007F754D002240
:102AE700122C79EF60037F00220550E550AE4F703E
:102AF70002054F142400F58274013EF583E0FF536D
:052B0700507F754F0036
:012B0C0022A6
:030023000229812E
:10298100C0E0C083C082C0D075D000C005C006C001
:1029910007C09130980CD20A85994BAF4B122B0D81
:1029A100C298309905200902C299D091D007D0066A
:0B29B100D005D0D0D082D083D0E0321F
:03007B00022C2034
:102C2000C09130F807859A4CD20BC2F830F90520D4
:072C30000902C2F9D0913244
:101A0B008F258E248D238C22E526146052147003AF
:101A1B00021AFD24026003021B777598504389203C
:101A2B00438780438E10A2AF920CC2AF75C7AA75C5
:101A3B00C755E4F591A20C92AF53C4DF7B10FAF9B2
:101A4B00F8AF25AE24AD23AC22120C42AB2AAA2947
:101A5B00A928A827120C42EFF404F58DD28E22751B
:101A6B00985043878053C4F8A2AF920CC2AF75C78E
:101A7B00AA75C755E4F591A20C92AF43C4207B1015
:101A8B00FAF9F8AF25AE24AD23AC22120C42AB2AE7
:101A9B00AA29A928A827120C42C3E49FFFE49EFEA3
:101AAB0074019DFDE49CFC7808120CEA8FC6E47B64
:101ABB0010FAF9F8AF25AE24AD23AC22120C42ABD1
:101ACB002AAA29A928A827120C42C3E49FFFE49E47
:101ADB00FE74019DFDE49CFCEFE48FC5A2AF920C5C
:101AEB00C2AF75C7AA75C755F591A20C92AF43C487
:101AFB00082275F85075C480E47B10FAF9F8AF250D
:101B0B00AE24AD23AC22120C42AB2AAA29A928A8D9
:101B1B0027120C42C3E49FFFE49EFE74019DFDE47B
:101B2B009CFC7808120CEA8FC6E47B10FAF9F8AF2C
:101B3B0025AE24AD23AC22120C42AB2AAA29A9282C
:101B4B00A827120C42C3E49FFFE49EFE74019DFD87
:101B5B00E49CFCEFE48FC5A2AF920CC2AF75C7AA91
:0D1B6B0075C755F591A20C92AF43C4082236
:0D2CC700EF1460060470058D99228D9A228D
:102A2D00A2AF920CC2AF75C7AA75C755E4F591A2B6
:102A3D000C92AF53B1BF53B2BFF526F52A7529C21B
:102A4D00752801F527FF7E367D6E7C01121A0BD29B
:042A5D0099D20922DF
:102C4D0075BE2753B3F753B4F753B3EF53B4EFD265
:062C5D0093D294D2C622BE
:081CAE008F2C8B2D8A2E892F4B
:101CB600AFBDEF64F860037F0022C2C4D2C5C2C3C1
:101CC600753200753301E4F53420C315E53345322A
:101CD6007005753401800A0533E5337002053280DC
:101CE600E8E5346006122A917F0022AFBDEF640852
:101CF6006006122A917F0022C2C5C2C475BCD0C23A
:101D0600C3753200753301E4F53420C315E5334558
:101D1600327005753401800A0533E53370020532E9
:101D260080E8E5346006122A917F0022AFBDEF6499
:101D3600186006122A917F0022C2C5C2C4852CBC37
:101D4600C2C3753200753301E4F53420C315E5339B
:101D560045327005753401800A0533E53370020596
:101D66003280E8E5346006122A917F0022AFBDEF8B
:101D760064286006122A917F0022E4F531E531C31A
:101D86009530504FAB2DAA2EA92F85318275830031
:101D9600120B56F5BCC2C3753200753301E4F53437
:101DA60020C315E53345327005753401800A0533C5
:101DB600E5337002053280E8E5346006122A917F29
:101DC6000022AFBDEF64286006122A917F0022052B
:061DD6003180AA122A91DF
:011DDC0022E4
:08161B008F298B2A8A2B892CF0
:10162300AFBDEF64F860037F0022C2C4D2C5C2C35A
:10163300752F00753001E4F53120C315E530452FD2
:101643007005753101800A0530E5307002052F8081
:10165300E8E5316006122A917F0022AFBDEF6408EE
:101663006006122A917F0022C2C5C2C475BCD0C2D3
:10167300C3752F00753001E4F53120C315E53045FE
:101683002F7005753101800A0530E5307002052F92
:1016930080E8E5316006122A917F0022AFBDEF6436
:1016A300186006122A917F0022C2C5C2C48529BCD4
:1016B300C2C3752F00753001E4F53120C315E53041
:1016C300452F7005753101800A0530E5307002053C
:1016D3002F80E8E5316006122A917F0022AFBDEF2B
:1016E30064286006122A917F0022C2C4D2C5C2C3F5
:1016F300752F00753001E4F53120C315E530452F12
:101703007005753101800A0530E5307002052F80C0
:10171300E8E5316006122A917F0022AFBDEF641025
:101723006006122A917F0022C2C5C2C475BCD1C211
:10173300C3752F00753001E4F53120C315E530453D
:101743002F7005753101800A0530E5307002052FD1
:1017530080E8E5316006122A917F0022AFBDEF6475
:10176300406006122A917F0022E4F52EE52D14FF36
:10177300E52EC39F5051D2C2C2C3752F00753001ED
:10178300E4F53120C315E530452F7005753101802F
:101793000A0530E5307002052F80E8E53160061256
:1017A3002A917F0022AFBDEF64506006122A917F19
:1017B3000022AB2AAA2BA92C852E82758300E5BCB7
:1017C300120B95052E80A5C2C2C2C3752F007530BA
:1017D30001E4F53120C315E530452F70057531015E
:1017E300800A0530E5307002052F80E8E531600698
:1017F300122A917F0022AFBDEF64586006122A912E
:101803007F0022AB2AAA2BA92C852E82758300E5A3
:07181300BC120B95122A9193
:01181A0022AB
:1021B200AFBDEF64F860037F0022C2C4D2C5C2C3C0
:1021C200755100755201E4F55320C315E55245518E
:1021D2007005755301800A0552E55270020551805F
:1021E200E8E5536006122A917F0022AFBDEF640832
:1021F2006006122A917F0022C2C5C2C475BCD1C238
:10220200C3755100755201E4F55320C315E55245DB
:10221200517005755301800A0552E552700205514D
:1022220080E8E5536006122A917F0022AFBDEF6479
:10223200406006122A917F0022C2C2C2C3755100B9
:10224200755201E4F55320C315E5524551700575E9
:102252005301800A0552E5527002055180E8E553A8
:102262006006122A917F0022AFBDEF645860061209
:0F2272002A917F0022AFBC7551008F52122A9122
:01228100223A
:102A9100C2C5D2C4C2C37F017E00E4FDACBDEC64FB
:102AA100F8600FEF4E70047D0180070FBF00010E2B
:0B2AB10080EAED70047F0180027F00CE
:012ABC0022F7
:102B9900AE07EFC3940A748094804012EF75F00A6F
:102BA90084FEEF75F00A84EEC454F045F0FEAF06DA
:012BB90022F9
:0E2CA900EFC4540F75F00AA4FEEF540F2EFF77
:012CB70022FA
:0626E4008B268A278928DD
:1026EA00120B3DFF122B998F2B532B7F7B007A0005
:1026FA00792B753001E4FF121CAEAB26AA27A92854
:10270A00900001120B56FF122B998F2A7B007A0038
:10271A00792A7530017F01121CAEAB26AA27A92897
:10272A00900002120B56FF122B998F29AB26AA276B
:10273A00A928900003120B56FF7E0064027005530D
:10274A0029BF80114329BFEF64014E700543292038
:10275A0080035329DF7B007A0079297530017F02D3
:03276A00121CAE90
:01276D002249
:0627F2008B448A45894674
:1027F800120B3DFF122B998F477B007A00794775A2
:1028080030017F03121CAEAB44AA45A946900001D3
:10281800120B56FF122B998F487B007A0079487566
:1028280030017F04121CAEAB44AA45A946900002B1
:10283800120B56FF122B998F497B007A0079497544
:1028480030017F05121CAEAB44AA45A9469000038F
:10285800120B56FF122B998F4A7B007A00794A7522
:0728680030017F06121CAED7
:01286F002246
:062531008B228A2389249D
:102537007B007A007927752D01E4FF12161B5327BC
:102547007FAF27122CA9AB22AA23A924EF120B8352
:102557007B007A007926752D017F0112161BAF26A5
:10256700122CA9AB22AA23A924900001EF120B95E4
:102577007B007A007925752D017F0212161BE52550
:1025870030E62254207003D38001C340047F0180CA
:10259700027F00AB22AA23A924900003EF120B9518
:1025A70053259F800EAB22AA23A92490000374020F
:1025B700120B95AF25122CA9AB22AA23A9249000B0
:0525C70002EF120B956C
:0125CC0022EC
:06276E008B228A2389245E
:102774007B007A007925752D017F0312161BAF2586
:10278400122CA9AB22AA23A924EF120B837B007A73
:10279400007926752D017F0412161BAF26122CA971
:1027A400AB22AA23A924900001EF120B957B007A97
:1027B400007927752D017F0512161BAF27122CA94E
:1027C400AB22AA23A924900002EF120B957B007A76
:1027D400007928752D017F0612161BAF28122CA92B
:0D27E400AB22AA23A924900003EF120B954D
:0127F10022C5
:102C630053890F438910438E10758DC4758B17D20A
:062C7300ABD2AFD28E22AD
:092CDE00122BD6122CD480FB222B
:1020CC002443004F4B0D0A002453004E4F54204F15
:1020DC004B203D3E20445552494E472054494D45D6
:1020EC00520D0A0024450024410044495341424CFE
:1020FC00450D0A00454E41424C450D0A00534554CE
:10210C002054494D4552204552524F520D0A003130
:10211C000D0A004A756D7020696E746F20616374CE
:10212C00697665206D6F646520310D0A00320D0AE9
:10213C00004A756D7020696E746F206163746976E6
:10214C0065206D6F646520320D0A0031320D0A0076
:10215C004A756D70206F75742061637469766520A3
:10216C006D6F64652031203C200D0A004A756D703E
:10217C00206F757420616374697665206D6F64657A
:10218C002031203E200D0A0032310D0A004A756DB7
:10219C0070206F757420616374697665206D6F644F
:0621AC006520320D0A005F
:100032004101A00041019800410186004101850073
:100042004101800041019F000257000041019E00D2
:10005200410183014101820241019900410184026F
:0400620041018100D7
:102BD6007F07121EE91223DE122B55122C8A122CA5
:0B2BE6004D122A61122488122C632279
:0A2CD400121FE412135112007E22B9
:102B5500752601E4752A80752925F528F527FF7E58
:102B6500247DF4FC121A0BD299D209D2ACD2AF1241
:032B75002C092206
:101FE400E4F522F523900182E0640260030220CB31
:101FF400A3E06401705C309050D2927F0AFE12001C
:102004000330904EE523B4D02FE522B4072AC291C1
:10201400D2929001837402F07F087E30122CE7750F
:1020240024008F25E52564024524600C900183E09B
:10203400FD7F087E30121B787F017E0012000305AD
:1020440023E5237002052280B8308003D38001C3C6
:102054009292900183E06402706D309068D2917F17
:102064000AFE120003E4F522F52330905AE52364B6
:10207400D07004E5226407703BC292D2917F64FE63
:10208400120003C2917F647E00120003D29190017A
:10209400837401F07F087E30122CE77524008F25AD
:1020A400E52564014524600C900183E0FD7F087EF2
:1020B40030121B787F017E001200030523E5237094
:0720C40002052280A5C29174
:0120CB0022F2
:102A61007F087E30122CE7EFF46005900183EFF0D0
:102A7100900183E0FF7E0064017005D291C2922231
:0F2A8100EF64024E7005C291D29222D291C2929E
:012A90002223
:102488007F207E30122CE7EFF460059001A0EFF07A
:102498007F217E30122CE7EFF46005900198EFF071
:1024A8007F227E30122CE7EFF46005900186EFF072
:1024B8007430FFFE122CE7EFF46005900185EFF011
:1024C8007F317E30122CE7EFF46005900180EFF049
:1024D8007F327E30122CE7EFF4600590019FEFF019
:1024E8007F427E30122CE7EFF46005900184EFF014
:1024F8007F407E30122CE7EFF46005900182EFF008
:102508007F417E30122CE7EFF46005900199EFF0DF
:10251800900182E0FF7E0064017005D291C2922290
:08252800EF4E7004C291C29253
:012530002288
:10135100E4F522122C9AEF6423600302161A122C70
:1013610037EF601A122AE7BF24F4900181E0FF04ED
:10137100F0748B2FF582E43401F5837424F0122C80
:1013810037EF602B122AE7900181E0FE04F0748BA5
:101391002EF582E43401F583EFF0900181E0248A97
:1013A100F582E43401F583E0B423D3800280CF9049
:1013B1000181E0248BF582E43401F583E4F07F0DB3
:1013C100122B32752901752A01752BA4752C017513
:1013D1002D01752EA7752F017530017531AA753252
:1013E1000175330175348B7B017A0179A1121DDD01
:1013F10078A17C017D017BFF7A2079CC120E7BEFF5
:10140100703F7B017A0179A412233090019CEFF0A7
:101411007B017A0179A712233090019BEFF07B01C8
:101421007A0179AA12233090019AEFF07B017A01B7
:10143100799A1226E47BFF7A2079CF12105702168F
:101441000878A17C017D017BFF7A2079D4120E7B83
:10145100EF706C900199E0705A7B017A0179A412C6
:1014610023309001A0EFF07B017A0179A71223309C
:10147100900198EFF07B017A0179AA122330900153
:1014810086EFF09001A0E0FD7F207E30121B789066
:101491000198E0FD7F217E30121B78900186E0FDEE
:1014A1007F227E30121B787BFF7A2079CF12105772
:1014B1000216087BFF7A2079D71210570216087896
:1014C100A17C017D017BFF7A2079F0120E7BEF7008
:1014D1006C900199E0705A7B017A0179A412233052
:1014E100900185EFF07B017A0179A71223309001F9
:1014F10080EFF07B017A0179AA12233090019FEFEE
:10150100F0900185E0FD7430FFFE121B78900180A0
:10151100E0FD7F317E30121B7890019FE0FD7F322C
:101521007E30121B787BFF7A2079CF12105702167A
:10153100087BFF7A2079D712105702160878A17C10
:10154100017D017BFF7A2079F3120E7BEF600302AC
:0215510016087A
:101553007B017A0179A41223308F237B017A0179ED
:10156300A71223308F247B017A0179AA1223308FAB
:1015730025E5237057E5247053EF70507F437E3089
:10158300122CE78F22EFF46016900199E06401704A
:101593000E900183E522F0FD7F087E30121B78E474
:1015A300900199F09001827402F0FD7F407E301229
:1015B3001B78900199E0FD7F417E30121B78122A3F
:1015C300617BFF7A2079F61210578039E523640B8B
:1015D3007033E524640B702DE525640B70279001AF
:1015E3009904F0E4900182F0FD7F407E30121B7875
:1015F300900199E0FD7F417E30121B787BFF7A21B9
:051603007900121057F0
:10160800E4900181F0FE7F0DFD7B017A01798B1258
:021618000F8140
:01161A0022AD
:061DDD008B268A278928ED
:101DE300E94A4B7003021EE8E52B452A4529700397
:101DF300021EE8E52E452D452C7003021EE8E53151
:101E03004530452F7003021EE8E5344533453270F3
:101E130003021EE8AB32AA33A9348B358A368937DD
:101E23008B388A39893A7D2C122BBA8B358A3689BD
:101E330037E94A4B6013E4120B83A828AC27AD267D
:101E4300AB38AA39A93A120F64AB35E5372401F947
:101E5300E43536FA8B3BF53C893D7D2C122BBA8B4E
:101E6300358A368937E94A4B6013E4120B83A82B72
:101E7300AC2AAD29AB3BAA3CA93D120F64AB35E5B7
:101E8300372401F9E43536FA8B3EF53F89407D2C42
:101E9300122BBA8B358A368937E94A4B6013E41221
:101EA3000B83A82EAC2DAD2CAB3EAA3FA940120F3D
:101EB30064AB35E5372401F9E43536FA8B41F54255
:101EC30089437D23122BBA8B358A368937E94A4BEE
:101ED3006013E4120B83A831AC30AD2FAB41AA429F
:051EE300A943120F6489
:011EE80022D7
:10007E0090019EE064016003020B3C900199E064E4
:10008E00016003020B377B017A01799A1225317BCD
:10009E00017A01798712276E900182E060030206D1
:1000AE0000900180E0FFE4FCFDFE7B3CFAF9F812C3
:1000BE000BB7C004C005C006C007900185E0FFE481
:1000CE00FCFDFE7B107A0EF9F8120BB7D003D002AE
:1000DE00D001D000EF2BFBEE3AFAED39F9EC38F8FF
:1000EE0090019FE0FFE4FCFDFEEB2FFFEE3AFEEDEC
:1000FE0039FDEC38FCC004C005C006C0079001985D
:10010E00E0FFE4FCFDFE7B3CFAF9F8120BB7C004ED
:10011E00C005C006C0079001A0E0FFE4FCFDFE7B19
:10012E00107A0EF9F8120BB7D003D002D001D0001E
:10013E00EF2BFBEE3AFAED39F9EC38F8900186E048
:10014E00FFE4FCFDFEEB2FFBEE3AFAED39F9EC384D
:10015E00F8D007D006D005D004C3120CD470179077
:10016E0001827402F0FD7F407E30121B787BFF7A95
:10017E00217909121057900180E0FFE4FCFDFE7B0F
:10018E003CFAF9F8120BB7C004C005C006C00790C0
:10019E000185E0FFE4FCFDFE7B107A0EF9F8120BF0
:1001AE00B7D003D002D001D000EF2BFBEE3AFAED20
:1001BE0039F9EC38F890019FE0FFE4FCFDFEEB2FDF
:1001CE00FFEE3AFEED39FDEC38FCC004C005C0066A
:1001DE00C007900198E0FFE4FCFDFE7B3CFAF9F8C5
:1001EE00120BB7C004C005C006C0079001A0E0FF07
:1001FE00E4FCFDFE7B107A0EF9F8120BB7D003D09B
:10020E0002D001D000EF2BFBEE3AFAED39F9EC38C3
:10021E00F8900186E0FFE4FCFDFEEB2FFBEE3AFAD0
:10022E00ED39F9EC38F8D007D006D005D004C3125A
:10023E000CD440030204237BFF7A21791B12105742
:10024E00900198E0FFE4FCFDFE7B3CFAF9F8120BFE
:10025E00B7C004C005C006C0079001A0E0FFE4FCD3
:10026E00FDFE7B107A0EF9F8120BB7D003D002D038
:10027E0001D000EF2BFBEE3AFAED39F9EC38F8909D
:10028E000186E0FFE4FCFDFEEB2FFFEE3AFEED39BA
:10029E00FDEC38FCC004C005C006C00790019BE011
:1002AE00FFE4FCFDFE7B3CFAF9F8120BB7C004C06C
:1002BE0005C006C00790019CE0FFE4FCFDFE7B102C
:1002CE007A0EF9F8120BB7D003D002D001D000EF9E
:1002DE002BFBEE3AFAED39F9EC38F890019AE0FF83
:1002EE00E4FCFDFEEB2FFBEE3AFAED39F9EC38F8B3
:1002FE00D007D006D005D004D3120CD4500302047C
:10030E0023900180E0FFE4FCFDFE7B3CFAF9F8123D
:10031E000BB7C004C005C006C007900185E0FFE41E
:10032E00FCFDFE7B107A0EF9F8120BB7D003D0024B
:10033E00D001D000EF2BFBEE3AFAED39F9EC38F89C
:10034E0090019FE0FFE4FCFDFEEB2FFFEE3AFEED89
:10035E0039FDEC38FCC004C005C006C00790019BF7
:10036E00E0FFE4FCFDFE7B3CFAF9F8120BB7C0048B
:10037E00C005C006C00790019CE0FFE4FCFDFE7BBB
:10038E00107A0EF9F8120BB7D003D002D001D000BC
:10039E00EF2BFBEE3AFAED39F9EC38F890019AE0D2
:1003AE00FFE4FCFDFEEB2FFBEE3AFAED39F9EC38EB
:1003BE00F8D007D006D005D004C3120CD45056D2B4
:1003CE0091C2929001827402F09001847404F07DC7
:1003DE00027F407E30121B78900184E0FD7F427ECA
:1003EE0030121B78122A6120912230921FD291C2B4
:1003FE00927D017F087E30121B78900183E0FD7F95
:10040E00437E30121B789001837401F07BFF7A21BA
:10041E00791F121057900180E0FFE4FCFDFE7B3C3B
:10042E00FAF9F8120BB7C004C005C006C007900158
:10043E0085E0FFE4FCFDFE7B107A0EF9F8120BB797
:10044E00D003D002D001D000EF2BFBEE3AFAED39FB
:10045E00F9EC38F890019FE0FFE4FCFDFEEB2FFF76
:10046E00EE3AFEED39FDEC38FCC004C005C006C006
:10047E0007900198E0FFE4FCFDFE7B3CFAF9F812D0
:10048E000BB7C004C005C006C0079001A0E0FFE492
:10049E00FCFDFE7B107A0EF9F8120BB7D003D002DA
:1004AE00D001D000EF2BFBEE3AFAED39F9EC38F82B
:1004BE00900186E0FFE4FCFDFEEB2FFBEE3AFAED39
:1004CE0039F9EC38F8D007D006D005D004D3120C89
:1004DE00D450030206007BFF7A217939121057900F
:1004EE000198E0FFE4FCFDFE7B3CFAF9F8120BB735
:1004FE00C004C005C006C0079001A0E0FFE4FCFDEB
:10050E00FE7B107A0EF9F8120BB7D003D002D00191
:10051E00D000EF2BFBEE3AFAED39F9EC38F89001FA
:10052E0086E0FFE4FCFDFEEB2FFFEE3AFEED39FD1B
:10053E00EC38FCC004C005C006C00790019BE0FF6C
:10054E00E4FCFDFE7B3CFAF9F8120BB7C004C005C3
:10055E00C006C00790019CE0FFE4FCFDFE7B107A14
:10056E000EF9F8120BB7D003D002D001D000EF2B4A
:10057E00FBEE3AFAED39F9EC38F890019AE0FFE427
:10058E00FCFDFEEB2FFBEE3AFAED39F9EC38F8D024
:10059E0007D006D005D004D3120CD44055D291C248
:1005AE00929001827402F090018404F07D027F40EB
:1005BE007E30121B78900184E0FD7F427E30121B4C
:1005CE0078122A6120912230921FD291C2927D011F
:1005DE007F087E30121B78900183E0FD7F437E30D2
:1005EE00121B789001837401F07BFF7A21793D1202
:1005FE001057900182E064026003020B3790018075
:10060E00E0FFE4FCFDFE7B3CFAF9F8120BB7C004E8
:10061E00C005C006C007900185E0FFE4FCFDFE7B2F
:10062E00107A0EF9F8120BB7D003D002D001D00019
:10063E00EF2BFBEE3AFAED39F9EC38F890019FE02A
:10064E00FFE4FCFDFEEB2FFFEE3AFEED39FDEC383C
:10065E00FCC004C005C006C007900198E0FFE4FC92
:10066E00FDFE7B3CFAF9F8120BB7C004C005C006BC
:10067E00C0079001A0E0FFE4FCFDFE7B107A0EF9AE
:10068E00F8120BB7D003D002D001D000EF2BFBEE47
:10069E003AFAED39F9EC38F8900186E0FFE4FCFD0A
:1006AE00FEEB2FFBEE3AFAED39F9EC38F8D007D025
:1006BE0006D005D004C3120CD440030208B6900134
:1006CE0084E0640460030208B67BFF7A2179571236
:1006DE001057900198E0FFE4FCFDFE7B3CFAF9F820
:1006EE00120BB7C004C005C006C0079001A0E0FF02
:1006FE00E4FCFDFE7B107A0EF9F8120BB7D003D096
:10070E0002D001D000EF2BFBEE3AFAED39F9EC38BE
:10071E00F8900186E0FFE4FCFDFEEB2FFFEE3AFEC3
:10072E00ED39FDEC38FCC004C005C006C0079001D1
:10073E009BE0FFE4FCFDFE7B3CFAF9F8120BB7C020
:10074E0004C005C006C00790019CE0FFE4FCFDFE5E
:10075E007B107A0EF9F8120BB7D003D002D001D06D
:10076E0000EF2BFBEE3AFAED39F9EC38F890019ADE
:10077E00E0FFE4FCFDFEEB2FFBEE3AFAED39F9EC6F
:10078E0038F8D007D006D005D004C3120CD4502DA3
:10079E00C291C292E4900182F09001847402F0E45E
:1007AE00FD7F407E30121B78900184E0FD7F427EFB
:1007BE0030121B787BFF7A21795C121057900180E2
:1007CE00E0FFE4FCFDFE7B3CFAF9F8120BB7C00427
:1007DE00C005C006C007900185E0FFE4FCFDFE7B6E
:1007EE00107A0EF9F8120BB7D003D002D001D00058
:1007FE00EF2BFBEE3AFAED39F9EC38F890019FE069
:10080E00FFE4FCFDFEEB2FFFEE3AFEED39FDEC387A
:10081E00FCC004C005C006C00790019BE0FFE4FCCD
:10082E00FDFE7B3CFAF9F8120BB7C004C005C006FA
:10083E00C00790019CE0FFE4FCFDFE7B107A0EF9F0
:10084E00F8120BB7D003D002D001D000EF2BFBEE85
:10085E003AFAED39F9EC38F890019AE0FFE4FCFD34
:10086E00FEEB2FFBEE3AFAED39F9EC38F8D007D063
:10087E0006D005D004D3120CD4402DC291C292E4FE
:10088E00900182F09001847402F0E4FD7F407E308E
:10089E00121B78900184E0FD7F427E30121B787B24
:1008AE00FF7A217978121057900180E0FFE4FCFD69
:1008BE00FE7B3CFAF9F8120BB7C004C005C006C0A7
:1008CE0007900185E0FFE4FCFDFE7B107A0EF9F83F
:1008DE00120BB7D003D002D001D000EF2BFBEE3AB3
:1008EE00FAED39F9EC38F890019FE0FFE4FCFDFEDB
:1008FE00EB2FFFEE3AFEED39FDEC38FCC004C005DF
:10090E00C006C007900198E0FFE4FCFDFE7B3CFAB8
:10091E00F9F8120BB7C004C005C006C0079001A0BD
:10092E00E0FFE4FCFDFE7B107A0EF9F8120BB7D057
:10093E0003D002D001D000EF2BFBEE3AFAED39F9DD
:10094E00EC38F8900186E0FFE4FCFDFEEB2FFBEEA9
:10095E003AFAED39F9EC38F8D007D006D005D004C4
:10096E00D3120CD45003020B37900184E064036061
:10097E0003020B377BFF7A2179941210579001985E
:10098E00E0FFE4FCFDFE7B3CFAF9F8120BB7C00465
:10099E00C005C006C0079001A0E0FFE4FCFDFE7B91
:1009AE00107A0EF9F8120BB7D003D002D001D00096
:1009BE00EF2BFBEE3AFAED39F9EC38F8900186E0C0
:1009CE00FFE4FCFDFEEB2FFFEE3AFEED39FDEC38B9
:1009DE00FCC004C005C006C00790019BE0FFE4FC0C
:1009EE00FDFE7B3CFAF9F8120BB7C004C005C00639
:1009FE00C00790019CE0FFE4FCFDFE7B107A0EF92F
:100A0E00F8120BB7D003D002D001D000EF2BFBEEC3
:100A1E003AFAED39F9EC38F890019AE0FFE4FCFD72
:100A2E00FEEB2FFBEE3AFAED39F9EC38F8D007D0A1
:100A3E0006D005D004C3120CD44003020B3790012C
:100A4E0080E0FFE4FCFDFE7B3CFAF9F8120BB7C028
:100A5E0004C005C006C007900185E0FFE4FCFDFE62
:100A6E007B107A0EF9F8120BB7D003D002D001D05A
:100A7E0000EF2BFBEE3AFAED39F9EC38F890019FC6
:100A8E00E0FFE4FCFDFEEB2FFFEE3AFEED39FDEC50
:100A9E0038FCC004C005C006C00790019BE0FFE40F
:100AAE00FCFDFE7B3CFAF9F8120BB7C004C005C082
:100ABE0006C00790019CE0FFE4FCFDFE7B107A0E61
:100ACE00F9F8120BB7D003D002D001D000EF2BFBF8
:100ADE00EE3AFAED39F9EC38F890019AE0FFE4FCC1
:100AEE00FDFEEB2FFBEE3AFAED39F9EC38F8D007B4
:100AFE00D006D005D004D3120CD4402DC291C29290
:100B0E00E4900182F09001847402F0E4FD7F407E57
:100B1E0030121B78900184E0FD7F427E30121B78EC
:0F0B2E007BFF7A217999121057E490019EF022F3
:03001B0002294572
:10294500C0E0C083C082C0D0C0910558E558700270
:102955000557C3E55894E8E5579403400C90019E4C
:102965007401F0755700755800758DC4758B17C2C5
:0C2975008DD091D0D0D082D083D0E03241
:021EE900A90747
:101EEB00E4F591E924F9600C14600E2402700D7571
:101EFB00A638800875A630800375A630A2AF920C69
:101F0B00C2AF75C7AA75C755439F01A20C92AFE428
:101F1B00F5A775AF04A2AF920CC2AF75C7AA75C770
:101F2B005543A401A20C92AFADAE05A6A2AF920C85
:101F3B00C2AF75C7AA75C75543A401A20C92AFAC2B
:101F4B00AEE924F8706FED25E0FFE433FEEC5401AD
:101F5B007A002FFFEA3EFE74F22FFF74FF3EFE75F0
:101F6B00AF0C75A601E4F5A7A2AF920CC2AF75C773
:101F7B00AA75C75543A401A20C92AFABAEEB644B51
:101F8B00600EABAEEB64526007ABAEEB6453701BF1
:101F9B00ED543FC3940774809480500A74F62FFF5E
:101FAB0074FF3EFE8005EF1F70011EEF5401FCEE27
:101FBB00C313EF13FD75C7AA75C7558D8475C7AAD3
:101FCB0075C7558C85A2AF920CC2AF75C7AA75C7E2
:081FDB0055539FFEA20C92AFCA
:011FE30022DB
:1028ED00EF24FD60121460282402704B7F02122920
:1028FD00BC7F02122870227F03122870A2AF920CA7
:10290D00C2AF75C7AA75C7555397DFA20C92AF22F8
:10291D007F021229BC7F021228707F041229BC7F0E
:10292D0004122870A2AF920CC2AF75C7AA75C75515
:08293D005397DFA20C92AF22B8
:1029BC00EF24FC60222402702FA2AF920CC2AF75E0
:1029CC00C7AA75C755439720A20C92AFE59644DF72
:1029DC0064DF701480F62275C7AA75C7554397C07B
:0929EC00E59644F764F760F82257
:102ABD00E4F591EF24FC60182402701DA2AF920C76
:102ACD00C2AF75C7AA75C7555397DFA20C92AF2237
:0A2ADD0075C7AA75C75553973F222D
:10287000E4F591A2AF920CC2AFEF24FD602F14607B
:102880005424027063A2AF920CC2AF75C7AA75C779
:10289000555396FBA20C92AFA2AF920CC2AF75C774
:1028A000AA75C7555396FDA20C92AF803BA2AF927A
:1028B0000CC2AF75C7AA75C755439604A20C92AF58
:1028C000A2AF920CC2AF75C7AA75C7555396FDA2A9
:1028D0000C92AF8013A2AF920CC2AF75C7AA75C796
:0D28E00055439608A20C92AFA20C92AF22B5
:082CEF003099FDC2998F992272
:1025D900022CDEE493A3F8E493A34003F68001F20E
:1025E90008DFF48029E493A3F85407240CC8C33303
:1025F900C4540F4420C8834004F456800146F6DFD2
:10260900E4800B0102040810204080900026E47E3B
:10261900019360BCA3FF543F30E509541FFEE493C6
:10262900A360010ECF54C025E060A840B8E493A38D
:10263900FAE493A3F8E493A3C8C582C8CAC583CAB8
:10264900F0A3C8C582C8CAC583CADFE9DEE780BE70
:010066000099
:100B3D00BB010689828A83E0225002E722BBFE02B6
:090B4D00E32289828A83E49322E9
:100B5600BB010CE58229F582E5833AF583E0225054
:100B660006E92582F8E622BBFE06E92582F8E2229E
:0D0B7600E58229F582E5833AF583E49322B8
:100B8300BB010689828A83F0225002F722BBFE0151
:020B9300F3224B
:100B9500F8BB010DE58229F582E5833AF583E8F096
:100BA500225006E92582C8F622BBFE05E92582C842
:020BB500F2222A
:100BB700E88FF0A4CC8BF0A42CFCE98EF0A42CFCDD
:100BC7008AF0EDA42CFCEA8EF0A4CDA8F08BF0A45B
:100BD7002DCC3825F0FDE98FF0A42CCD35F0FCEBBA
:100BE7008EF0A4FEA9F0EB8FF0A4CFC5F02ECD397F
:0F0BF700FEE43CFCEAA42DCE35F0FDE43CFC22EC
:100C060075F008758200EF2FFFEE33FECD33CDCCA5
:100C160033CCC58233C5829BED9AEC99E582984028
:100C26000CF582EE9BFEED9AFDEC99FC0FD5F0D605
:100C3600E4CEFBE4CDFAE4CCF9A88222B800C1B92F
:100C46000059BA002DEC8BF084CFCECDFCE5F0CB6D
:100C5600F97818EF2FFFEE33FEED33FDEC33FCEBA6
:100C660033FB10D703994004EB99FB0FD8E5E4F961
:100C7600FA227818EF2FFFEE33FEED33FDEC33FC4E
:100C8600C933C910D7059BE99A4007EC9BFCE99A42
:100C9600F90FD8E0E4C9FAE4CCFB2275F010EF2F87
:100CA600FFEE33FEED33FDCC33CCC833C810D70787
:100CB6009BEC9AE899400AED9BFDEC9AFCE899F8C2
:0E0CC6000FD5F0DAE4CDFBE4CCFAE4C8F92255
:100CD400EB9FF5F0EA9E42F0E99D42F0EC6480C897
:060CE40064809845F02237
:100CEA00E8600FECC313FCED13FDEE13FEEF13FFE8
:030CFA00D8F1220C
:100FF500E5352429F8E605352278263007027829D3
:10100500E475F001120FBF020B3D2000EB7F2ED2DD
:10101500008018EF540F2490D43440D4FF30040BD3
:10102500EF24BFB41A0050032461FFE536600215B2
:10103500360539E5397002053830070D7826E4752F
:10104500F001120FBFEF020B83022CEF7403D207DE
:101055008003E4C207F5358B268A278928E4F5360F
:10106500F538F539E53660077F2012103080F575C3
:1010750037FFC201C200C202C203C205C206C208CE
:10108500120FFEFF700D3007057F00121041AF39BA
:10109500AE3822B4255FC2D5C204120FFEFF24D09C
:1010A500B40A00501A75F00A783630D50508B6FF2F
:1010B5000106C6A426F620D5047002D20380D924E1
:1010C500CFB41A00EF5004C2E5D204021241D20196
:1010D50080C6D20080C0D20280BCD2D580BAD205EB
:1010E50080B47F201210302002077401B53600400D
:1010F500F1120FF5FF121030021069D208D20680E6
:1011050095120FF5FB120FF5FA120FF5F94A4B7010
:101115000679127A137BFF20022EE536602A7E00BF
:101125008E82758300120B5660060EEE653770F0E1
:10113500C2D5EBC0E0EAC0E0E9C0E0EE121288D00B
:10114500E0F9D0E0FAD0E0FB120B3DFF60AAEBC05E
:10115500E0EAC0E0E9C0E0121030D0E02401F9D0A7
:10116500E03400FAD0E0FBE5370460DCD537D98000
:10117500877BFF7A127984D202809C79108002796C
:1011850008C206C2088008D2D5790A8004790AC245
:10119500D5E537047002F537E4FAFDFEFF120FF5C9
:1011A500FC7B08200113120FF5FD7B1030000A129D
:1011B5000FF5FE120FF5FF7B20EC3382D592D5504B
:1011C50013C3E43000069FFFE49EFEE42001039D67
:1011D500FDE49CFCE4CBF8C201EC700CCFCECDCC89
:1011E500E824F8F870F38017C3EF33FFEE33FEED14
:1011F50033FDEC33FCEB33FB994002FB0FD8E9EBF5
:10120500300105F8D0E0C448B201C0E00AEC4D4E0B
:101215004F78207B0070C2EAB5370040BCC0E012B1
:10122500128AD0F0D0E0200104C4C0E0C4B201C0ED
:10123500F0121019D0F0D5F0EB021069120FCF1192
:10124500065311805810D74C10D34211844F118C7E
:0F12550044118C4910EC431192551176461176D5
:101264004511764713325010DB2D10DF2E11022B5F
:1012740010E323110020131B2A109B48000010FACE
:101284003F3F3F00790AA2D5200314300509B91065
:10129400020404B9080104A2D52006025001042066
:1012A40002689202B536005034C0E07F2030031942
:1012B4007F30A20272067205500F1212E1C202C2FE
:1012C40006C205C2087F30800F300503E9C0E01272
:1012D4001030300503D0E0F9D0E0B536CC30051736
:1012E4007F30B9100C1210307F583004077F78809B
:1012F40003B908031210303002057F2D0210307F2D
:10130400202008F87F2B2006F322920280CF286E3B
:10131400756C6C2900D201120FF53001F8C2017806
:101324003630D50108F602109B2D50434958120F50
:10133400F52403B405004001E490132D9312102109
:0D134400743A121021D20375360402118094
:100CFD00E3F5F009E208B5F06D606B80F3E3F5F014
:100D0D0009E608B5F060605E80F387F009E608B586
:100D1D00F054605280F487F009E208B5F04860465F
:100D2D0080F488828C8387F009E0A3B5F0386036B3
:100D3D0080F488828C8387F009E493A3B5F0276053
:100D4D002580F388828C83E3F5F009E0A3B5F016D6
:100D5D00601480F388828C83E3F5F009E493A3B5E6
:100D6D00F004600280F2020E28808580E7808E807C
:100D7D00D2803C8015806C807E809B80B5808B807E
:100D8D00A1804F8070803A020E3489828A83ECFAFA
:100D9D00E493F5F0A3C8C582C8CCC583CCE493A376
:100DAD00C8C582C8CCC583CCB5F070606E80E189B2
:100DBD00828A83E493F5F0A3E208B5F05E605C806F
:100DCD00F289828A83E0F5F0A3E608B5F04D604B19
:100DDD0080F389828A83E0F5F0A3E208B5F03C60E8
:100DED003A80F389828A83E493F5F0A3E608B5F09F
:100DFD002A602880F2805389828A83ECFAE493F585
:100E0D00F0A3C8C582C8CCC583CCE0A3C8C582C831
:100E1D00CCC583CCB5F004600280E27FFFB5F00253
:100E2D000F2240027F012289828A83ECFAE0F5F0DD
:100E3D00A3C8C582C8CCC583CCE0A3C8C582C8CC25
:100E4D00C583CCB5F0D560D380E389828A83ECFA73
:100E5D00E0F5F0A3C8C582C8CCC583CCE493A3C884
:100E6D00C582C8CCC583CCB5F0B160AF80E288F047
:100E7D00ED2402B4040050A3F582EB2402B4040067
:0B0E8D0050992323458223900D7673BB
:100E9800E709F60870FA8046E709F20870FA803E1A
:100EA80088828C83E709F0A370FA807EE309F6084C
:100EB80070FA8076E309F20870FA806E88828C8373
:100EC800E309F0A370FA806289828A83E0A3F608B6
:100ED80070FA805689828A83E0A3F20870FA804A01
:100EE80080D280FA80C680D4806580F280318010FC
:100EF80080A680EA809A80A880DA80E280CA803161
:100F080089828A83ECFAE493A3C8C582C8CCC583D6
:100F1800CCF0A3C8C582C8CCC583CC70E9800D8944
:100F2800828A83E493A3F60870F9ECFAA9F0EDFB42
:100F38002289828A83ECFAE0A3C8C582C8CCC5831B
:100F4800CCF0A3C8C582C8CCC583CC70EA80DD8943
:100F5800828A83E493A3F20870F980CE88F0ED24A6
:100F680002B4040050C4F582EB2402B4040050BA61
:090F78002323458223900EE87347
:102BBA00E94A4B700122120B3DFF6D700122EF7042
:0C2BCA0004FBFAF92209E970ED0A80EA28
:102330008B268A278928AB26AA27A928120B3DFFBE
:10234000120067500D74012528F528E43527F5277C
:1023500080E4D200AB26AA27A928120B3DFF642BEC
:102360006004EFB42D1BAB260528E528AA277002D0
:10237000052714F9120B3D642D6003D38001C3922D
:1023800000E4F529F52AAB26AA27A928120B3DFF60
:10239000122CB85036AB26AA27A928120B3DFF33C2
:1023A00095E0FEEF24D0FBEE34FFFAAE29AF2A7C95
:1023B000007D0A120FADEF2BF52AEE3AF5297401D4
:1023C0002528F528E43527F52780BB300006AE29FF
:0E23D000AF2A8009C3E4952AFFE49529FE2276
:100F8100EF4E6012EF60010EEDBB010B89828A8387
:100F9100F0A3DFFCDEFA2289F05007F709DFFCA994
:0C0FA100F022BBFEFCF309DFFCA9F022EB
:100FAD00EF8DF0A4A8F0CF8CF0A428CE8DF0A42E58
:020FBD00FE2212
:100FBF00FAE6FB0808E6F925F0F618E6CA3AF62233
:100FCF00D083D082F8E4937012740193700DA3A3B1
:100FDF0093F8740193F5828883E4737402936860C5
:060FEF00EFA3A3A380DFC5
:0F2CB800EFC394304007EF943A50028001C322DB
:10006700EFC394094005EF940E4003BF2003D380EC
:0300770001C322A0
:00000001FF
