:03000000022425B2
:0C242500787FE4F6D8FD75815702246C26
:10223600A2AF920CC2AF75C7AA75C755E4F591A2B5
:102246000C92AF43B10153B2FEA2AF920CC2AF756E
:10225600C7AA75C755F591A20C92AF43B30153B403
:10226600FEA2AF920CC2AF75C7AA75C755F591A26B
:102276000C92AF53B3FD43B402A2AF920CC2AF753A
:10228600C7AA75C755F591A20C92AF53B3FB43B4D9
:1022960004A2AF920CC2AF75C7AA75C755F591A235
:1022A6000C92AF53B3F753B4F7A2AF920CC2AF750B
:1022B600C7AA75C755F591A20C92AF53B3EF53B4A5
:1022C600EFA2AF920CC2AF75C7AA75C755F591A21A
:0A22D6000C92AF53B1BF53B2BF2208
:102B36004389015389FD438E085389FB5389F72244
:100003008E268F27E5274526600DE52715277002E5
:080013001526122A1180ED22CE
:102A1100E4F58CF58AD28CAF8CEFFEAD8A7C00E4B4
:102A21002DFFEC3EFEC3EF9480EE943E40E9C28C54
:012A31002282
:061AB6008E268F278D280B
:101ABC00E4F529E5277807CEC313CE13D8F97807B8
:101ACC00C333CE33CED8F9F52B8E2AE4F529C3E5F2
:101ADC002994807480948050217E00E52B2529FF69
:101AEC00EE352AFE122B937E0074002529F582E434
:101AFC003400F583EFF0052980D47E00E527547F70
:101B0C002400F582EE3400F583E528F0E52BF5A6EC
:101B1C00E52AF5A775AEFFA2AF920CC2AF75C7AAA6
:101B2C0075C755439F01A20C92AFA2AF920CC2AFE6
:101B3C0075C7AA75C75543A501A20C92AF75AF2204
:101B4C00A2AF920CC2AF75C7AA75C75543A401A228
:101B5C000C92AFA2AF920CC2AF75C7AA75C7554312
:101B6C009F01A20C92AFA2AF920CC2AF75C7AA751F
:101B7C00C75543A501A20C92AF75AF21E4F529C35B
:101B8C00E529948074809480502FE52B2529F5A6A7
:101B9C00E52AF5A774002529F582E43400F583E0E5
:101BAC00F5AEA2AF920CC2AF75C7AA75C75543A4C8
:101BBC0001A20C92AF052980C6A2AF920CC2AF75E0
:101BCC00C7AA75C75553A5FEA20C92AFA2AF920C33
:0F1BDC00C2AF75C7AA75C755539FFEA20C92AF33
:011BEB0022D7
:042B93008F828E831C
:032B9700E493FFC5
:012B9A002218
:0A24B1008E088F098B0A8A0B890C34
:1024BB00E5097807CEC313CE13D8F9FDE509250E30
:1024CB00FFE508350DFEEF7807CEC313CE13D8F911
:1024DB00F50FED650F6043AB0AAA0BA90C751580C0
:1024EB00AF09AE08121759AC07EC2509F509E4350D
:1024FB0008F508EC250CF50CE4350BF50BECC3E5F6
:10250B000E9FF50EE50D9400F50DAE08E509780765
:10251B00CEC313CE13D8F9FD80B8E50E450D601070
:10252B00AB0AAA0BA90C850E15AF09AE08121759E9
:01253B00227D
:0A288E008E188F198B1A8A1B891C03
:10289800E4FFFEC3EF951EEE951D5021E5192FFDAF
:1028A800E5183E8D82F583E493AB1AAA1BA91C8F09
:0D28B800828E83120AFA0FBF00010E80D637
:0128C50022F0
:0A1759008E108F118B128A13891471
:10176300A2AF920CC2AF75C7AA75C755439F01A21A
:101773000C92AFA2AF920CC2AF75C7AA75C75543FF
:10178300A501A20C92AFE511547FF517C3748095A0
:1017930017F516E515D395164003851615AD11AC4F
:1017A30010E4F516E516C395155012ED2516F582CE
:1017B300E43CF583E493F47004051680E7E51665CD
:1017C30015707875AF218511A6E510F5A7E4F51618
:1017D300E516C39515502AAB12AA13A914851682D0
:1017E300758300120ABBF5AEA2AF920CC2AF75C7E8
:1017F300AA75C75543A401A20C92AF05A60516808E
:10180300CFE4F516E516C395155022AB12AA13A91A
:1018130014851682758300120ABBFFED2516F58227
:10182300E43CF583E493B50704051680D7E5166514
:101833001570030219338003021933E5115480AC88
:1018430010FDE4F516C3E516948074809480501D52
:10185300ED2516F582E43CF583E493FF74802516A9
:10186300F582E43400F583EFF0051680D8E4F5162D
:10187300E516C395155023AB12AA13A91485168236
:10188300758300120ABBFFE51725162480F582E451
:101893003400F583EFF0051680D6E5115480F5A6E4
:1018A300E510F5A775AF2275AEFFA2AF920CC2AFDC
:1018B30075C7AA75C75543A401A20C92AF75AF2192
:1018C300E4F516C3E51694807480948050277480E1
:1018D3002516F582E43400F583E0F5AEA2AF920C51
:1018E300C2AF75C7AA75C75543A401A20C92AF0531
:1018F300A6051680CEE4F516AF167E00C3EF9480DE
:10190300748094805021ED2516F582E43CF583E440
:1019130093FB74802516F582E43400F583E0FAEB3B
:10192300B50204051680D1EF64804E600302189D52
:10193300A2AF920CC2AF75C7AA75C755539FFEA23B
:051943000C92AFAF158E
:01194800227C
:1020DA00A2AF920CC2AF75C7AA75C755439F01A29A
:1020EA000C92AF75A604E4F5A775AE0F75AFE1A221
:1020FA00AF920CC2AF75C7AA75C75543A504A20C07
:10210A0092AFA2AF920CC2AF75C7AA75C75543A4C6
:10211A0001A20C92AFE59F5440644060F8A2AF92CE
:10212A000CC2AF75C7AA75C75553A5FBA20C92AFCF
:10213A00A2AF920CC2AF75C7AA75C755539FFEA22C
:10214A000C92AF75C7AA75C75575AA07A2AF920CAC
:10215A00C2AF75C7AA75C75543AA40A20C92AFAFC2
:10216A00AAEF44BF74FF60F7D2AFA2AF920CC2AF1E
:0E217A0075C7AA75C75543AA80A20C92AF2262
:0C279D00C109C10A024C0000024E0000FD
:102AD000E54D2480FFE4354CFEC3EF954FFFEE95A6
:062AE0004EEF547FFF22BF
:102A8A00E54D2401FFE4354CFEEFB54F08EEB54E97
:082A9A00047F0180027F00228D
:102AA200E4F54CF54DF54EF54FFE7F80FD7B017A46
:072AB200017900120EE6227B
:1029CB00EFF5827583007E00FDC3E54F9DFDE54E5F
:1029DB009400FC74002DF974013CFA7B017D00120C
:0329EB000EE622D3
:102B2500E54DB54F09E54CB54E047F0180027F00A8
:012B3500227D
:0F2B460074FF254DF5827400354CF583E0FF22B6
:1029A600AD07122A8AEF701C054DE54DAE4C70023C
:1029B600054C142400F58274013EF583EDF0534D69
:0529C6007F754C0022AA
:10298000122B25EF60037F0022054FE54FAE4E70FE
:1029900002054E142400F58274013EF583E0FF53D6
:0529A0004F7F754E00A1
:0129A500220F
:0300230002281A96
:10281A00C0E0C083C082C0D075D000C005C006C069
:10282A0007C09130980CD20A85994AAF4A1229A654
:10283A00C298309905200902C299D091D007D006D2
:0B284A00D005D0D0D082D083D0E03287
:03007B00022AB99D
:102AB900C09130F807859A4BD20BC2F830F905203E
:072AC9000902C2F9D09132AD
:101949008F258E248D238C22E52614605214700372
:10195900021A3B24026003021AB575985043892084
:10196900438780438E10A2AF920CC2AF75C7AA7588
:10197900C755E4F591A20C92AF53C4DF7B10FAF975
:10198900F8AF25AE24AD23AC22120BA7AB2AAA29A6
:10199900A928A827120BA7EFF404F58DD28E22757A
:1019A900985043878053C4F8A2AF920CC2AF75C751
:1019B900AA75C755E4F591A20C92AF43C4207B10D8
:1019C900FAF9F8AF25AE24AD23AC22120BA7AB2A46
:1019D900AA29A928A827120BA7C3E49FFFE49EFE02
:1019E90074019DFDE49CFC7808120C4F8FC6E47BC2
:1019F90010FAF9F8AF25AE24AD23AC22120BA7AB30
:101A09002AAA29A928A827120BA7C3E49FFFE49EA5
:101A1900FE74019DFDE49CFCEFE48FC5A2AF920C1E
:101A2900C2AF75C7AA75C755F591A20C92AF43C449
:101A3900082275F85075C480E47B10FAF9F8AF25CF
:101A4900AE24AD23AC22120BA7AB2AAA29A928A838
:101A590027120BA7C3E49FFFE49EFE74019DFDE4DA
:101A69009CFC7808120C4F8FC6E47B10FAF9F8AF8A
:101A790025AE24AD23AC22120BA7AB2AAA29A9288B
:101A8900A827120BA7C3E49FFFE49EFE74019DFDE6
:101A9900E49CFCEFE48FC5A2AF920CC2AF75C7AA54
:0D1AA90075C755F591A20C92AF43C40822F9
:0D2B7300EF1460060470058D99228D9A22E2
:1028C600A2AF920CC2AF75C7AA75C755E4F591A21F
:1028D6000C92AF53B1BF53B2BFF526F52A7529C284
:1028E600752801F527FF7E367D6E7C01121949D2C7
:0428F60099D2092248
:102AE60075BE2753B3F753B4F753B3EF53B4EFD2CE
:062AF60093D294D2C62227
:081BEC008F2B8B2C8A2D892E12
:101BF400AFBDEF64F860037F0022C2C4D2C5C2C384
:101C0400753100753201E4F53320C315E5324531F1
:101C14007005753301800A0532E5327002053180A2
:101C2400E8E533600612292A7F0022AFBDEF64087D
:101C3400600612292A7F0022C2C5C2C475BCD0C264
:101C4400C3753100753201E4F53320C315E532451F
:101C5400317005753301800A0532E53270020531B1
:101C640080E8E533600612292A7F0022AFBDEF64C5
:101C740018600612292A7F0022C2C5C2C4852BBC63
:101C8400C2C3753100753201E4F53320C315E53262
:101C940045317005753301800A0532E5327002055D
:101CA4003180E8E533600612292A7F0022AFBDEFB8
:101CB4006428600612292A7F0022E4F530E530C347
:101CC400952F504FAB2CAA2DA92E853082758300F9
:101CD400120ABBF5BCC2C3753100753201E4F53399
:101CE40020C315E53245317005753301800A05328C
:101CF400E5327002053180E8E533600612292A7F57
:101D04000022AFBDEF6428600612292A7F00220555
:061D14003080AA12292A0A
:011D1A0022A6
:081559008F298B2A8A2B892CB3
:10156100AFBDEF64F860037F0022C2C4D2C5C2C31D
:10157100752F00753001E4F53120C315E530452F95
:101581007005753101800A0530E5307002052F8044
:10159100E8E531600612292A7F0022AFBDEF640819
:1015A100600612292A7F0022C2C5C2C475BCD0C2FE
:1015B100C3752F00753001E4F53120C315E53045C1
:1015C1002F7005753101800A0530E5307002052F55
:1015D10080E8E531600612292A7F0022AFBDEF6461
:1015E10018600612292A7F0022C2C5C2C48529BCFF
:1015F100C2C3752F00753001E4F53120C315E53004
:10160100452F7005753101800A0530E530700205FE
:101611002F80E8E531600612292A7F0022AFBDEF55
:101621006428600612292A7F0022C2C4D2C5C2C31F
:10163100752F00753001E4F53120C315E530452FD4
:101641007005753101800A0530E5307002052F8083
:10165100E8E531600612292A7F0022AFBDEF641050
:10166100600612292A7F0022C2C5C2C475BCD1C23C
:10167100C3752F00753001E4F53120C315E5304500
:101681002F7005753101800A0530E5307002052F94
:1016910080E8E531600612292A7F0022AFBDEF64A0
:1016A10040600612292A7F0022E4F52EE52D14FF61
:1016B100E52EC39F5051D2C2C2C3752F00753001B0
:1016C100E4F53120C315E530452F700575310180F2
:1016D1000A0530E5307002052F80E8E53160061219
:1016E100292A7F0022AFBDEF6450600612292A7FAC
:1016F1000022AB2AAA2BA92C852E82758300E5BC7A
:10170100120AFA052E80A5C2C2C2C3752F00753018
:1017110001E4F53120C315E530452F700575310120
:10172100800A0530E5307002052F80E8E53160065A
:1017310012292A7F0022AFBDEF6458600612292AC0
:101741007F0022AB2AAA2BA92C852E82758300E566
:07175100BC120AFA12292A5A
:01175800226E
:10200A00AFBDEF64F860037F0022C2C4D2C5C2C369
:10201A00755000755101E4F55220C315E55145503C
:10202A007005755201800A0551E55170020550800C
:10203A00E8E552600612292A7F0022AFBDEF640844
:10204A00600612292A7F0022C2C5C2C475BCD1C249
:10205A00C3755000755101E4F55220C315E5514589
:10206A00507005755201800A0551E55170020550FC
:10207A0080E8E552600612292A7F0022AFBDEF648C
:10208A0040600612292A7F0022C2C2C2C3755000CC
:10209A00755101E4F55220C315E551455070057597
:1020AA005201800A0551E5517002055080E8E55257
:1020BA00600612292A7F0022AFBDEF64586006121B
:0F20CA00292A7F0022AFBC7550008F5112292A9E
:0120D90022E4
:10292A00C2C5D2C4C2C37F017E00E4FDACBDEC6463
:10293A00F8600FEF4E70047D0180070FBF00010E93
:0B294A0080EAED70047F0180027F0036
:01295500225F
:102A3200AE07EFC3940A748094804012EF75F00AD7
:102A420084FEEF75F00A84EEC454F045F0FEAF0642
:012A52002261
:0E2B5500EFC4540F75F00AA4FEEF540F2EFFCC
:012B6300224F
:06253C008B258A26892789
:10254200120AA2FF122A328F2A532A7F7B007A00B4
:10255200792A752F01E4FF121BECAB25AA26A927C5
:10256200900001120ABBFF122A328F297B007A00E7
:102572007929752F017F01121BECAB25AA26A92709
:10258200900002120ABBFF122A328F28AB25AA261C
:10259200A927900003120ABBFF7E00640270055354
:1025A20028BF80114328BFEF64014E7005432820E5
:1025B20080035328DF7B007A007928752F017F0280
:0325C200121BECFD
:0125C50022F3
:06264A008B438A44894520
:10265000120AA2FF122A328F467B007A0079467551
:102660002F017F03121BECAB43AA44A94590000144
:10267000120ABBFF122A328F477B007A0079477516
:102680002F017F04121BECAB43AA44A94590000222
:10269000120ABBFF122A328F487B007A00794875F4
:1026A0002F017F05121BECAB43AA44A94590000300
:1026B000120ABBFF122A328F497B007A00794975D2
:0726C0002F017F06121BEC45
:0126C70022F0
:062389008B228A23892447
:10238F007B007A007927752D01E4FF121559532729
:10239F007FAF27122B55AB22AA23A924EF120AE8ED
:1023AF007B007A007926752D017F01121559AF2612
:1023BF00122B55AB22AA23A924900001EF120AFA7F
:1023CF007B007A007925752D017F02121559E525BD
:1023DF0030E62254207003D38001C340047F018074
:1023EF00027F00AB22AA23A924900003EF120AFA5E
:1023FF0053259F800EAB22AA23A9249000037402B9
:10240F00120AFAAF25122B55AB22AA23A92490004A
:05241F0002EF120AFAB1
:012424002295
:0625C6008B228A23892408
:1025CC007B007A007925752D017F03121559AF25F3
:1025DC00122B55AB22AA23A924EF120AE87B007A0E
:1025EC00007926752D017F04121559AF26122B5533
:1025FC00AB22AA23A924900001EF120AFA7B007ADD
:10260C00007927752D017F05121559AF27122B550F
:10261C00AB22AA23A924900002EF120AFA7B007ABB
:10262C00007928752D017F06121559AF28122B55EC
:0D263C00AB22AA23A924900003EF120AFA92
:01264900226E
:102AFC0053890F438910438E10758DC4758B17D273
:062B0C00ABD2AFD28E2215
:092B8A00122A6F122B8080FB223D
:100026002443004F4B0D0A002453004E4F54204FDB
:100036004B203D3E20445552494E472054494D459C
:10004600520D0A0024450024410044495341424CC4
:10005600450D0A00454E41424C450D0A0053455494
:0F0066002054494D4552204552524F520D0A0029
:1027A9004101A000410198004101860041018500D5
:1027B9004101800041019F000256000041019E0035
:1027C90041018301410182024101990041018402D1
:0427D9004101810039
:102A6F007F07121E271222361229EE122B36122A38
:0B2A7F00E61228FA1222E0122AFC22C4
:0A2B8000121F221212B612007E226C
:1029EE00752601E4752A80752925F528F527FF7EC1
:1029FE00247DF4FC121949D299D209D2ACD2AF126D
:032A0E002AA222D7
:101F2200E4F522F523900182E064026003022009B5
:101F3200A3E06401705C309050D2927F0AFE1200DE
:101F42000330904EE523B4D02FE522B4072AC29184
:101F5200D2929001837402F07F087E30122B937527
:101F620024008F25E52564024524600C900183E05E
:101F7200FD7F087E30121AB67F017E001200030533
:101F820023E5237002052280B8308003D38001C389
:101F92009292900183E06402706D309068D2917FDA
:101FA2000AFE120003E4F522F52330905AE5236479
:101FB200D07004E5226407703BC292D2917F64FE26
:101FC200120003C2917F647E00120003D29190013D
:101FD200837401F07F087E30122B937524008F25C5
:101FE200E52564014524600C900183E0FD7F087EB5
:101FF20030121AB67F017E001200030523E523701A
:0720020002052280A5C29136
:0120090022B4
:1028FA007F087E30122B93EFF46005900183EFF08E
:10290A00900183E0FF7E0064017005D291C2922299
:0F291A00EF64024E7005C291D29222D291C29206
:01292900228B
:1022E0007F207E30122B93EFF460059001A0EFF079
:1022F0007F217E30122B93EFF46005900198EFF070
:102300007F227E30122B93EFF46005900186EFF070
:102310007430FFFE122B93EFF46005900185EFF00F
:102320007F317E30122B93EFF46005900180EFF047
:102330007F327E30122B93EFF4600590019FEFF017
:102340007F427E30122B93EFF46005900184EFF012
:102350007F407E30122B93EFF46005900182EFF006
:102360007F417E30122B93EFF46005900199EFF0DE
:10237000900182E0FF7E0064017005D291C292223A
:08238000EF4E7004C291C292FD
:012388002232
:1012B600122B46EF64236003021558122AD0EF6002
:1012C6001A122980BF24F4900181E0FF04F0748B88
:1012D6002FF582E43401F5837424F0122AD0EF60EE
:1012E6002B122980900181E0FE04F0748B2EF5828A
:1012F600E43401F583EFF0900181E0248AF582E47D
:101306003401F583E0B423D3800280CF900181E0DD
:10131600248BF582E43401F583E4F07F0D1229CBAA
:10132600752801752901752AA4752B01752C01757F
:101336002DA7752E01752F017530AA7531017532ED
:101346000175338B7B017A0179A1121D1B78A17C73
:10135600017D017BFF7A007926120DE0EF703F7B5D
:10136600017A0179A412218890019CEFF07B017A21
:101376000179A712218890019BEFF07B017A017910
:10138600AA12218890019AEFF07B017A01799A12CC
:10139600253C7BFF7A007929120FBC02154678A1FD
:1013A6007C017D017BFF7A00792E120DE0EF706CD7
:1013B600900199E0705A7B017A0179A412218890F4
:1013C60001A0EFF07B017A0179A71221889001989C
:1013D600EFF07B017A0179AA122188900186EFF05D
:1013E6009001A0E0FD7F207E30121AB6900198E0B1
:1013F600FD7F217E30121AB6900186E0FD7F227EA7
:1014060030121AB67BFF7A007929120FBC021546F4
:101416007BFF7A007931120FBC02154678A17C0158
:101426007D017BFF7A00794A120DE0EF706C900126
:1014360099E0705A7B017A0179A41221889001857E
:10144600EFF07B017A0179A7122188900180EFF0F5
:101456007B017A0179AA12218890019FEFF0900111
:1014660085E0FD7430FFFE121AB6900180E0FD7F24
:10147600317E30121AB690019FE0FD7F327E301227
:101486001AB67BFF7A007929120FBC0215467BFF3C
:101496007A007931120FBC02154678A17C017D01D4
:0F14A6007BFF7A00794D120DE0EF6003021546CF
:1014B5007B017A0179A41221888F227B017A017937
:1014C500A71221888F237B017A0179AA1221888F9F
:1014D50024E5227033E523702FEF702C900199F0ED
:1014E5009001827402F0FD7F407E30121AB69001A1
:1014F50099E0FD7F417E30121AB61228FA7BFF7AF9
:10150500007950120FBC8039E522640B7033E52356
:10151500640B702DE524640B702790019904F0E4A9
:10152500900182F0FD7F407E30121AB6900199E05D
:10153500FD7F417E30121AB67BFF7A00795A120F71
:01154500BCE9
:10154600E4900181F0FE7F0DFD7B017A01798B121B
:021556000EE69F
:011558002270
:061D1B008B258A268927B2
:101D2100E94A4B7003021E26E52A4529452870031E
:101D3100021E26E52D452C452B7003021E26E5309B
:101D4100452F452E7003021E26E53345324531707D
:101D510003021E26AB31AA32A9338B348A35893668
:101D61008B378A3889397D2C122A538B348A3589ED
:101D710036E94A4B6013E4120AE8A827AC26AD25E0
:101D8100AB37AA38A939120EC9AB34E5362401F9AB
:101D9100E43535FA8B3AF53B893C7D2C122A538B7D
:101DA100348A358936E94A4B6013E4120AE8A82AD5
:101DB100AC29AD28AB3AAA3BA93C120EC9AB34E51C
:101DC100362401F9E43535FA8B3DF53E893F7D2C0A
:101DD100122A538B348A358936E94A4B6013E4124F
:101DE1000AE8A82DAC2CAD2BAB3DAA3EA93F120EA3
:101DF100C9AB34E5362401F9E43535FA8B40F541B8
:101E010089427D23122A538B348A358936E94A4B1C
:101E11006013E4120AE8A830AC2FAD2EAB40AA4102
:051E2100A942120EC9E8
:011E26002299
:10007E0090019EE064016003020AA1900199E06480
:10008E00016003020A9C7B017A01799A1223897B13
:10009E00017A0179871225C6900182E0600302057C
:1000AE0092900180E0FFE4FCFDFE7B3CFAF9F81231
:1000BE000B1CC004C005C006C007900185E0FFE41C
:1000CE00FCFDFE7B107A0EF9F8120B1CD003D00249
:1000DE00D001D000EF2BFBEE3AFAED39F9EC38F8FF
:1000EE0090019FE0FFE4FCFDFEEB2FFFEE3AFEEDEC
:1000FE0039FDEC38FCC004C005C006C0079001985D
:10010E00E0FFE4FCFDFE7B3CFAF9F8120B1CC00488
:10011E00C005C006C0079001A0E0FFE4FCFDFE7B19
:10012E00107A0EF9F8120B1CD003D002D001D000B9
:10013E00EF2BFBEE3AFAED39F9EC38F8900186E048
:10014E00FFE4FCFDFEEB2FFBEE3AFAED39F9EC384D
:10015E00F8D007D006D005D004C3120C3970179012
:10016E0001827402F0FD7F407E30121AB67BFF7A58
:10017E00007963120FBC900180E0FFE4FCFDFE7B72
:10018E003CFAF9F8120B1CC004C005C006C007905B
:10019E000185E0FFE4FCFDFE7B107A0EF9F8120BF0
:1001AE001CD003D002D001D000EF2BFBEE3AFAEDBB
:1001BE0039F9EC38F890019FE0FFE4FCFDFEEB2FDF
:1001CE00FFEE3AFEED39FDEC38FCC004C005C0066A
:1001DE00C007900198E0FFE4FCFDFE7B3CFAF9F8C5
:1001EE00120B1CC004C005C006C0079001A0E0FFA2
:1001FE00E4FCFDFE7B107A0EF9F8120B1CD003D036
:10020E0002D001D000EF2BFBEE3AFAED39F9EC38C3
:10021E00F8900186E0FFE4FCFDFEEB2FFBEE3AFAD0
:10022E00ED39F9EC38F8D007D006D005D004C3125A
:10023E000C3940030203EC900198E0FFE4FCFDFE54
:10024E007B3CFAF9F8120B1CC004C005C006C007AF
:10025E009001A0E0FFE4FCFDFE7B107A0EF9F8128F
:10026E000B1CD003D002D001D000EF2BFBEE3AFADC
:10027E00ED39F9EC38F8900186E0FFE4FCFDFEEB79
:10028E002FFFEE3AFEED39FDEC38FCC004C005C080
:10029E0006C00790019BE0FFE4FCFDFE7B3CFAF9F3
:1002AE00F8120B1CC004C005C006C00790019CE0EC
:1002BE00FFE4FCFDFE7B107A0EF9F8120B1CD00346
:1002CE00D002D001D000EF2BFBEE3AFAED39F9EC6B
:1002DE0038F890019AE0FFE4FCFDFEEB2FFBEE3ABE
:1002EE00FAED39F9EC38F8D007D006D005D004D3A2
:1002FE00120C3950030203EC900180E0FFE4FCFD88
:10030E00FE7B3CFAF9F8120B1CC004C005C006C0F7
:10031E0007900185E0FFE4FCFDFE7B107A0EF9F8F4
:10032E00120B1CD003D002D001D000EF2BFBEE3A03
:10033E00FAED39F9EC38F890019FE0FFE4FCFDFE90
:10034E00EB2FFFEE3AFEED39FDEC38FCC004C00594
:10035E00C006C00790019BE0FFE4FCFDFE7B3CFA6B
:10036E00F9F8120B1CC004C005C006C00790019C12
:10037E00E0FFE4FCFDFE7B107A0EF9F8120B1CD0A8
:10038E0003D002D001D000EF2BFBEE3AFAED39F993
:10039E00EC38F890019AE0FFE4FCFDFEEB2FFBEE4B
:1003AE003AFAED39F9EC38F8D007D006D005D0047A
:1003BE00C3120C395028D291C2929001827402F06D
:1003CE009001847404F07D027F407E30121AB69044
:1003DE000184E0FD7F427E30121AB61228FA900197
:1003EE0080E0FFE4FCFDFE7B3CFAF9F8120B1CC02A
:1003FE0004C005C006C007900185E0FFE4FCFDFEC9
:10040E007B107A0EF9F8120B1CD003D002D001D05B
:10041E0000EF2BFBEE3AFAED39F9EC38F890019F2C
:10042E00E0FFE4FCFDFEEB2FFFEE3AFEED39FDECB6
:10043E0038FCC004C005C006C007900198E0FFE478
:10044E00FCFDFE7B3CFAF9F8120B1CC004C005C083
:10045E0006C0079001A0E0FFE4FCFDFE7B107A0EC3
:10046E00F9F8120B1CD003D002D001D000EF2BFBF9
:10047E00EE3AFAED39F9EC38F8900186E0FFE4FC3B
:10048E00FDFEEB2FFBEE3AFAED39F9EC38F8D0071A
:10049E00D006D005D004D3120C3950030205929029
:1004AE000198E0FFE4FCFDFE7B3CFAF9F8120B1C10
:1004BE00C004C005C006C0079001A0E0FFE4FCFD2B
:1004CE00FE7B107A0EF9F8120B1CD003D002D0016D
:1004DE00D000EF2BFBEE3AFAED39F9EC38F890013B
:1004EE0086E0FFE4FCFDFEEB2FFFEE3AFEED39FD5C
:1004FE00EC38FCC004C005C006C00790019BE0FFAD
:10050E00E4FCFDFE7B3CFAF9F8120B1CC004C0059E
:10051E00C006C00790019CE0FFE4FCFDFE7B107A54
:10052E000EF9F8120B1CD003D002D001D000EF2B25
:10053E00FBEE3AFAED39F9EC38F890019AE0FFE467
:10054E00FCFDFEEB2FFBEE3AFAED39F9EC38F8D064
:10055E0007D006D005D004D3120C394027D291C251
:10056E00929001827402F090018404F07D027F402B
:10057E007E30121AB6900184E0FD7F427E30121A50
:10058E00B61228FA900182E064026003020A9C907F
:10059E000180E0FFE4FCFDFE7B3CFAF9F8120B1C37
:1005AE00C004C005C006C007900185E0FFE4FCFD55
:1005BE00FE7B107A0EF9F8120B1CD003D002D0017C
:1005CE00D000EF2BFBEE3AFAED39F9EC38F890014A
:1005DE009FE0FFE4FCFDFEEB2FFFEE3AFEED39FD52
:1005EE00EC38FCC004C005C006C007900198E0FFBF
:1005FE00E4FCFDFE7B3CFAF9F8120B1CC004C005AE
:10060E00C006C0079001A0E0FFE4FCFDFE7B107A5F
:10061E000EF9F8120B1CD003D002D001D000EF2B34
:10062E00FBEE3AFAED39F9EC38F8900186E0FFE48A
:10063E00FCFDFEEB2FFBEE3AFAED39F9EC38F8D073
:10064E0007D006D005D004C3120C39400302082D82
:10065E00900184E06404600302082D900198E0FF8D
:10066E00E4FCFDFE7B3CFAF9F8120B1CC004C0053D
:10067E00C006C0079001A0E0FFE4FCFDFE7B107AEF
:10068E000EF9F8120B1CD003D002D001D000EF2BC4
:10069E00FBEE3AFAED39F9EC38F8900186E0FFE41A
:1006AE00FCFDFEEB2FFFEE3AFEED39FDEC38FCC003
:1006BE0004C005C006C00790019BE0FFE4FCFDFEF0
:1006CE007B3CFAF9F8120B1CC004C005C006C0072B
:1006DE0090019CE0FFE4FCFDFE7B107A0EF9F8120F
:1006EE000B1CD003D002D001D000EF2BFBEE3AFA58
:1006FE00ED39F9EC38F890019AE0FFE4FCFDFEEBE1
:10070E002FFBEE3AFAED39F9EC38F8D007D006D0D7
:10071E0005D004C3120C395024C291C292E4900148
:10072E0082F09001847402F0E4FD7F407E30121A54
:10073E00B6900184E0FD7F427E30121AB6900180A1
:10074E00E0FFE4FCFDFE7B3CFAF9F8120B1CC00442
:10075E00C005C006C007900185E0FFE4FCFDFE7BEE
:10076E00107A0EF9F8120B1CD003D002D001D00073
:10077E00EF2BFBEE3AFAED39F9EC38F890019FE0E9
:10078E00FFE4FCFDFEEB2FFFEE3AFEED39FDEC38FB
:10079E00FCC004C005C006C00790019BE0FFE4FC4E
:1007AE00FDFE7B3CFAF9F8120B1CC004C005C00616
:1007BE00C00790019CE0FFE4FCFDFE7B107A0EF971
:1007CE00F8120B1CD003D002D001D000EF2BFBEEA1
:1007DE003AFAED39F9EC38F890019AE0FFE4FCFDB5
:1007EE00FEEB2FFBEE3AFAED39F9EC38F8D007D0E4
:1007FE0006D005D004D3120C394024C291C292E423
:10080E00900182F09001847402F0E4FD7F407E300E
:10081E00121AB6900184E0FD7F427E30121AB69015
:10082E000180E0FFE4FCFDFE7B3CFAF9F8120B1CA4
:10083E00C004C005C006C007900185E0FFE4FCFDC2
:10084E00FE7B107A0EF9F8120B1CD003D002D001E9
:10085E00D000EF2BFBEE3AFAED39F9EC38F89001B7
:10086E009FE0FFE4FCFDFEEB2FFFEE3AFEED39FDBF
:10087E00EC38FCC004C005C006C007900198E0FF2C
:10088E00E4FCFDFE7B3CFAF9F8120B1CC004C0051B
:10089E00C006C0079001A0E0FFE4FCFDFE7B107ACD
:1008AE000EF9F8120B1CD003D002D001D000EF2BA2
:1008BE00FBEE3AFAED39F9EC38F8900186E0FFE4F8
:1008CE00FCFDFEEB2FFBEE3AFAED39F9EC38F8D0E1
:1008DE0007D006D005D004D3120C395003020A9C5F
:1008EE00900184E064036003020A9C900198E0FF8B
:1008FE00E4FCFDFE7B3CFAF9F8120B1CC004C005AB
:10090E00C006C0079001A0E0FFE4FCFDFE7B107A5C
:10091E000EF9F8120B1CD003D002D001D000EF2B31
:10092E00FBEE3AFAED39F9EC38F8900186E0FFE487
:10093E00FCFDFEEB2FFFEE3AFEED39FDEC38FCC070
:10094E0004C005C006C00790019BE0FFE4FCFDFE5D
:10095E007B3CFAF9F8120B1CC004C005C006C00798
:10096E0090019CE0FFE4FCFDFE7B107A0EF9F8127C
:10097E000B1CD003D002D001D000EF2BFBEE3AFAC5
:10098E00ED39F9EC38F890019AE0FFE4FCFDFEEB4E
:10099E002FFBEE3AFAED39F9EC38F8D007D006D045
:1009AE0005D004C3120C394003020A9C900180E06A
:1009BE00FFE4FCFDFE7B3CFAF9F8120B1CC004C0F0
:1009CE0005C006C007900185E0FFE4FCFDFE7B102C
:1009DE007A0EF9F8120B1CD003D002D001D000EF22
:1009EE002BFBEE3AFAED39F9EC38F890019FE0FF67
:1009FE00E4FCFDFEEB2FFFEE3AFEED39FDEC38FC8C
:100A0E00C004C005C006C00790019BE0FFE4FCFDDA
:100A1E00FE7B3CFAF9F8120B1CC004C005C006C0E0
:100A2E000790019CE0FFE4FCFDFE7B107A0EF9F8C6
:100A3E00120B1CD003D002D001D000EF2BFBEE3AEC
:100A4E00FAED39F9EC38F890019AE0FFE4FCFDFE7E
:100A5E00EB2FFBEE3AFAED39F9EC38F8D007D00669
:100A6E00D005D004D3120C394024C291C292E49026
:100A7E000182F09001847402F0E4FD7F407E30121A
:100A8E001AB6900184E0FD7F427E30121AB6E490D1
:040A9E00019EF022A3
:03001B000227DEDB
:1027DE00C0E0C083C082C0D0C0910557E5577002DB
:1027EE000556C3E55794E8E5569403400C90019EB8
:1027FE007401F0755600755700758DC4758B17C230
:0C280E008DD091D0D0D082D083D0E032A9
:021E2700A90709
:101E2900E4F591E924F9600C14600E2402700D7533
:101E3900A638800875A630800375A630A2AF920C2B
:101E4900C2AF75C7AA75C755439F01A20C92AFE4EB
:101E5900F5A775AF04A2AF920CC2AF75C7AA75C733
:101E69005543A401A20C92AFADAE05A6A2AF920C48
:101E7900C2AF75C7AA75C75543A401A20C92AFACEE
:101E8900AEE924F8706FED25E0FFE433FEEC540170
:101E99007A002FFFEA3EFE74F22FFF74FF3EFE75B3
:101EA900AF0C75A601E4F5A7A2AF920CC2AF75C736
:101EB900AA75C75543A401A20C92AFABAEEB644B14
:101EC900600EABAEEB64526007ABAEEB6453701BB4
:101ED900ED543FC3940774809480500A74F62FFF21
:101EE90074FF3EFE8005EF1F70011EEF5401FCEEEA
:101EF900C313EF13FD75C7AA75C7558D8475C7AA96
:101F090075C7558C85A2AF920CC2AF75C7AA75C7A4
:081F190055539FFEA20C92AF8C
:011F2100229D
:10274500EF24FD60121460282402704B7F021228CA
:10275500557F021226C8227F031226C8A2AF920C0B
:10276500C2AF75C7AA75C7555397DFA20C92AF22A2
:102775007F021228557F021226C87F041228557F32
:10278500041226C8A2AF920CC2AF75C7AA75C75569
:082795005397DFA20C92AF2262
:10285500EF24FC60222402702FA2AF920CC2AF7548
:10286500C7AA75C755439720A20C92AFE59644DFDA
:1028750064DF701480F62275C7AA75C7554397C0E3
:09288500E59644F764F760F822BF
:10295600E4F591EF24FC60182402701DA2AF920CDE
:10296600C2AF75C7AA75C7555397DFA20C92AF229F
:0A29760075C7AA75C75553973F2295
:1026C800E4F591A2AF920CC2AFEF24FD602F146025
:1026D8005424027063A2AF920CC2AF75C7AA75C723
:1026E800555396FBA20C92AFA2AF920CC2AF75C71E
:1026F800AA75C7555396FDA20C92AF803BA2AF9224
:102708000CC2AF75C7AA75C755439604A20C92AF01
:10271800A2AF920CC2AF75C7AA75C7555396FDA252
:102728000C92AF8013A2AF920CC2AF75C7AA75C73F
:0D27380055439608A20C92AFA20C92AF225E
:082B9B003099FDC2998F9922C7
:10243100022B8AE493A3F8E493A34003F68001F20C
:1024410008DFF48029E493A3F85407240CC8C333AC
:10245100C4540F4420C8834004F456800146F6DF7B
:10246100E4800B010204081020408090279DE47E47
:10247100019360BCA3FF543F30E509541FFEE49370
:10248100A360010ECF54C025E060A840B8E493A337
:10249100FAE493A3F8E493A3C8C582C8CAC583CA62
:1024A100F0A3C8C582C8CAC583CADFE9DEE780BE1A
:0127DD0000FB
:100AA200BB010689828A83E0225002E722BBFE0252
:090AB200E32289828A83E4932285
:100ABB00BB010CE58229F582E5833AF583E02250F0
:100ACB0006E92582F8E622BBFE06E92582F8E2223A
:0D0ADB00E58229F582E5833AF583E4932254
:100AE800BB010689828A83F0225002F722BBFE01ED
:020AF800F322E7
:100AFA00F8BB010DE58229F582E5833AF583E8F032
:100B0A00225006E92582C8F622BBFE05E92582C8DD
:020B1A00F222C5
:100B1C00E88FF0A4CC8BF0A42CFCE98EF0A42CFC78
:100B2C008AF0EDA42CFCEA8EF0A4CDA8F08BF0A4F6
:100B3C002DCC3825F0FDE98FF0A42CCD35F0FCEB55
:100B4C008EF0A4FEA9F0EB8FF0A4CFC5F02ECD391A
:0F0B5C00FEE43CFCEAA42DCE35F0FDE43CFC2287
:100B6B0075F008758200EF2FFFEE33FECD33CDCC41
:100B7B0033CCC58233C5829BED9AEC99E5829840C4
:100B8B000CF582EE9BFEED9AFDEC99FC0FD5F0D6A1
:100B9B00E4CEFBE4CDFAE4CCF9A88222B800C1B9CB
:100BAB000059BA002DEC8BF084CFCECDFCE5F0CB09
:100BBB00F97818EF2FFFEE33FEED33FDEC33FCEB42
:100BCB0033FB10D703994004EB99FB0FD8E5E4F9FD
:100BDB00FA227818EF2FFFEE33FEED33FDEC33FCEA
:100BEB00C933C910D7059BE99A4007EC9BFCE99ADE
:100BFB00F90FD8E0E4C9FAE4CCFB2275F010EF2F23
:100C0B00FFEE33FEED33FDCC33CCC833C810D70722
:100C1B009BEC9AE899400AED9BFDEC9AFCE899F85D
:0E0C2B000FD5F0DAE4CDFBE4CCFAE4C8F922F0
:100C3900EB9FF5F0EA9E42F0E99D42F0EC6480C832
:060C490064809845F022D2
:100C4F00E8600FECC313FCED13FDEE13FEEF13FF83
:030C5F00D8F122A7
:100F5A00E5342428F8E60534227825300702782873
:100F6A00E475F001120F24020AA22000EB7F2ED2B0
:100F7A00008018EF540F2490D43440D4FF30040B6F
:100F8A00EF24BFB41A0050032461FFE5356002154F
:100F9A00350538E5387002053730070D7825E475D0
:100FAA00F001120F24EF020AE8022B9B7403D20706
:100FBA008003E4C207F5348B258A268927E4F535B0
:100FCA00F537F538E53560077F20120F9580F575FE
:100FDA0036FFC201C200C202C203C205C206C2086B
:100FEA00120F63FF700D3007057F00120FA6AF388E
:100FFA00AE3722B4255FC2D5C204120F63FF24D0D4
:10100A00B40A00501A75F00A783530D50508B6FFCB
:10101A000106C6A426F620D5047002D20380D9247C
:10102A00CFB41A00EF5004C2E5D2040211A6D201CD
:10103A0080C6D20080C0D20280BCD2D580BAD20586
:10104A0080B47F20120F952002077401B535004045
:10105A00F1120F5AFF120F95020FCED208D2068054
:10106A0095120F5AFB120F5AFA120F5AF94A4B707D
:10107A000679777A127BFF20022EE535602A7E00F8
:10108A008E82758300120ABB60060EEE653670F01A
:10109A00C2D5EBC0E0EAC0E0E9C0E0EE1211EDD043
:1010AA00E0F9D0E0FAD0E0FB120AA2FF60AAEBC096
:1010BA00E0EAC0E0E9C0E0120F95D0E02401F9D0DF
:1010CA00E03400FAD0E0FBE5360460DCD536D9809E
:1010DA00877BFF7A1179E9D202809C7910800279A4
:1010EA0008C206C2088008D2D5790A8004790AC2E1
:1010FA00D5E536047002F536E4FAFDFEFF120F5A02
:10110A00FC7B08200113120F5AFD7B1030000A12D3
:10111A000F5AFE120F5AFF7B20EC3382D592D5501C
:10112A0013C3E43000069FFFE49EFEE42001039D02
:10113A00FDE49CFCE4CBF8C201EC700CCFCECDCC24
:10114A00E824F8F870F38017C3EF33FFEE33FEEDAF
:10115A0033FDEC33FCEB33FB994002FB0FD8E9EB90
:10116A00300105F8D0E0C448B201C0E00AEC4D4EA7
:10117A004F78207B0070C2EAB5360040BCC0E0124E
:10118A0011EFD0F0D0E0200104C4C0E0C4B201C025
:10119A00F0120F7ED0F0D5F0EB020FCE120F341002
:1011AA006B5310E558103C4C10384210E94F10F1BF
:0F11BA004410F14910514310F75510DB4610DB7C
:1011C9004510DB4712975010402D10442E10672B05
:1011D90010482310652012802A1000480000105F73
:1011E9003F3F3F00790AA2D5200314300509B91001
:1011F900020404B9080104A2D52006025001042002
:1012090002689202B535005034C0E07F20300319DE
:101219007F30A20272067205500F121246C202C234
:1012290006C205C2087F30800F300503E9C0E0120D
:101239000F95300503D0E0F9D0E0B535CC3005176E
:101249007F30B9100C120F957F583004077F7880D2
:1012590003B90803120F953002057F2D020F957F00
:10126900202008F87F2B2006F322920280CF286ED7
:10127900756C6C2900D201120F5A3001F8C201783D
:101289003530D50108F60210002D50434958120F88
:101299005A2403B405004001E490129293120F8678
:0D12A900743A120F86D2037535040210E569
:100C6200E3F5F009E208B5F06D606B80F3E3F5F0AF
:100C720009E608B5F060605E80F387F009E608B522
:100C8200F054605280F487F009E208B5F0486046FB
:100C920080F488828C8387F009E0A3B5F03860364F
:100CA20080F488828C8387F009E493A3B5F02760EF
:100CB2002580F388828C83E3F5F009E0A3B5F01672
:100CC200601480F388828C83E3F5F009E493A3B582
:100CD200F004600280F2020D8D808580E7808E80B4
:100CE200D2803C8015806C807E809B80B5808B801A
:100CF200A1804F8070803A020D9989828A83ECFA32
:100D0200E493F5F0A3C8C582C8CCC583CCE493A311
:100D1200C8C582C8CCC583CCB5F070606E80E1894D
:100D2200828A83E493F5F0A3E208B5F05E605C800A
:100D3200F289828A83E0F5F0A3E608B5F04D604BB4
:100D420080F389828A83E0F5F0A3E208B5F03C6083
:100D52003A80F389828A83E493F5F0A3E608B5F03A
:100D62002A602880F2805389828A83ECFAE493F520
:100D7200F0A3C8C582C8CCC583CCE0A3C8C582C8CD
:100D8200CCC583CCB5F004600280E27FFFB5F002EF
:100D92000F2240027F012289828A83ECFAE0F5F079
:100DA200A3C8C582C8CCC583CCE0A3C8C582C8CCC1
:100DB200C583CCB5F0D560D380E389828A83ECFA0F
:100DC200E0F5F0A3C8C582C8CCC583CCE493A3C820
:100DD200C582C8CCC583CCB5F0B160AF80E288F0E3
:100DE200ED2402B4040050A3F582EB2402B4040003
:0B0DF20050992323458223900CDB73F3
:100DFD00E709F60870FA8046E709F20870FA803EB6
:100E0D0088828C83E709F0A370FA807EE309F608E7
:100E1D0070FA8076E309F20870FA806E88828C830E
:100E2D00E309F0A370FA806289828A83E0A3F60851
:100E3D0070FA805689828A83E0A3F20870FA804A9C
:100E4D0080D280FA80C680D4806580F28031801097
:100E5D0080A680EA809A80A880DA80E280CA8031FC
:100E6D0089828A83ECFAE493A3C8C582C8CCC58372
:100E7D00CCF0A3C8C582C8CCC583CC70E9800D89E0
:100E8D00828A83E493A3F60870F9ECFAA9F0EDFBDE
:100E9D002289828A83ECFAE0A3C8C582C8CCC583B7
:100EAD00CCF0A3C8C582C8CCC583CC70EA80DD89DF
:100EBD00828A83E493A3F20870F980CE88F0ED2442
:100ECD0002B4040050C4F582EB2402B4040050BAFD
:090EDD002323458223900E4D737E
:102A5300E94A4B700122120AA2FF6D700122EF7046
:0C2A630004FBFAF92209E970ED0A80EA90
:102188008B258A268927AB25AA26A927120AA2FF0A
:10219800122B12500D74012527F527E43526F52654
:1021A80080E4D200AB25AA26A927120AA2FF642B35
:1021B8006004EFB42D1BAB250527E527AA2670027E
:1021C800052614F9120AA2642D6003D38001C39274
:1021D80000E4F528F529AB25AA26A927120AA2FFAB
:1021E800122B645036AB25AA26A927120AA2FF3360
:1021F80095E0FEEF24D0FBEE34FFFAAE28AF297C41
:10220800007D0A120F12EF2BF529EE3AF52874011A
:102218002527F527E43526F52680BB300006AE28AD
:0E222800AF298009C3E49529FFE49528FE2222
:100EE600EF4E6012EF60010EEDBB010B89828A8323
:100EF600F0A3DFFCDEFA2289F05007F709DFFCA930
:0C0F0600F022BBFEFCF309DFFCA9F02286
:100F1200EF8DF0A4A8F0CF8CF0A428CE8DF0A42EF3
:020F2200FE22AD
:100F2400FAE6FB0808E6F925F0F618E6CA3AF622CE
:100F3400D083D082F8E4937012740193700DA3A34C
:100F440093F8740193F5828883E473740293686060
:060F5400EFA3A3A380DF60
:0F2B6400EFC394304007EF943A50028001C32230
:102B1200EFC394094005EF940E4003BF2003D38016
:032B220001C322CA
:00000001FF
