:03000000020E2AC3
:0C0E2A00787FE4F6D8FD75815B020E7144
:100CE400A2AF9203C2AF75C7AA75C755E4F591A226
:100CF4000392AF43B10153B2FEA2AF9203C2AF75E8
:100D0400C7AA75C755F591A20392AF43B30153B473
:100D1400FEA2AF9203C2AF75C7AA75C755F591A2DB
:100D24000392AF53B3FD43B402A2AF9203C2AF75B3
:100D3400C7AA75C755F591A20392AF53B3FB43B449
:100D440004A2AF9203C2AF75C7AA75C755F591A2A5
:100D54000392AF53B3F753B4F7A2AF9203C2AF7584
:100D6400C7AA75C755F591A20392AF53B3EF53B415
:100D7400EFA2AF9203C2AF75C7AA75C755F591A28A
:0A0D84000392AF53B1BF53B2BF2278
:1013D8004389015389FD438E085389FB5389F722BA
:100003008E0C8F0DE50D450C600DE50D150D700281
:08001300150C12133180ED22DF
:10133100E4F58CF58AD28CAF8CEFFEAD8A7C00E4AB
:101341002DFFEC3EFEC3EF9480EE943E40E9C28C4B
:011351002279
:060736008E0C8F0D8D0EEC
:10073C00E4F50FE50D7807CEC313CE13D8F978077F
:10074C00C333CE33CED8F9F5118E10E4F50FC3E5D3
:10075C000F94807480948050217E00E511250FFF4A
:10076C00EE3510FE12001B7E007400250FF582E49E
:10077C003400F583EFF0050F80D47E00E50D547F37
:10078C002400F582EE3400F583E50EF0E511F5A6B4
:10079C00E510F5A775AEFFA2AF9203C2AF75C7AA5D
:1007AC0075C755439F01A20392AFA2AF9203C2AF8C
:1007BC0075C7AA75C75543A501A20392AF75AF22A1
:1007CC00A2AF9203C2AF75C7AA75C75543A401A2C5
:1007DC000392AFA2AF9203C2AF75C7AA75C75543B8
:1007EC009F01A20392AFA2AF9203C2AF75C7AA75C5
:1007FC00C75543A501A20392AF75AF21E4F50FC312
:10080C00E50F948074809480502FE511250FF5A688
:10081C00E510F5A77400250FF582E43400F583E0AC
:10082C00F5AEA2AF9203C2AF75C7AA75C75543A464
:10083C0001A20392AF050F80C6A2AF9203C2AF759F
:10084C00C7AA75C75553A5FEA20392AFA2AF9203D8
:0F085C00C2AF75C7AA75C755539FFEA20392AFCF
:01086B00226A
:04001B008F828E83BF
:03001F00E493FF68
:0100220022BB
:0A0EB6008E218F228B238A248925C8
:100EC000E5227807CEC313CE13D8F9FDE5222527F6
:100ED000FFE5213526FEEF7807CEC313CE13D8F9F0
:100EE000F528ED65286043AB23AA24A925752E803B
:100EF000AF22AE2112027EAC07EC2522F522E435AA
:100F000021F521EC2525F525E43524F524ECC3E570
:100F1000279FF527E5269400F526AE21E5227807E0
:100F2000CEC313CE13D8F9FD80B8E527452660104F
:100F3000AB23AA24A92585272EAF22AE2112027E3B
:010F4000228E
:0A1244008E318F328B338A348935E6
:10124E00E4FFFEC3EF9537EE95365021E5322FFDC4
:10125E00E5313E8D82F583E493AB33AA34A9358F05
:0D126E00828E831206330FBF00010E80D662
:01127B002250
:0A027E008E298F2A8B2B8A2C892DE4
:10028800A2AF9203C2AF75C7AA75C755439F01A213
:100298000392AFA2AF9203C2AF75C7AA75C7554301
:1002A800A501A20392AFE52A547FF530C374809567
:1002B80030F52FE52ED3952F4003852F2EAD2AAC90
:1002C80029E4F52FE52FC3952E5012ED252FF58241
:1002D800E43CF583E493F47004052F80E7E52F658B
:1002E8002E707875AF21852AA6E529F5A7E4F52FA4
:1002F800E52FC3952E502AAB2BAA2CA92D852F822A
:100308007583001205F4F5AEA2AF9203C2AF75C7AC
:10031800AA75C75543A401A20392AF05A6052F806D
:10032800CFE4F52FE52FC3952E5022AB2BAA2CA98D
:100338002D852F827583001205F4FFED252FF58298
:10034800E43CF583E493B50704052F80D7E52F65D2
:100358002E70030204588003020458E52A5480AC26
:1003680029FDE4F52FC3E52F948074809480501DF7
:10037800ED252FF582E43CF583E493FF7480252F67
:10038800F582E43400F583EFF0052F80D8E4F52FEB
:10039800E52FC3952E5023AB2BAA2CA92D852F8290
:1003A8007583001205F4FFE530252F2480F582E4DB
:1003B8003400F583EFF0052F80D6E52A5480F5A6A2
:1003C800E529F5A775AF2275AEFFA2AF9203C2AFBC
:1003D80075C7AA75C75543A401A20392AF75AF218B
:1003E800E4F52FC3E52F948074809480502774809F
:1003F800252FF582E43400F583E0F5AEA2AF920331
:10040800C2AF75C7AA75C75543A401A20392AF0529
:10041800A6052F80CEE4F52FAF2F7E00C3EF948082
:10042800748094805021ED252FF582E43CF583E417
:1004380093FB7480252FF582E43400F583E0FAEB12
:10044800B50204052F80D1EF64804E60030203C219
:10045800A2AF9203C2AF75C7AA75C755539FFEA234
:050468000392AFAF2E6E
:01046D00226C
:100C3600A2AF9203C2AF75C7AA75C755439F01A25B
:100C46000392AF75A604E4F5A775AE0F75AFE1A2E2
:100C5600AF9203C2AF75C7AA75C75543A504A203D1
:100C660092AFA2AF9203C2AF75C7AA75C75543A488
:100C760001A20392AFE59F5440644060F8A2AF9290
:100C860003C2AF75C7AA75C75553A5FBA20392AF9A
:100C9600A2AF9203C2AF75C7AA75C755539FFEA2EE
:100CA6000392AF75C7AA75C75575AA07A2AF920377
:100CB600C2AF75C7AA75C75543AA40A20392AFAF84
:100CC600AAEF44BF74FF60F7D2AFA2AF9203C2AFE0
:0E0CD60075C7AA75C75543AA80A20392AF2224
:0413FE00C100C10168
:0300230002139431
:10139400C091309807D201859959C2983099052097
:0713A4000002C299D0913252
:03007B000213ABC2
:1013AB00C09130F807859A5AD202C2F830F905205D
:0713BB000002C2F9D09132DB
:10046E008F0B8E0A8D098C08E50C146052147003E4
:10047E00020560240260030205DA75985043892054
:10048E00438780438E10A2AF9203C2AF75C7AA7581
:10049E00C755E4F591A20392AF53C4DF7B10FAF96E
:1004AE00F8AF0BAE0AAD09AC08120691AB10AA0F4D
:1004BE00A90EA80D120691EFF404F58DD28E2275B9
:1004CE00985043878053C4F8A2AF9203C2AF75C74A
:1004DE00AA75C755E4F591A20392AF43C4207B10D1
:1004EE00FAF9F8AF0BAE0AAD09AC08120691AB10D3
:1004FE00AA0FA90EA80D120691C3E49FFFE49EFE5B
:10050E0074019DFDE49CFC78081207238FC6E47BE2
:10051E0010FAF9F8AF0BAE0AAD09AC08120691ABA2
:10052E0010AA0FA90EA80D120691C3E49FFFE49E18
:10053E00FE74019DFDE49CFCEFE48FC5A2AF920317
:10054E00C2AF75C7AA75C755F591A20392AF43C442
:10055E00082275F85075C480E47B10FAF9F8AF0BD9
:10056E00AE0AAD09AC08120691AB10AA0FA90EA8DF
:10057E000D120691C3E49FFFE49EFE74019DFDE4FF
:10058E009CFC78081207238FC6E47B10FAF9F8AFAB
:10059E000BAE0AAD09AC08120691AB10AA0FA90E4C
:1005AE00A80D120691C3E49FFFE49EFE74019DFD0B
:1005BE00E49CFCEFE48FC5A2AF9203C2AF75C7AA4D
:0D05CE0075C755F591A20392AF43C40822F2
:0D13E800EF1460060470058D99228D9A2285
:10127C00A2AF9203C2AF75C7AA75C755E4F591A288
:10128C000392AF53B1BF53B2BFF50CF510750FC23B
:10129C00750E01F50DFF7E367D6E7C0112046ED24B
:0412AC0099D20022B1
:1013C20075BE2753B3F753B4F753B3EF53B4EFD209
:0613D20093D294D2C62262
:08086C008F0E8B0F8A10891119
:10087400AFBDEF64F860037F0022C2C4D2C5C2C317
:10088400751400751501E4F51620C315E515451416
:100894007005751601800A0515E5157002051480AA
:1008A400E8E51660061212B07F0022AFBDEF6408BF
:1008B40060061212B07F0022C2C5C2C475BCD0C289
:1008C400C3751400751501E4F51620C315E5154527
:1008D400147005751601800A0515E51570020514D6
:1008E40080E8E51660061212B07F0022AFBDEF6407
:1008F4001860061212B07F0022C2C5C2C4850EBCA5
:10090400C2C3751400751501E4F51620C315E51569
:1009140045147005751601800A0515E51570020564
:100924001480E8E51660061212B07F0022AFBDEF16
:10093400642860061212B07F0022E4F513E513C3A5
:100944009512504FAB0FAA10A9118513827583001D
:100954001205F4F5BCC2C3751400751501E4F5164F
:1009640020C315E51545147005751601800A051593
:10097400E5157002051480E8E51660061212B07FD2
:100984000022AFBDEF642860061212B07F0022057A
:060994001380AA1212B04C
:01099A00223A
:08007E008F178B188A19891AEB
:10008600AFBDEF64F860037F0022C2C4D2C5C2C30D
:10009600751D00751E01E4F51F20C315E51E451DDF
:1000A6007005751F01800A051EE51E7002051D807C
:1000B600E8E51F60061212B07F0022AFBDEF6408AC
:1000C60060061212B07F0022C2C5C2C475BCD0C27F
:1000D600C3751D00751E01E4F51F20C315E51E45F9
:1000E6001D7005751F01800A051EE51E7002051D9F
:1000F60080E8E51F60061212B07F0022AFBDEF64F4
:100106001860061212B07F0022C2C5C2C48517BC91
:10011600C2C3751D00751E01E4F51F20C315E51E3B
:10012600451D7005751F01800A051EE51E70020536
:100136001D80E8E51F60061212B07F0022AFBDEFFA
:10014600642860061212B07F0022C2C4D2C5C2C3A0
:10015600751D00751E01E4F51F20C315E51E451D1E
:100166007005751F01800A051EE51E7002051D80BB
:10017600E8E51F60061212B07F0022AFBDEF6410E3
:1001860060061212B07F0022C2C5C2C475BCD1C2BD
:10019600C3751D00751E01E4F51F20C315E51E4538
:1001A6001D7005751F01800A051EE51E7002051DDE
:1001B60080E8E51F60061212B07F0022AFBDEF6433
:1001C6004060061212B07F0022E4F51CE51B14FF06
:1001D600E51CC39F5051D2C2C2C3751D00751E01D6
:1001E600E4F51F20C315E51E451D7005751F01802A
:1001F6000A051EE51E7002051D80E8E51F60061251
:1002060012B07F0022AFBDEF645060061212B07FBD
:100216000022AB18AA19A91A851C82758300E5BCB1
:10022600120633051C80A5C2C2C2C3751D00751E09
:1002360001E4F51F20C315E51E451D7005751F0158
:10024600800A051EE51E7002051D80E8E51F600692
:100256001212B07F0022AFBDEF645860061212B0D2
:100266007F0022AB18AA19A91A851C82758300E59E
:07027600BC1206331212B0A6
:01027D00225E
:100A9600AFBDEF64F860037F0022C2C4D2C5C2C3F3
:100AA600755300755401E4F55520C315E5544553B7
:100AB6007005755501800A0554E55470020553808A
:100AC600E8E55560061212B07F0022AFBDEF64085C
:100AD60060061212B07F0022C2C5C2C475BCD1C264
:100AE600C3755300755401E4F55520C315E5544507
:100AF600537005755501800A0554E5547002055377
:100B060080E8E55560061212B07F0022AFBDEF64A3
:100B16004060061212B07F0022C2C2C2C3755300E3
:100B2600755401E4F55520C315E554455370057514
:100B36005501800A0554E5547002055380E8E555D1
:100B460060061212B07F0022AFBDEF645860061235
:0F0B560012B07F0022AFBC7553008F541212B043
:010B6500226D
:1012B000C2C5D2C4C2C37F017E00E4FDACBDEC64F4
:1012C000F8600FEF4E70047D0180070FBF00010E24
:0B12D00080EAED70047F0180027F00C7
:0112DB0022F0
:10135200AE07EFC3940A748094804012EF75F00ACE
:1013620084FEEF75F00A84EEC454F045F0FEAF0639
:011372002258
:0E006C00EEC4540F75F00AA4FEEF540F2EFFE1
:01007A002263
:060F41008B088A09890AF1
:100F47001205DBFF1213528F0D530D7F7B007A00C2
:100F5700790D751201E4FF12086CAB08AA09A90AFA
:100F67009000011205F4FF1213528F0C7B007A00D8
:100F7700790C7512017F0112086CAB08AA09A90A3E
:100F87009000021205F4FF1213528F0BAB08AA0947
:100F9700A90A9000031205F4FF7E0064027005534E
:100FA7000BBF8011430BBFEF64024E7005430B204C
:100FB7008003530BDF7B007A00790B7512017F02E8
:030FC70012086CA1
:010FCA002204
:06104F008B388A39893A52
:101055001205DBFF1213528F3B7B007A00793B753B
:1010650012017F0312086CAB38AA39A93A90000126
:101075001205F4FF1213528F3C7B007A00793C7500
:1010850012017F0412086CAB38AA39A93A90000204
:101095001205F4FF1213528F3D7B007A00793D75DE
:1010A50012017F0512086CAB38AA39A93A900003E2
:1010B5001205F4FF1213528F3E7B007A00793E75BC
:0710C50012017F0612086C06
:0110CC002201
:060D8E008B4D8A4E894FD7
:100D94007B007A007952751B01E4FF12007E5352E6
:100DA4007FAF5212006CAB4DAA4EA94FEF12062131
:100DB4007B007A007951751B017F0112007EAF51CF
:100DC40012006CAB4DAA4EA94F900001EF120633EE
:100DD4007B007A007950751B017F0212007EE5507A
:100DE40030E62254207003D38001C340047F018085
:100DF400027F00AB4DAA4EA94F900003EF120633B9
:100E040053509F800EAB4DAA4EA94F90000374021D
:100E1400120633AF5012006CAB4DAA4EA94F90008E
:050E240002EF1206338D
:010E290022A6
:060FCB008B3F8A408941C2
:100FD1007B007A007942751B017F0312007EAF42CC
:100FE10012006CAB3FAA40A941EF120621AF431298
:100FF100006CAB3FAA40A941900001EF1206337B80
:10100100007A007943751B017F0412007EAF441200
:10101100006CAB3FAA40A941900002EF1206337B5E
:10102100007A007944751B017F0512007EAF4512DD
:10103100006CAB3FAA40A941900003EF1206337B3D
:0D104100007A007945751B017F0612007EC4
:01104E00227F
:10114A008F468D478B487B007A007948751201E4F7
:10115A00FF12086C7B007A0079477512017F011231
:10116A00086C7B007A0079467512017F0212086CBE
:10117A007B007A0079497512017F0312086C7B00A3
:10118A007A00794A7512017F0412086C7B007A0092
:10119A00794B7512017F0512086C7B007A00794C35
:0911AA007512017F0612086C2287
:0913F50012002612140E80FB22E6
:03140200015B018A
:100026007F0612099B120CE41213731213D81213D3
:10003600C290010E7402F0E4A3F0A3F0A3F09001C5
:1000460014F0900113F0900112F09001157402F073
:100056007B017A017912120F417B017A01790E1226
:060066000F411212DC2222
:07140E00120B6612141522F7
:10137300750C01E4751080750F25F50EF50DFF7ED4
:10138300367D6E7C0112046ED299D200D2ACD2AFFC
:011393002237
:100B6600E4F508F509E55B6401705630904AD292C7
:100B76007F0AFE120003309048E509B4B829E5085B
:100B8600B40B24C291D292755B027F087E301200AC
:100B96001B750A008F0BE50B6402450A6009AD5B05
:100BA6007F087E301207367F017E0012000305099A
:100BB600E5097002050880BE308003D38001C39228
:100BC60092E55B64027068309063D2917F0AFE12F0
:100BD6000003E4F508F509309055E50964B870049A
:100BE600E508640B7036C292D2917F2C7E0112000A
:100BF60003C2917F2C7E01120003D291755B017FA7
:100C0600087E3012001B750A008F0BE50B64014548
:100C16000A6009AD5B7F087E301207367F017E00D1
:0F0C26001200030509E5097002050880AAC291B2
:010C3500229C
:1012DC007F087E3012001BEFF460028F5BAF5B7EE9
:1012EC0000EF64017005D291C29222EF64024E703D
:0A12FC0005C291D29222D291C29253
:0113060022C4
:0114150022B4
:02099B00A907AA
:10099D00E4F591E924F9600C14600E2402700D75D4
:1009AD00A638800875A630800375A630A2AF9203D5
:1009BD00C2AF75C7AA75C755439F01A20392AFE495
:1009CD00F5A775AF04A2AF9203C2AF75C7AA75C7DD
:1009DD005543A401A20392AFADAE05A6A2AF9203FB
:1009ED00C2AF75C7AA75C75543A401A20392AFAC98
:1009FD00AEE924F8706FED25E0FFE433FEEC540111
:100A0D007A002FFFEA3EFE74F22FFF74FF3EFE7553
:100A1D00AF0C75A601E4F5A7A2AF9203C2AF75C7DF
:100A2D00AA75C75543A401A20392AFABAEEB644BBD
:100A3D00600EABAEEB64526007ABAEEB6453701B54
:100A4D00ED543FC3940774809480500A74F62FFFC1
:100A5D0074FF3EFE8005EF1F70011EEF5401FCEE8A
:100A6D00C313EF13FD75C7AA75C7558D8475C7AA36
:100A7D0075C7558C85A2AF9203C2AF75C7AA75C74E
:080A8D0055539FFEA20392AF36
:010A9500223E
:1011B300EF24FD60121460282402704B7F02121288
:1011C3000B7F021210CD227F031210CDA2AF920328
:1011D300C2AF75C7AA75C7555397DFA20392AF2253
:1011E3007F0212120B7F021210CD7F0412120B7FAB
:1011F300041210CDA2AF9203C2AF75C7AA75C7552B
:081203005397DFA20392AF2212
:10120B00EF24FC60222402702FA2AF9203C2AF75B1
:10121B00C7AA75C755439720A20392AFE59644DF43
:10122B0064DF701480F62275C7AA75C7554397C043
:09123B00E59644F764F760F8221F
:10130700E4F591EF24FC60182402701DA2AF92034C
:10131700C2AF75C7AA75C7555397DFA20392AF220D
:0A13270075C7AA75C75553973F22FA
:1010CD00E4F591A2AF9203C2AFEF24FD602F14603F
:1010DD005424027063A2AF9203C2AF75C7AA75C73D
:1010ED00555396FBA20392AFA2AF9203C2AF75C741
:1010FD00AA75C7555396FDA20392AF803BA2AF923E
:10110D0003C2AF75C7AA75C755439604A20392AF24
:10111D00A2AF9203C2AF75C7AA75C7555396FDA26C
:10112D000392AF8013A2AF9203C2AF75C7AA75C762
:0D113D0055439608A20392AFA20392AF2281
:081406003099FDC2998F992273
:100E36000213F5E493A3F8E493A34003F68001F2CA
:100E460008DFF48029E493A3F85407240CC8C333BD
:100E5600C4540F4420C8834004F456800146F6DF8C
:100E6600E4800B01020408102040809013FEE47E0B
:100E7600019360BCA3FF543F30E509541FFEE49381
:100E8600A360010ECF54C025E060A840B8E493A348
:100E9600FAE493A3F8E493A3C8C582C8CAC583CA73
:100EA600F0A3C8C582C8CAC583CADFE9DEE780BE2B
:0114050000E6
:1005DB00BB010689828A83E0225002E722BBFE021E
:0905EB00E32289828A83E4932251
:1005F400BB010CE58229F582E5833AF583E02250BC
:1006040006E92582F8E622BBFE06E92582F8E22205
:0D061400E58229F582E5833AF583E493221F
:10062100BB010689828A83F0225002F722BBFE01B8
:02063100F322B2
:10063300F8BB010DE58229F582E5833AF583E8F0FD
:10064300225006E92582C8F622BBFE05E92582C8A9
:02065300F22291
:1006550075F008758200EF2FFFEE33FECD33CDCC5C
:1006650033CCC58233C5829BED9AEC99E5829840DF
:100675000CF582EE9BFEED9AFDEC99FC0FD5F0D6BC
:10068500E4CEFBE4CDFAE4CCF9A88222B800C1B9E6
:100695000059BA002DEC8BF084CFCECDFCE5F0CB24
:1006A500F97818EF2FFFEE33FEED33FDEC33FCEB5D
:1006B50033FB10D703994004EB99FB0FD8E5E4F918
:1006C500FA227818EF2FFFEE33FEED33FDEC33FC05
:1006D500C933C910D7059BE99A4007EC9BFCE99AF9
:1006E500F90FD8E0E4C9FAE4CCFB2275F010EF2F3E
:1006F500FFEE33FEED33FDCC33CCC833C810D7073E
:100705009BEC9AE899400AED9BFDEC9AFCE899F878
:0E0715000FD5F0DAE4CDFBE4CCFAE4C8F9220B
:10072300E8600FECC313FCED13FDEE13FEEF13FFB4
:03073300D8F122D8
:00000001FF
