:03000000021F5488
:0C1F5400787FE4F6D8FD758158021F9BD1
:101D7700A2AF920CC2AF75C7AA75C755E4F591A279
:101D87000C92AF43B10153B2FEA2AF920CC2AF7532
:101D9700C7AA75C755F591A20C92AF43B30153B4C7
:101DA700FEA2AF920CC2AF75C7AA75C755F591A22F
:101DB7000C92AF53B3FD43B402A2AF920CC2AF75FE
:101DC700C7AA75C755F591A20C92AF53B3FB43B49D
:101DD70004A2AF920CC2AF75C7AA75C755F591A2F9
:101DE7000C92AF53B3F753B4F7A2AF920CC2AF75CF
:101DF700C7AA75C755F591A20C92AF53B3EF53B469
:101E0700EFA2AF920CC2AF75C7AA75C755F591A2DD
:0A1E17000C92AF53B1BF53B2BF22CB
:10266E004389015389FD438E085389FB5389F72211
:100003008E268F27E5274526600DE52715277002E5
:08001300152612252F80ED22B5
:10252F00E4F58CF58AD28CAF8CEFFEAD8A7C00E49B
:10253F002DFFEC3EFEC3EF9480EE943E40E9C28C3B
:01254F002269
:061607008E268F278D28BE
:10160D00E4F529E5277807CEC313CE13D8F978076B
:10161D00C333CE33CED8F9F52B8E2AE4F529C3E5A5
:10162D002994807480948050217E00E52B2529FF1C
:10163D00EE352AFE1226BC7E0074002529F582E4C3
:10164D003400F583EFF0052980D47E00E527547F23
:10165D002400F582EE3400F583E528F0E52BF5A6A0
:10166D00E52AF5A775AEFFA2AF920CC2AF75C7AA5A
:10167D0075C755439F01A20C92AFA2AF920CC2AF9A
:10168D0075C7AA75C75543A501A20C92AF75AF22B8
:10169D00A2AF920CC2AF75C7AA75C75543A401A2DC
:1016AD000C92AFA2AF920CC2AF75C7AA75C75543C6
:1016BD009F01A20C92AFA2AF920CC2AF75C7AA75D3
:1016CD00C75543A501A20C92AF75AF21E4F529C30F
:1016DD00E529948074809480502FE52B2529F5A65B
:1016ED00E52AF5A774002529F582E43400F583E099
:1016FD00F5AEA2AF920CC2AF75C7AA75C75543A47C
:10170D0001A20C92AF052980C6A2AF920CC2AF7593
:10171D00C7AA75C75553A5FEA20C92AFA2AF920CE6
:0F172D00C2AF75C7AA75C755539FFEA20C92AFE6
:01173C00228A
:0426BC008F828E83F8
:0326C000E493FFA1
:0126C30022F4
:0A1FE0008E088F098B0A8A0B890C0A
:101FEA00E5097807CEC313CE13D8F9FDE509250E06
:101FFA00FFE508350DFEEF7807CEC313CE13D8F9E7
:10200A00F50FED650F6043AB0AAA0BA90C75158095
:10201A00AF09AE081210C7AC07EC2509F509E4357B
:10202A0008F508EC250CF50CE4350BF50BECC3E5CB
:10203A000E9FF50EE50D9400F50DAE08E50978073B
:10204A00CEC313CE13D8F9FD80B8E50E450D601046
:10205A00AB0AAA0BA90C850E15AF09AE081210C758
:01206A002253
:0A2380008E188F198B1A8A1B891C16
:10238A00E4FFFEC3EF951EEE951D5021E5192FFDC2
:10239A00E5183E8D82F583E493AB1AAA1BA91C8F1C
:0D23AA00828E831207700FBF00010E80D6D7
:0123B7002203
:0A10C7008E108F118B128A1389140A
:1010D100A2AF920CC2AF75C7AA75C755439F01A2B3
:1010E1000C92AFA2AF920CC2AF75C7AA75C7554398
:1010F100A501A20C92AFE511547FF517C374809539
:1011010017F516E515D395164003851615AD11ACE7
:1011110010E4F516E516C395155012ED2516F58266
:10112100E43CF583E493F47004051680E7E5166565
:1011310015707875AF218511A6E510F5A7E4F516B0
:10114100E516C39515502AAB12AA13A91485168268
:10115100758300120731F5AEA2AF920CC2AF75C70D
:10116100AA75C75543A401A20C92AF05A605168026
:10117100CFE4F516E516C395155022AB12AA13A9B3
:1011810014851682758300120731FFED2516F5824D
:10119100E43CF583E493B50704051680D7E51665AD
:1011A1001570030212A180030212A1E5115480AC53
:1011B10010FDE4F516C3E516948074809480501DEB
:1011C100ED2516F582E43CF583E493FF7480251642
:1011D100F582E43400F583EFF0051680D8E4F516C6
:1011E100E516C395155023AB12AA13A914851682CF
:1011F100758300120731FFE51725162480F582E477
:101201003400F583EFF0051680D6E5115480F5A67C
:10121100E510F5A775AF2275AEFFA2AF920CC2AF74
:1012210075C7AA75C75543A401A20C92AF75AF212A
:10123100E4F516C3E5169480748094805027748079
:101241002516F582E43400F583E0F5AEA2AF920CE9
:10125100C2AF75C7AA75C75543A401A20C92AF05C9
:10126100A6051680CEE4F516AF167E00C3EF948076
:10127100748094805021ED2516F582E43CF583E4D9
:1012810093FB74802516F582E43400F583E0FAEBD4
:10129100B50204051680D1EF64804E600302120B83
:1012A100A2AF920CC2AF75C7AA75C755539FFEA2D4
:0512B1000C92AFAF1527
:0112B6002215
:101C1B00A2AF920CC2AF75C7AA75C755439F01A25D
:101C2B000C92AF75A604E4F5A775AE0F75AFE1A2E4
:101C3B00AF920CC2AF75C7AA75C75543A504A20CCA
:101C4B0092AFA2AF920CC2AF75C7AA75C75543A48A
:101C5B0001A20C92AFE59F5440644060F8A2AF9292
:101C6B000CC2AF75C7AA75C75553A5FBA20C92AF93
:101C7B00A2AF920CC2AF75C7AA75C755539FFEA2F0
:101C8B000C92AF75C7AA75C75575AA07A2AF920C70
:101C9B00C2AF75C7AA75C75543AA40A20C92AFAF86
:101CAB00AAEF44BF74FF60F7D2AFA2AF920CC2AFE2
:0E1CBB0075C7AA75C75543AA80A20C92AF2226
:0C255000C109C10A02490000024B000052
:1025F700E54A2480FFE43549FEC3EF954CFFEE958D
:062607004BEF547FFF229F
:10006100E54A2401FFE43549FEEFB54C08EEB54BF6
:08007100047F0180027F0022E0
:1025C900E4F549F54AF54BF54CFE7F80FD7B017A30
:0725D900017900120B092239
:1024E900EFF5827583007E00FDC3E54A9DFDE54950
:1024F9009400FC74002DF974013CFA7B017D0012F3
:032509000B092299
:10264C00E54AB54C09E549B54B047F0180027F0092
:01265C00225B
:10265D00AE49AF4A74FF2FF58274003EF583E0FF5B
:01266D00224A
:1024C400AD07120061EF701C054AE54AAE4970027F
:1024D4000549142400F58274013EF583EDF0534A56
:0524E4007F7549002294
:10249E0012264CEF60037F0022054CE54CAE4B70CC
:1024AE0002054B142400F58274013EF583E0FF53C0
:0524BE004C7F754B008E
:0124C30022F6
:03002300020026B2
:10002600C0E0C083C082C0D075D000C005C006C085
:1000360007C09130980CD20A859947AF471224C45D
:10004600C298309905200902C299D091D007D006EE
:0B005600D005D0D0D082D083D0E032A3
:03007B000225E07B
:1025E000C09130F807859A48D20BC2F830F905201F
:0725F0000902C2F9D091328B
:10149A008F258E248D238C22E52614605214700326
:1014AA0002158C240260030216067598504389209F
:1014BA00438780438E10A2AF920CC2AF75C7AA753C
:1014CA00C755E4F591A20C92AF53C4DF7B10FAF929
:1014DA00F8AF25AE24AD23AC221207E0AB2AAA2925
:1014EA00A928A8271207E0EFF404F58DD28E2275F9
:1014FA00985043878053C4F8A2AF920CC2AF75C705
:10150A00AA75C755E4F591A20C92AF43C4207B108B
:10151A00FAF9F8AF25AE24AD23AC221207E0AB2AC4
:10152A00AA29A928A8271207E0C3E49FFFE49EFE80
:10153A0074019DFDE49CFC78081208728FC6E47B56
:10154A0010FAF9F8AF25AE24AD23AC221207E0ABAE
:10155A002AAA29A928A8271207E0C3E49FFFE49E24
:10156A00FE74019DFDE49CFCEFE48FC5A2AF920CD2
:10157A00C2AF75C7AA75C755F591A20C92AF43C4FD
:10158A00082275F85075C480E47B10FAF9F8AF2583
:10159A00AE24AD23AC221207E0AB2AAA29A928A8B7
:1015AA00271207E0C3E49FFFE49EFE74019DFDE459
:1015BA009CFC78081208728FC6E47B10FAF9F8AF1F
:1015CA0025AE24AD23AC221207E0AB2AAA29A9280A
:1015DA00A8271207E0C3E49FFFE49EFE74019DFD65
:1015EA00E49CFCEFE48FC5A2AF920CC2AF75C7AA08
:0D15FA0075C755F591A20C92AF43C40822AD
:0D269C00EF1460060470058D99228D9A22BE
:1023B800A2AF920CC2AF75C7AA75C755E4F591A232
:1023C8000C92AF53B1BF53B2BFF526F52A7529C297
:1023D800752801F527FF7E367D6E7C0112149AD28E
:0423E80099D209225B
:10260D0075BE2753B3F753B4F753B3EF53B4EFD2AB
:06261D0093D294D2C62204
:08173D008F288B298A2A892BD1
:10174500AFBDEF64F860037F0022C2C4D2C5C2C337
:10175500752E00752F01E4F53020C315E52F452EB4
:101765007005753001800A052FE52F7002052E8062
:10177500E8E530600612241D7F0022AFBDEF640846
:10178500600612241D7F0022C2C5C2C475BCD0C22A
:10179500C3752E00752F01E4F53020C315E52F45DF
:1017A5002E7005753001800A052FE52F7002052E74
:1017B50080E8E530600612241D7F0022AFBDEF648E
:1017C50018600612241D7F0022C2C5C2C48528BC2C
:1017D500C2C3752E00752F01E4F53020C315E52F22
:1017E500452E7005753001800A052FE52F7002051D
:1017F5002E80E8E530600612241D7F0022AFBDEF84
:101805006428600612241D7F0022E4F52DE52DC312
:10181500952C504FAB29AA2AA92B852D82758300BB
:10182500120731F5BCC2C3752E00752F01E4F530E2
:1018350020C315E52F452E7005753001800A052F4B
:10184500E52F7002052E80E8E530600612241D7F25
:101855000022AFBDEF6428600612241D7F0022051B
:061865002D80AA12241DD3
:01186B00225A
:080EC7008F298B2A8A2B892C4C
:100ECF00AFBDEF64F860037F0022C2C4D2C5C2C3B6
:100EDF00752F00753001E4F53120C315E530452F2E
:100EEF007005753101800A0530E5307002052F80DD
:100EFF00E8E531600612241D7F0022AFBDEF6408C4
:100F0F00600612241D7F0022C2C5C2C475BCD0C2A8
:100F1F00C3752F00753001E4F53120C315E5304559
:100F2F002F7005753101800A0530E5307002052FED
:100F3F0080E8E531600612241D7F0022AFBDEF640B
:100F4F0018600612241D7F0022C2C5C2C48529BCA9
:100F5F00C2C3752F00753001E4F53120C315E5309C
:100F6F00452F7005753101800A0530E53070020597
:100F7F002F80E8E531600612241D7F0022AFBDEF00
:100F8F006428600612241D7F0022C2C4D2C5C2C3CA
:100F9F00752F00753001E4F53120C315E530452F6D
:100FAF007005753101800A0530E5307002052F801C
:100FBF00E8E531600612241D7F0022AFBDEF6410FB
:100FCF00600612241D7F0022C2C5C2C475BCD1C2E7
:100FDF00C3752F00753001E4F53120C315E5304599
:100FEF002F7005753101800A0530E5307002052F2D
:100FFF0080E8E531600612241D7F0022AFBDEF644B
:10100F0040600612241D7F0022E4F52EE52D14FF0B
:10101F00E52EC39F5051D2C2C2C3752F0075300148
:10102F00E4F53120C315E530452F7005753101808A
:10103F000A0530E5307002052F80E8E531600612B1
:10104F00241D7F0022AFBDEF6450600612241D7F68
:10105F000022AB2AAA2BA92C852E82758300E5BC12
:10106F00120770052E80A5C2C2C2C3752F0075303E
:10107F0001E4F53120C315E530452F7005753101B9
:10108F00800A0530E5307002052F80E8E5316006F3
:10109F0012241D7F0022AFBDEF6458600612241D7D
:1010AF007F0022AB2AAA2BA92C852E82758300E5FF
:0710BF00BC12077012241D92
:0110C6002207
:101B4B00AFBDEF64F860037F0022C2C4D2C5C2C32D
:101B5B00755300755401E4F55520C315E5544553F1
:101B6B007005755501800A0554E5547002055380C4
:101B7B00E8E555600612241D7F0022AFBDEF640817
:101B8B00600612241D7F0022C2C5C2C475BCD1C21F
:101B9B00C3755300755401E4F55520C315E5544541
:101BAB00537005755501800A0554E55470020553B1
:101BBB0080E8E555600612241D7F0022AFBDEF645F
:101BCB0040600612241D7F0022C2C2C2C37553009F
:101BDB00755401E4F55520C315E55445537005754F
:101BEB005501800A0554E5547002055380E8E5550C
:101BFB00600612241D7F0022AFBDEF6458600612F1
:0F1C0B00241D7F0022AFBC7553008F5412241D7F
:011C1A0022A7
:10241D00C2C5D2C4C2C37F017E00E4FDACBDEC6475
:10242D00F8600FEF4E70047D0180070FBF00010EA5
:0B243D0080EAED70047F0180027F0048
:012448002271
:10257100AE07EFC3940A748094804012EF75F00A9D
:1025810084FEEF75F00A84EEC454F045F0FEAF0608
:012591002227
:0E267E00EFC4540F75F00AA4FEEF540F2EFFA8
:01268C00222B
:06206B008B228A23892468
:10207100120718FF1225718F2753277F7B007A00E3
:102081007927752C01E4FF12173DAB22AA23A9245D
:10209100900001120731FF1225718F267B007A0013
:1020A1007926752C017F0112173DAB22AA23A924A1
:1020B100900002120731FF1225718F25AB22AA234E
:1020C100A924900003120731FF7E006402700553BA
:1020D10025BF80114325BFEF64014E7005432520C4
:1020E10080035325DF7B007A007925752C017F025F
:0320F10012173D86
:0120F40022C9
:062179008B408A418942FF
:10217F00120718FF1225718F437B007A0079437580
:10218F002C017F0312173DAB40AA41A942900001D9
:10219F00120731FF1225718F447B007A0079447545
:1021AF002C017F0412173DAB40AA41A942900002B7
:1021BF00120731FF1225718F457B007A0079457523
:1021CF002C017F0512173DAB40AA41A94290000395
:1021DF00120731FF1225718F467B007A0079467501
:0721EF002C017F0612173DD1
:0121F60022C6
:061E21008B228A238924B4
:101E27007B007A007927752D01E4FF120EC753272F
:101E37007FAF2712267EAB22AA23A924EF12075EC3
:101E47007B007A007926752D017F01120EC7AF2618
:101E570012267EAB22AA23A924900001EF12077055
:101E67007B007A007925752D017F02120EC7E525C3
:101E770030E62254207003D38001C340047F0180E1
:101E8700027F00AB22AA23A924900003EF12077058
:101E970053259F800EAB22AA23A924900003740226
:101EA700120770AF2512267EAB22AA23A924900021
:051EB70002EF120770AC
:011EBC002203
:0620F5008B228A238924DE
:1020FB007B007A007925752D017F03120EC7AF2562
:10210B0012267EAB22AA23A924EF12075E7B007A4C
:10211B00007926752D017F04120EC7AF2612267E7D
:10212B00AB22AA23A924900001EF1207707B007A3F
:10213B00007927752D017F05120EC7AF2712267E5A
:10214B00AB22AA23A924900002EF1207707B007A1E
:10215B00007928752D017F06120EC7AF2812267E37
:0D216B00AB22AA23A924900003EF120770F5
:012178002244
:1026230053890F438910438E10758DC4758B17D250
:06263300ABD2AFD28E22F3
:0926B3001225AE1226A980FB22BB
:101EBD002443000A4F4B0A00245300244500534588
:101ECD00542054494D4552204552524F520A00312B
:101EDD000A000A204A756D7020696E746F20616367
:101EED0074697665206D6F646520310A00320A00D1
:101EFD000A204A756D7020696E746F206163746974
:101F0D007665206D6F646520320A0031320A000A51
:101F1D00204A756D70206F757420616374697665E4
:101F2D00206D6F646520310A0032310A000A204AA3
:101F3D00756D70206F757420616374697665206DA1
:071F4D006F646520320A00F9
:10255C0002500000015200014E01014D01014F01DA
:04256C0041018200A7
:1025AE007F07121978121D7712250C12266E12262D
:0B25BE000D1224491222741226232261
:0A26A900121A731212B712007E22FB
:10250C00752601E4752A80752925F528F527FF7EA7
:10251C00247DF4FC12149AD299D209D2ACD2AF1207
:03252C0025C9229C
:101A7300E4F522F523E54D64016003021B4AE54EBC
:101A83006401705630904AD2927F0AFE12000330EE
:101A93009048E523B4D029E522B40724C291D29219
:101AA300754E027F087E301226BC7524008F25E513
:101AB30025640245246009AD4E7F087E3012160767
:101AC3007F017E001200030523E5237002052280B7
:101AD300BE308003D38001C39292E54E64027067E7
:101AE300309062D2917F0AFE120003E4F522F523BF
:101AF300309054E52364D07004E52264077035C246
:101B030092D2917F64FE120003C2917F647E001221
:101B13000003D291754E017F087E301226BC7524D6
:101B2300008F25E525640145246009AD4E7F087EBD
:101B3300301216077F017E001200030523E5237090
:071B430002052280ABC291F4
:011B4A002278
:102449007F087E301226BCEFF460028F4EAF4E7EBD
:1024590000EF64017005D291C29222EF64024E70BE
:0A24690005C291D29222D291C292D4
:012473002246
:102274007F207E301226BC9001A0E4F0A3EFF07F13
:10228400217E301226BC900198E4F0A3EFF07F2267
:102294007E301226BC900185E4F0A3EFF07430FF89
:1022A400FE1226BC900183E4F0A3EFF07F317E3070
:1022B4001226BC900180E4F0A3EFF07F327E30124E
:1022C40026BC90019EE4F0A3EFF07F417E301226FD
:1022D400BC8F4F7F407E301226BC8F4DEF6401705F
:0B22E40005D291C29222C291C2922248
:1012B70012265DEF642360030214991225F7EF608D
:1012C7001A12249EBF24F4900182E0FF04F0748B6D
:1012D7002FF582E43401F5837424F01225F7EF60CB
:1012E7001812249E900182E0FE04F0748B2EF58282
:1012F700E43401F583EFF080E2900182E0248BF57E
:1013070082E43401F583E4F07F0D1224E9752501A9
:101317007526017527A5752801752901752AA875F0
:101327002B01752C01752DAB752E01752F017530AD
:101337008B7B017A0179A212186C78A27C017D015E
:101347007BFF7A1E79BD120A03EF703F7B017A019A
:1013570079A5121CC990019CEFF07B017A0179A84D
:10136700121CC990019BEFF07B017A0179AB121C2B
:10137700C990019AEFF07B017A01799A12206B7B71
:10138700FF7A1E79C0120BCD02148778A27C017DEB
:10139700017BFF7A1E79C5120A03EF70687B017A19
:1013A7000179A5121CC99001A0EEF0A3EFF07B0113
:1013B7007A0179A8121CC9900198EEF0A3EFF07B8F
:1013C700017A0179AB121CC9900185EEF0A3EFF009
:1013D7007BFF7A1E79C0120BCD9001A0E0A3E0FD40
:1013E7007F207E30121607900198E0A3E0FD7F2151
:1013F7007E30121607900185E0A3E0FD7F227E3044
:10140700121607807B78A27C017D017BFF7A1E790B
:10141700C8120A03EF70697B017A0179A5121CC90A
:10142700900183EEF0A3EFF07B017A0179A8121CFB
:10143700C9900180EEF0A3EFF07B017A0179AB123E
:101447001CC990019EEEF0A3EFF07BFF7A1E79C0D6
:10145700120BCD900183E0A3E0FD7430FFFE12165E
:1014670007900180E0A3E0FD7F317E3012160790E0
:10147700019EE0A3E0FD7F327E30121607E4F54DB2
:10148700E4900182F0FE7F0DFD7B017A01798B12DA
:021497000B093F
:011499002230
:06186C008B228A2389246F
:10187200E94A4B7003021977E5274526452570038F
:10188200021977E52A452945287003021977E52DC3
:10189200452C452B7003021977E530452F452E70F4
:1018A20003021977AB2EAA2FA9308B318A328933E2
:1018B2008B348A3589367D2C1225928B318A328976
:1018C20033E94A4B6013E412075EA824AC23AD222D
:1018D200AB34AA35A936120AECAB31E5332401F94F
:1018E200E43532FA8B37F53889397D2C1225928B03
:1018F200318A328933E94A4B6013E412075EA82722
:10190200AC26AD25AB37AA38A939120AECAB31E5C2
:10191200332401F9E43532FA8B3AF53B893C7D2CCC
:101922001225928B318A328933E94A4B6013E412D1
:10193200075EA82AAC29AD28AB3AAA3BA93C120AF9
:10194200ECAB31E5332401F9E43532FA8B3DF53E57
:10195200893F7D231225928B318A328933E94A4BA2
:101962006013E412075EA82DAC2CAD2BAB3DAA3E52
:05197200A93F120AEC80
:01197700224D
:10007E00AF52EF640160030207177B017A01799A90
:10008E00121E217B017A0179871220F5E54D60035E
:10009E000203CB900180E0FEA3E0FF7C007D3C12CA
:1000AE000792AA06AB07900183E0FEA3E0FF7C0E49
:1000BE007D10120792EF2BFFEE3AFE90019FE02F7C
:1000CE00FB90019EE03EFAC002C003900198E0FE54
:1000DE00A3E0FF7C007D3C120792AA06AB079001BD
:1000EE00A0E0FEA3E0FF7C0E7D10120792EF2BFF27
:1000FE00EE3AFE900186E02FFF900185E03EFED0A5
:10010E0003D002EFB50319EEB50215754D01AD4DD5
:10011E007F407E301216077BFF7A1E79CB120BCDF5
:10012E00900180E0FEA3E0FF7C007D3C120792AAC6
:10013E0006AB07900183E0FEA3E0FF7C0E7D10125C
:10014E000792EF2BFFEE3AFE90019FE02FFB9001FE
:10015E009EE03EFAC002C003900198E0FEA3E0FFCD
:10016E007C007D3C120792AA06AB079001A0E0FE30
:10017E00A3E0FF7C0E7D10120792EF2BFFEE3AFEEE
:10018E00900186E02FFF900185E03EFED003D00265
:10019E00C3EF9BEA6480F8EE64809840030202B1DC
:1001AE007BFF7A1E79DC120BCD90019CE0FF7E0066
:1001BE007C0E7D10120792AC06AD0790019BE07588
:1001CE00F03CA42DFFEC35F0FE90019AE0F97C0096
:1001DE002FFBEC3EFAC002C003900198E0FEA3E0B4
:1001EE00FF7D3C120792AA06AB079001A0E0FEA38A
:1001FE00E0FF7C0E7D10120792EF2BFFEE3AFE9081
:10020E000186E02FFF900185E03EFED003D002D3A1
:10021E00EB9FEA9E50030202B190019CE0FF7E002C
:10022E00120792AC06AD0790019BE075F03CA42D31
:10023E00FFEC35F0FEE97C002FFBEC3EFAC002C06D
:10024E0003900180E0FEA3E0FF7D3C120792AA0618
:10025E00AB07900183E0FEA3E0FF7C0E7D1012073A
:10026E0092EF2BFFEE3AFE90019FE02FFF90019E42
:10027E00E03EFED003D002C3EB9FEA9E5025D29102
:10028E00C292754D01754F03AD4D7F407E301216F3
:10029E0007AD4F7F417E301216077BFF7A1E79DF46
:1002AE00120BCD900180E0FEA3E0FF7C007D3C129E
:1002BE000792AA06AB07900183E0FEA3E0FF7C0E37
:1002CE007D10120792EF2BFFEE3AFE90019FE02F6A
:1002DE00FB90019EE03EFAC002C003900198E0FE42
:1002EE00A3E0FF7C007D3C120792AA06AB079001AB
:1002FE00A0E0FEA3E0FF7C0E7D10120792EF2BFF15
:10030E00EE3AFE900186E02FFF900185E03EFED092
:10031E0003D002D3EF9BEA6480F8EE64809850031A
:10032E000203CB7BFF7A1E79FA120BCD90019CE073
:10033E00FF7E007C0E7D10120792AC06AD07900179
:10034E009BE075F03CA42DFFEC35F0FE90019AE099
:10035E007C002FFBEC3EFAC002C003900198E0FE39
:10036E00A3E0FF7D3C120792AA06AB079001A0E026
:10037E00FEA3E0FF7C0E7D10120792EF2BFFEE3AEC
:10038E00FE900186E02FFF900185E03EFED003D067
:10039E0002D3EB9FEA9E4025D291C292754D017514
:1003AE004F02AD4D7F407E30121607AD4F7F417E1E
:1003BE00301216077BFF7A1E79FD120BCDE54D64C8
:1003CE00016003020714900180E0FEA3E0FF7C00B1
:1003DE007D3C120792AA06AB07900183E0FEA3E0D4
:1003EE00FF7C0E7D10120792EF2BFFEE3AFE90016E
:1003FE009FE02FFB90019EE03EFAC002C0039001E9
:10040E0098E0FEA3E0FF7C007D3C120792AA06ABAB
:10041E00079001A0E0FEA3E0FF7C0E7D1012079274
:10042E00EF2BFFEE3AFE900186E02FFF900185E064
:10043E003EFED003D002C3EF9BEA6480F8EE6480E8
:10044E00984003020588E54F640360030205887B2C
:10045E00FF7A1F7918120BCD90019CE0FF7E007C75
:10046E000E7D10120792AC06AD0790019BE075F061
:10047E003CA42DFFEC35F0FE90019AE07C002FFBA2
:10048E00EC3EFAC002C003900198E0FEA3E0FF7DAF
:10049E003C120792AA06AB079001A0E0FEA3E0FF74
:1004AE007C0E7D10120792EF2BFFEE3AFE90018626
:1004BE00E02FFF900185E03EFED003D002C3EB9FFC
:1004CE00EA9E5025C291C292E4F54D754F01AD4D95
:1004DE007F407E30121607AD4F7F417E30121607D9
:1004EE007BFF7A1F791C120BCD90019CE0FF7E00E2
:1004FE007C0E7D10120792AC06AD0790019BE07545
:10050E00F03CA42DFFEC35F0FE90019AE07C002F1C
:10051E00FBEC3EFAC002C003900180E0FEA3E0FFB8
:10052E007D3C120792AA06AB07900183E0FEA3E082
:10053E00FF7C0E7D10120792EF2BFFEE3AFE90011C
:10054E009FE02FFF90019EE03EFED003D002D3EB42
:10055E009FEA9E4025C291C292E4F54D754F01ADC2
:10056E004D7F407E30121607AD4F7F417E30121602
:10057E00077BFF7A1F791C120BCD900180E0FEA342
:10058E00E0FF7C007D3C120792AA06AB0790018328
:10059E00E0FEA3E0FF7C0E7D10120792EF2BFFEE24
:1005AE003AFE90019FE02FFB90019EE03EFAC002C2
:1005BE00C003900198E0FEA3E0FF7C007D3C120793
:1005CE0092AA06AB079001A0E0FEA3E0FF7C0E7D91
:1005DE0010120792EF2BFFEE3AFE900186E02FFFEE
:1005EE00900185E03EFED003D002D3EF9BEA6480FB
:1005FE00F8EE6480985003020714E54F640260031E
:10060E000207147BFF7A1F7936120BCD90019CE006
:10061E00FF7E007C0E7D10120792AC06AD07900196
:10062E009BE075F03CA42DFFEC35F0FE90019AE0B6
:10063E00F97C002FFBEC3EFAC002C003900198E05B
:10064E00FEA3E0FF7D3C120792AA06AB079001A025
:10065E00E0FEA3E0FF7C0E7D10120792EF2BFFEE63
:10066E003AFE900186E02FFF900185E03EFED0031A
:10067E00D002C3EB9FEA9E400302071490019CE058
:10068E00FF7E00120792AC06AD0790019BE075F05D
:10069E003CA42DFFEC35F0FEE97C002FFBEC3EFA7E
:1006AE00C002C003900180E0FEA3E0FF7D3C120774
:1006BE0092AA06AB07900183E0FEA3E0FF7C0E7DBD
:1006CE0010120792EF2BFFEE3AFE90019FE02FFFE4
:1006DE0090019EE03EFED003D002D3EB9FEA9E40F7
:1006EE0025C291C292E4F54D754F01AD4D7F407E0E
:1006FE0030121607AD4F7F417E301216077BFF7A00
:0A070E001F793A120BCDE4F55222D8
:03001B000223ECD1
:1023EC00C0E0C0D0C0910551E55170020550C3E565
:1023FC005194E8E5509403400975520175500075ED
:10240C005100758DC4758B17C28DD091D0D0D0E092
:01241C00328D
:02197800A907BD
:10197A00E4F591E924F9600C14600E2402700D75E7
:10198A00A638800875A630800375A630A2AF920CDF
:10199A00C2AF75C7AA75C755439F01A20C92AFE49F
:1019AA00F5A775AF04A2AF920CC2AF75C7AA75C7E7
:1019BA005543A401A20C92AFADAE05A6A2AF920CFC
:1019CA00C2AF75C7AA75C75543A401A20C92AFACA2
:1019DA00AEE924F8706FED25E0FFE433FEEC540124
:1019EA007A002FFFEA3EFE74F22FFF74FF3EFE7567
:1019FA00AF0C75A601E4F5A7A2AF920CC2AF75C7EA
:101A0A00AA75C75543A401A20C92AFABAEEB644BC7
:101A1A00600EABAEEB64526007ABAEEB6453701B67
:101A2A00ED543FC3940774809480500A74F62FFFD4
:101A3A0074FF3EFE8005EF1F70011EEF5401FCEE9D
:101A4A00C313EF13FD75C7AA75C7558D8475C7AA49
:101A5A0075C7558C85A2AF920CC2AF75C7AA75C758
:081A6A0055539FFEA20C92AF40
:011A72002251
:1022EF00EF24FD60121460282402704B7F0212232A
:1022FF00477F021221F7227F031221F7A2AF920C20
:10230F00C2AF75C7AA75C7555397DFA20C92AF22FC
:10231F007F021223477F021221F77F041223477F88
:10232F00041221F7A2AF920CC2AF75C7AA75C75599
:08233F005397DFA20C92AF22BC
:10234700EF24FC60222402702FA2AF920CC2AF755B
:10235700C7AA75C755439720A20C92AFE59644DFED
:1023670064DF701480F62275C7AA75C7554397C0F6
:09237700E59644F764F760F822D2
:10247400E4F591EF24FC60182402701DA2AF920CC5
:10248400C2AF75C7AA75C7555397DFA20C92AF2286
:0A24940075C7AA75C75553973F227C
:1021F700E4F591A2AF920CC2AFEF24FD602F1460FB
:102207005424027063A2AF920CC2AF75C7AA75C7F8
:10221700555396FBA20C92AFA2AF920CC2AF75C7F3
:10222700AA75C7555396FDA20C92AF803BA2AF92F9
:102237000CC2AF75C7AA75C755439604A20C92AFD7
:10224700A2AF920CC2AF75C7AA75C7555396FDA228
:102257000C92AF8013A2AF920CC2AF75C7AA75C715
:0D22670055439608A20C92AFA20C92AF2234
:0826C4003099FDC2998F9922A3
:101F60000226B3E493A3F8E493A34003F68001F2BE
:101F700008DFF48029E493A3F85407240CC8C33382
:101F8000C4540F4420C8834004F456800146F6DF51
:101F9000E4800B0102040810204080902550E47E6C
:101FA000019360BCA3FF543F30E509541FFEE49346
:101FB000A360010ECF54C025E060A840B8E493A30D
:101FC000FAE493A3F8E493A3C8C582C8CAC583CA38
:101FD000F0A3C8C582C8CAC583CADFE9DEE780BEF0
:01257000006A
:10071800BB010689828A83E0225002E722BBFE02DF
:09072800E32289828A83E4932212
:10073100BB010CE58229F582E5833AF583E022507D
:1007410006E92582F8E622BBFE06E92582F8E222C7
:0D075100E58229F582E5833AF583E49322E1
:10075E00BB010689828A83F0225002F722BBFE017A
:02076E00F32274
:10077000F8BB010DE58229F582E5833AF583E8F0BF
:10078000225006E92582C8F622BBFE05E92582C86B
:02079000F22253
:10079200EF8DF0A4A8F0CF8CF0A428CE8DF0A42E7B
:0207A200FE2235
:1007A40075F008758200EF2FFFEE33FECD33CDCC0C
:1007B40033CCC58233C5829BED9AEC99E58298408F
:1007C4000CF582EE9BFEED9AFDEC99FC0FD5F0D66C
:1007D400E4CEFBE4CDFAE4CCF9A88222B800C1B996
:1007E4000059BA002DEC8BF084CFCECDFCE5F0CBD4
:1007F400F97818EF2FFFEE33FEED33FDEC33FCEB0D
:1008040033FB10D703994004EB99FB0FD8E5E4F9C7
:10081400FA227818EF2FFFEE33FEED33FDEC33FCB4
:10082400C933C910D7059BE99A4007EC9BFCE99AA8
:10083400F90FD8E0E4C9FAE4CCFB2275F010EF2FED
:10084400FFEE33FEED33FDCC33CCC833C810D707ED
:100854009BEC9AE899400AED9BFDEC9AFCE899F828
:0E0864000FD5F0DAE4CDFBE4CCFAE4C8F922BB
:10087200E8600FECC313FCED13FDEE13FEEF13FF64
:03088200D8F12288
:100B6B00E5312425F8E60531227822300702782575
:100B7B00E475F001120B350207182000EB7F2ED223
:100B8B00008018EF540F2490D43440D4FF30040B62
:100B9B00EF24BFB41A0050032461FFE53260021545
:100BAB00320535E5357002053430070D7822E475D2
:100BBB00F001120B35EF02075E0226C47403D20755
:100BCB008003E4C207F5318B228A238924E4F532B2
:100BDB00F534F535E53260077F20120BA680F575ED
:100BEB0033FFC201C200C202C203C205C206C20861
:100BFB00120B74FF700D3007057F00120BB7AF356A
:100C0B00AE3422B4255FC2D5C204120B74FF24D0BC
:100C1B00B40A00501A75F00A783230D50508B6FFC1
:100C2B000106C6A426F620D5047002D20380D9246F
:100C3B00CFB41A00EF5004C2E5D204020DB7D201B3
:100C4B0080C6D20080C0D20280BCD2D580BAD20579
:100C5B0080B47F20120BA62002077401B53200402E
:100C6B00F1120B6BFF120BA6020BDFD208D2068020
:100C7B0095120B6BFB120B6BFA120B6BF94A4B7049
:100C8B000679887A0E7BFF20022EE532602A7E00E1
:100C9B008E8275830012073160060EEE653370F09D
:100CAB00C2D5EBC0E0EAC0E0E9C0E0EE120DFED029
:100CBB00E0F9D0E0FAD0E0FB120718FF60AAEBC016
:100CCB00E0EAC0E0E9C0E0120BA6D0E02401F9D0C5
:100CDB00E03400FAD0E0FBE5330460DCD533D98097
:100CEB00877BFF7A0D79FAD202809C79108002798A
:100CFB0008C206C2088008D2D5790A8004790AC2D4
:100D0B00D5E533047002F533E4FAFDFEFF120B6BED
:100D1B00FC7B08200113120B6BFD7B1030000A12B9
:100D2B000B6BFE120B6BFF7B20EC3382D592D550F5
:100D3B0013C3E43000069FFFE49EFEE42001039DF5
:100D4B00FDE49CFCE4CBF8C201EC700CCFCECDCC17
:100D5B00E824F8F870F38017C3EF33FFEE33FEEDA2
:100D6B0033FDEC33FCEB33FB994002FB0FD8E9EB83
:100D7B00300105F8D0E0C448B201C0E00AEC4D4E9A
:100D8B004F78207B0070C2EAB5330040BCC0E01244
:100D9B000E00D0F0D0E0200104C4C0E0C4B201C00A
:100DAB00F0120B8FD0F0D5F0EB020BDF120B450CD2
:100DBB007C530CF6580C4D4C0C49420CFA4F0D025F
:0F0DCB00440D02490C62430D08550CEC460CEC2C
:100DDA00450CEC470EA8500C512D0C552E0C782BB7
:100DEA000C59230C76200E912A0C114800000C7025
:100DFA003F3F3F00790AA2D5200314300509B910F4
:100E0A00020404B9080104A2D520060250010420F4
:100E1A0002689202B532005034C0E07F20300319D4
:100E2A007F30A20272067205500F120E57C202C21A
:100E3A0006C205C2087F30800F300503E9C0E01200
:100E4A000BA6300503D0E0F9D0E0B532CC30051757
:100E5A007F30B9100C120BA67F583004077F7880B8
:100E6A0003B90803120BA63002057F2D020BA67FD9
:100E7A00202008F87F2B2006F322920280CF286ECA
:100E8A00756C6C2900D201120B6B3001F8C2017823
:100E9A003230D50108F6020C112D50434958120B75
:100EAA006B2403B405004001E4900EA393120B9740
:0D0EBA00743A120B97D203753204020CF645
:10088500E3F5F009E208B5F06D606B80F3E3F5F090
:1008950009E608B5F060605E80F387F009E608B503
:1008A500F054605280F487F009E208B5F0486046DC
:1008B50080F488828C8387F009E0A3B5F038603630
:1008C50080F488828C8387F009E493A3B5F02760D0
:1008D5002580F388828C83E3F5F009E0A3B5F01653
:1008E500601480F388828C83E3F5F009E493A3B563
:1008F500F004600280F20209B0808580E7808E8076
:10090500D2803C8015806C807E809B80B5808B80FA
:10091500A1804F8070803A0209BC89828A83ECFAF3
:10092500E493F5F0A3C8C582C8CCC583CCE493A3F2
:10093500C8C582C8CCC583CCB5F070606E80E1892E
:10094500828A83E493F5F0A3E208B5F05E605C80EB
:10095500F289828A83E0F5F0A3E608B5F04D604B95
:1009650080F389828A83E0F5F0A3E208B5F03C6064
:100975003A80F389828A83E493F5F0A3E608B5F01B
:100985002A602880F2805389828A83ECFAE493F501
:10099500F0A3C8C582C8CCC583CCE0A3C8C582C8AE
:1009A500CCC583CCB5F004600280E27FFFB5F002D0
:1009B5000F2240027F012289828A83ECFAE0F5F05A
:1009C500A3C8C582C8CCC583CCE0A3C8C582C8CCA2
:1009D500C583CCB5F0D560D380E389828A83ECFAF0
:1009E500E0F5F0A3C8C582C8CCC583CCE493A3C801
:1009F500C582C8CCC583CCB5F0B160AF80E288F0C4
:100A0500ED2402B4040050A3F582EB2402B40400E3
:0B0A1500509923234582239008FE73B4
:100A2000E709F60870FA8046E709F20870FA803E96
:100A300088828C83E709F0A370FA807EE309F608C8
:100A400070FA8076E309F20870FA806E88828C83EF
:100A5000E309F0A370FA806289828A83E0A3F60832
:100A600070FA805689828A83E0A3F20870FA804A7D
:100A700080D280FA80C680D4806580F28031801078
:100A800080A680EA809A80A880DA80E280CA8031DD
:100A900089828A83ECFAE493A3C8C582C8CCC58353
:100AA000CCF0A3C8C582C8CCC583CC70E9800D89C1
:100AB000828A83E493A3F60870F9ECFAA9F0EDFBBF
:100AC0002289828A83ECFAE0A3C8C582C8CCC58398
:100AD000CCF0A3C8C582C8CCC583CC70EA80DD89C0
:100AE000828A83E493A3F20870F980CE88F0ED2423
:100AF00002B4040050C4F582EB2402B4040050BADE
:090B00002323458223900A70733F
:10259200E94A4B700122120718FF6D700122EF7099
:0C25A20004FBFAF92209E970ED0A80EA56
:101CC9008B228A238924AB22AA23A924120718FF6D
:101CD900122639500D74012524F524E43523F52302
:101CE90080E4D200AB22AA23A924120718FF642B8F
:101CF9006004EFB42D1BAB220524E524AA2370024E
:101D0900052314F9120718642D6003D38001C392C7
:101D190000E4F525F526AB22AA23A924120718FF0A
:101D290012268D5036AB22AA23A924120718FF3395
:101D390095E0FEEF24D0FBEE34FFFAAE25AF267C0A
:101D4900007D0A120792EF2BF526EE3AF52574016C
:101D59002524F524E43523F52380BB300006AE2580
:0E1D6900AF268009C3E49526FFE49525FE22EF
:100B0900EF4E6012EF60010EEDBB010B89828A8303
:100B1900F0A3DFFCDEFA2289F05007F709DFFCA910
:0C0B2900F022BBFEFCF309DFFCA9F02267
:100B3500FAE6FB0808E6F925F0F618E6CA3AF622C1
:100B4500D083D082F8E4937012740193700DA3A33F
:100B550093F8740193F5828883E473740293686053
:060B6500EFA3A3A380DF53
:0F268D00EFC394304007EF943A50028001C3220C
:10263900EFC394094005EF940E4003BF2003D380F4
:0326490001C322A8
:00000001FF
