:0300000002148265
:0C148200787FE4F6D8FD7581660214C97D
:10129500A2AF9203C2AF75C7AA75C755E4F591A26F
:1012A5000392AF43B10153B2FEA2AF9203C2AF7531
:1012B500C7AA75C755F591A20392AF43B30153B4BD
:1012C500FEA2AF9203C2AF75C7AA75C755F591A225
:1012D5000392AF53B3FD43B402A2AF9203C2AF75FD
:1012E500C7AA75C755F591A20392AF53B3FB43B493
:1012F50004A2AF9203C2AF75C7AA75C755F591A2EF
:101305000392AF53B3F753B4F7A2AF9203C2AF75CD
:10131500C7AA75C755F591A20392AF53B3EF53B45E
:10132500EFA2AF9203C2AF75C7AA75C755F591A2D3
:0A1335000392AF53B1BF53B2BF22C1
:101BB0004389015389FD438E085389FB5389F722DA
:100003008E258F26E5264525600DE52615267002EB
:080013001525121A6380ED228D
:101A6300E4F58CF58AD28CAF8CEFFEAD8A7C00E472
:101A73002DFFEC3EFEC3EF9480EE943E40E9C28C12
:011A83002240
:0609F8008E258F268D27DD
:1009FE00E4F528E5267807CEC313CE13D8F9780789
:100A0E00C333CE33CED8F9F52A8E29E4F528C3E5C3
:100A1E002894807480948050217E00E52A2528FF3A
:100A2E00EE3529FE121BFD7E0074002528F582E4AA
:100A3E003400F583EFF0052880D47E00E526547F40
:100A4E002400F582EE3400F583E527F0E52AF5A6BD
:100A5E00E529F5A775AEFFA2AF9203C2AF75C7AA7F
:100A6E0075C755439F01A20392AFA2AF9203C2AFC7
:100A7E0075C7AA75C75543A501A20392AF75AF22DC
:100A8E00A2AF9203C2AF75C7AA75C75543A401A200
:100A9E000392AFA2AF9203C2AF75C7AA75C75543F3
:100AAE009F01A20392AFA2AF9203C2AF75C7AA7500
:100ABE00C75543A501A20392AF75AF21E4F528C334
:100ACE00E528948074809480502FE52A2528F5A679
:100ADE00E529F5A774002528F582E43400F583E0B6
:100AEE00F5AEA2AF9203C2AF75C7AA75C75543A4A0
:100AFE0001A20392AF052880C6A2AF9203C2AF75C2
:100B0E00C7AA75C75553A5FEA20392AFA2AF920313
:0F0B1E00C2AF75C7AA75C755539FFEA20392AF0A
:010B2D0022A5
:041BFD008F828E83C2
:031C0100E493FF6A
:011C040022BD
:0A150E008E088F098B0A8A0B890CE6
:10151800E5097807CEC313CE13D8F9FDE509250EE2
:10152800FFE508350DFEEF7807CEC313CE13D8F9C3
:10153800F50FED650F6043AB0AAA0BA90C75158072
:10154800AF09AE0812069BAC07EC2509F509E4358E
:1015580008F508EC250CF50CE4350BF50BECC3E5A8
:101568000E9FF50EE50D9400F50DAE08E509780718
:10157800CEC313CE13D8F9FD80B8E50E450D601023
:10158800AB0AAA0BA90C850E15AF09AE0812069B6B
:011598002230
:0A18D7008E188F198B1A8A1B891CCA
:1018E100E4FFFEC3EF951EEE951D5021E5192FFD76
:1018F100E5183E8D82F583E493AB1AAA1BA91C8FD0
:0D190100828E831200D60FBF00010E80D62B
:01190E0022B6
:0A069B008E108F118B128A13891440
:1006A500A2AF9203C2AF75C7AA75C755439F01A2F2
:1006B5000392AFA2AF9203C2AF75C7AA75C75543E0
:1006C500A501A20392AFE511547FF517C374809578
:1006D50017F516E515D395164003851615AD11AC1E
:1006E50010E4F516E516C395155012ED2516F5829D
:1006F500E43CF583E493F47004051680E7E516659C
:1007050015707875AF218511A6E510F5A7E4F516E6
:10071500E516C39515502AAB12AA13A9148516829E
:10072500758300120097F5AEA2AF9203C2AF75C7ED
:10073500AA75C75543A401A20392AF05A605168065
:10074500CFE4F516E516C395155022AB12AA13A9E9
:1007550014851682758300120097FFED2516F58224
:10076500E43CF583E493B50704051680D7E51665E3
:100775001570030208758003020875E5115480ACF5
:1007850010FDE4F516C3E516948074809480501D21
:10079500ED2516F582E43CF583E493FF7480251678
:1007A500F582E43400F583EFF0051680D8E4F516FC
:1007B500E516C395155023AB12AA13A91485168205
:1007C500758300120097FFE51725162480F582E44E
:1007D5003400F583EFF0051680D6E5115480F5A6B3
:1007E500E510F5A775AF2275AEFFA2AF9203C2AFB4
:1007F50075C7AA75C75543A401A20392AF75AF216A
:10080500E4F516C3E51694807480948050277480AF
:100815002516F582E43400F583E0F5AEA2AF920328
:10082500C2AF75C7AA75C75543A401A20392AF0508
:10083500A6051680CEE4F516AF167E00C3EF9480AC
:10084500748094805021ED2516F582E43CF583E40F
:1008550093FB74802516F582E43400F583E0FAEB0A
:10086500B50204051680D1EF64804E60030207DFF0
:10087500A2AF9203C2AF75C7AA75C755539FFEA213
:050885000392AFAF1566
:01088A00224B
:10113900A2AF9203C2AF75C7AA75C755439F01A253
:101149000392AF75A604E4F5A775AE0F75AFE1A2DA
:10115900AF9203C2AF75C7AA75C75543A504A203C9
:1011690092AFA2AF9203C2AF75C7AA75C75543A480
:1011790001A20392AFE59F5440644060F8A2AF9288
:1011890003C2AF75C7AA75C75553A5FBA20392AF92
:10119900A2AF9203C2AF75C7AA75C755539FFEA2E6
:1011A9000392AF75C7AA75C75575AA07A2AF92036F
:1011B900C2AF75C7AA75C75543AA40A20392AFAF7C
:1011C900AAEF44BF74FF60F7D2AFA2AF9203C2AFD8
:0E11D90075C7AA75C75543AA80A20392AF221C
:0C1AC100C100C101025D0000025F0000D6
:101B3900E55E2480FFE4355DFEC3EF9560FFEE9519
:061B49005FEF547FFF2254
:101ADB00E55E2401FFE4355DFEEFB56008EEB55F12
:081AEB00047F0180027F00224C
:101B0B00E4F55DF55EF55FF560FE7F80FD7B017AA8
:071B1B0001790012045D22B4
:101AF3007E007F0D7D00AA5DAB5E74F32BF974004D
:081B03003AFA7B0112045D2295
:101B8E00E55EB56009E55DB55F047F0180027F000B
:011B9E002224
:101B9F00AE5DAF5E74FF2FF58274003EF583E0FFFC
:011BAF002213
:101A1B00AD07121ADBEF701C055EE55EAE5D700262
:101A2B00055D142400F58274013EF583EDF0535EE1
:051A3B007F755D002233
:1019F500121B8EEF60037F00220560E560AE5F700D
:101A050002055F142400F58274013EF583E0FF535F
:051A1500607F755F0019
:011A1A0022A9
:030023000218635D
:10186300C0E0C083C082C0D075D000C005C006C030
:1018730007C09130980CD20185995BAF5B121A1B9C
:10188300C298309905200002C299D091D007D006A2
:0B189300D005D0D0D082D083D0E0324E
:03007B00021B2243
:101B2200C09130F807859A5CD202C2F830F90520DC
:071B32000002C2F9D091325C
:10088B008F248E238D228C21E52514605214700346
:10089B0002097D240260030209F7759850438920F1
:1008AB00438780438E10A2AF9203C2AF75C7AA7560
:1008BB00C755E4F591A20392AF53C4DF7B10FAF94D
:1008CB00F8AF24AE23AD22AC21120134AB29AA28F8
:1008DB00A927A826120134EFF404F58DD28E2275C8
:1008EB00985043878053C4F8A2AF9203C2AF75C729
:1008FB00AA75C755E4F591A20392AF43C4207B10B0
:10090B00FAF9F8AF24AE23AD22AC21120134AB2996
:10091B00AA28A927A826120134C3E49FFFE49EFE50
:10092B0074019DFDE49CFC78081201C68FC6E47B24
:10093B0010FAF9F8AF24AE23AD22AC21120134AB7F
:10094B0029AA28A927A826120134C3E49FFFE49EF5
:10095B00FE74019DFDE49CFCEFE48FC5A2AF9203F6
:10096B00C2AF75C7AA75C755F591A20392AF43C421
:10097B00082275F85075C480E47B10FAF9F8AF249F
:10098B00AE23AD22AC21120134AB29AA28A927A88A
:10099B0026120134C3E49FFFE49EFE74019DFDE427
:1009AB009CFC78081201C68FC6E47B10FAF9F8AFED
:1009BB0024AE23AD22AC21120134AB29AA28A927DE
:1009CB00A826120134C3E49FFFE49EFE74019DFD33
:1009DB00E49CFCEFE48FC5A2AF9203C2AF75C7AA2C
:0D09EB0075C755F591A20392AF43C40822D1
:0D1BDE00EF1460060470058D99228D9A2287
:10190F00A2AF9203C2AF75C7AA75C755E4F591A2EE
:10191F000392AF53B1BF53B2BFF525F5297528C256
:10192F00752701F526FF7E367D6E7C0112088BD25E
:04193F0099D2002217
:101B4F0075BE2753B3F753B4F753B3EF53B4EFD274
:061B5F0093D294D2C622CD
:080C63008F278B288A29892ABA
:100C6B00AFBDEF64F860037F0022C2C4D2C5C2C31C
:100C7B00752D00752E01E4F52F20C315E52E452D9E
:100C8B007005752F01800A052EE52E7002052D804B
:100C9B00E8E52F60061219747F0022AFBDEF6408E0
:100CAB0060061219747F0022C2C5C2C475BCD0C2C3
:100CBB00C3752D00752E01E4F52F20C315E52E45C8
:100CCB002D7005752F01800A052EE52E7002052D5E
:100CDB0080E8E52F60061219747F0022AFBDEF6428
:100CEB001860061219747F0022C2C5C2C48527BCC6
:100CFB00C2C3752D00752E01E4F52F20C315E52E0B
:100D0B00452D7005752F01800A052EE52E70020505
:100D1B002D80E8E52F60061219747F0022AFBDEF1E
:100D2B00642860061219747F0022E4F52CE52CC3AD
:100D3B00952B504FAB28AA29A92A852C82758300A5
:100D4B00120097F5BCC2C3752D00752E01E4F52F6B
:100D5B0020C315E52E452D7005752F01800A052E34
:100D6B00E52E7002052D80E8E52F60061219747FC1
:100D7B000022AFBDEF642860061219747F002205B4
:060D8B002C80AA1219746D
:010D9100223F
:08049B008F278B288A29892A8A
:1004A300AFBDEF64F860037F0022C2C4D2C5C2C3EC
:1004B300752D00752E01E4F52F20C315E52E452D6E
:1004C3007005752F01800A052EE52E7002052D801B
:1004D300E8E52F60061219747F0022AFBDEF6408B0
:1004E30060061219747F0022C2C5C2C475BCD0C293
:1004F300C3752D00752E01E4F52F20C315E52E4598
:100503002D7005752F01800A052EE52E7002052D2D
:1005130080E8E52F60061219747F0022AFBDEF64F7
:100523001860061219747F0022C2C5C2C48527BC95
:10053300C2C3752D00752E01E4F52F20C315E52EDA
:10054300452D7005752F01800A052EE52E700205D5
:100553002D80E8E52F60061219747F0022AFBDEFEE
:10056300642860061219747F0022C2C4D2C5C2C3B4
:10057300752D00752E01E4F52F20C315E52E452DAD
:100583007005752F01800A052EE52E7002052D805A
:10059300E8E52F60061219747F0022AFBDEF6410E7
:1005A30060061219747F0022C2C5C2C475BCD1C2D1
:1005B300C3752D00752E01E4F52F20C315E52E45D7
:1005C3002D7005752F01800A052EE52E7002052D6D
:1005D30080E8E52F60061219747F0022AFBDEF6437
:1005E3004060061219747F0022E4F52CE52B14FFFA
:1005F300E52CC39F5051D2C2C2C3752D00752E0185
:10060300E4F52F20C315E52E452D7005752F0180C8
:100613000A052EE52E7002052D80E8E52F600612EF
:1006230019747F0022AFBDEF645060061219747F06
:100633000022AB28AA29A92A852C82758300E5BC50
:100643001200D6052C80A5C2C2C2C3752D00752E1B
:1006530001E4F52F20C315E52E452D7005752F01F7
:10066300800A052EE52E7002052D80E8E52F600631
:100673001219747F0022AFBDEF645860061219741B
:100683007F0022AB28AA29A92A852C82758300E53D
:07069300BC1200D61219741D
:01069A00223D
:100F9900AFBDEF64F860037F0022C2C4D2C5C2C3EB
:100FA900756100756201E4F56320C315E562456169
:100FB9007005756301800A0562E56270020561804A
:100FC900E8E56360061219747F0022AFBDEF64087B
:100FD90060061219747F0022C2C5C2C475BCD1C291
:100FE900C3756100756201E4F56320C315E56245C7
:100FF900617005756301800A0562E5627002056129
:1010090080E8E56360061219747F0022AFBDEF64C2
:101019004060061219747F0022C2C2C2C375610002
:10102900756201E4F56320C315E5624561700575D4
:101039006301800A0562E5627002056180E8E56383
:1010490060061219747F0022AFBDEF645860061262
:0F10590019747F0022AFBC7561008F6212197489
:011068002265
:10197400C2C5D2C4C2C37F017E00E4FDACBDEC6429
:10198400F8600FEF4E70047D0180070FBF00010E59
:0B19940080EAED70047F0180027F00FC
:01199F002225
:101A8400AE07EFC3940A748094804012EF75F00A95
:101A940084FEEF75F00A84EEC454F045F0FEAF0600
:011AA400221F
:0E1BC000EFC4540F75F00AA4FEEF540F2EFF71
:011BCE0022F4
:061599008B218A22892348
:10159F0012007EFF121A848F2653267F7B007A005B
:1015AF007926752B01E4FF120C63AB21AA22A92324
:1015BF00900001120097FF121A848F257B007A008A
:1015CF007925752B017F01120C63AB21AA22A92368
:1015DF00900002120097FF121A848F24AB21AA22C7
:1015EF00A923900003120097FF7E00640270055339
:1015FF0024BF80114324BFEF64024E7005432420A3
:10160F0080035324DF7B007A007924752B017F023E
:03161F00120C6347
:0116220022A5
:0616A7008B3F8A408941DF
:1016AD0012007EFF121A848F427B007A00794275F8
:1016BD002B017F03120C63AB3FAA40A9419000019F
:1016CD00120097FF121A848F437B007A00794375BD
:1016DD002B017F04120C63AB3FAA40A9419000027D
:1016ED00120097FF121A848F447B007A007944759B
:1016FD002B017F05120C63AB3FAA40A9419000035B
:10170D00120097FF121A848F457B007A0079457578
:07171D002B017F06120C6393
:0117240022A2
:0613E6008B218A228923FD
:1013EC007B007A007926752B01E4FF12049B5326AF
:1013FC007FAF26121BC0AB21AA22A923EF1200C477
:10140C007B007A007925752B017F0112049BAF2597
:10141C00121BC0AB21AA22A923900001EF1200D607
:10142C007B007A007924752B017F0212049BE52442
:10143C0030E62254207003D38001C340047F018026
:10144C00027F00AB21AA22A923900003EF1200D641
:10145C0053249F800EAB21AA22A92390000374026F
:10146C001200D6AF24121BC0AB21AA22A9239000D4
:05147C0002EF1200D692
:011481002248
:061623008B468A4789484E
:101629007B007A007949752B017F0312049BAF492E
:10163900121BC0AB46AA47A948EF1200C4AF4A1211
:101649001BC0AB46AA47A948900001EF1200D67B00
:10165900007A00794A752B017F0412049BAF4B1263
:101669001BC0AB46AA47A948900002EF1200D67BDF
:10167900007A00794B752B017F0512049BAF4C1240
:101689001BC0AB46AA47A948900003EF1200D67BBE
:0D169900007A00794C752B017F0612049B2E
:0116A6002221
:1017A2008F4D8D4E8B4F7B007A00794F752B01E464
:1017B200FF120C637B007A00794E752B017F0112B8
:1017C2000C637B007A00794D752B017F02120C634A
:1017D2007B007A007950752B017F03120C637B002A
:1017E2007A007951752B017F04120C637B007A0019
:1017F2007952752B017F05120C637B007A007953B5
:09180200752B017F06120C632214
:101B650053890F438910438E10758DC4758B17D219
:061B7500ABD2AFD28E22BC
:091BEB0012002612006F80FB229B
:091BF400244300245300244500A1
:0D1ACD00015A0001570102540000015600AB
:100026007F07120E9E121295121A40121BB0121B57
:100036004F90018C7402F0E4A3F0A3F0A3F09001BA
:100046009FF090019EF090019DF09001A07402F047
:100056007B017A01799D1215997B017A01798C12BF
:0900660015991219A0121B652264
:0A006F00121069120B2E12133F222B
:101A4000752501E4752980752825F527F526FF7E83
:101A5000247DF4FC12088BD299D200D2ACD2AF1202
:031A60001B0B223B
:10106900E4F521F522E5576401705630904AD29291
:101079007F0AFE120003309048E522B4B829E52121
:10108900B40B24C291D2927557027F087E30121B8D
:10109900FD7523008F24E524640245236009AD57BB
:1010A9007F087E301209F87F017E001200030522B5
:1010B900E5227002052180BE308003D38001C392EE
:1010C90092E55764027068309063D2917F0AFE12EC
:1010D9000003E4F521F522309055E52264B8700447
:1010E900E521640B7036C292D2917F2C7E011200E9
:1010F90003C2917F2C7E01120003D2917557017FA3
:10110900087E30121BFD7523008F24E524640145F8
:10111900236009AD577F087E301209F87F017E00F0
:0F1129001200030522E5227002052180AAC2915F
:011138002294
:1019A0007F087E30121BFDEFF460028F57AF577E29
:1019B00000EF64017005D291C29222EF64024E7072
:0A19C00005C291D29222D291C29288
:0119CA0022FA
:100B2E00121B9FEF64236003020C62121B39EF60ED
:100B3E00151219F5AE56055674902EF582E4340151
:100B4E00F583EFF080E574902556F582E43401F5D7
:100B5E0083E4F0121AF37524017525017526A67526
:100B6E0027017528017529A9752A01752B01752C88
:100B7E00AC752D01752E01752F907B017A0179A32D
:100B8E00120D9278A37C017D017BFF7A1B79F41202
:100B9E000357EF703C7B017A0179A61211E79001A1
:100BAE009FEFF07B017A0179A91211E790019EEF78
:100BBE00F07B017A0179AC1211E790019DEFF07B89
:100BCE00017A01799D1215997D43E4FF121BDE8097
:100BDE007378A37C017D017BFF7A1B79F712035793
:100BEE00EF70497B017A0179AC1211E7900182EE28
:100BFE00F0A3EFF07B017A0179A91211E790018A37
:100C0E00EEF0A3EFF07B017A0179A61211E79001C5
:100C1E00A1EEF0A3EFF07554007555017F0A7E002A
:100C2E001200037D53E4FF121BDE801878A37C01B3
:100C3E007D017BFF7A1B79FA120357EF70067D4513
:100C4E00FF121BDEE4F556FE7F0DFD7B017A017966
:040C5E009012045D8F
:010C6200226F
:10133F00AF5AEF640160030213E5E55564014554AC
:10134F0060030213E57B017A01799D1213E67D4953
:10135F00E4FF121BDE7F0A7E0012000390019FE064
:10136F00FFD39001A2E09F7480F89001A1E0648008
:10137F009850607D58E4FF121BDE7F0A7E0012003A
:10138F000390019EE0FFD390018BE09F7480F89053
:10139F00018AE0648098503B7D59E4FF121BDE7F89
:1013AF000A7E0012000390019DE0FFD3900183E0BD
:1013BF009F7480F8900182E06480985016C291C2A9
:1013CF0092E4F554F5557D5AFF121BDE7F0A7E001D
:0713DF00120003E4F55A229D
:060D92008B218A22892357
:100D9800E94A4B7003020E9DE5264525452470035C
:100DA800020E9DE529452845277003020E9DE52C76
:100DB800452B452A7003020E9DE52F452E452D70C3
:100DC80003020E9DAB2DAA2EA92F8B308A318932B2
:100DD8008B338A3489357D2C121AA58B308A318958
:100DE80032E94A4B6013E41200C4A823AC22AD21B7
:100DF800AB33AA34A935120440AB30E5322401F9EB
:100E0800E43531FA8B36F53789387D2C121AA58BE3
:100E1800308A318932E94A4B6013E41200C4A826AB
:100E2800AC25AD24AB36AA37A938120440AB30E55F
:100E3800322401F9E43531FA8B39F53A893B7D2CB6
:100E4800121AA58B308A318932E94A4B6013E412B1
:100E580000C4A829AC28AD27AB39AA3AA93B12048B
:100E680040AB30E5322401F9E43531FA8B3CF53DED
:100E7800893E7D23121AA58B308A318932E94A4B83
:100E88006013E41200C4A82CAC2BAD2AAB3CAA3DDD
:050E9800A93E12044018
:010E9D002232
:03001B0002194384
:10194300C0E0C0D0C0910559E55970020558C3E500
:101953005994E8E55894034009755A017558007580
:101963005900758DC4758B17C28DD091D0D0D0E03E
:011973003241
:020E9E00A907A2
:100EA000E4F591E924F9600C14600E2402700D75CC
:100EB000A638800875A630800375A630A2AF9203CD
:100EC000C2AF75C7AA75C755439F01A20392AFE48D
:100ED000F5A775AF04A2AF9203C2AF75C7AA75C7D5
:100EE0005543A401A20392AFADAE05A6A2AF9203F3
:100EF000C2AF75C7AA75C75543A401A20392AFAC90
:100F0000AEE924F8706FED25E0FFE433FEEC540108
:100F10007A002FFFEA3EFE74F22FFF74FF3EFE754B
:100F2000AF0C75A601E4F5A7A2AF9203C2AF75C7D7
:100F3000AA75C75543A401A20392AFABAEEB644BB5
:100F4000600EABAEEB64526007ABAEEB6453701B4C
:100F5000ED543FC3940774809480500A74F62FFFB9
:100F600074FF3EFE8005EF1F70011EEF5401FCEE82
:100F7000C313EF13FD75C7AA75C7558D8475C7AA2E
:100F800075C7558C85A2AF9203C2AF75C7AA75C746
:080F900055539FFEA20392AF2E
:010F98002236
:10180B00EF24FD60121460282402704B7F02121823
:10181B009E7F02121725227F03121725A2AF920378
:10182B00C2AF75C7AA75C7555397DFA20392AF22F4
:10183B007F0212189E7F021217257F0412189E7FBB
:10184B0004121725A2AF9203C2AF75C7AA75C7556D
:08185B005397DFA20392AF22B4
:10189E00EF24FC60222402702FA2AF9203C2AF7518
:1018AE00C7AA75C755439720A20392AFE59644DFAA
:1018BE0064DF701480F62275C7AA75C7554397C0AA
:0918CE00E59644F764F760F82286
:1019CB00E4F591EF24FC60182402701DA2AF920382
:1019DB00C2AF75C7AA75C7555397DFA20392AF2243
:0A19EB0075C7AA75C75553973F2230
:10172500E4F591A2AF9203C2AFEF24FD602F1460E0
:101735005424027063A2AF9203C2AF75C7AA75C7DE
:10174500555396FBA20392AFA2AF9203C2AF75C7E2
:10175500AA75C7555396FDA20392AF803BA2AF92DF
:1017650003C2AF75C7AA75C755439604A20392AFC6
:10177500A2AF9203C2AF75C7AA75C7555396FDA20E
:101785000392AF8013A2AF9203C2AF75C7AA75C704
:0D17950055439608A20392AFA20392AF2223
:081C05003099FDC2998F99226C
:10148E00021BEBE493A3F8E493A34003F68001F26E
:10149E0008DFF48029E493A3F85407240CC8C3335F
:1014AE00C4540F4420C8834004F456800146F6DF2E
:1014BE00E4800B0102040810204080901AC1E47EE3
:1014CE00019360BCA3FF543F30E509541FFEE49323
:1014DE00A360010ECF54C025E060A840B8E493A3EA
:1014EE00FAE493A3F8E493A3C8C582C8CAC583CA15
:1014FE00F0A3C8C582C8CAC583CADFE9DEE780BECD
:011ADA00000B
:10007E00BB010689828A83E0225002E722BBFE0280
:09008E00E32289828A83E49322B3
:10009700BB010CE58229F582E5833AF583E022501E
:1000A70006E92582F8E622BBFE06E92582F8E22268
:0D00B700E58229F582E5833AF583E4932282
:1000C400BB010689828A83F0225002F722BBFE011B
:0200D400F32215
:1000D600F8BB010DE58229F582E5833AF583E8F060
:1000E600225006E92582C8F622BBFE05E92582C80C
:0200F600F222F4
:1000F80075F008758200EF2FFFEE33FECD33CDCCBF
:1001080033CCC58233C5829BED9AEC99E582984041
:100118000CF582EE9BFEED9AFDEC99FC0FD5F0D61E
:10012800E4CEFBE4CDFAE4CCF9A88222B800C1B948
:100138000059BA002DEC8BF084CFCECDFCE5F0CB86
:10014800F97818EF2FFFEE33FEED33FDEC33FCEBBF
:1001580033FB10D703994004EB99FB0FD8E5E4F97A
:10016800FA227818EF2FFFEE33FEED33FDEC33FC67
:10017800C933C910D7059BE99A4007EC9BFCE99A5B
:10018800F90FD8E0E4C9FAE4CCFB2275F010EF2FA0
:10019800FFEE33FEED33FDCC33CCC833C810D707A0
:1001A8009BEC9AE899400AED9BFDEC9AFCE899F8DB
:0E01B8000FD5F0DAE4CDFBE4CCFAE4C8F9226E
:1001C600E8600FECC313FCED13FDEE13FEEF13FF17
:0301D600D8F1223B
:1001D900E3F5F009E208B5F06D606B80F3E3F5F043
:1001E90009E608B5F060605E80F387F009E608B5B6
:1001F900F054605280F487F009E208B5F04860468F
:1002090080F488828C8387F009E0A3B5F0386036E2
:1002190080F488828C8387F009E493A3B5F0276082
:100229002580F388828C83E3F5F009E0A3B5F01605
:10023900601480F388828C83E3F5F009E493A3B515
:10024900F004600280F2020304808580E7808E80DA
:10025900D2803C8015806C807E809B80B5808B80AD
:10026900A1804F8070803A02031089828A83ECFA58
:10027900E493F5F0A3C8C582C8CCC583CCE493A3A5
:10028900C8C582C8CCC583CCB5F070606E80E189E1
:10029900828A83E493F5F0A3E208B5F05E605C809E
:1002A900F289828A83E0F5F0A3E608B5F04D604B48
:1002B90080F389828A83E0F5F0A3E208B5F03C6017
:1002C9003A80F389828A83E493F5F0A3E608B5F0CE
:1002D9002A602880F2805389828A83ECFAE493F5B4
:1002E900F0A3C8C582C8CCC583CCE0A3C8C582C861
:1002F900CCC583CCB5F004600280E27FFFB5F00283
:100309000F2240027F012289828A83ECFAE0F5F00C
:10031900A3C8C582C8CCC583CCE0A3C8C582C8CC54
:10032900C583CCB5F0D560D380E389828A83ECFAA2
:10033900E0F5F0A3C8C582C8CCC583CCE493A3C8B3
:10034900C582C8CCC583CCB5F0B160AF80E288F076
:10035900ED2402B4040050A3F582EB2402B4040096
:0B036900509923234582239002527319
:10037400E709F60870FA8046E709F20870FA803E49
:1003840088828C83E709F0A370FA807EE309F6087B
:1003940070FA8076E309F20870FA806E88828C83A2
:1003A400E309F0A370FA806289828A83E0A3F608E5
:1003B40070FA805689828A83E0A3F20870FA804A30
:1003C40080D280FA80C680D4806580F2803180102B
:1003D40080A680EA809A80A880DA80E280CA803190
:1003E40089828A83ECFAE493A3C8C582C8CCC58306
:1003F400CCF0A3C8C582C8CCC583CC70E9800D8974
:10040400828A83E493A3F60870F9ECFAA9F0EDFB71
:100414002289828A83ECFAE0A3C8C582C8CCC5834A
:10042400CCF0A3C8C582C8CCC583CC70EA80DD8972
:10043400828A83E493A3F20870F980CE88F0ED24D5
:1004440002B4040050C4F582EB2402B4040050BA90
:0904540023234582239003C473A5
:101AA500E94A4B70012212007EFF6D700122EF7032
:0C1AB50004FBFAF92209E970ED0A80EA4E
:1011E7008B218A228923AB21AA22A92312007EFF01
:1011F700121B7B500D74012523F523E43522F522BC
:1012070080E4D204AB21AA22A92312007EFF642B1B
:101217006004EFB42D1BAB210523E523AA2270023E
:10122700052214F912007E642D6003D38001C39256
:1012370004E4F524F525AB21AA22A92312007EFF99
:10124700121BCF5036AB21AA22A92312007EFF33EF
:1012570095E0FEEF24D0FBEE34FFFAAE24AF257CF9
:10126700007D0A120489EF2BF525EE3AF524740167
:101277002523F523E43522F52280BB300406AE246E
:0E128700AF258009C3E49525FFE49524FE22DF
:10045D00EF4E6012EF60010EEDBB010B89828A83B6
:10046D00F0A3DFFCDEFA2289F05007F709DFFCA9C3
:0C047D00F022BBFEFCF309DFFCA9F0221A
:10048900EF8DF0A4A8F0CF8CF0A428CE8DF0A42E87
:02049900FE2241
:0F1BCF00EFC394304007EF943A50028001C322D5
:101B7B00EFC394094005EF940E4003BF2003D380BD
:031B8B0001C32271
:00000001FF
