:03000000022531A5
:0C253100787FE4F6D8FD7581570225780C
:10235A00A2AF920CC2AF75C7AA75C755E4F591A290
:10236A000C92AF43B10153B2FEA2AF920CC2AF7549
:10237A00C7AA75C755F591A20C92AF43B30153B4DE
:10238A00FEA2AF920CC2AF75C7AA75C755F591A246
:10239A000C92AF53B3FD43B402A2AF920CC2AF7515
:1023AA00C7AA75C755F591A20C92AF53B3FB43B4B4
:1023BA0004A2AF920CC2AF75C7AA75C755F591A210
:1023CA000C92AF53B3F753B4F7A2AF920CC2AF75E6
:1023DA00C7AA75C755F591A20C92AF53B3EF53B480
:1023EA00EFA2AF920CC2AF75C7AA75C755F591A2F5
:0A23FA000C92AF53B1BF53B2BF22E3
:102BE7004389015389FD438E085389FB5389F72293
:100003008E268F27E5274526600DE52715277002E5
:080013001526122AC980ED2216
:102AC900E4F58CF58AD28CAF8CEFFEAD8A7C00E4FC
:102AD9002DFFEC3EFEC3EF9480EE943E40E9C28C9C
:012AE90022CA
:061AF4008E268F278D28CD
:101AFA00E4F529E5277807CEC313CE13D8F978077A
:101B0A00C333CE33CED8F9F52B8E2AE4F529C3E5B3
:101B1A002994807480948050217E00E52B2529FF2A
:101B2A00EE352AFE122C357E0074002529F582E452
:101B3A003400F583EFF0052980D47E00E527547F31
:101B4A002400F582EE3400F583E528F0E52BF5A6AE
:101B5A00E52AF5A775AEFFA2AF920CC2AF75C7AA68
:101B6A0075C755439F01A20C92AFA2AF920CC2AFA8
:101B7A0075C7AA75C75543A501A20C92AF75AF22C6
:101B8A00A2AF920CC2AF75C7AA75C75543A401A2EA
:101B9A000C92AFA2AF920CC2AF75C7AA75C75543D4
:101BAA009F01A20C92AFA2AF920CC2AF75C7AA75E1
:101BBA00C75543A501A20C92AF75AF21E4F529C31D
:101BCA00E529948074809480502FE52B2529F5A669
:101BDA00E52AF5A774002529F582E43400F583E0A7
:101BEA00F5AEA2AF920CC2AF75C7AA75C75543A48A
:101BFA0001A20C92AF052980C6A2AF920CC2AF75A2
:101C0A00C7AA75C75553A5FEA20C92AFA2AF920CF4
:0F1C1A00C2AF75C7AA75C755539FFEA20C92AFF4
:011C29002298
:042C35008F828E8379
:032C3900E493FF22
:012C3C002275
:0A25BD008E088F098B0A8A0B890C27
:1025C700E5097807CEC313CE13D8F9FDE509250E23
:1025D700FFE508350DFEEF7807CEC313CE13D8F904
:1025E700F50FED650F6043AB0AAA0BA90C751580B3
:1025F700AF09AE08121797AC07EC2509F509E435C2
:1026070008F508EC250CF50CE4350BF50BECC3E5E8
:102617000E9FF50EE50D9400F50DAE08E509780758
:10262700CEC313CE13D8F9FD80B8E50E450D601063
:10263700AB0AAA0BA90C850E15AF09AE081217979E
:012647002270
:0A291D008E188F198B1A8A1B891C73
:10292700E4FFFEC3EF951EEE951D5021E5192FFD1F
:10293700E5183E8D82F583E493AB1AAA1BA91C8F79
:0D294700828E83120B4B0FBF00010E80D655
:012954002260
:0A1797008E108F118B128A13891433
:1017A100A2AF920CC2AF75C7AA75C755439F01A2DC
:1017B1000C92AFA2AF920CC2AF75C7AA75C75543C1
:1017C100A501A20C92AFE511547FF517C374809562
:1017D10017F516E515D395164003851615AD11AC11
:1017E10010E4F516E516C395155012ED2516F58290
:1017F100E43CF583E493F47004051680E7E516658F
:1018010015707875AF218511A6E510F5A7E4F516D9
:10181100E516C39515502AAB12AA13A91485168291
:10182100758300120B0CF5AEA2AF920CC2AF75C757
:10183100AA75C75543A401A20C92AF05A60516804F
:10184100CFE4F516E516C395155022AB12AA13A9DC
:1018510014851682758300120B0CFFED2516F58297
:10186100E43CF583E493B50704051680D7E51665D6
:101871001570030219718003021971E5115480ACCE
:1018810010FDE4F516C3E516948074809480501D14
:10189100ED2516F582E43CF583E493FF748025166B
:1018A100F582E43400F583EFF0051680D8E4F516EF
:1018B100E516C395155023AB12AA13A914851682F8
:1018C100758300120B0CFFE51725162480F582E4C1
:1018D1003400F583EFF0051680D6E5115480F5A6A6
:1018E100E510F5A775AF2275AEFFA2AF920CC2AF9E
:1018F10075C7AA75C75543A401A20C92AF75AF2154
:10190100E4F516C3E51694807480948050277480A2
:101911002516F582E43400F583E0F5AEA2AF920C12
:10192100C2AF75C7AA75C75543A401A20C92AF05F2
:10193100A6051680CEE4F516AF167E00C3EF94809F
:10194100748094805021ED2516F582E43CF583E402
:1019510093FB74802516F582E43400F583E0FAEBFD
:10196100B50204051680D1EF64804E60030218DBD6
:10197100A2AF920CC2AF75C7AA75C755539FFEA2FD
:051981000C92AFAF1550
:01198600223E
:1021FE00A2AF920CC2AF75C7AA75C755439F01A275
:10220E000C92AF75A604E4F5A775AE0F75AFE1A2FB
:10221E00AF920CC2AF75C7AA75C75543A504A20CE1
:10222E0092AFA2AF920CC2AF75C7AA75C75543A4A1
:10223E0001A20C92AFE59F5440644060F8A2AF92A9
:10224E000CC2AF75C7AA75C75553A5FBA20C92AFAA
:10225E00A2AF920CC2AF75C7AA75C755539FFEA207
:10226E000C92AF75C7AA75C75575AA07A2AF920C87
:10227E00C2AF75C7AA75C75543AA40A20C92AFAF9D
:10228E00AAEF44BF74FF60F7D2AFA2AF920CC2AFF9
:0E229E0075C7AA75C75543AA80A20C92AF223D
:0C2A0F00C109C10A024C0000024E000088
:102B7000E54D2480FFE4354CFEC3EF954FFFEE9505
:062B80004EEF547FFF221E
:10006200E54D2401FFE4354CFEEFB54F08EEB54EE9
:08007200047F0180027F0022DF
:102B4200E4F54CF54DF54EF54FFE7F80FD7B017AA5
:072B5200017900120F372288
:102A8300EFF5827583007E00FDC3E54D9DFDE54CAA
:102A93009400FC74002DF974013CFA7B017D001253
:032AA3000F3722C8
:102BC500E54DB54F09E54CB54E047F0180027F0008
:012BD50022DD
:102BD600AE4CAF4D74FF2FF58274003EF583E0FFD7
:012BE60022CC
:102A5E00AD07120062EF701C054DE54DAE4C7002D5
:102A6E00054C142400F58274013EF583EDF0534DB0
:052A7E007F754C0022F1
:102A3800122BC5EF60037F0022054FE54FAE4E70A5
:102A480002054E142400F58274013EF583E0FF531D
:052A58004F7F754E00E8
:012A5D002256
:030023000228A907
:1028A900C0E0C083C082C0D075D000C005C006C0DA
:1028B90007C09130980CD20A85994AAF4A122A5E0C
:1028C900C298309905200902C299D091D007D00643
:0B28D900D005D0D0D082D083D0E032F8
:03007B00022B59FC
:102B5900C09130F807859A4BD20BC2F830F905209D
:072B69000902C2F9D091320C
:101987008F258E248D238C22E52614605214700334
:10199700021A7924026003021AF3759850438920CA
:1019A700438780438E10A2AF920CC2AF75C7AA754A
:1019B700C755E4F591A20C92AF53C4DF7B10FAF937
:1019C700F8AF25AE24AD23AC22120BF8AB2AAA2917
:1019D700A928A827120BF8EFF404F58DD28E2275EB
:1019E700985043878053C4F8A2AF920CC2AF75C713
:1019F700AA75C755E4F591A20C92AF43C4207B109A
:101A0700FAF9F8AF25AE24AD23AC22120BF8AB2AB6
:101A1700AA29A928A827120BF8C3E49FFFE49EFE72
:101A270074019DFDE49CFC7808120CA08FC6E47B32
:101A370010FAF9F8AF25AE24AD23AC22120BF8ABA0
:101A47002AAA29A928A827120BF8C3E49FFFE49E16
:101A5700FE74019DFDE49CFCEFE48FC5A2AF920CE0
:101A6700C2AF75C7AA75C755F591A20C92AF43C40B
:101A7700082275F85075C480E47B10FAF9F8AF2591
:101A8700AE24AD23AC22120BF8AB2AAA29A928A8A9
:101A970027120BF8C3E49FFFE49EFE74019DFDE44B
:101AA7009CFC7808120CA08FC6E47B10FAF9F8AFFB
:101AB70025AE24AD23AC22120BF8AB2AAA29A928FC
:101AC700A827120BF8C3E49FFFE49EFE74019DFD57
:101AD700E49CFCEFE48FC5A2AF920CC2AF75C7AA16
:0D1AE70075C755F591A20C92AF43C40822BB
:0D2C1500EF1460060470058D99228D9A223F
:10295500A2AF920CC2AF75C7AA75C755E4F591A28F
:102965000C92AF53B1BF53B2BFF526F52A7529C2F4
:10297500752801F527FF7E367D6E7C01121987D2F9
:0429850099D20922B8
:102B860075BE2753B3F753B4F753B3EF53B4EFD22D
:062B960093D294D2C62286
:081C2A008F2B8B2C8A2D892ED3
:101C3200AFBDEF64F860037F0022C2C4D2C5C2C345
:101C4200753100753201E4F53320C315E5324531B3
:101C52007005753301800A0532E532700205318064
:101C6200E8E53360061229B97F0022AFBDEF6408B0
:101C720060061229B97F0022C2C5C2C475BCD0C297
:101C8200C3753100753201E4F53320C315E53245E1
:101C9200317005753301800A0532E5327002053173
:101CA20080E8E53360061229B97F0022AFBDEF64F8
:101CB2001860061229B97F0022C2C5C2C4852BBC96
:101CC200C2C3753100753201E4F53320C315E53224
:101CD20045317005753301800A0532E5327002051F
:101CE2003180E8E53360061229B97F0022AFBDEFEB
:101CF200642860061229B97F0022E4F530E530C37A
:101D0200952F504FAB2CAA2DA92E853082758300BA
:101D1200120B0CF5BCC2C3753100753201E4F53308
:101D220020C315E53245317005753301800A05324D
:101D3200E5327002053180E8E53360061229B97F89
:101D42000022AFBDEF642860061229B97F00220588
:061D52003080AA1229B93D
:011D58002268
:081597008F298B2A8A2B892C75
:10159F00AFBDEF64F860037F0022C2C4D2C5C2C3DF
:1015AF00752F00753001E4F53120C315E530452F57
:1015BF007005753101800A0530E5307002052F8006
:1015CF00E8E53160061229B97F0022AFBDEF64084C
:1015DF0060061229B97F0022C2C5C2C475BCD0C231
:1015EF00C3752F00753001E4F53120C315E5304583
:1015FF002F7005753101800A0530E5307002052F17
:10160F0080E8E53160061229B97F0022AFBDEF6493
:10161F001860061229B97F0022C2C5C2C48529BC31
:10162F00C2C3752F00753001E4F53120C315E530C5
:10163F00452F7005753101800A0530E530700205C0
:10164F002F80E8E53160061229B97F0022AFBDEF88
:10165F00642860061229B97F0022C2C4D2C5C2C352
:10166F00752F00753001E4F53120C315E530452F96
:10167F007005753101800A0530E5307002052F8045
:10168F00E8E53160061229B97F0022AFBDEF641083
:10169F0060061229B97F0022C2C5C2C475BCD1C26F
:1016AF00C3752F00753001E4F53120C315E53045C2
:1016BF002F7005753101800A0530E5307002052F56
:1016CF0080E8E53160061229B97F0022AFBDEF64D3
:1016DF004060061229B97F0022E4F52EE52D14FF94
:1016EF00E52EC39F5051D2C2C2C3752F0075300172
:1016FF00E4F53120C315E530452F700575310180B4
:10170F000A0530E5307002052F80E8E531600612DA
:10171F0029B97F0022AFBDEF645060061229B97F4F
:10172F000022AB2AAA2BA92C852E82758300E5BC3B
:10173F00120B4B052E80A5C2C2C2C3752F00753088
:10174F0001E4F53120C315E530452F7005753101E2
:10175F00800A0530E5307002052F80E8E53160061C
:10176F001229B97F0022AFBDEF645860061229B964
:10177F007F0022AB2AAA2BA92C852E82758300E528
:07178F00BC120B4B1229B93B
:011796002230
:10212E00AFBDEF64F860037F0022C2C4D2C5C2C344
:10213E00755000755101E4F55220C315E551455017
:10214E007005755201800A0551E5517002055080E7
:10215E00E8E55260061229B97F0022AFBDEF640890
:10216E0060061229B97F0022C2C5C2C475BCD1C295
:10217E00C3755000755101E4F55220C315E5514564
:10218E00507005755201800A0551E55170020550D7
:10219E0080E8E55260061229B97F0022AFBDEF64D8
:1021AE004060061229B97F0022C2C2C2C375500018
:1021BE00755101E4F55220C315E551455070057572
:1021CE005201800A0551E5517002055080E8E55232
:1021DE0060061229B97F0022AFBDEF645860061267
:0F21EE0029B97F0022AFBC7550008F511229B95B
:0121FD0022BF
:1029B900C2C5D2C4C2C37F017E00E4FDACBDEC64D4
:1029C900F8600FEF4E70047D0180070FBF00010E04
:0B29D90080EAED70047F0180027F00A7
:0129E40022D0
:102AEA00AE07EFC3940A748094804012EF75F00A1F
:102AFA0084FEEF75F00A84EEC454F045F0FEAF068A
:012B0A0022A8
:0E2BF700EFC4540F75F00AA4FEEF540F2EFF2A
:012C050022AC
:062648008B258A2689277C
:10264E00120AF3FF122AEA8F2A532A7F7B007A009E
:10265E00792A752F01E4FF121C2AAB25AA26A92779
:10266E00900001120B0CFF122AEA8F297B007A00D0
:10267E007929752F017F01121C2AAB25AA26A927BD
:10268E00900002120B0CFF122AEA8F28AB25AA2605
:10269E00A927900003120B0CFF7E006402700553F5
:1026AE0028BF80114328BFEF64014E7005432820D8
:1026BE0080035328DF7B007A007928752F017F0273
:0326CE00121C2AB1
:0126D10022E6
:062756008B438A44894513
:10275C00120AF3FF122AEA8F467B007A007946753B
:10276C002F017F03121C2AAB43AA44A945900001F8
:10277C00120B0CFF122AEA8F477B007A00794775FF
:10278C002F017F04121C2AAB43AA44A945900002D6
:10279C00120B0CFF122AEA8F487B007A00794875DD
:1027AC002F017F05121C2AAB43AA44A945900003B4
:1027BC00120B0CFF122AEA8F497B007A00794975BB
:0727CC002F017F06121C2AF9
:0127D30022E3
:062404008B228A238924CB
:10240A007B007A007927752D01E4FF12159753276F
:10241A007FAF27122BF7AB22AA23A924EF120B397D
:10242A007B007A007926752D017F01121597AF2658
:10243A00122BF7AB22AA23A924900001EF120B4B0F
:10244A007B007A007925752D017F02121597E52503
:10245A0030E62254207003D38001C340047F0180F8
:10246A00027F00AB22AA23A924900003EF120B4B90
:10247A0053259F800EAB22AA23A92490000374023D
:10248A00120B4BAF25122BF7AB22AA23A9249000DB
:05249A0002EF120B4BE4
:01249F00221A
:0626D2008B228A238924FB
:1026D8007B007A007925752D017F03121597AF25A8
:1026E800122BF7AB22AA23A924EF120B397B007A0D
:1026F800007926752D017F04121597AF26122BF746
:10270800AB22AA23A924900001EF120B4B7B007A7D
:10271800007927752D017F05121597AF27122BF722
:10272800AB22AA23A924900002EF120B4B7B007A5C
:10273800007928752D017F06121597AF28122BF7FF
:0D274800AB22AA23A924900003EF120B4B33
:012755002261
:102B9C0053890F438910438E10758DC4758B17D2D2
:062BAC00ABD2AFD28E2275
:092C2C00122B27122C2280FB223E
:102048002443004F4B0D0A002453004E4F54204F99
:102058004B203D3E20445552494E472054494D455A
:10206800520D0A0024450024410044495341424C82
:10207800450D0A00454E41424C450D0A0053455452
:102088002054494D4552204552524F520D0A0031B5
:102098000D0A004A756D7020696E746F2061637453
:1020A800697665206D6F646520310D0A00320D0A6E
:1020B800004A756D7020696E746F2061637469766B
:1020C80065206D6F646520320D0A0031320D0A00FB
:1020D8004A756D70206F7574206163746976652028
:1020E8006D6F64652031203C200D0A004A756D70C3
:1020F800206F757420616374697665206D6F6465FF
:102108002031203E200D0A0032310D0A004A756D3B
:1021180070206F757420616374697665206D6F64D3
:062128006520320D0A00E3
:102A1B000256000041019E004101830141018202E7
:0C2A2B0041019900410184024101810039
:102B27007F07121E6512235A122AA6122BE7122BB1
:0B2B3700861229891224A0122B9C2278
:0A2C2200121F6012130712007E2239
:102AA600752601E4752A80752925F528F527FF7E08
:102AB600247DF4FC121987D299D209D2ACD2AF1276
:032AC6002B42227E
:101F6000E4F522F523900182E06402600302204739
:101F7000A3E06401705C309050D2927F0AFE1200A0
:101F80000330904EE523B4D02FE522B4072AC29146
:101F9000D2929001837402F07F087E30122C357546
:101FA00024008F25E52564024524600C900183E020
:101FB000FD7F087E30121AF47F017E0012000305B7
:101FC00023E5237002052280B8308003D38001C34B
:101FD0009292900183E06402706D309068D2917F9C
:101FE0000AFE120003E4F522F52330905AE523643B
:101FF000D07004E5226407703BC292D2917F64FEE8
:10200000120003C2917F647E00120003D2919001FE
:10201000837401F07F087E30122C357524008F25E3
:10202000E52564014524600C900183E0FD7F087E76
:1020300030121AF47F017E001200030523E523709D
:0720400002052280A5C291F8
:012047002276
:102989007F087E30122C35EFF46005900183EFF05B
:10299900900183E0FF7E0064017005D291C292220A
:0F29A900EF64024E7005C291D29222D291C29277
:0129B80022FC
:1024A0007F207E30122C359001A0EFF07F217E300E
:1024B000122C35900198EFF07F227E30122C35904F
:1024C0000186EFF07430FFFE122C35900185EFF09D
:1024D0007F317E30122C35900180EFF07F327E30DC
:1024E000122C3590019FEFF07F427E30122C35EF99
:1024F000F46005900184EFF07F407E30122C35EFC0
:10250000F46005900182EFF07F417E30122C35EFB0
:10251000F46005900199EFF0900182E0FF7E006485
:10252000017005D291C29222EF4E7004C291C29204
:012530002288
:10130700122BD6EF64236003021596122B70EF6041
:101317001A122A38BF24F4900181E0FF04F0748B7D
:101327002FF582E43401F5837424F0122B70EF60FB
:1013370018122A38900181E0FE04F0748B2EF58292
:10134700E43401F583EFF080E2900181E0248BF52E
:1013570082E43401F583E4F07F0D122A83752801B6
:10136700752901752AA4752B01752C01752DA77593
:101377002E01752F017530AA75310175320175334C
:101387008B7B017A0179A1121D5978A17C017D011E
:101397007BFF7A207948120E31EF703F7B017A018B
:1013A70079A41222AC90019CEFF07B017A0179A716
:1013B7001222AC90019BEFF07B017A0179AA1222ED
:1013C700AC90019AEFF07B017A01799A1226487B5B
:1013D700FF7A20794B12100D02158478A17C017DCC
:1013E700017BFF7A207950120E31EF706C900199D2
:1013F700E0705A7B017A0179A41222AC9001A0EF28
:10140700F07B017A0179A71222AC900198EFF07B6B
:10141700017A0179AA1222AC900186EFF09001A01F
:10142700E0FD7F207E30121AF4900198E0FD7F21C5
:101437007E30121AF4900186E0FD7F227E30121A68
:10144700F47BFF7A20794B12100D0215847BFF7A0B
:1014570020795312100D02158478A17C017D017B40
:10146700FF7A20796C120E31EF706C900199E07061
:101477005A7B017A0179A41222AC900185EFF07BA7
:10148700017A0179A71222AC900180EFF07B017AF3
:101497000179AA1222AC90019FEFF0900185E0FD3F
:1014A7007430FFFE121AF4900180E0FD7F317E3028
:1014B700121AF490019FE0FD7F327E30121AF47BFE
:1014C700FF7A20794B12100D0215847BFF7A207961
:1014D7005312100D02158478A17C017D017BFF7AE0
:0C14E70020796F120E31EF6003021584B3
:1014F3007B017A0179A41222AC8F227B017A0179D4
:10150300A71222AC8F237B017A0179AA1222AC8F16
:1015130024E5227033E523702FEF702C900199F0AE
:101523009001827402F0FD7F407E30121AF4900124
:1015330099E0FD7F417E30121AF41229897BFF7AEC
:1015430020797212100D8039E522640B7033E52384
:10155300640B702DE524640B702790019904F0E46B
:10156300900182F0FD7F407E30121AF4900199E0E1
:10157300FD7F417E30121AF47BFF7A20797C1210B2
:011583000D5A
:10158400E4900181F0FE7F0DFD7B017A01798B12DD
:021594000F370F
:011596002232
:061D59008B258A26892774
:101D5F00E94A4B7003021E64E52A452945287003A2
:101D6F00021E64E52D452C452B7003021E64E530E1
:101D7F00452F452E7003021E64E533453245317001
:101D8F0003021E64AB31AA32A9338B348A358936EC
:101D9F008B378A3889397D2C122B0B8B348A3589F6
:101DAF0036E94A4B6013E4120B39A827AC26AD2550
:101DBF00AB37AA38A939120F1AAB34E5362401F91B
:101DCF00E43535FA8B3AF53B893C7D2C122B0B8B86
:101DDF00348A358936E94A4B6013E4120B39A82A45
:101DEF00AC29AD28AB3AAA3BA93C120F1AAB34E58C
:101DFF00362401F9E43535FA8B3DF53E893F7D2CCC
:101E0F00122B0B8B348A358936E94A4B6013E41257
:101E1F000B39A82DAC2CAD2BAB3DAA3EA93F120F11
:101E2F001AAB34E5362401F9E43535FA8B40F54128
:101E3F0089427D23122B0B8B348A358936E94A4B25
:101E4F006013E4120B39A830AC2FAD2EAB40AA4172
:051E5F00A942120F1A58
:011E6400225B
:10007E0090019EE064016003020AF2900199E0642F
:10008E00016003020AED7B017A01799A1224047B46
:10009E00017A0179871226D2900182E0600302056F
:1000AE00B6900180E0FFE4FCFDFE7B3CFAF9F8120D
:1000BE000B6DC004C005C006C007900185E0FFE4CB
:1000CE00FCFDFE7B107A0EF9F8120B6DD003D002F8
:1000DE00D001D000EF2BFBEE3AFAED39F9EC38F8FF
:1000EE0090019FE0FFE4FCFDFEEB2FFFEE3AFEEDEC
:1000FE0039FDEC38FCC004C005C006C0079001985D
:10010E00E0FFE4FCFDFE7B3CFAF9F8120B6DC00437
:10011E00C005C006C0079001A0E0FFE4FCFDFE7B19
:10012E00107A0EF9F8120B6DD003D002D001D00068
:10013E00EF2BFBEE3AFAED39F9EC38F8900186E048
:10014E00FFE4FCFDFEEB2FFBEE3AFAED39F9EC384D
:10015E00F8D007D006D005D004C3120C8A701790C1
:10016E0001827402F0FD7F407E30121AF47BFF7A1A
:10017E0020798512100D900180E0FFE4FCFDFE7BDE
:10018E003CFAF9F8120B6DC004C005C006C007900A
:10019E000185E0FFE4FCFDFE7B107A0EF9F8120BF0
:1001AE006DD003D002D001D000EF2BFBEE3AFAED6A
:1001BE0039F9EC38F890019FE0FFE4FCFDFEEB2FDF
:1001CE00FFEE3AFEED39FDEC38FCC004C005C0066A
:1001DE00C007900198E0FFE4FCFDFE7B3CFAF9F8C5
:1001EE00120B6DC004C005C006C0079001A0E0FF51
:1001FE00E4FCFDFE7B107A0EF9F8120B6DD003D0E5
:10020E0002D001D000EF2BFBEE3AFAED39F9EC38C3
:10021E00F8900186E0FFE4FCFDFEEB2FFBEE3AFAD0
:10022E00ED39F9EC38F8D007D006D005D004C3125A
:10023E000C8A40030203FE7BFF7A20799712100D81
:10024E00900198E0FFE4FCFDFE7B3CFAF9F8120BFE
:10025E006DC004C005C006C0079001A0E0FFE4FC1D
:10026E00FDFE7B107A0EF9F8120B6DD003D002D082
:10027E0001D000EF2BFBEE3AFAED39F9EC38F8909D
:10028E000186E0FFE4FCFDFEEB2FFFEE3AFEED39BA
:10029E00FDEC38FCC004C005C006C00790019BE011
:1002AE00FFE4FCFDFE7B3CFAF9F8120B6DC004C0B6
:1002BE0005C006C00790019CE0FFE4FCFDFE7B102C
:1002CE007A0EF9F8120B6DD003D002D001D000EFE8
:1002DE002BFBEE3AFAED39F9EC38F890019AE0FF83
:1002EE00E4FCFDFEEB2FFBEE3AFAED39F9EC38F8B3
:1002FE00D007D006D005D004D3120C8A50030203C7
:10030E00FE900180E0FFE4FCFDFE7B3CFAF9F81262
:10031E000B6DC004C005C006C007900185E0FFE468
:10032E00FCFDFE7B107A0EF9F8120B6DD003D00295
:10033E00D001D000EF2BFBEE3AFAED39F9EC38F89C
:10034E0090019FE0FFE4FCFDFEEB2FFFEE3AFEED89
:10035E0039FDEC38FCC004C005C006C00790019BF7
:10036E00E0FFE4FCFDFE7B3CFAF9F8120B6DC004D5
:10037E00C005C006C00790019CE0FFE4FCFDFE7BBB
:10038E00107A0EF9F8120B6DD003D002D001D00006
:10039E00EF2BFBEE3AFAED39F9EC38F890019AE0D2
:1003AE00FFE4FCFDFEEB2FFBEE3AFAED39F9EC38EB
:1003BE00F8D007D006D005D004C3120C8A5031D223
:1003CE0091C2929001827402F09001847404F07DC7
:1003DE00027F407E30121AF4900184E0FD7F427E4F
:1003EE0030121AF41229897BFF7A20799B12100D94
:1003FE00900180E0FFE4FCFDFE7B3CFAF9F8120B65
:10040E006DC004C005C006C007900185E0FFE4FC86
:10041E00FDFE7B107A0EF9F8120B6DD003D002D0D0
:10042E0001D000EF2BFBEE3AFAED39F9EC38F890EB
:10043E00019FE0FFE4FCFDFEEB2FFFEE3AFEED39EF
:10044E00FDEC38FCC004C005C006C007900198E062
:10045E00FFE4FCFDFE7B3CFAF9F8120B6DC004C004
:10046E0005C006C0079001A0E0FFE4FCFDFE7B1076
:10047E007A0EF9F8120B6DD003D002D001D000EF36
:10048E002BFBEE3AFAED39F9EC38F8900186E0FFE5
:10049E00E4FCFDFEEB2FFBEE3AFAED39F9EC38F801
:1004AE00D007D006D005D004D3120C8A5003020513
:1004BE00B67BFF7A2079B512100D900198E0FFE41B
:1004CE00FCFDFE7B3CFAF9F8120B6DC004C005C0B2
:1004DE0006C0079001A0E0FFE4FCFDFE7B107A0E43
:1004EE00F9F8120B6DD003D002D001D000EF2BFB28
:1004FE00EE3AFAED39F9EC38F8900186E0FFE4FCBB
:10050E00FDFEEB2FFFEE3AFEED39FDEC38FCC0049C
:10051E00C005C006C00790019BE0FFE4FCFDFE7B1A
:10052E003CFAF9F8120B6DC004C005C006C0079066
:10053E00019CE0FFE4FCFDFE7B107A0EF9F8120B35
:10054E006DD003D002D001D000EF2BFBEE3AFAEDC6
:10055E0039F9EC38F890019AE0FFE4FCFDFEEB2F40
:10056E00FBEE3AFAED39F9EC38F8D007D006D005A3
:10057E00D004D3120C8A4030D291C2929001827470
:10058E0002F090018404F07D027F407E30121AF456
:10059E00900184E0FD7F427E30121AF41229897B8D
:1005AE00FF7A2079B912100D900182E06402600387
:1005BE00020AED900180E0FFE4FCFDFE7B3CFAF9BF
:1005CE00F8120B6DC004C005C006C007900185E08F
:1005DE00FFE4FCFDFE7B107A0EF9F8120B6DD003D2
:1005EE00D002D001D000EF2BFBEE3AFAED39F9EC48
:1005FE0038F890019FE0FFE4FCFDFEEB2FFFEE3A92
:10060E00FEED39FDEC38FCC004C005C006C00790F5
:10061E000198E0FFE4FCFDFE7B3CFAF9F8120B6D4D
:10062E00C004C005C006C0079001A0E0FFE4FCFDB9
:10063E00FE7B107A0EF9F8120B6DD003D002D001AA
:10064E00D000EF2BFBEE3AFAED39F9EC38F89001C9
:10065E0086E0FFE4FCFDFEEB2FFBEE3AFAED39F9F6
:10066E00EC38F8D007D006D005D004C3120C8A405F
:10067E000302086C900184E06404600302086C7B42
:10068E00FF7A2079D312100D900198E0FFE4FCFD63
:10069E00FE7B3CFAF9F8120B6DC004C005C006C013
:1006AE00079001A0E0FFE4FCFDFE7B107A0EF9F846
:1006BE00120B6DD003D002D001D000EF2BFBEE3A1F
:1006CE00FAED39F9EC38F8900186E0FFE4FCFDFE16
:1006DE00EB2FFFEE3AFEED39FDEC38FCC004C00501
:1006EE00C006C00790019BE0FFE4FCFDFE7B3CFAD8
:1006FE00F9F8120B6DC004C005C006C00790019C2E
:10070E00E0FFE4FCFDFE7B107A0EF9F8120B6DD0C3
:10071E0003D002D001D000EF2BFBEE3AFAED39F9FF
:10072E00EC38F890019AE0FFE4FCFDFEEB2FFBEEB7
:10073E003AFAED39F9EC38F8D007D006D005D004E6
:10074E00C3120C8A502DC291C292E4900182F09095
:10075E0001847402F0E4FD7F407E30121AF49001A1
:10076E0084E0FD7F427E30121AF47BFF7A2079D826
:10077E0012100D900180E0FFE4FCFDFE7B3CFAF9C7
:10078E00F8120B6DC004C005C006C007900185E0CD
:10079E00FFE4FCFDFE7B107A0EF9F8120B6DD00310
:1007AE00D002D001D000EF2BFBEE3AFAED39F9EC86
:1007BE0038F890019FE0FFE4FCFDFEEB2FFFEE3AD0
:1007CE00FEED39FDEC38FCC004C005C006C0079034
:1007DE00019BE0FFE4FCFDFE7B3CFAF9F8120B6D89
:1007EE00C004C005C006C00790019CE0FFE4FCFDFC
:1007FE00FE7B107A0EF9F8120B6DD003D002D001E9
:10080E00D000EF2BFBEE3AFAED39F9EC38F8900107
:10081E009AE0FFE4FCFDFEEB2FFBEE3AFAED39F920
:10082E00EC38F8D007D006D005D004D3120C8A408D
:10083E002DC291C292E4900182F09001847402F074
:10084E00E4FD7F407E30121AF4900184E0FD7F4279
:10085E007E30121AF47BFF7A2079F412100D90017B
:10086E0080E0FFE4FCFDFE7B3CFAF9F8120B6DC054
:10087E0004C005C006C007900185E0FFE4FCFDFE44
:10088E007B107A0EF9F8120B6DD003D002D001D086
:10089E0000EF2BFBEE3AFAED39F9EC38F890019FA8
:1008AE00E0FFE4FCFDFEEB2FFFEE3AFEED39FDEC32
:1008BE0038FCC004C005C006C007900198E0FFE4F4
:1008CE00FCFDFE7B3CFAF9F8120B6DC004C005C0AE
:1008DE0006C0079001A0E0FFE4FCFDFE7B107A0E3F
:1008EE00F9F8120B6DD003D002D001D000EF2BFB24
:1008FE00EE3AFAED39F9EC38F8900186E0FFE4FCB7
:10090E00FDFEEB2FFBEE3AFAED39F9EC38F8D00795
:10091E00D006D005D004D3120C8A5003020AED90F3
:10092E000184E064036003020AED7BFF7A217910F3
:10093E0012100D900198E0FFE4FCFDFE7B3CFAF9ED
:10094E00F8120B6DC004C005C006C0079001A0E0F0
:10095E00FFE4FCFDFE7B107A0EF9F8120B6DD0034E
:10096E00D002D001D000EF2BFBEE3AFAED39F9ECC4
:10097E0038F8900186E0FFE4FCFDFEEB2FFFEE3A27
:10098E00FEED39FDEC38FCC004C005C006C0079072
:10099E00019BE0FFE4FCFDFE7B3CFAF9F8120B6DC7
:1009AE00C004C005C006C00790019CE0FFE4FCFD3A
:1009BE00FE7B107A0EF9F8120B6DD003D002D00127
:1009CE00D000EF2BFBEE3AFAED39F9EC38F8900146
:1009DE009AE0FFE4FCFDFEEB2FFBEE3AFAED39F95F
:1009EE00EC38F8D007D006D005D004C3120C8A40DC
:1009FE0003020AED900180E0FFE4FCFDFE7B3CFA71
:100A0E00F9F8120B6DC004C005C006C00790018531
:100A1E00E0FFE4FCFDFE7B107A0EF9F8120B6DD0B0
:100A2E0003D002D001D000EF2BFBEE3AFAED39F9EC
:100A3E00EC38F890019FE0FFE4FCFDFEEB2FFFEE9B
:100A4E003AFEED39FDEC38FCC004C005C006C00707
:100A5E0090019BE0FFE4FCFDFE7B3CFAF9F8120BE3
:100A6E006DC004C005C006C00790019CE0FFE4FC09
:100A7E00FDFE7B107A0EF9F8120B6DD003D002D06A
:100A8E0001D000EF2BFBEE3AFAED39F9EC38F89085
:100A9E00019AE0FFE4FCFDFEEB2FFBEE3AFAED3996
:100AAE00F9EC38F8D007D006D005D004D3120C8A52
:100ABE00402DC291C292E4900182F09001847402A2
:100ACE00F0E4FD7F407E30121AF4900184E0FD7F49
:100ADE00427E30121AF47BFF7A21791512100DE442
:050AEE0090019EF022C2
:03001B00020026BA
:10002600C0E0C083C082C0D0C0910557E5577002BA
:100036000556C3E55794E8E5569403400C90019E97
:100046007401F0755600755700758DC4758B17C20F
:0C0056008DD091D0D0D082D083D0E03289
:021E6500A907CB
:101E6700E4F591E924F9600C14600E2402700D75F5
:101E7700A638800875A630800375A630A2AF920CED
:101E8700C2AF75C7AA75C755439F01A20C92AFE4AD
:101E9700F5A775AF04A2AF920CC2AF75C7AA75C7F5
:101EA7005543A401A20C92AFADAE05A6A2AF920C0A
:101EB700C2AF75C7AA75C75543A401A20C92AFACB0
:101EC700AEE924F8706FED25E0FFE433FEEC540132
:101ED7007A002FFFEA3EFE74F22FFF74FF3EFE7575
:101EE700AF0C75A601E4F5A7A2AF920CC2AF75C7F8
:101EF700AA75C75543A401A20C92AFABAEEB644BD6
:101F0700600EABAEEB64526007ABAEEB6453701B75
:101F1700ED543FC3940774809480500A74F62FFFE2
:101F270074FF3EFE8005EF1F70011EEF5401FCEEAB
:101F3700C313EF13FD75C7AA75C7558D8475C7AA57
:101F470075C7558C85A2AF920CC2AF75C7AA75C766
:081F570055539FFEA20C92AF4E
:011F5F00225F
:10285100EF24FD60121460282402704B7F021228BD
:10286100E47F021227D4227F031227D4A2AF920C55
:10287100C2AF75C7AA75C7555397DFA20C92AF2295
:102881007F021228E47F021227D47F041228E47FFA
:10289100041227D4A2AF920CC2AF75C7AA75C7554F
:0828A1005397DFA20C92AF2255
:1028E400EF24FC60222402702FA2AF920CC2AF75B9
:1028F400C7AA75C755439720A20C92AFE59644DF4B
:1029040064DF701480F62275C7AA75C7554397C053
:09291400E59644F764F760F8222F
:1029E500E4F591EF24FC60182402701DA2AF920C4F
:1029F500C2AF75C7AA75C7555397DFA20C92AF2210
:0A2A050075C7AA75C75553973F2205
:1027D400E4F591A2AF920CC2AFEF24FD602F146018
:1027E4005424027063A2AF920CC2AF75C7AA75C716
:1027F400555396FBA20C92AFA2AF920CC2AF75C711
:10280400AA75C7555396FDA20C92AF803BA2AF9216
:102814000CC2AF75C7AA75C755439604A20C92AFF4
:10282400A2AF920CC2AF75C7AA75C7555396FDA245
:102834000C92AF8013A2AF920CC2AF75C7AA75C732
:0D28440055439608A20C92AFA20C92AF2251
:082C3D003099FDC2998F992224
:10253D00022C2CE493A3F8E493A34003F68001F25C
:10254D0008DFF48029E493A3F85407240CC8C3339F
:10255D00C4540F4420C8834004F456800146F6DF6E
:10256D00E4800B0102040810204080902A0FE47EC5
:10257D00019360BCA3FF543F30E509541FFEE49363
:10258D00A360010ECF54C025E060A840B8E493A32A
:10259D00FAE493A3F8E493A3C8C582C8CAC583CA55
:1025AD00F0A3C8C582C8CAC583CADFE9DEE780BE0D
:012A3700009E
:100AF300BB010689828A83E0225002E722BBFE0201
:090B0300E32289828A83E4932233
:100B0C00BB010CE58229F582E5833AF583E022509E
:100B1C0006E92582F8E622BBFE06E92582F8E222E8
:0D0B2C00E58229F582E5833AF583E4932202
:100B3900BB010689828A83F0225002F722BBFE019B
:020B4900F32295
:100B4B00F8BB010DE58229F582E5833AF583E8F0E0
:100B5B00225006E92582C8F622BBFE05E92582C88C
:020B6B00F22274
:100B6D00E88FF0A4CC8BF0A42CFCE98EF0A42CFC27
:100B7D008AF0EDA42CFCEA8EF0A4CDA8F08BF0A4A5
:100B8D002DCC3825F0FDE98FF0A42CCD35F0FCEB04
:100B9D008EF0A4FEA9F0EB8FF0A4CFC5F02ECD39C9
:0F0BAD00FEE43CFCEAA42DCE35F0FDE43CFC2236
:100BBC0075F008758200EF2FFFEE33FECD33CDCCF0
:100BCC0033CCC58233C5829BED9AEC99E582984073
:100BDC000CF582EE9BFEED9AFDEC99FC0FD5F0D650
:100BEC00E4CEFBE4CDFAE4CCF9A88222B800C1B97A
:100BFC000059BA002DEC8BF084CFCECDFCE5F0CBB8
:100C0C00F97818EF2FFFEE33FEED33FDEC33FCEBF0
:100C1C0033FB10D703994004EB99FB0FD8E5E4F9AB
:100C2C00FA227818EF2FFFEE33FEED33FDEC33FC98
:100C3C00C933C910D7059BE99A4007EC9BFCE99A8C
:100C4C00F90FD8E0E4C9FAE4CCFB2275F010EF2FD1
:100C5C00FFEE33FEED33FDCC33CCC833C810D707D1
:100C6C009BEC9AE899400AED9BFDEC9AFCE899F80C
:0E0C7C000FD5F0DAE4CDFBE4CCFAE4C8F9229F
:100C8A00EB9FF5F0EA9E42F0E99D42F0EC6480C8E1
:060C9A0064809845F02281
:100CA000E8600FECC313FCED13FDEE13FEEF13FF32
:030CB000D8F12256
:100FAB00E5342428F8E60534227825300702782822
:100FBB00E475F001120F75020AF32000EB7F2ED2BD
:100FCB00008018EF540F2490D43440D4FF30040B1E
:100FDB00EF24BFB41A0050032461FFE535600215FE
:100FEB00350538E5387002053730070D7825E4757F
:100FFB00F001120F75EF020B39022C3D7403D2076F
:10100B008003E4C207F5348B258A268927E4F5355E
:10101B00F537F538E53560077F20120FE680F5755B
:10102B0036FFC201C200C202C203C205C206C20819
:10103B00120FB4FF700D3007057F00120FF7AF389A
:10104B00AE3722B4255FC2D5C204120FB4FF24D031
:10105B00B40A00501A75F00A783530D50508B6FF7A
:10106B000106C6A426F620D5047002D20380D9242B
:10107B00CFB41A00EF5004C2E5D2040211F7D2012B
:10108B0080C6D20080C0D20280BCD2D580BAD20535
:10109B0080B47F20120FE62002077401B5350040A3
:1010AB00F1120FABFF120FE602101FD208D206800F
:1010BB0095120FABFB120FABFA120FABF94A4B7039
:1010CB000679C87A127BFF20022EE535602A7E0056
:1010DB008E82758300120B0C60060EEE653670F077
:1010EB00C2D5EBC0E0EAC0E0E9C0E0EE12123ED0A0
:1010FB00E0F9D0E0FAD0E0FB120AF3FF60AAEBC0F4
:10110B00E0EAC0E0E9C0E0120FE6D0E02401F9D03C
:10111B00E03400FAD0E0FBE5360460DCD536D9804C
:10112B00877BFF7A12793AD202809C791080027900
:10113B0008C206C2088008D2D5790A8004790AC28F
:10114B00D5E536047002F536E4FAFDFEFF120FAB5F
:10115B00FC7B08200113120FABFD7B1030000A1231
:10116B000FABFE120FABFF7B20EC3382D592D55029
:10117B0013C3E43000069FFFE49EFEE42001039DB1
:10118B00FDE49CFCE4CBF8C201EC700CCFCECDCCD3
:10119B00E824F8F870F38017C3EF33FFEE33FEED5E
:1011AB0033FDEC33FCEB33FB994002FB0FD8E9EB3F
:1011BB00300105F8D0E0C448B201C0E00AEC4D4E56
:1011CB004F78207B0070C2EAB5360040BCC0E012FD
:1011DB001240D0F0D0E0200104C4C0E0C4B201C082
:1011EB00F0120FCFD0F0D5F0EB02101F120F8510BD
:1011FB00BC53113658108D4C108942113A4F114285
:0F120B004411424910A243114855112C46112C91
:10121A0045112C4712E85010912D10952E10B82B1D
:10122A0010992310B62012D12A105148000010B08C
:10123A003F3F3F00790AA2D5200314300509B910AF
:10124A00020404B9080104A2D520060250010420B0
:10125A0002689202B535005034C0E07F203003198D
:10126A007F30A20272067205500F121297C202C292
:10127A0006C205C2087F30800F300503E9C0E012BC
:10128A000FE6300503D0E0F9D0E0B535CC300517CC
:10129A007F30B9100C120FE67F583004077F788030
:1012AA0003B90803120FE63002057F2D020FE67F0D
:1012BA00202008F87F2B2006F322920280CF286E86
:1012CA00756C6C2900D201120FAB3001F8C201789B
:1012DA003530D50108F60210512D50434958120FE6
:1012EA00AB2403B405004001E49012E393120FD734
:0D12FA00743A120FD7D20375350402113675
:100CB300E3F5F009E208B5F06D606B80F3E3F5F05E
:100CC30009E608B5F060605E80F387F009E608B5D1
:100CD300F054605280F487F009E208B5F0486046AA
:100CE30080F488828C8387F009E0A3B5F0386036FE
:100CF30080F488828C8387F009E493A3B5F027609E
:100D03002580F388828C83E3F5F009E0A3B5F01620
:100D1300601480F388828C83E3F5F009E493A3B530
:100D2300F004600280F2020DDE808580E7808E8011
:100D3300D2803C8015806C807E809B80B5808B80C8
:100D4300A1804F8070803A020DEA89828A83ECFA8F
:100D5300E493F5F0A3C8C582C8CCC583CCE493A3C0
:100D6300C8C582C8CCC583CCB5F070606E80E189FC
:100D7300828A83E493F5F0A3E208B5F05E605C80B9
:100D8300F289828A83E0F5F0A3E608B5F04D604B63
:100D930080F389828A83E0F5F0A3E208B5F03C6032
:100DA3003A80F389828A83E493F5F0A3E608B5F0E9
:100DB3002A602880F2805389828A83ECFAE493F5CF
:100DC300F0A3C8C582C8CCC583CCE0A3C8C582C87C
:100DD300CCC583CCB5F004600280E27FFFB5F0029E
:100DE3000F2240027F012289828A83ECFAE0F5F028
:100DF300A3C8C582C8CCC583CCE0A3C8C582C8CC70
:100E0300C583CCB5F0D560D380E389828A83ECFABD
:100E1300E0F5F0A3C8C582C8CCC583CCE493A3C8CE
:100E2300C582C8CCC583CCB5F0B160AF80E288F091
:100E3300ED2402B4040050A3F582EB2402B40400B1
:0B0E430050992323458223900D2C734F
:100E4E00E709F60870FA8046E709F20870FA803E64
:100E5E0088828C83E709F0A370FA807EE309F60896
:100E6E0070FA8076E309F20870FA806E88828C83BD
:100E7E00E309F0A370FA806289828A83E0A3F60800
:100E8E0070FA805689828A83E0A3F20870FA804A4B
:100E9E0080D280FA80C680D4806580F28031801046
:100EAE0080A680EA809A80A880DA80E280CA8031AB
:100EBE0089828A83ECFAE493A3C8C582C8CCC58321
:100ECE00CCF0A3C8C582C8CCC583CC70E9800D898F
:100EDE00828A83E493A3F60870F9ECFAA9F0EDFB8D
:100EEE002289828A83ECFAE0A3C8C582C8CCC58366
:100EFE00CCF0A3C8C582C8CCC583CC70EA80DD898E
:100F0E00828A83E493A3F20870F980CE88F0ED24F0
:100F1E0002B4040050C4F582EB2402B4040050BAAB
:090F2E002323458223900E9E73DB
:102B0B00E94A4B700122120AF3FF6D700122EF703C
:0C2B1B0004FBFAF92209E970ED0A80EAD7
:1022AC008B258A268927AB25AA26A927120AF3FF94
:1022BC00122BB2500D74012527F527E43526F5268F
:1022CC0080E4D200AB25AA26A927120AF3FF642BBF
:1022DC006004EFB42D1BAB250527E527AA26700259
:1022EC00052614F9120AF3642D6003D38001C392FE
:1022FC0000E4F528F529AB25AA26A927120AF3FF35
:10230C00122C065036AB25AA26A927120AF3FF3346
:10231C0095E0FEEF24D0FBEE34FFFAAE28AF297C1B
:10232C00007D0A120F63EF2BF529EE3AF5287401A4
:10233C002527F527E43526F52680BB300006AE2888
:0E234C00AF298009C3E49529FFE49528FE22FD
:100F3700EF4E6012EF60010EEDBB010B89828A83D1
:100F4700F0A3DFFCDEFA2289F05007F709DFFCA9DE
:0C0F5700F022BBFEFCF309DFFCA9F02235
:100F6300EF8DF0A4A8F0CF8CF0A428CE8DF0A42EA2
:020F7300FE225C
:100F7500FAE6FB0808E6F925F0F618E6CA3AF6227D
:100F8500D083D082F8E4937012740193700DA3A3FB
:100F950093F8740193F5828883E47374029368600F
:060FA500EFA3A3A380DF0F
:0F2C0600EFC394304007EF943A50028001C3228D
:102BB200EFC394094005EF940E4003BF2003D38076
:032BC20001C3222A
:00000001FF
