:030000000221CD0D
:0C21CD00787FE4F6D8FD75815E022214D4
:101FEF00A2AF920CC2AF75C7AA75C755E4F591A2FF
:101FFF000C92AF43B10153B2FEA2AF920CC2AF75B8
:10200F00C7AA75C755F591A20C92AF43B30153B44C
:10201F00FEA2AF920CC2AF75C7AA75C755F591A2B4
:10202F000C92AF53B3FD43B402A2AF920CC2AF7583
:10203F00C7AA75C755F591A20C92AF53B3FB43B422
:10204F0004A2AF920CC2AF75C7AA75C755F591A27E
:10205F000C92AF53B3F753B4F7A2AF920CC2AF7554
:10206F00C7AA75C755F591A20C92AF53B3EF53B4EE
:10207F00EFA2AF920CC2AF75C7AA75C755F591A263
:0A208F000C92AF53B1BF53B2BF2251
:1028AF004389015389FD438E085389FB5389F722CE
:100003008E268F27E5274526600DE52715277002E5
:08001300152612278C80ED2256
:10278C00E4F58CF58AD28CAF8CEFFEAD8A7C00E43C
:10279C002DFFEC3EFEC3EF9480EE943E40E9C28CDC
:0127AC00220A
:0617B2008E268F278D2812
:1017B800E4F529E5277807CEC313CE13D8F97807BF
:1017C800C333CE33CED8F9F52B8E2AE4F529C3E5F9
:1017D8002994807480948050217E00E52B2529FF70
:1017E800EE352AFE1228FD7E0074002529F582E4D4
:1017F8003400F583EFF0052980D47E00E527547F77
:101808002400F582EE3400F583E528F0E52BF5A6F3
:10181800E52AF5A775AEFFA2AF920CC2AF75C7AAAD
:1018280075C755439F01A20C92AFA2AF920CC2AFED
:1018380075C7AA75C75543A501A20C92AF75AF220B
:10184800A2AF920CC2AF75C7AA75C75543A401A22F
:101858000C92AFA2AF920CC2AF75C7AA75C7554319
:101868009F01A20C92AFA2AF920CC2AF75C7AA7526
:10187800C75543A501A20C92AF75AF21E4F529C362
:10188800E529948074809480502FE52B2529F5A6AE
:10189800E52AF5A774002529F582E43400F583E0EC
:1018A800F5AEA2AF920CC2AF75C7AA75C75543A4CF
:1018B80001A20C92AF052980C6A2AF920CC2AF75E7
:1018C800C7AA75C75553A5FEA20C92AFA2AF920C3A
:0F18D800C2AF75C7AA75C755539FFEA20C92AF3A
:0118E70022DE
:0428FD008F828E83B5
:03290100E493FF5D
:0129040022B0
:0A2259008E088F098B0A8A0B890C8E
:10226300E5097807CEC313CE13D8F9FDE509250E8A
:10227300FFE508350DFEEF7807CEC313CE13D8F96B
:10228300F50FED650F6043AB0AAA0BA90C7515801A
:10229300AF09AE08121455AC07EC2509F509E4356E
:1022A30008F508EC250CF50CE4350BF50BECC3E550
:1022B3000E9FF50EE50D9400F50DAE08E5097807C0
:1022C300CEC313CE13D8F9FD80B8E50E450D6010CB
:1022D300AB0AAA0BA90C850E15AF09AE081214554B
:0122E30022D8
:0A25B9008E188F198B1A8A1B891CDB
:1025C300E4FFFEC3EF951EEE951D5021E5192FFD87
:1025D300E5183E8D82F583E493AB1AAA1BA91C8FE1
:0D25E300828E831208470FBF00010E80D6C4
:0125F00022C8
:0A1455008E108F118B128A13891478
:10145F00A2AF920CC2AF75C7AA75C755439F01A221
:10146F000C92AFA2AF920CC2AF75C7AA75C7554306
:10147F00A501A20C92AFE511547FF517C3748095A7
:10148F0017F516E515D395164003851615AD11AC56
:10149F0010E4F516E516C395155012ED2516F582D5
:1014AF00E43CF583E493F47004051680E7E51665D4
:1014BF0015707875AF218511A6E510F5A7E4F5161F
:1014CF00E516C39515502AAB12AA13A914851682D7
:1014DF00758300120808F5AEA2AF920CC2AF75C7A4
:1014EF00AA75C75543A401A20C92AF05A605168095
:1014FF00CFE4F516E516C395155022AB12AA13A922
:10150F0014851682758300120808FFED2516F582E3
:10151F00E43CF583E493B50704051680D7E516651B
:10152F0015700302162F800302162FE5115480AC9D
:10153F0010FDE4F516C3E516948074809480501D59
:10154F00ED2516F582E43CF583E493FF74802516B0
:10155F00F582E43400F583EFF0051680D8E4F51634
:10156F00E516C395155023AB12AA13A9148516823D
:10157F00758300120808FFE51725162480F582E40D
:10158F003400F583EFF0051680D6E5115480F5A6EB
:10159F00E510F5A775AF2275AEFFA2AF920CC2AFE3
:1015AF0075C7AA75C75543A401A20C92AF75AF2199
:1015BF00E4F516C3E51694807480948050277480E8
:1015CF002516F582E43400F583E0F5AEA2AF920C58
:1015DF00C2AF75C7AA75C75543A401A20C92AF0538
:1015EF00A6051680CEE4F516AF167E00C3EF9480E5
:1015FF00748094805021ED2516F582E43CF583E448
:10160F0093FB74802516F582E43400F583E0FAEB42
:10161F00B50204051680D1EF64804E600302159960
:10162F00A2AF920CC2AF75C7AA75C755539FFEA242
:05163F000C92AFAF1595
:011644002283
:101E9300A2AF920CC2AF75C7AA75C755439F01A2E3
:101EA3000C92AF75A604E4F5A775AE0F75AFE1A26A
:101EB300AF920CC2AF75C7AA75C75543A504A20C50
:101EC30092AFA2AF920CC2AF75C7AA75C75543A410
:101ED30001A20C92AFE59F5440644060F8A2AF9218
:101EE3000CC2AF75C7AA75C75553A5FBA20C92AF19
:101EF300A2AF920CC2AF75C7AA75C755539FFEA276
:101F03000C92AF75C7AA75C75575AA07A2AF920CF5
:101F1300C2AF75C7AA75C75543AA40A20C92AFAF0B
:101F2300AAEF44BF74FF60F7D2AFA2AF920CC2AF67
:0E1F330075C7AA75C75543AA80A20C92AF22AB
:0C272200C109C10A02530000025500006A
:10284B00E5542480FFE43553FEC3EF9556FFEE9518
:06285B0055EF547FFF223F
:10280500E5542401FFE43553FEEFB55608EEB55502
:08281500047F0180027F002214
:10281D00E4F553F554F555F556FE7F80FD7B017AB1
:07282D00017900120C1E22CC
:10274600EFF5827583007E00FDC3E5549DFDE553DC
:102756009400FC74002DF974013CFA7B017D001293
:032766000C1E2224
:10288D00E554B55609E553B555047F0180027F0027
:01289D002218
:10289E00AE53AF5474FF2FF58274003EF583E0FF04
:0128AE002207
:1026FD00AD07122805EF701C0554E554AE5370025A
:10270D000553142400F58274013EF583EDF0535406
:05271D007F755300224E
:1026D70012288DEF60037F00220556E556AE557030
:1026E700020555142400F58274013EF583E0FF537B
:0526F700567F7555003F
:0126FC0022BB
:030023000225456E
:10254500C0E0C083C082C0D075D000C005C006C041
:1025550007C09130980CD20A859951AF511226FDCA
:10256500C298309905200902C299D091D007D006AA
:0B257500D005D0D0D082D083D0E0325F
:03007B0002283424
:10283400C09130F807859A52D20BC2F830F90520BE
:072844000902C2F9D0913234
:101645008F258E248D238C22E52614605214700379
:10165500021737240260030217B175985043892099
:10166500438780438E10A2AF920CC2AF75C7AA758F
:10167500C755E4F591A20C92AF53C4DF7B10FAF97C
:10168500F8AF25AE24AD23AC221208B7AB2AAA29A0
:10169500A928A8271208B7EFF404F58DD28E227574
:1016A500985043878053C4F8A2AF920CC2AF75C758
:1016B500AA75C755E4F591A20C92AF43C4207B10DF
:1016C500FAF9F8AF25AE24AD23AC221208B7AB2A40
:1016D500AA29A928A8271208B7C3E49FFFE49EFEFC
:1016E50074019DFDE49CFC780812095A8FC6E47BC1
:1016F50010FAF9F8AF25AE24AD23AC221208B7AB2A
:101705002AAA29A928A8271208B7C3E49FFFE49E9F
:10171500FE74019DFDE49CFCEFE48FC5A2AF920C25
:10172500C2AF75C7AA75C755F591A20C92AF43C450
:10173500082275F85075C480E47B10FAF9F8AF25D6
:10174500AE24AD23AC221208B7AB2AAA29A928A832
:10175500271208B7C3E49FFFE49EFE74019DFDE4D4
:101765009CFC780812095A8FC6E47B10FAF9F8AF89
:1017750025AE24AD23AC221208B7AB2AAA29A92885
:10178500A8271208B7C3E49FFFE49EFE74019DFDE0
:10179500E49CFCEFE48FC5A2AF920CC2AF75C7AA5B
:0D17A50075C755F591A20C92AF43C4082200
:0D28DD00EF1460060470058D99228D9A227B
:1025F100A2AF920CC2AF75C7AA75C755E4F591A2F7
:102601000C92AF53B1BF53B2BFF526F52A7529C25B
:10261100752801F527FF7E367D6E7C01121645D2A5
:0426210099D209221F
:1028610075BE2753B3F753B4F753B3EF53B4EFD255
:0628710093D294D2C622AE
:0818E8008F2B8B2C8A2D892E19
:1018F000AFBDEF64F860037F0022C2C4D2C5C2C38B
:10190000753100753201E4F53320C315E5324531F8
:101910007005753301800A0532E5327002053180A9
:10192000E8E53360061226567F0022AFBDEF64085B
:1019300060061226567F0022C2C5C2C475BCD0C242
:10194000C3753100753201E4F53320C315E5324526
:10195000317005753301800A0532E53270020531B8
:1019600080E8E53360061226567F0022AFBDEF64A3
:101970001860061226567F0022C2C5C2C4852BBC41
:10198000C2C3753100753201E4F53320C315E53269
:1019900045317005753301800A0532E53270020564
:1019A0003180E8E53360061226567F0022AFBDEF96
:1019B000642860061226567F0022E4F530E530C325
:1019C000952F504FAB2CAA2DA92E85308275830000
:1019D000120808F5BCC2C3753100753201E4F53355
:1019E00020C315E53245317005753301800A053293
:1019F000E5327002053180E8E53360061226567F35
:101A00000022AFBDEF642860061226567F00220533
:061A10003080AA122656E8
:011A160022AD
:081255008F298B2A8A2B892CBA
:10125D00AFBDEF64F860037F0022C2C4D2C5C2C324
:10126D00752F00753001E4F53120C315E530452F9C
:10127D007005753101800A0530E5307002052F804B
:10128D00E8E53160061226567F0022AFBDEF6408F7
:10129D0060061226567F0022C2C5C2C475BCD0C2DC
:1012AD00C3752F00753001E4F53120C315E53045C8
:1012BD002F7005753101800A0530E5307002052F5C
:1012CD0080E8E53160061226567F0022AFBDEF643F
:1012DD001860061226567F0022C2C5C2C48529BCDD
:1012ED00C2C3752F00753001E4F53120C315E5300B
:1012FD00452F7005753101800A0530E53070020506
:10130D002F80E8E53160061226567F0022AFBDEF33
:10131D00642860061226567F0022C2C4D2C5C2C3FD
:10132D00752F00753001E4F53120C315E530452FDB
:10133D007005753101800A0530E5307002052F808A
:10134D00E8E53160061226567F0022AFBDEF64102E
:10135D0060061226567F0022C2C5C2C475BCD1C21A
:10136D00C3752F00753001E4F53120C315E5304507
:10137D002F7005753101800A0530E5307002052F9B
:10138D0080E8E53160061226567F0022AFBDEF647E
:10139D004060061226567F0022E4F52EE52D14FF3F
:1013AD00E52EC39F5051D2C2C2C3752F00753001B7
:1013BD00E4F53120C315E530452F700575310180F9
:1013CD000A0530E5307002052F80E8E53160061220
:1013DD0026567F0022AFBDEF645060061226567F61
:1013ED000022AB2AAA2BA92C852E82758300E5BC81
:1013FD00120847052E80A5C2C2C2C3752F007530D5
:10140D0001E4F53120C315E530452F700575310127
:10141D00800A0530E5307002052F80E8E531600661
:10142D001226567F0022AFBDEF6458600612265675
:10143D007F0022AB2AAA2BA92C852E82758300E56D
:07144D00BC120847122656ED
:011454002275
:101CF600AFBDEF64F860037F0022C2C4D2C5C2C381
:101D0600755700755801E4F55920C315E558455730
:101D16007005755901800A0558E558700205578007
:101D2600E8E55960061226567F0022AFBDEF64082B
:101D360060061226567F0022C2C5C2C475BCD1C237
:101D4600C3755700755801E4F55920C315E5584584
:101D5600577005755901800A0558E55870020557F0
:101D660080E8E55960061226567F0022AFBDEF6473
:101D76004060061226567F0022C2C2C2C3755700B3
:101D8600755801E4F55920C315E558455770057592
:101D96005901800A0558E5587002055780E8E5594B
:101DA60060061226567F0022AFBDEF645860061209
:0F1DB60026567F0022AFBC7557008F5812265655
:011DC50022FB
:10265600C2C5D2C4C2C37F017E00E4FDACBDEC643A
:10266600F8600FEF4E70047D0180070FBF00010E6A
:0B26760080EAED70047F0180027F000D
:012681002236
:1027AD00AE07EFC3940A748094804012EF75F00A5F
:1027BD0084FEEF75F00A84EEC454F045F0FEAF06CA
:0127CD0022E9
:0E28BF00EFC4540F75F00AA4FEEF540F2EFF65
:0128CD0022E8
:0622E4008B258A268927E4
:1022EA001207EFFF1227AD8F2A532A7F7B007A004D
:1022FA00792A752F01E4FF1218E8AB25AA26A92727
:10230A00900001120808FF1227AD8F297B007A007E
:10231A007929752F017F011218E8AB25AA26A9276A
:10232A00900002120808FF1227AD8F28AB25AA26B3
:10233A00A927900003120808FF7E00640270055363
:10234A0028BF80114328BFEF64014E70054328203F
:10235A0080035328DF7B007A007928752F017F02DA
:03236A001218E85E
:01236D00224D
:0623F2008B438A4489457B
:1023F8001207EFFF1227AD8F467B007A00794675EA
:102408002F017F031218E8AB43AA44A945900001A5
:10241800120808FF1227AD8F477B007A00794775AD
:102428002F017F041218E8AB43AA44A94590000283
:10243800120808FF1227AD8F487B007A007948758B
:102448002F017F051218E8AB43AA44A94590000361
:10245800120808FF1227AD8F497B007A0079497569
:072468002F017F061218E8A6
:01246F00224A
:062099008B228A2389243A
:10209F007B007A007927752D01E4FF121255532723
:1020AF007FAF271228BFAB22AA23A924EF1208352E
:1020BF007B007A007926752D017F01121255AF260C
:1020CF001228BFAB22AA23A924900001EF120847C0
:1020DF007B007A007925752D017F02121255E525B7
:1020EF0030E62254207003D38001C340047F018067
:1020FF00027F00AB22AA23A924900003EF12084706
:10210F0053259F800EAB22AA23A9249000037402AB
:10211F00120847AF251228BFAB22AA23A92490008B
:05212F0002EF12084759
:012134002288
:06236E008B228A23892462
:102374007B007A007925752D017F03121255AF2554
:102384001228BFAB22AA23A924EF1208357B007AB6
:10239400007926752D017F04121255AF261228BF2D
:1023A400AB22AA23A924900001EF1208477B007AEC
:1023B400007927752D017F05121255AF271228BF0A
:1023C400AB22AA23A924900002EF1208477B007ACB
:1023D400007928752D017F06121255AF281228BFE7
:0D23E400AB22AA23A924900003EF120847A2
:0123F10022C9
:1028770053890F438910438E10758DC4758B17D2FA
:06288700ABD2AFD28E229D
:0928F4001227EA1228EA80FB22F7
:101DC6002443000A4F4B0A002453002445002441B3
:101DD600000A44495341424C450A000A454E4142D5
:101DE6004C450A005345542054494D45522045520E
:101DF600524F520A00310A000A204A756D70206956
:101E06006E746F20616374697665206D6F646520FA
:101E1600310A00320A000A204A756D7020696E7414
:101E26006F20616374697665206D6F646520320A80
:101E36000031320A000A204A756D70206F757420D1
:101E4600616374697665206D6F64652031203C207E
:101E56000A000A204A756D70206F757420616374DC
:101E6600697665206D6F64652031203E200A003258
:101E7600310A000A204A756D70206F7574206163FF
:0D1E860074697665206D6F646520320A0076
:10272E00024D0000015000014B01014A02014F0011
:07273E00014C024101820081
:1027EA007F07121B23121FEF1227691228AF122824
:0B27FA0061122682122135122877227E
:0A28EA00121C1E120FDC12007E22E9
:100026008F5D8B5EAF057E007C007D3C12096DC046
:1000360004A905AA06AB07AF5D7E007C0E7D1012F3
:10004600096DD000EF2BFBEE3AFAED39F9EC38F8F2
:10005600E4FCFDFEEB255EFFEE3AFEED39FDEC38E5
:02006600FC227A
:10276900752601E4752A80752925F528F527FF7E48
:10277900247DF4FC121645D299D209D2ACD2AF12FB
:03278900281D22E6
:101C1E00E4F522F523E54A64026003021CF5E54B68
:101C2E006401705630904AD2927F0AFE1200033041
:101C3E009048E523B4D029E522B40724C291D2926C
:101C4E00754B027F087E301228FD7524008F25E526
:101C5E0025640245246009AD4B7F087E301217B211
:101C6E007F017E001200030523E52370020522800A
:101C7E00BE308003D38001C39292E54B640270673D
:101C8E00309062D2917F0AFE120003E4F522F52312
:101C9E00309054E52364D07004E52264077035C299
:101CAE0092D2917F64FE120003C2917F647E001275
:101CBE000003D291754B017F087E301228FD7524EA
:101CCE00008F25E525640145246009AD4B7F087E14
:101CDE00301217B27F017E001200030523E5237038
:071CEE0002052280ABC29148
:011CF50022CC
:102682007F087E301228FDEFF460028F4BAF4B7E45
:1026920000EF64017005D291C29222EF64024E7083
:0A26A20005C291D29222D291C29299
:0126AC00220B
:102135007F207E301228FD9001A0E4F0A3EFF07F10
:10214500217E301228FD900198E4F0A3EFF07F2264
:102155007E301228FD900185E4F0A3EFF07430FF86
:10216500FE1228FD900183E4F0A3EFF07F317E306D
:102175001228FD900180E4F0A3EFF07F327E30124B
:1021850028FD90019EE4F0A3EFF07F427E301228F7
:10219500FDEFF460028F4C7F407E301228FDEFF496
:1021A50060028F4A7F417E301228FDEFF460028F76
:1021B5004FAF4A7E00EF64017005D291C29222EFC3
:0721C5004E7004C291C292AA
:0121CC0022F0
:100FDC0012289EEF6423600302125412284BEF6018
:100FEC001A1226D7BF24F4900182E0FF04F0748B10
:100FFC002FF582E43401F5837424F012284BEF6052
:10100C00181226D7900182E0FE04F0748B2EF58224
:10101C00E43401F583EFF080E2900182E0248BF55B
:10102C0082E43401F583E4F07F0D12274675280124
:10103C00752901752AA5752B01752C01752DA875BF
:10104C002E01752F017530AB753101753201753379
:10105C008B7B017A0179A2121A1778A27C017D018F
:10106C007BFF7A1D79C6120B18EF703F7B017A015A
:10107C0079A5121F4190019CEFF07B017A0179A8B0
:10108C00121F4190019BEFF07B017A0179AB121F8B
:10109C004190019AEFF07B017A01799A1222E47B5C
:1010AC00FF7A1D79C9120CE202124278A27C017DF2
:1010BC00017BFF7A1D79CE120B18EF70697B017AD8
:1010CC000179A5121F419001A0EEF0A3EFF07B0176
:1010DC007A0179A8121F41900198EEF0A3EFF07BF2
:1010EC00017A0179AB121F41900185EEF0A3EFF06C
:1010FC009001A0E0A3E0FD7F207E301217B290019A
:10110C0098E0A3E0FD7F217E301217B2900185E0BC
:10111C00A3E0FD7F227E301217B27BFF7A1D79C9C6
:10112C00120CE202124278A27C017D017BFF7A1D37
:10113C0079D1120B18EF70697B017A0179A5121F16
:10114C0041900183EEF0A3EFF07B017A0179A812B4
:10115C001F41900180EEF0A3EFF07B017A0179AB97
:10116C00121F4190019EEEF0A3EFF0900183E0A3DB
:10117C00E0FD7430FFFE1217B2900180E0A3E0FD99
:10118C007F317E301217B290019EE0A3E0FD7F32DA
:10119C007E301217B27BFF7A1D79C9120CE2021253
:1011AC004278A27C017D017BFF7A1D79D4120B1849
:0611BC00EF600302124285
:1011C2007B017A0179A5121F418F227B017A017975
:1011D200A8121F418F237B017A0179AB121F418F25
:1011E20024E5227029E5237025EF7022F54F754A18
:1011F20002AD4A7F407E301217B2AD4F7F417E3042
:101202001217B27BFF7A1D79D7120CE28032E522E7
:10121200640B702CE523640B7026E524640B7020AC
:10122200754F01F54AAD4A7F407E301217B2AD4F7D
:101232007F417E301217B27BFF7A1D79E1120CE2F8
:10124200E4900182F0FE7F0DFD7B017A01798B1221
:021252000C1E70
:011254002277
:061A17008B258A268927B9
:101A1D00E94A4B7003021B22E52A4529452870032C
:101A2D00021B22E52D452C452B7003021B22E530B0
:101A3D00452F452E7003021B22E53345324531708B
:101A4D0003021B22AB31AA32A9338B348A35893676
:101A5D008B378A3889397D2C1227CE8B348A35897C
:101A6D0036E94A4B6013E4120835A827AC26AD259C
:101A7D00AB37AA38A939120C01AB34E5362401F97C
:101A8D00E43535FA8B3AF53B893C7D2C1227CE8B0C
:101A9D00348A358936E94A4B6013E4120835A82A91
:101AAD00AC29AD28AB3AAA3BA93C120C01AB34E5ED
:101ABD00362401F9E43535FA8B3DF53E893F7D2C11
:101ACD001227CE8B348A358936E94A4B6013E412DE
:101ADD000835A82DAC2CAD2BAB3DAA3EA93F120C61
:101AED0001AB34E5362401F9E43535FA8B40F54187
:101AFD0089427D231227CE8B348A358936E94A4BAC
:101B0D006013E4120835A830AC2FAD2EAB40AA41BE
:051B1D00A942120C01B9
:011B220022A0
:10007E00AF50EF640160030207EEE54F64016003C9
:10008E000207EB7B017A01799A1220997B017A01A2
:10009E00798712236EE54A600302043C900180E0EA
:1000AE00FEA3E0FF7C007D3C120869AA06AB079018
:1000BE000183E0FEA3E0FF7C0E7D10120869EF2B9A
:1000CE00FFEE3AFE90019FE02FFF90019EE03EFE74
:1000DE003395E0FDFCC004C005C006C00790019832
:1000EE00E0FEA3E0FF7C007D3C120869AA06AB0788
:1000FE009001A0E0FEA3E0FF7C0E7D10120869EFD8
:10010E002BFFEE3AFE900186E02FFF900185E03E38
:10011E00FEAB07FA3395E0F9F8D007D006D005D03C
:10012E0004C31209497015754A02AD4A7F407E30EC
:10013E001217B27BFF7A1D79EA120CE2900180E071
:10014E00FEA3E0FF7C007D3C120869AA06AB079077
:10015E000183E0FEA3E0FF7C0E7D10120869EF2BF9
:10016E00FFEE3AFE90019FE02FFF90019EE03EFED3
:10017E003395E0FDFCC004C005C006C00790019891
:10018E00E0FEA3E0FF7C007D3C120869AA06AB07E7
:10019E009001A0E0FEA3E0FF7C0E7D10120869EF37
:1001AE002BFFEE3AFE900186E02FFF900185E03E98
:1001BE00FEAB07FA3395E0F9F8D007D006D005D09C
:1001CE0004C312094940030203037BFF7A1D79FB26
:1001DE00120CE290019CE0FF7E007C0E7D10120856
:1001EE0069AC06AD0790019BE075F03CA42DFFECC9
:1001FE0035F0FE90019AE07C002FFFEC3EFEE4FD10
:10020E00C004C005C006C007900198E0FEA3E0FF41
:10021E007D3C120869AA06AB079001A0E0FEA3E0A0
:10022E00FF7C0E7D10120869EF2BFFEE3AFE900157
:10023E0086E02FFF900185E03EFEAB07FA3395E096
:10024E00F9F8D007D006D005D004C31209494003EF
:10025E0002030390019CE0FF7E007C0E7D101208CD
:10026E0069AC06AD0790019BE075F03CA42DFFEC48
:10027E0035F0FE90019AE07C002FFFEC3EFEE4FD8F
:10028E00C004C005C006C007900180E0FEA3E0FFD9
:10029E007D3C120869AA06AB07900183E0FEA3E03D
:1002AE00FF7C0E7D10120869EF2BFFEE3AFE9001D7
:1002BE009FE02FFF90019EE03EFEAB07FA3395E0E4
:1002CE00F9F8D007D006D005D004D312094940253D
:1002DE00D291C292754A02754C04AD4A7F407E306F
:1002EE001217B2AD4C7F427E301217B27BFF7A1DD1
:1002FE0079FE120CE2900180E0FEA3E0FF7C007D0F
:10030E003C120869AA06AB07900183E0FEA3E0FF4A
:10031E007C0E7D10120869EF2BFFEE3AFE90019FC6
:10032E00E02FFF90019EE03EFE3395E0FDFCC00401
:10033E00C005C006C007900198E0FEA3E0FF7C0058
:10034E007D3C120869AA06AB079001A0E0FEA3E06F
:10035E00FF7C0E7D10120869EF2BFFEE3AFE900126
:10036E0086E02FFF900185E03EFEAB07FA3395E065
:10037E00F9F8D007D006D005D004D312094950039E
:10038E0002043C7BFF7A1E7919120CE290019CE06C
:10039E00FF7E007C0E7D10120869AC06AD07900141
:1003AE009BE075F03CA42DFFEC35F0FE90019AE039
:1003BE007C002FFFEC3EFEE4FDC004C005C006C06D
:1003CE0007900198E0FEA3E0FF7D3C120869AA06A3
:1003DE00AB079001A0E0FEA3E0FF7C0E7D1012089B
:1003EE0069EF2BFFEE3AFE900186E02FFF9001851C
:1003FE00E03EFEAB07FA3395E0F9F8D007D006D011
:10040E0005D004C31209495025D291C292754A02F1
:10041E00754C03AD4A7F407E301217B2AD4C7F4211
:10042E007E301217B27BFF7A1E791C120CE2E54A5F
:10043E00640260030207EB900180E0FEA3E0FF7C04
:10044E00007D3C120869AA06AB07900183E0FEA36B
:10045E00E0FF7C0E7D10120869EF2BFFEE3AFE9046
:10046E00019FE02FFF90019EE03EFE3395E0FDFCE4
:10047E00C004C005C006C007900198E0FEA3E0FFCF
:10048E007C007D3C120869AA06AB079001A0E0FE35
:10049E00A3E0FF7C0E7D10120869EF2BFFEE3AFEF3
:1004AE00900186E02FFF900185E03EFEAB07FA3308
:1004BE0095E0F9F8D007D006D005D004C31209494B
:1004CE004003020629E54C640460030206297BFF03
:1004DE007A1E7937120CE290019CE0FF7E007C0EB2
:1004EE007D10120869AC06AD0790019BE075F03CDB
:1004FE00A42DFFEC35F0FE90019AE07C002FFFEC6E
:10050E003EFEE4FDC004C005C006C007900198E0A1
:10051E00FEA3E0FF7D3C120869AA06AB079001A07E
:10052E00E0FEA3E0FF7C0E7D10120869EF2BFFEEBC
:10053E003AFE900186E02FFF900185E03EFEAB076C
:10054E00FA3395E0F9F8D007D006D005D004D312CF
:10055E0009494025C291C292E4F54A754C02AD4A52
:10056E007F407E301217B2AD4C7F427E301217B2F2
:10057E007BFF7A1E793B120CE290019CE0FF7E001D
:10058E007C0E7D10120869AC06AD0790019BE075DC
:10059E00F03CA42DFFEC35F0FE90019AE07C002F8C
:1005AE00FFEC3EFEE4FDC004C005C006C00790018E
:1005BE0080E0FEA3E0FF7D3C120869AA06AB07901F
:1005CE000183E0FEA3E0FF7C0E7D10120869EF2B85
:1005DE00FFEE3AFE90019FE02FFF90019EE03EFE5F
:1005EE00AB07FA3395E0F9F8D007D006D005D00462
:1005FE00C31209495025C291C292E4F54A754C02C4
:10060E00AD4A7F407E301217B2AD4C7F427E301223
:10061E0017B27BFF7A1E7958120CE2900180E0FE31
:10062E00A3E0FF7C007D3C120869AA06AB0790018F
:10063E0083E0FEA3E0FF7C0E7D10120869EF2BFF16
:10064E00EE3AFE90019FE02FFF90019EE03EFE33BA
:10065E0095E0FDFCC004C005C006C007900198E0FF
:10066E00FEA3E0FF7C007D3C120869AA06AB079052
:10067E0001A0E0FEA3E0FF7C0E7D10120869EF2BB7
:10068E00FFEE3AFE900186E02FFF900185E03EFEE0
:10069E00AB07FA3395E0F9F8D007D006D005D004B1
:1006AE00D312094950030207EBE54C6403600302C1
:1006BE0007EB7BFF7A1E7975120CE290019CE0FF2E
:1006CE007E007C0E7D10120869AC06AD0790019B72
:1006DE00E075F03CA42DFFEC35F0FE90019AE07C25
:1006EE00002FFFEC3EFEE4FDC004C005C006C007AF
:1006FE00900198E0FEA3E0FF7D3C120869AA06ABCC
:10070E00079001A0E0FEA3E0FF7C0E7D10120869A9
:10071E00EF2BFFEE3AFE900186E02FFF900185E071
:10072E003EFEAB07FA3395E0F9F8D007D006D005B8
:10073E00D004D312094950030207EB90019CE0FF4D
:10074E007E007C0E7D10120869AC06AD0790019BF1
:10075E00E075F03CA42DFFEC35F0FE90019AE07CA4
:10076E00002FFFEC3EFEE4FDC004C005C006C0072E
:10077E00900180E0FEA3E0FF7D3C120869AA06AB63
:10078E0007900183E0FEA3E0FF7C0E7D1012086946
:10079E00EF2BFFEE3AFE90019FE02FFF90019EE0BF
:1007AE003EFEAB07FA3395E0F9F8D007D006D00538
:1007BE00D004C31209495025C291C292E4F54A757C
:1007CE004C02AD4A7F407E301217B2AD4C7F427E56
:1007DE00301217B27BFF7A1E7979120CE2E4F550D3
:0107EE0022E8
:03001B0002262595
:10262500C0E0C0D0C091054EE54E7002054DC3E532
:102635004E94E8E54D94034009755001754D0075BC
:102645004E00758DC4758B17C28DD091D0D0D0E05A
:012655003252
:021B2300A90710
:101B2500E4F591E924F9600C14600E2402700D753A
:101B3500A638800875A630800375A630A2AF920C32
:101B4500C2AF75C7AA75C755439F01A20C92AFE4F2
:101B5500F5A775AF04A2AF920CC2AF75C7AA75C73A
:101B65005543A401A20C92AFADAE05A6A2AF920C4F
:101B7500C2AF75C7AA75C75543A401A20C92AFACF5
:101B8500AEE924F8706FED25E0FFE433FEEC540177
:101B95007A002FFFEA3EFE74F22FFF74FF3EFE75BA
:101BA500AF0C75A601E4F5A7A2AF920CC2AF75C73D
:101BB500AA75C75543A401A20C92AFABAEEB644B1B
:101BC500600EABAEEB64526007ABAEEB6453701BBB
:101BD500ED543FC3940774809480500A74F62FFF28
:101BE50074FF3EFE8005EF1F70011EEF5401FCEEF1
:101BF500C313EF13FD75C7AA75C7558D8475C7AA9D
:101C050075C7558C85A2AF920CC2AF75C7AA75C7AB
:081C150055539FFEA20C92AF93
:011C1D0022A4
:1024ED00EF24FD60121460282402704B7F02122528
:1024FD00807F02122470227F03122470A2AF920CEF
:10250D00C2AF75C7AA75C7555397DFA20C92AF22FC
:10251D007F021225807F021224707F041225807F96
:10252D0004122470A2AF920CC2AF75C7AA75C7551D
:08253D005397DFA20C92AF22BC
:10258000EF24FC60222402702FA2AF920CC2AF7520
:10259000C7AA75C755439720A20C92AFE59644DFB2
:1025A00064DF701480F62275C7AA75C7554397C0BB
:0925B000E59644F764F760F82297
:1026AD00E4F591EF24FC60182402701DA2AF920C8A
:1026BD00C2AF75C7AA75C7555397DFA20C92AF224B
:0A26CD0075C7AA75C75553973F2241
:10247000E4F591A2AF920CC2AFEF24FD602F14607F
:102480005424027063A2AF920CC2AF75C7AA75C77D
:10249000555396FBA20C92AFA2AF920CC2AF75C778
:1024A000AA75C7555396FDA20C92AF803BA2AF927E
:1024B0000CC2AF75C7AA75C755439604A20C92AF5C
:1024C000A2AF920CC2AF75C7AA75C7555396FDA2AD
:1024D0000C92AF8013A2AF920CC2AF75C7AA75C79A
:0D24E00055439608A20C92AFA20C92AF22B9
:082905003099FDC2998F99225F
:1021D9000228F4E493A3F8E493A34003F68001F200
:1021E90008DFF48029E493A3F85407240CC8C33307
:1021F900C4540F4420C8834004F456800146F6DFD6
:10220900E4800B0102040810204080902722E47E1C
:10221900019360BCA3FF543F30E509541FFEE493CA
:10222900A360010ECF54C025E060A840B8E493A391
:10223900FAE493A3F8E493A3C8C582C8CAC583CABC
:10224900F0A3C8C582C8CAC583CADFE9DEE780BE74
:012745000093
:1007EF00BB010689828A83E0225002E722BBFE0208
:0907FF00E32289828A83E493223B
:10080800BB010CE58229F582E5833AF583E02250A5
:1008180006E92582F8E622BBFE06E92582F8E222EF
:0D082800E58229F582E5833AF583E4932209
:10083500BB010689828A83F0225002F722BBFE01A2
:02084500F3229C
:10084700F8BB010DE58229F582E5833AF583E8F0E7
:10085700225006E92582C8F622BBFE05E92582C893
:02086700F2227B
:10086900EF8DF0A4A8F0CF8CF0A428CE8DF0A42EA3
:02087900FE225D
:10087B0075F008758200EF2FFFEE33FECD33CDCC34
:10088B0033CCC58233C5829BED9AEC99E5829840B7
:10089B000CF582EE9BFEED9AFDEC99FC0FD5F0D694
:1008AB00E4CEFBE4CDFAE4CCF9A88222B800C1B9BE
:1008BB000059BA002DEC8BF084CFCECDFCE5F0CBFC
:1008CB00F97818EF2FFFEE33FEED33FDEC33FCEB35
:1008DB0033FB10D703994004EB99FB0FD8E5E4F9F0
:1008EB00FA227818EF2FFFEE33FEED33FDEC33FCDD
:1008FB00C933C910D7059BE99A4007EC9BFCE99AD1
:10090B00F90FD8E0E4C9FAE4CCFB2275F010EF2F15
:10091B00FFEE33FEED33FDCC33CCC833C810D70715
:10092B009BEC9AE899400AED9BFDEC9AFCE899F850
:0E093B000FD5F0DAE4CDFBE4CCFAE4C8F922E3
:10094900EB9FF5F0EA9E42F0E99D42F0E89C45F004
:01095900227B
:10095A00E8600FECC313FCED13FDEE13FEEF13FF7B
:03096A00D8F1229F
:10096D00EC8EF0A4CCC5F0CCCDF8EFA4CEC5F02D17
:10097D00FDE43CFCE8A42EC8C5F03DFDE43CFCEFD5
:0D098D00A4FFE5F028FEE43DFDE43CFC2263
:100C8000E5342428F8E60534227825300702782850
:100C9000E475F001120C4A0207EF2000EB7F2ED220
:100CA000008018EF540F2490D43440D4FF30040B4C
:100CB000EF24BFB41A0050032461FFE5356002152C
:100CC000350538E5387002053730070D7825E475AD
:100CD000F001120C4AEF0208350229057403D2070D
:100CE0008003E4C207F5348B258A268927E4F5358D
:100CF000F537F538E53560077F20120CBB80F575B8
:100D000036FFC201C200C202C203C205C206C20847
:100D1000120C89FF700D3007057F00120CCCAF3824
:100D2000AE3722B4255FC2D5C204120C89FF24D08D
:100D3000B40A00501A75F00A783530D50508B6FFA8
:100D40000106C6A426F620D5047002D20380D92459
:100D5000CFB41A00EF5004C2E5D204020ECCD20187
:100D600080C6D20080C0D20280BCD2D580BAD20563
:100D700080B47F20120CBB2002077401B5350040FF
:100D8000F1120C80FF120CBB020CF4D208D20680C8
:100D900095120C80FB120C80FA120C80F94A4B70F1
:100DA00006799D7A0F7BFF20022EE535602A7E00B2
:100DB0008E8275830012080860060EEE653670F0AC
:100DC000C2D5EBC0E0EAC0E0E9C0E0EE120F13D0FC
:100DD000E0F9D0E0FAD0E0FB1207EFFF60AAEBC029
:100DE000E0EAC0E0E9C0E0120CBBD0E02401F9D099
:100DF000E03400FAD0E0FBE5360460DCD536D9807B
:100E0000877BFF7A0F790FD202809C79108002795C
:100E100008C206C2088008D2D5790A8004790AC2BD
:100E2000D5E536047002F536E4FAFDFEFF120C80BB
:100E3000FC7B08200113120C80FD7B1030000A128D
:100E40000C80FE120C80FF7B20EC3382D592D550B3
:100E500013C3E43000069FFFE49EFEE42001039DDF
:100E6000FDE49CFCE4CBF8C201EC700CCFCECDCC01
:100E7000E824F8F870F38017C3EF33FFEE33FEED8C
:100E800033FDEC33FCEB33FB994002FB0FD8E9EB6D
:100E9000300105F8D0E0C448B201C0E00AEC4D4E84
:100EA0004F78207B0070C2EAB5360040BCC0E0122B
:100EB0000F15D0F0D0E0200104C4C0E0C4B201C0DE
:100EC000F0120CA4D0F0D5F0EB020CF4120C5A0D79
:100ED00091530E0B580D624C0D5E420E0F4F0E17C4
:0F0EE000440E17490D77430E1D550E01460E01A6
:100EEF00450E01470FBD500D662D0D6A2E0D8D2B32
:100EFF000D6E230D8B200FA62A0D264800000D85A1
:100F0F003F3F3F00790AA2D5200314300509B910DD
:100F1F00020404B9080104A2D520060250010420DE
:100F2F0002689202B535005034C0E07F20300319BB
:100F3F007F30A20272067205500F120F6CC202C2EE
:100F4F0006C205C2087F30800F300503E9C0E012EA
:100F5F000CBB300503D0E0F9D0E0B535CC30051728
:100F6F007F30B9100C120CBB7F583004077F78808C
:100F7F0003B90803120CBB3002057F2D020CBB7F97
:100F8F00202008F87F2B2006F322920280CF286EB4
:100F9F00756C6C2900D201120C803001F8C20178F7
:100FAF003530D50108F6020D262D50434958120C45
:100FBF00802403B405004001E4900FB893120CACE9
:0D0FCF00743A120CACD203753504020E0BFF
:10099A00E3F5F009E208B5F06D606B80F3E3F5F07A
:1009AA0009E608B5F060605E80F387F009E608B5ED
:1009BA00F054605280F487F009E208B5F0486046C6
:1009CA0080F488828C8387F009E0A3B5F03860361A
:1009DA0080F488828C8387F009E493A3B5F02760BA
:1009EA002580F388828C83E3F5F009E0A3B5F0163D
:1009FA00601480F388828C83E3F5F009E493A3B54D
:100A0A00F004600280F2020AC5808580E7808E8049
:100A1A00D2803C8015806C807E809B80B5808B80E4
:100A2A00A1804F8070803A020AD189828A83ECFAC7
:100A3A00E493F5F0A3C8C582C8CCC583CCE493A3DC
:100A4A00C8C582C8CCC583CCB5F070606E80E18918
:100A5A00828A83E493F5F0A3E208B5F05E605C80D5
:100A6A00F289828A83E0F5F0A3E608B5F04D604B7F
:100A7A0080F389828A83E0F5F0A3E208B5F03C604E
:100A8A003A80F389828A83E493F5F0A3E608B5F005
:100A9A002A602880F2805389828A83ECFAE493F5EB
:100AAA00F0A3C8C582C8CCC583CCE0A3C8C582C898
:100ABA00CCC583CCB5F004600280E27FFFB5F002BA
:100ACA000F2240027F012289828A83ECFAE0F5F044
:100ADA00A3C8C582C8CCC583CCE0A3C8C582C8CC8C
:100AEA00C583CCB5F0D560D380E389828A83ECFADA
:100AFA00E0F5F0A3C8C582C8CCC583CCE493A3C8EB
:100B0A00C582C8CCC583CCB5F0B160AF80E288F0AD
:100B1A00ED2402B4040050A3F582EB2402B40400CD
:0B0B2A0050992323458223900A137387
:100B3500E709F60870FA8046E709F20870FA803E80
:100B450088828C83E709F0A370FA807EE309F608B2
:100B550070FA8076E309F20870FA806E88828C83D9
:100B6500E309F0A370FA806289828A83E0A3F6081C
:100B750070FA805689828A83E0A3F20870FA804A67
:100B850080D280FA80C680D4806580F28031801062
:100B950080A680EA809A80A880DA80E280CA8031C7
:100BA50089828A83ECFAE493A3C8C582C8CCC5833D
:100BB500CCF0A3C8C582C8CCC583CC70E9800D89AB
:100BC500828A83E493A3F60870F9ECFAA9F0EDFBA9
:100BD5002289828A83ECFAE0A3C8C582C8CCC58382
:100BE500CCF0A3C8C582C8CCC583CC70EA80DD89AA
:100BF500828A83E493A3F20870F980CE88F0ED240D
:100C050002B4040050C4F582EB2402B4040050BAC7
:090C15002323458223900B857313
:1027CE00E94A4B7001221207EFFF6D700122EF7084
:0C27DE0004FBFAF92209E970ED0A80EA18
:101F41008B258A268927AB25AA26A9271207EFFF09
:101F5100120068500D74012527F527E43526F52672
:101F610080E4D200AB25AA26A9271207EFFF642B34
:101F71006004EFB42D1BAB250527E527AA267002C7
:101F8100052614F91207EF642D6003D38001C39273
:101F910000E4F528F529AB25AA26A9271207EFFFAA
:101FA1001228CE5036AB25AA26A9271207EFFF33F8
:101FB10095E0FEEF24D0FBEE34FFFAAE28AF297C8A
:101FC100007D0A120869EF2BF529EE3AF528740114
:101FD1002527F527E43526F52680BB300006AE28F7
:0E1FE100AF298009C3E49529FFE49528FE226C
:100C1E00EF4E6012EF60010EEDBB010B89828A83ED
:100C2E00F0A3DFFCDEFA2289F05007F709DFFCA9FA
:0C0C3E00F022BBFEFCF309DFFCA9F02251
:100C4A00FAE6FB0808E6F925F0F618E6CA3AF622AB
:100C5A00D083D082F8E4937012740193700DA3A329
:100C6A0093F8740193F5828883E47374029368603D
:060C7A00EFA3A3A380DF3D
:0F28CE00EFC394304007EF943A50028001C322C9
:10006800EFC394094005EF940E4003BF2003D380EB
:0300780001C3229F
:00000001FF
