:030000000225E1F5
:0C25E100787FE4F6D8FD75815C022628A6
:10240300A2AF920CC2AF75C7AA75C755E4F591A2E6
:102413000C92AF43B10153B2FEA2AF920CC2AF759F
:10242300C7AA75C755F591A20C92AF43B30153B434
:10243300FEA2AF920CC2AF75C7AA75C755F591A29C
:102443000C92AF53B3FD43B402A2AF920CC2AF756B
:10245300C7AA75C755F591A20C92AF53B3FB43B40A
:1024630004A2AF920CC2AF75C7AA75C755F591A266
:102473000C92AF53B3F753B4F7A2AF920CC2AF753C
:10248300C7AA75C755F591A20C92AF53B3EF53B4D6
:10249300EFA2AF920CC2AF75C7AA75C755F591A24B
:0A24A3000C92AF53B1BF53B2BF2239
:102C83004389015389FD438E085389FB5389F722F6
:100003008E268F27E5274526600DE52715277002E5
:080013001526122B6580ED2279
:102B6500E4F58CF58AD28CAF8CEFFEAD8A7C00E45F
:102B75002DFFEC3EFEC3EF9480EE943E40E9C28CFF
:012B8500222D
:061BC6008E268F278D28FA
:101BCC00E4F529E5277807CEC313CE13D8F97807A7
:101BDC00C333CE33CED8F9F52B8E2AE4F529C3E5E1
:101BEC002994807480948050217E00E52B2529FF58
:101BFC00EE352AFE122CD17E0074002529F582E4E4
:101C0C003400F583EFF0052980D47E00E527547F5E
:101C1C002400F582EE3400F583E528F0E52BF5A6DB
:101C2C00E52AF5A775AEFFA2AF920CC2AF75C7AA95
:101C3C0075C755439F01A20C92AFA2AF920CC2AFD5
:101C4C0075C7AA75C75543A501A20C92AF75AF22F3
:101C5C00A2AF920CC2AF75C7AA75C75543A401A217
:101C6C000C92AFA2AF920CC2AF75C7AA75C7554301
:101C7C009F01A20C92AFA2AF920CC2AF75C7AA750E
:101C8C00C75543A501A20C92AF75AF21E4F529C34A
:101C9C00E529948074809480502FE52B2529F5A696
:101CAC00E52AF5A774002529F582E43400F583E0D4
:101CBC00F5AEA2AF920CC2AF75C7AA75C75543A4B7
:101CCC0001A20C92AF052980C6A2AF920CC2AF75CF
:101CDC00C7AA75C75553A5FEA20C92AFA2AF920C22
:0F1CEC00C2AF75C7AA75C755539FFEA20C92AF22
:011CFB0022C6
:042CD1008F828E83DD
:032CD500E493FF86
:012CD80022D9
:0A266D008E088F098B0A8A0B890C76
:10267700E5097807CEC313CE13D8F9FDE509250E72
:10268700FFE508350DFEEF7807CEC313CE13D8F953
:10269700F50FED650F6043AB0AAA0BA90C75158002
:1026A700AF09AE08121869AC07EC2509F509E4353E
:1026B70008F508EC250CF50CE4350BF50BECC3E538
:1026C7000E9FF50EE50D9400F50DAE08E5097807A8
:1026D700CEC313CE13D8F9FD80B8E50E450D6010B3
:1026E700AB0AAA0BA90C850E15AF09AE081218691B
:0126F70022C0
:0A2992008E188F198B1A8A1B891CFE
:10299C00E4FFFEC3EF951EEE951D5021E5192FFDAA
:1029AC00E5183E8D82F583E493AB1AAA1BA91C8F04
:0D29BC00828E83120C340FBF00010E80D6F6
:0129C90022EB
:0A1869008E108F118B128A13891460
:10187300A2AF920CC2AF75C7AA75C755439F01A209
:101883000C92AFA2AF920CC2AF75C7AA75C75543EE
:10189300A501A20C92AFE511547FF517C37480958F
:1018A30017F516E515D395164003851615AD11AC3E
:1018B30010E4F516E516C395155012ED2516F582BD
:1018C300E43CF583E493F47004051680E7E51665BC
:1018D30015707875AF218511A6E510F5A7E4F51607
:1018E300E516C39515502AAB12AA13A914851682BF
:1018F300758300120BF5F5AEA2AF920CC2AF75C79C
:10190300AA75C75543A401A20C92AF05A60516807C
:10191300CFE4F516E516C395155022AB12AA13A909
:1019230014851682758300120BF5FFED2516F582DB
:10193300E43CF583E493B50704051680D7E5166503
:10194300157003021A438003021A43E5115480AC55
:1019530010FDE4F516C3E516948074809480501D41
:10196300ED2516F582E43CF583E493FF7480251698
:10197300F582E43400F583EFF0051680D8E4F5161C
:10198300E516C395155023AB12AA13A91485168225
:10199300758300120BF5FFE51725162480F582E405
:1019A3003400F583EFF0051680D6E5115480F5A6D3
:1019B300E510F5A775AF2275AEFFA2AF920CC2AFCB
:1019C30075C7AA75C75543A401A20C92AF75AF2181
:1019D300E4F516C3E51694807480948050277480D0
:1019E3002516F582E43400F583E0F5AEA2AF920C40
:1019F300C2AF75C7AA75C75543A401A20C92AF0520
:101A0300A6051680CEE4F516AF167E00C3EF9480CC
:101A1300748094805021ED2516F582E43CF583E42F
:101A230093FB74802516F582E43400F583E0FAEB2A
:101A3300B50204051680D1EF64804E60030219AD30
:101A4300A2AF920CC2AF75C7AA75C755539FFEA22A
:051A53000C92AFAF157D
:011A5800226B
:1022A700A2AF920CC2AF75C7AA75C755439F01A2CB
:1022B7000C92AF75A604E4F5A775AE0F75AFE1A252
:1022C700AF920CC2AF75C7AA75C75543A504A20C38
:1022D70092AFA2AF920CC2AF75C7AA75C75543A4F8
:1022E70001A20C92AFE59F5440644060F8A2AF9200
:1022F7000CC2AF75C7AA75C75553A5FBA20C92AF01
:10230700A2AF920CC2AF75C7AA75C755539FFEA25D
:102317000C92AF75C7AA75C75575AA07A2AF920CDD
:10232700C2AF75C7AA75C75543AA40A20C92AFAFF3
:10233700AAEF44BF74FF60F7D2AFA2AF920CC2AF4F
:0E23470075C7AA75C75543AA80A20C92AF2293
:0C2AFB00C109C10A02530000025500008E
:102C0C00E5542480FFE43553FEC3EF9556FFEE9553
:062C1C0055EF547FFF227A
:10006100E5542401FFE43553FEEFB55608EEB555CE
:08007100047F0180027F0022E0
:102BDE00E4F553F554F555F556FE7F80FD7B017AED
:072BEE000179001210202202
:102B1F00EFF5827583007E00FDC3E5549DFDE553FF
:102B2F009400FC74002DF974013CFA7B017D0012B6
:032B3F0010202241
:102C6100E554B55609E553B555047F0180027F004F
:012C71002240
:102C7200AE53AF5474FF2FF58274003EF583E0FF2C
:012C8200222F
:102AD600AD07120061EF701C0554E554AE53700249
:102AE6000553142400F58274013EF583EDF053542A
:052AF6007F7553002272
:102AB000122C61EF60037F00220556E556AE55707B
:102AC000020555142400F58274013EF583E0FF539E
:052AD000567F75550062
:012AD50022DE
:03002300020026B2
:10002600C0E0C083C082C0D075D000C005C006C085
:1000360007C09130980CD20A859951AF51122AD631
:10004600C298309905200902C299D091D007D006EE
:0B005600D005D0D0D082D083D0E032A3
:03007B00022BF560
:102BF500C09130F807859A52D20BC2F830F90520FA
:072C05000902C2F9D091326F
:101A59008F258E248D238C22E52614605214700361
:101A6900021B4B24026003021BC575985043892051
:101A7900438780438E10A2AF920CC2AF75C7AA7577
:101A8900C755E4F591A20C92AF53C4DF7B10FAF964
:101A9900F8AF25AE24AD23AC22120CE1AB2AAA295A
:101AA900A928A827120CE1EFF404F58DD28E22752E
:101AB900985043878053C4F8A2AF920CC2AF75C740
:101AC900AA75C755E4F591A20C92AF43C4207B10C7
:101AD900FAF9F8AF25AE24AD23AC22120CE1AB2AFA
:101AE900AA29A928A827120CE1C3E49FFFE49EFEB6
:101AF90074019DFDE49CFC7808120D898FC6E47B76
:101B090010FAF9F8AF25AE24AD23AC22120CE1ABE3
:101B19002AAA29A928A827120CE1C3E49FFFE49E59
:101B2900FE74019DFDE49CFCEFE48FC5A2AF920C0D
:101B3900C2AF75C7AA75C755F591A20C92AF43C438
:101B4900082275F85075C480E47B10FAF9F8AF25BE
:101B5900AE24AD23AC22120CE1AB2AAA29A928A8EC
:101B690027120CE1C3E49FFFE49EFE74019DFDE48E
:101B79009CFC7808120D898FC6E47B10FAF9F8AF3E
:101B890025AE24AD23AC22120CE1AB2AAA29A9283F
:101B9900A827120CE1C3E49FFFE49EFE74019DFD9A
:101BA900E49CFCEFE48FC5A2AF920CC2AF75C7AA43
:0D1BB90075C755F591A20C92AF43C40822E8
:0D2CB100EF1460060470058D99228D9A22A3
:1029CA00A2AF920CC2AF75C7AA75C755E4F591A21A
:1029DA000C92AF53B1BF53B2BFF526F52A7529C27F
:1029EA00752801F527FF7E367D6E7C01121A59D2B1
:0429FA0099D2092243
:102C220075BE2753B3F753B4F753B3EF53B4EFD290
:062C320093D294D2C622E9
:081CFC008F2B8B2C8A2D892E01
:101D0400AFBDEF64F860037F0022C2C4D2C5C2C372
:101D1400753100753201E4F53320C315E5324531E0
:101D24007005753301800A0532E532700205318091
:101D3400E8E5336006122A2F7F0022AFBDEF640866
:101D44006006122A2F7F0022C2C5C2C475BCD0C24D
:101D5400C3753100753201E4F53320C315E532450E
:101D6400317005753301800A0532E53270020531A0
:101D740080E8E5336006122A2F7F0022AFBDEF64AE
:101D8400186006122A2F7F0022C2C5C2C4852BBC4C
:101D9400C2C3753100753201E4F53320C315E53251
:101DA40045317005753301800A0532E5327002054C
:101DB4003180E8E5336006122A2F7F0022AFBDEFA1
:101DC40064286006122A2F7F0022E4F530E530C330
:101DD400952F504FAB2CAA2DA92E853082758300E8
:101DE400120BF5F5BCC2C3753100753201E4F5334D
:101DF40020C315E53245317005753301800A05327B
:101E0400E5327002053180E8E5336006122A2F7F3F
:101E14000022AFBDEF64286006122A2F7F0022053E
:061E24003080AA122A2FF3
:011E2A002295
:081669008F298B2A8A2B892CA2
:10167100AFBDEF64F860037F0022C2C4D2C5C2C30C
:10168100752F00753001E4F53120C315E530452F84
:101691007005753101800A0530E5307002052F8033
:1016A100E8E5316006122A2F7F0022AFBDEF640802
:1016B1006006122A2F7F0022C2C5C2C475BCD0C2E7
:1016C100C3752F00753001E4F53120C315E53045B0
:1016D1002F7005753101800A0530E5307002052F44
:1016E10080E8E5316006122A2F7F0022AFBDEF644A
:1016F100186006122A2F7F0022C2C5C2C48529BCE8
:10170100C2C3752F00753001E4F53120C315E530F2
:10171100452F7005753101800A0530E530700205ED
:101721002F80E8E5316006122A2F7F0022AFBDEF3E
:1017310064286006122A2F7F0022C2C4D2C5C2C308
:10174100752F00753001E4F53120C315E530452FC3
:101751007005753101800A0530E5307002052F8072
:10176100E8E5316006122A2F7F0022AFBDEF641039
:101771006006122A2F7F0022C2C5C2C475BCD1C225
:10178100C3752F00753001E4F53120C315E53045EF
:101791002F7005753101800A0530E5307002052F83
:1017A10080E8E5316006122A2F7F0022AFBDEF6489
:1017B100406006122A2F7F0022E4F52EE52D14FF4A
:1017C100E52EC39F5051D2C2C2C3752F007530019F
:1017D100E4F53120C315E530452F700575310180E1
:1017E1000A0530E5307002052F80E8E53160061208
:1017F1002A2F7F0022AFBDEF64506006122A2F7F8F
:101801000022AB2AAA2BA92C852E82758300E5BC68
:10181100120C34052E80A5C2C2C2C3752F007530CB
:1018210001E4F53120C315E530452F70057531010F
:10183100800A0530E5307002052F80E8E531600649
:10184100122A2F7F0022AFBDEF64586006122A2FA3
:101851007F0022AB2AAA2BA92C852E82758300E555
:07186100BC120C34122A2F07
:01186800225D
:10210A00AFBDEF64F860037F0022C2C4D2C5C2C368
:10211A00755700755801E4F55920C315E558455718
:10212A007005755901800A0558E5587002055780EF
:10213A00E8E5596006122A2F7F0022AFBDEF640836
:10214A006006122A2F7F0022C2C5C2C475BCD1C242
:10215A00C3755700755801E4F55920C315E558456C
:10216A00577005755901800A0558E55870020557D8
:10217A0080E8E5596006122A2F7F0022AFBDEF647E
:10218A00406006122A2F7F0022C2C2C2C3755700BE
:10219A00755801E4F55920C315E55845577005757A
:1021AA005901800A0558E5587002055780E8E55933
:1021BA006006122A2F7F0022AFBDEF645860061214
:0F21CA002A2F7F0022AFBC7557008F58122A2F83
:0121D90022E3
:102A2F00C2C5D2C4C2C37F017E00E4FDACBDEC645D
:102A3F00F8600FEF4E70047D0180070FBF00010E8D
:0B2A4F0080EAED70047F0180027F0030
:012A5A002259
:102B8600AE07EFC3940A748094804012EF75F00A82
:102B960084FEEF75F00A84EEC454F045F0FEAF06ED
:012BA600220C
:0E2C9300EFC4540F75F00AA4FEEF540F2EFF8D
:012CA1002210
:0626F8008B258A268927CC
:1026FE00120BDCFF122B868F2A532A7F7B007A0067
:10270E00792A752F01E4FF121CFCAB25AA26A927F6
:10271E00900001120BF5FF122B868F297B007A0099
:10272E007929752F017F01121CFCAB25AA26A9273A
:10273E00900002120BF5FF122B868F28AB25AA26CE
:10274E00A927900003120BF5FF7E0064027005535B
:10275E0028BF80114328BFEF64014E700543282027
:10276E0080035328DF7B007A007928752F017F02C2
:03277E00121CFC2E
:012781002235
:062806008B438A44894562
:10280C00120BDCFF122B868F467B007A0079467503
:10281C002F017F03121CFCAB43AA44A94590000175
:10282C00120BF5FF122B868F477B007A00794775C8
:10283C002F017F04121CFCAB43AA44A94590000253
:10284C00120BF5FF122B868F487B007A00794875A6
:10285C002F017F05121CFCAB43AA44A94590000331
:10286C00120BF5FF122B868F497B007A0079497584
:07287C002F017F06121CFC76
:012883002232
:0624AD008B228A23892422
:1024B3007B007A007927752D01E4FF1216695327F3
:1024C3007FAF27122C93AB22AA23A924EF120C224D
:1024D3007B007A007926752D017F01121669AF26DC
:1024E300122C93AB22AA23A924900001EF120C34DF
:1024F3007B007A007925752D017F02121669E52587
:1025030030E62254207003D38001C340047F01804E
:10251300027F00AB22AA23A924900003EF120C34FC
:1025230053259F800EAB22AA23A924900003740293
:10253300120C34AF25122C93AB22AA23A9249000AA
:0525430002EF120C3450
:012548002270
:062782008B228A2389244A
:102788007B007A007925752D017F03121669AF2524
:10279800122C93AB22AA23A924EF120C227B007AD5
:1027A800007926752D017F04121669AF26122C9325
:1027B800AB22AA23A924900001EF120C347B007AE3
:1027C800007927752D017F05121669AF27122C9302
:1027D800AB22AA23A924900002EF120C347B007AC2
:1027E800007928752D017F06121669AF28122C93DF
:0D27F800AB22AA23A924900003EF120C3499
:0128050022B0
:102C380053890F438910438E10758DC4758B17D235
:062C4800ABD2AFD28E22D8
:092CC800122BC3122CBE80FB226A
:1021DA002443000A4F4B0A0024530024450024419B
:1021EA00000A44495341424C450A000A454E4142BD
:1021FA004C450A005345542054494D4552204552F6
:10220A00524F520A00310A000A204A756D7020693D
:10221A006E746F20616374697665206D6F646520E2
:10222A00310A00320A000A204A756D7020696E74FC
:10223A006F20616374697665206D6F646520320A68
:10224A000031320A000A204A756D70206F757420B9
:10225A00616374697665206D6F64652031203C2066
:10226A000A000A204A756D70206F757420616374C4
:10227A00697665206D6F64652031203E200A003240
:10228A00310A000A204A756D70206F7574206163E7
:0D229A0074697665206D6F646520320A005E
:102B0700024D0000015000014B01014A02014F0034
:072B1700014C0241018200A4
:102BC3007F07121F37122403122B42122C83122C5D
:0B2BD30022122A5B122549122C382226
:0A2CBE001220321213F012007E22E1
:102B4200752601E4752A80752925F528F527FF7E6B
:102B5200247DF4FC121A59D299D209D2ACD2AF1206
:032B62002BDE2245
:10203200E4F522F523E54A64026003022109E54B37
:102042006401705630904AD2927F0AFE1200033029
:102052009048E523B4D029E522B40724C291D29254
:10206200754B027F087E30122CD17524008F25E536
:1020720025640245246009AD4B7F087E30121BC6E1
:102082007F017E001200030523E5237002052280F2
:10209200BE308003D38001C39292E54B6402706725
:1020A200309062D2917F0AFE120003E4F522F523FA
:1020B200309054E52364D07004E52264077035C281
:1020C20092D2917F64FE120003C2917F647E00125D
:1020D2000003D291754B017F087E30122CD17524FA
:1020E200008F25E525640145246009AD4B7F087EFC
:1020F20030121BC67F017E001200030523E5237008
:0721020002052280ABC2912F
:0121090022B3
:102A5B007F087E30122CD1EFF460028F4BAF4B7E90
:102A6B0000EF64017005D291C29222EF64024E70A6
:0A2A7B0005C291D29222D291C292BC
:012A8500222E
:102549007F207E30122CD19001A0E4F0A3EFF07F20
:10255900217E30122CD1900198E4F0A3EFF07F2274
:102569007E30122CD1900185E4F0A3EFF07430FF96
:10257900FE122CD1900183E4F0A3EFF07F317E307D
:10258900122CD1900180E4F0A3EFF07F327E30125B
:102599002CD190019EE4F0A3EFF07F427E30122C03
:1025A900D1EFF460028F4C7F407E30122CD1EFF4D2
:1025B90060028F4A7F417E30122CD1EFF460028F86
:1025C9004FAF4A7E00EF64017005D291C29222EFAB
:0725D9004E7004C291C29292
:0125E00022D8
:1013F000122C72EF64236003021668122C0CEF604B
:101400001A122AB0BF24F4900182E0FF04F0748B1A
:101410002FF582E43401F5837424F0122C0CEF6074
:1014200018122AB0900182E0FE04F0748B2EF5822F
:10143000E43401F583EFF080E2900182E0248BF543
:1014400082E43401F583E4F07F0D122B1F7528012F
:10145000752901752AA5752B01752C01752DA875A7
:101460002E01752F017530AB753101753201753361
:101470008B7B017A0179A2121E2B78A27C017D015F
:101480007BFF7A2179DA120F1AEF703F7B017A0124
:1014900079A512235590019CEFF07B017A0179A880
:1014A00012235590019BEFF07B017A0179AB122357
:1014B0005590019AEFF07B017A01799A1226F87B18
:1014C000FF7A2179DD1210F602165678A27C017D92
:1014D000017BFF7A2179E2120F1AEF70697B017AA2
:1014E0000179A51223559001A0EEF0A3EFF07B0146
:1014F0007A0179A8122355900198EEF0A3EFF07BC2
:10150000017A0179AB122355900185EEF0A3EFF03B
:101510009001A0E0A3E0FD7F207E30121BC6900169
:1015200098E0A3E0FD7F217E30121BC6900185E08C
:10153000A3E0FD7F227E30121BC67BFF7A2179DD7E
:101540001210F602165678A27C017D017BFF7A21EB
:1015500079E5120F1AEF70697B017A0179A51223E0
:1015600055900183EEF0A3EFF07B017A0179A81288
:101570002355900180EEF0A3EFF07B017A0179AB67
:1015800012235590019EEEF0A3EFF0900183E0A3AB
:10159000E0FD7430FFFE121BC6900180E0A3E0FD69
:1015A0007F317E30121BC690019EE0A3E0FD7F32AA
:1015B0007E30121BC67BFF7A2179DD1210F60216EF
:1015C0005678A27C017D017BFF7A2179E8120F1AFF
:0615D000EF600302165655
:1015D6007B017A0179A51223558F227B017A017945
:1015E600A81223558F237B017A0179AB1223558FDD
:1015F60024E5227029E5237025EF7022F54F754A00
:1016060002AD4A7F407E30121BC6AD4F7F417E3011
:10161600121BC67BFF7A2179EB1210F68032E52287
:10162600640B702CE523640B7026E524640B702094
:10163600754F01F54AAD4A7F407E30121BC6AD4F4D
:101646007F417E30121BC67BFF7A2179F51210F698
:10165600E4900182F0FE7F0DFD7B017A01798B1209
:02166600102052
:01166800225F
:061E2B008B258A268927A1
:101E3100E94A4B7003021F36E52A452945287003FC
:101E4100021F36E52D452C452B7003021F36E53068
:101E5100452F452E7003021F36E53345324531705B
:101E610003021F36AB31AA32A9338B348A35893646
:101E71008B378A3889397D2C122BA78B348A358987
:101E810036E94A4B6013E4120C22A827AC26AD2593
:101E9100AB37AA38A939121003AB34E5362401F95E
:101EA100E43535FA8B3AF53B893C7D2C122BA78B17
:101EB100348A358936E94A4B6013E4120C22A82A88
:101EC100AC29AD28AB3AAA3BA93C121003AB34E5CF
:101ED100362401F9E43535FA8B3DF53E893F7D2CF9
:101EE100122BA78B348A358936E94A4B6013E412E9
:101EF1000C22A82DAC2CAD2BAB3DAA3EA93F121054
:101F010003AB34E5362401F9E43535FA8B40F5416C
:101F110089427D23122BA78B348A358936E94A4BB6
:101F21006013E4120C22A830AC2FAD2EAB40AA41B5
:051F3100A9421210039B
:011F36002288
:10007E00AF50EF64016003020BDBE54F64016003D8
:10008E00020BD87B017A01799A1224AD7B017A0199
:10009E007987122782E54A6003020637900180E0D5
:1000AE00FEA3E0FFEE3395E0FDFCE47B3CFAF9F8AD
:1000BE00120C56C004C005C006C007900183E0FEB6
:1000CE00A3E0FFEE3395E0FDFCE47B107A0EF9F829
:1000DE00120C56D003D002D001D000EF2BFBEE3A1B
:1000EE00FAED39F9EC38F890019EE0FEA3E0FFEE50
:1000FE003395E0FDFCEB2FFFEA3EFEE93DFDE83CCB
:10010E00FCC004C005C006C007900198E0FEA3E045
:10011E00FFEE3395E0FDFCE47B3CFAF9F8120C5649
:10012E00C004C005C006C0079001A0E0FEA3E0FF1A
:10013E00EE3395E0FDFCE47B107A0EF9F8120C56C6
:10014E00D003D002D001D000EF2BFBEE3AFAED39FE
:10015E00F9EC38F8900185E0FEA3E0FFEE3395E070
:10016E00FDFCEB2FFBEA3EFAE93DF9E83CF8D0073F
:10017E00D006D005D004C3120D737015754A02ADAA
:10018E004A7F407E30121BC67BFF7A2179FE121009
:10019E00F6900180E0FEA3E0FFEE3395E0FDFCE477
:1001AE007B3CFAF9F8120C56C004C005C006C00715
:1001BE00900183E0FEA3E0FFEE3395E0FDFCE47BCF
:1001CE00107A0EF9F8120C56D003D002D001D000DE
:1001DE00EF2BFBEE3AFAED39F9EC38F890019EE090
:1001EE00FEA3E0FFEE3395E0FDFCEB2FFFEA3EFEB3
:1001FE00E93DFDE83CFCC004C005C006C007900107
:10020E0098E0FEA3E0FFEE3395E0FDFCE47B3CFAC4
:10021E00F9F8120C56C004C005C006C0079001A024
:10022E00E0FEA3E0FFEE3395E0FDFCE47B107A0EDA
:10023E00F9F8120C56D003D002D001D000EF2BFBF0
:10024E00EE3AFAED39F9EC38F8900185E0FEA3E0CC
:10025E00FFEE3395E0FDFCEB2FFBEA3EFAE93DF9AC
:10026E00E83CF8D007D006D005D004C3120D734079
:10027E00030204547BFF7A22790F1210F690019834
:10028E00E0FEA3E0FFEE3395E0FDFCE47B3CFAF9E3
:10029E00F8120C56C004C005C006C0079001A0E0BD
:1002AE00FEA3E0FFEE3395E0FDFCE47B107A0EF941
:1002BE00F8120C56D003D002D001D000EF2BFBEE7B
:1002CE003AFAED39F9EC38F8900185E0FEA3E0FF3B
:1002DE00EE3395E0FDFCEB2FFFEA3EFEE93DFDE837
:1002EE003CFCC004C005C006C00790019BE0FFE4C3
:1002FE00FCFDFE7B3CFAF9F8120C56C004C005C09A
:10030E0006C00790019CE0FFE4FCFDFE7B107A0E18
:10031E00F9F8120C56D003D002D001D000EF2BFB0F
:10032E00EE3AFAED39F9EC38F890019AE0FFE4FC78
:10033E00FDFEEB2FFBEE3AFAED39F9EC38F8D0076B
:10034E00D006D005D004D3120D735003020454907E
:10035E000180E0FEA3E0FFEE3395E0FDFCE47B3C84
:10036E00FAF9F8120C56C004C005C006C007900179
:10037E0083E0FEA3E0FFEE3395E0FDFCE47B107A14
:10038E000EF9F8120C56D003D002D001D000EF2B8C
:10039E00FBEE3AFAED39F9EC38F890019EE0FEA347
:1003AE00E0FFEE3395E0FDFCEB2FFFEA3EFEE93D6C
:1003BE00FDE83CFCC004C005C006C00790019BE0F0
:1003CE00FFE4FCFDFE7B3CFAF9F8120C56C004C0AB
:1003DE0005C006C00790019CE0FFE4FCFDFE7B100B
:1003EE007A0EF9F8120C56D003D002D001D000EFDD
:1003FE002BFBEE3AFAED39F9EC38F890019AE0FF62
:10040E00E4FCFDFEEB2FFBEE3AFAED39F9EC38F891
:10041E00D007D006D005D004C3120D735028D29148
:10042E00C292754A02754C04AD4A7F407E30121B53
:10043E00C6AD4C7F427E30121BC6122A5B7BFF7A02
:10044E002279121210F6900180E0FEA3E0FFEE3347
:10045E0095E0FDFCE47B3CFAF9F8120C56C004C0A2
:10046E0005C006C007900183E0FEA3E0FFEE3395C2
:10047E00E0FDFCE47B107A0EF9F8120C56D003D096
:10048E0002D001D000EF2BFBEE3AFAED39F9EC3841
:10049E00F890019EE0FEA3E0FFEE3395E0FDFCEB4D
:1004AE002FFFEA3EFEE93DFDE83CFCC004C005C05E
:1004BE0006C007900198E0FEA3E0FFEE3395E0FD45
:1004CE00FCE47B3CFAF9F8120C56C004C005C006D9
:1004DE00C0079001A0E0FEA3E0FFEE3395E0FDFC27
:1004EE00E47B107A0EF9F8120C56D003D002D0012C
:1004FE00D000EF2BFBEE3AFAED39F9EC38F890011B
:10050E0085E0FEA3E0FFEE3395E0FDFCEB2FFBEA6A
:10051E003EFAE93DF9E83CF8D007D006D005D00404
:10052E00D3120D7350030206377BFF7A22792D12F8
:10053E0010F6900198E0FEA3E0FFEE3395E0FDFC8F
:10054E00E47B3CFAF9F8120C56C004C005C006C094
:10055E00079001A0E0FEA3E0FFEE3395E0FDFCE482
:10056E007B107A0EF9F8120C56D003D002D001D0BF
:10057E0000EF2BFBEE3AFAED39F9EC38F8900185E5
:10058E00E0FEA3E0FFEE3395E0FDFCEB2FFFEA3E2D
:10059E00FEE93DFDE83CFCC004C005C006C0079066
:1005AE00019BE0FFE4FCFDFE7B3CFAF9F8120C56D1
:1005BE00C004C005C006C00790019CE0FFE4FCFD2E
:1005CE00FE7B107A0EF9F8120C56D003D002D00131
:1005DE00D000EF2BFBEE3AFAED39F9EC38F890013A
:1005EE009AE0FFE4FCFDFEEB2FFBEE3AFAED39F953
:1005FE00EC38F8D007D006D005D004D3120D7340D6
:10060E0028D291C292754A02754C03AD4A7F407E44
:10061E0030121BC6AD4C7F427E30121BC6122A5BB7
:10062E007BFF7A2279301210F6E54A6402600302EB
:10063E000BD8900180E0FEA3E0FFEE3395E0FDFCC9
:10064E00E47B3CFAF9F8120C56C004C005C006C093
:10065E0007900183E0FEA3E0FFEE3395E0FDFCE49E
:10066E007B107A0EF9F8120C56D003D002D001D0BE
:10067E0000EF2BFBEE3AFAED39F9EC38F890019ECB
:10068E00E0FEA3E0FFEE3395E0FDFCEB2FFFEA3E2C
:10069E00FEE93DFDE83CFCC004C005C006C0079065
:1006AE000198E0FEA3E0FFEE3395E0FDFCE47B3C19
:1006BE00FAF9F8120C56C004C005C006C007900126
:1006CE00A0E0FEA3E0FFEE3395E0FDFCE47B107AA4
:1006DE000EF9F8120C56D003D002D001D000EF2B39
:1006EE00FBEE3AFAED39F9EC38F8900185E0FEA30D
:1006FE00E0FFEE3395E0FDFCEB2FFBEA3EFAE93D21
:10070E00F9E83CF8D007D006D005D004C3120D731B
:10071E00400302091DE54C6404600302091D7BFFC2
:10072E007A22794B1210F6900198E0FEA3E0FFEECC
:10073E003395E0FDFCE47B3CFAF9F8120C56C0044C
:10074E00C005C006C0079001A0E0FEA3E0FFEE3397
:10075E0095E0FDFCE47B107A0EF9F8120C56D003EE
:10076E00D002D001D000EF2BFBEE3AFAED39F9ECC6
:10077E0038F8900185E0FEA3E0FFEE3395E0FDFC36
:10078E00EB2FFFEA3EFEE93DFDE83CFCC004C00550
:10079E00C006C00790019BE0FFE4FCFDFE7B3CFA27
:1007AE00F9F8120C56C004C005C006C00790019C93
:1007BE00E0FFE4FCFDFE7B107A0EF9F8120C56D029
:1007CE0003D002D001D000EF2BFBEE3AFAED39F94F
:1007DE00EC38F890019AE0FFE4FCFDFEEB2FFBEE07
:1007EE003AFAED39F9EC38F8D007D006D005D00436
:1007FE00C3120D735025C291C292E4F54A754C0294
:10080E00AD4A7F407E30121BC6AD4C7F427E301209
:10081E001BC67BFF7A22794F1210F6900180E0FE04
:10082E00A3E0FFEE3395E0FDFCE47B3CFAF9F81211
:10083E000C56C004C005C006C007900183E0FEA39D
:10084E00E0FFEE3395E0FDFCE47B107A0EF9F81232
:10085E000C56D003D002D001D000EF2BFBEE3AFAAB
:10086E00ED39F9EC38F890019EE0FEA3E0FFEE338F
:10087E0095E0FDFCEB2FFFEA3EFEE93DFDE83CFC7A
:10088E00C004C005C006C00790019BE0FFE4FCFD5C
:10089E00FE7B3CFAF9F8120C56C004C005C006C027
:1008AE000790019CE0FFE4FCFDFE7B107A0EF9F848
:1008BE00120C56D003D002D001D000EF2BFBEE3A33
:1008CE00FAED39F9EC38F890019AE0FFE4FCFDFE00
:1008DE00EB2FFBEE3AFAED39F9EC38F8D007D006EB
:1008EE00D005D004D3120D734025C291C292E4F507
:1008FE004A754C02AD4A7F407E30121BC6AD4C7F0E
:10090E00427E30121BC67BFF7A22796C1210F69053
:10091E000180E0FEA3E0FFEE3395E0FDFCE47B3CBE
:10092E00FAF9F8120C56C004C005C006C0079001B3
:10093E0083E0FEA3E0FFEE3395E0FDFCE47B107A4E
:10094E000EF9F8120C56D003D002D001D000EF2BC6
:10095E00FBEE3AFAED39F9EC38F890019EE0FEA381
:10096E00E0FFEE3395E0FDFCEB2FFFEA3EFEE93DA6
:10097E00FDE83CFCC004C005C006C007900198E02D
:10098E00FEA3E0FFEE3395E0FDFCE47B3CFAF9F8C4
:10099E00120C56C004C005C006C0079001A0E0FEB0
:1009AE00A3E0FFEE3395E0FDFCE47B107A0EF9F840
:1009BE00120C56D003D002D001D000EF2BFBEE3A32
:1009CE00FAED39F9EC38F8900185E0FEA3E0FFEE80
:1009DE003395E0FDFCEB2FFBEA3EFAE93DF9E83CEE
:1009EE00F8D007D006D005D004D3120D73500302F1
:1009FE000BD8E54C64036003020BD87BFF7A227997
:100A0E00891210F6900198E0FEA3E0FFEE3395E018
:100A1E00FDFCE47B3CFAF9F8120C56C004C005C08C
:100A2E0006C0079001A0E0FEA3E0FFEE3395E0FDC7
:100A3E00FCE47B107A0EF9F8120C56D003D002D0DB
:100A4E0001D000EF2BFBEE3AFAED39F9EC38F890C5
:100A5E000185E0FEA3E0FFEE3395E0FDFCEB2FFFFA
:100A6E00EA3EFEE93DFDE83CFCC004C005C006C000
:100A7E000790019BE0FFE4FCFDFE7B3CFAF9F812C7
:100A8E000C56C004C005C006C00790019CE0FFE4F0
:100A9E00FCFDFE7B107A0EF9F8120C56D003D00234
:100AAE00D001D000EF2BFBEE3AFAED39F9EC38F825
:100ABE0090019AE0FFE4FCFDFEEB2FFBEE3AFAED1F
:100ACE0039F9EC38F8D007D006D005D004C3120D92
:100ADE00734003020BD8900180E0FEA3E0FFEE33DB
:100AEE0095E0FDFCE47B3CFAF9F8120C56C004C00C
:100AFE0005C006C007900183E0FEA3E0FFEE33952C
:100B0E00E0FDFCE47B107A0EF9F8120C56D003D0FF
:100B1E0002D001D000EF2BFBEE3AFAED39F9EC38AA
:100B2E00F890019EE0FEA3E0FFEE3395E0FDFCEBB6
:100B3E002FFFEA3EFEE93DFDE83CFCC004C005C0C7
:100B4E0006C00790019BE0FFE4FCFDFE7B3CFAF93A
:100B5E00F8120C56C004C005C006C00790019CE0F8
:100B6E00FFE4FCFDFE7B107A0EF9F8120C56D00352
:100B7E00D002D001D000EF2BFBEE3AFAED39F9ECB2
:100B8E0038F890019AE0FFE4FCFDFEEB2FFBEE3A05
:100B9E00FAED39F9EC38F8D007D006D005D004D3E9
:100BAE00120D734025C291C292E4F54A754C02AD06
:100BBE004A7F407E30121BC6AD4C7F427E30121BE8
:0E0BCE00C67BFF7A22798D1210F6E4F55022D4
:03001B000229FEB9
:1029FE00C0E0C0D0C091054EE54E7002054DC3E556
:102A0E004E94E8E54D94034009755001754D0075DF
:102A1E004E00758DC4758B17C28DD091D0D0D0E07D
:012A2E003275
:021F3700A907F8
:101F3900E4F591E924F9600C14600E2402700D7522
:101F4900A638800875A630800375A630A2AF920C1A
:101F5900C2AF75C7AA75C755439F01A20C92AFE4DA
:101F6900F5A775AF04A2AF920CC2AF75C7AA75C722
:101F79005543A401A20C92AFADAE05A6A2AF920C37
:101F8900C2AF75C7AA75C75543A401A20C92AFACDD
:101F9900AEE924F8706FED25E0FFE433FEEC54015F
:101FA9007A002FFFEA3EFE74F22FFF74FF3EFE75A2
:101FB900AF0C75A601E4F5A7A2AF920CC2AF75C725
:101FC900AA75C75543A401A20C92AFABAEEB644B03
:101FD900600EABAEEB64526007ABAEEB6453701BA3
:101FE900ED543FC3940774809480500A74F62FFF10
:101FF90074FF3EFE8005EF1F70011EEF5401FCEED9
:10200900C313EF13FD75C7AA75C7558D8475C7AA84
:1020190075C7558C85A2AF920CC2AF75C7AA75C793
:0820290055539FFEA20C92AF7B
:01203100228C
:10290100EF24FD60121460282402704B7F0212290B
:10291100597F02122884227F03122884A2AF920CCD
:10292100C2AF75C7AA75C7555397DFA20C92AF22E4
:102931007F021229597F021228847F041229597FAC
:1029410004122884A2AF920CC2AF75C7AA75C755ED
:082951005397DFA20C92AF22A4
:10295900EF24FC60222402702FA2AF920CC2AF7543
:10296900C7AA75C755439720A20C92AFE59644DFD5
:1029790064DF701480F62275C7AA75C7554397C0DE
:09298900E59644F764F760F822BA
:102A8600E4F591EF24FC60182402701DA2AF920CAD
:102A9600C2AF75C7AA75C7555397DFA20C92AF226E
:0A2AA60075C7AA75C75553973F2264
:10288400E4F591A2AF920CC2AFEF24FD602F146067
:102894005424027063A2AF920CC2AF75C7AA75C765
:1028A400555396FBA20C92AFA2AF920CC2AF75C760
:1028B400AA75C7555396FDA20C92AF803BA2AF9266
:1028C4000CC2AF75C7AA75C755439604A20C92AF44
:1028D400A2AF920CC2AF75C7AA75C7555396FDA295
:1028E4000C92AF8013A2AF920CC2AF75C7AA75C782
:0D28F40055439608A20C92AFA20C92AF22A1
:082CD9003099FDC2998F992288
:1025ED00022CC8E493A3F8E493A34003F68001F210
:1025FD0008DFF48029E493A3F85407240CC8C333EF
:10260D00C4540F4420C8834004F456800146F6DFBD
:10261D00E4800B0102040810204080902AFBE47E28
:10262D00019360BCA3FF543F30E509541FFEE493B2
:10263D00A360010ECF54C025E060A840B8E493A379
:10264D00FAE493A3F8E493A3C8C582C8CAC583CAA4
:10265D00F0A3C8C582C8CAC583CADFE9DEE780BE5C
:012B1E0000B6
:100BDC00BB010689828A83E0225002E722BBFE0217
:090BEC00E32289828A83E493224A
:100BF500BB010CE58229F582E5833AF583E02250B5
:100C050006E92582F8E622BBFE06E92582F8E222FE
:0D0C1500E58229F582E5833AF583E4932218
:100C2200BB010689828A83F0225002F722BBFE01B1
:020C3200F322AB
:100C3400F8BB010DE58229F582E5833AF583E8F0F6
:100C4400225006E92582C8F622BBFE05E92582C8A2
:020C5400F2228A
:100C5600E88FF0A4CC8BF0A42CFCE98EF0A42CFC3D
:100C66008AF0EDA42CFCEA8EF0A4CDA8F08BF0A4BB
:100C76002DCC3825F0FDE98FF0A42CCD35F0FCEB1A
:100C86008EF0A4FEA9F0EB8FF0A4CFC5F02ECD39DF
:0F0C9600FEE43CFCEAA42DCE35F0FDE43CFC224C
:100CA50075F008758200EF2FFFEE33FECD33CDCC06
:100CB50033CCC58233C5829BED9AEC99E582984089
:100CC5000CF582EE9BFEED9AFDEC99FC0FD5F0D666
:100CD500E4CEFBE4CDFAE4CCF9A88222B800C1B990
:100CE5000059BA002DEC8BF084CFCECDFCE5F0CBCE
:100CF500F97818EF2FFFEE33FEED33FDEC33FCEB07
:100D050033FB10D703994004EB99FB0FD8E5E4F9C1
:100D1500FA227818EF2FFFEE33FEED33FDEC33FCAE
:100D2500C933C910D7059BE99A4007EC9BFCE99AA2
:100D3500F90FD8E0E4C9FAE4CCFB2275F010EF2FE7
:100D4500FFEE33FEED33FDCC33CCC833C810D707E7
:100D55009BEC9AE899400AED9BFDEC9AFCE899F822
:0E0D65000FD5F0DAE4CDFBE4CCFAE4C8F922B5
:100D7300EB9FF5F0EA9E42F0E99D42F0EC6480C8F7
:060D830064809845F02297
:100D8900E8600FECC313FCED13FDEE13FEEF13FF48
:030D9900D8F1226C
:10109400E5342428F8E60534227825300702782838
:1010A400E475F00112105E020BDC2000EB7F2ED2FF
:1010B400008018EF540F2490D43440D4FF30040B34
:1010C400EF24BFB41A0050032461FFE53560021514
:1010D400350538E5387002053730070D7825E47595
:1010E400F00112105EEF020C22022CD97403D20715
:1010F4008003E4C207F5348B258A268927E4F53575
:10110400F537F538E53560077F201210CF80F57587
:1011140036FFC201C200C202C203C205C206C2082F
:1011240012109DFF700D3007057F001210E0AF38DC
:10113400AE3722B4255FC2D5C20412109DFF24D05D
:10114400B40A00501A75F00A783530D50508B6FF90
:101154000106C6A426F620D5047002D20380D92441
:10116400CFB41A00EF5004C2E5D2040212E0D20157
:1011740080C6D20080C0D20280BCD2D580BAD2054B
:1011840080B47F201210CF2002077401B5350040CF
:10119400F1121094FF1210CF021108D208D2068067
:1011A40095121094FB121094FA121094F94A4B7091
:1011B4000679B17A137BFF20022EE535602A7E0082
:1011C4008E82758300120BF560060EEE653670F0A4
:1011D400C2D5EBC0E0EAC0E0E9C0E0EE121327D0CC
:1011E400E0F9D0E0FAD0E0FB120BDCFF60AAEBC020
:1011F400E0EAC0E0E9C0E01210CFD0E02401F9D069
:10120400E03400FAD0E0FBE5360460DCD536D98062
:10121400877BFF7A137923D202809C79108002792C
:1012240008C206C2088008D2D5790A8004790AC2A5
:10123400D5E536047002F536E4FAFDFEFF1210948B
:10124400FC7B08200113121094FD7B1030000A125D
:101254001094FE121094FF7B20EC3382D592D5506B
:1012640013C3E43000069FFFE49EFEE42001039DC7
:10127400FDE49CFCE4CBF8C201EC700CCFCECDCCE9
:10128400E824F8F870F38017C3EF33FFEE33FEED74
:1012940033FDEC33FCEB33FB994002FB0FD8E9EB55
:1012A400300105F8D0E0C448B201C0E00AEC4D4E6C
:1012B4004F78207B0070C2EAB5360040BCC0E01213
:1012C4001329D0F0D0E0200104C4C0E0C4B201C0AE
:1012D400F01210B8D0F0D5F0EB02110812106E1114
:1012E400A553121F5811764C11724212234F122B20
:0F12F40044122B49118B43123155121546121516
:101303004512154713D150117A2D117E2E11A12BA1
:10131300118223119F2013BA2A113A480000119910
:101323003F3F3F00790AA2D5200314300509B910C5
:10133300020404B9080104A2D520060250010420C6
:1013430002689202B535005034C0E07F20300319A3
:101353007F30A20272067205500F121380C202C2BE
:1013630006C205C2087F30800F300503E9C0E012D2
:1013730010CF300503D0E0F9D0E0B535CC300517F8
:101383007F30B9100C1210CF7F583004077F78805C
:1013930003B908031210CF3002057F2D0210CF7F4F
:1013A300202008F87F2B2006F322920280CF286E9C
:1013B300756C6C2900D2011210943001F8C20178C7
:1013C3003530D50108F602113A2D50434958121011
:1013D300942403B405004001E49013CC931210C08D
:0D13E300743A1210C0D20375350402121FB7
:100D9C00E3F5F009E208B5F06D606B80F3E3F5F074
:100DAC0009E608B5F060605E80F387F009E608B5E7
:100DBC00F054605280F487F009E208B5F0486046C0
:100DCC0080F488828C8387F009E0A3B5F038603614
:100DDC0080F488828C8387F009E493A3B5F02760B4
:100DEC002580F388828C83E3F5F009E0A3B5F01637
:100DFC00601480F388828C83E3F5F009E493A3B547
:100E0C00F004600280F2020EC7808580E7808E803D
:100E1C00D2803C8015806C807E809B80B5808B80DE
:100E2C00A1804F8070803A020ED389828A83ECFABB
:100E3C00E493F5F0A3C8C582C8CCC583CCE493A3D6
:100E4C00C8C582C8CCC583CCB5F070606E80E18912
:100E5C00828A83E493F5F0A3E208B5F05E605C80CF
:100E6C00F289828A83E0F5F0A3E608B5F04D604B79
:100E7C0080F389828A83E0F5F0A3E208B5F03C6048
:100E8C003A80F389828A83E493F5F0A3E608B5F0FF
:100E9C002A602880F2805389828A83ECFAE493F5E5
:100EAC00F0A3C8C582C8CCC583CCE0A3C8C582C892
:100EBC00CCC583CCB5F004600280E27FFFB5F002B4
:100ECC000F2240027F012289828A83ECFAE0F5F03E
:100EDC00A3C8C582C8CCC583CCE0A3C8C582C8CC86
:100EEC00C583CCB5F0D560D380E389828A83ECFAD4
:100EFC00E0F5F0A3C8C582C8CCC583CCE493A3C8E5
:100F0C00C582C8CCC583CCB5F0B160AF80E288F0A7
:100F1C00ED2402B4040050A3F582EB2402B40400C7
:0B0F2C0050992323458223900E15737B
:100F3700E709F60870FA8046E709F20870FA803E7A
:100F470088828C83E709F0A370FA807EE309F608AC
:100F570070FA8076E309F20870FA806E88828C83D3
:100F6700E309F0A370FA806289828A83E0A3F60816
:100F770070FA805689828A83E0A3F20870FA804A61
:100F870080D280FA80C680D4806580F2803180105C
:100F970080A680EA809A80A880DA80E280CA8031C1
:100FA70089828A83ECFAE493A3C8C582C8CCC58337
:100FB700CCF0A3C8C582C8CCC583CC70E9800D89A5
:100FC700828A83E493A3F60870F9ECFAA9F0EDFBA3
:100FD7002289828A83ECFAE0A3C8C582C8CCC5837C
:100FE700CCF0A3C8C582C8CCC583CC70EA80DD89A4
:100FF700828A83E493A3F20870F980CE88F0ED2407
:1010070002B4040050C4F582EB2402B4040050BAC1
:091017002323458223900F877307
:102BA700E94A4B700122120BDCFF6D700122EF70B6
:0C2BB70004FBFAF92209E970ED0A80EA3B
:102355008B258A268927AB25AA26A927120BDCFF00
:10236500122C4E500D74012527F527E43526F52648
:1023750080E4D200AB25AA26A927120BDCFF642B2B
:102385006004EFB42D1BAB250527E527AA267002AF
:10239500052614F9120BDC642D6003D38001C3926A
:1023A50000E4F528F529AB25AA26A927120BDCFFA1
:1023B500122CA25036AB25AA26A927120BDCFF3317
:1023C50095E0FEEF24D0FBEE34FFFAAE28AF297C72
:1023D500007D0A12104CEF2BF529EE3AF528740111
:1023E5002527F527E43526F52680BB300006AE28DF
:0E23F500AF298009C3E49529FFE49528FE2254
:10102000EF4E6012EF60010EEDBB010B89828A83E7
:10103000F0A3DFFCDEFA2289F05007F709DFFCA9F4
:0C104000F022BBFEFCF309DFFCA9F0224B
:10104C00EF8DF0A4A8F0CF8CF0A428CE8DF0A42EB8
:02105C00FE2272
:10105E00FAE6FB0808E6F925F0F618E6CA3AF62293
:10106E00D083D082F8E4937012740193700DA3A311
:10107E0093F8740193F5828883E473740293686025
:06108E00EFA3A3A380DF25
:0F2CA200EFC394304007EF943A50028001C322F1
:102C4E00EFC394094005EF940E4003BF2003D380D9
:032C5E0001C3228D
:00000001FF
