:0300000002252EA8
:0C252E00787FE4F6D8FD75815702257512
:10235700A2AF920CC2AF75C7AA75C755E4F591A293
:102367000C92AF43B10153B2FEA2AF920CC2AF754C
:10237700C7AA75C755F591A20C92AF43B30153B4E1
:10238700FEA2AF920CC2AF75C7AA75C755F591A249
:102397000C92AF53B3FD43B402A2AF920CC2AF7518
:1023A700C7AA75C755F591A20C92AF53B3FB43B4B7
:1023B70004A2AF920CC2AF75C7AA75C755F591A213
:1023C7000C92AF53B3F753B4F7A2AF920CC2AF75E9
:1023D700C7AA75C755F591A20C92AF53B3EF53B483
:1023E700EFA2AF920CC2AF75C7AA75C755F591A2F8
:0A23F7000C92AF53B1BF53B2BF22E6
:102BE4004389015389FD438E085389FB5389F72296
:100003008E268F27E5274526600DE52715277002E5
:080013001526122AC680ED2219
:102AC600E4F58CF58AD28CAF8CEFFEAD8A7C00E4FF
:102AD6002DFFEC3EFEC3EF9480EE943E40E9C28C9F
:012AE60022CD
:061AF1008E268F278D28D0
:101AF700E4F529E5277807CEC313CE13D8F978077D
:101B0700C333CE33CED8F9F52B8E2AE4F529C3E5B6
:101B17002994807480948050217E00E52B2529FF2D
:101B2700EE352AFE122C327E0074002529F582E458
:101B37003400F583EFF0052980D47E00E527547F34
:101B47002400F582EE3400F583E528F0E52BF5A6B1
:101B5700E52AF5A775AEFFA2AF920CC2AF75C7AA6B
:101B670075C755439F01A20C92AFA2AF920CC2AFAB
:101B770075C7AA75C75543A501A20C92AF75AF22C9
:101B8700A2AF920CC2AF75C7AA75C75543A401A2ED
:101B97000C92AFA2AF920CC2AF75C7AA75C75543D7
:101BA7009F01A20C92AFA2AF920CC2AF75C7AA75E4
:101BB700C75543A501A20C92AF75AF21E4F529C320
:101BC700E529948074809480502FE52B2529F5A66C
:101BD700E52AF5A774002529F582E43400F583E0AA
:101BE700F5AEA2AF920CC2AF75C7AA75C75543A48D
:101BF70001A20C92AF052980C6A2AF920CC2AF75A5
:101C0700C7AA75C75553A5FEA20C92AFA2AF920CF7
:0F1C1700C2AF75C7AA75C755539FFEA20C92AFF7
:011C2600229B
:042C32008F828E837C
:032C3600E493FF25
:012C39002278
:0A25BA008E088F098B0A8A0B890C2A
:1025C400E5097807CEC313CE13D8F9FDE509250E26
:1025D400FFE508350DFEEF7807CEC313CE13D8F907
:1025E400F50FED650F6043AB0AAA0BA90C751580B6
:1025F400AF09AE08121794AC07EC2509F509E435C8
:1026040008F508EC250CF50CE4350BF50BECC3E5EB
:102614000E9FF50EE50D9400F50DAE08E50978075B
:10262400CEC313CE13D8F9FD80B8E50E450D601066
:10263400AB0AAA0BA90C850E15AF09AE08121794A4
:012644002273
:0A291A008E188F198B1A8A1B891C76
:10292400E4FFFEC3EF951EEE951D5021E5192FFD22
:10293400E5183E8D82F583E493AB1AAA1BA91C8F7C
:0D294400828E83120B4B0FBF00010E80D658
:012951002263
:0A1794008E108F118B128A13891436
:10179E00A2AF920CC2AF75C7AA75C755439F01A2DF
:1017AE000C92AFA2AF920CC2AF75C7AA75C75543C4
:1017BE00A501A20C92AFE511547FF517C374809565
:1017CE0017F516E515D395164003851615AD11AC14
:1017DE0010E4F516E516C395155012ED2516F58293
:1017EE00E43CF583E493F47004051680E7E5166592
:1017FE0015707875AF218511A6E510F5A7E4F516DD
:10180E00E516C39515502AAB12AA13A91485168294
:10181E00758300120B0CF5AEA2AF920CC2AF75C75A
:10182E00AA75C75543A401A20C92AF05A605168052
:10183E00CFE4F516E516C395155022AB12AA13A9DF
:10184E0014851682758300120B0CFFED2516F5829A
:10185E00E43CF583E493B50704051680D7E51665D9
:10186E0015700302196E800302196EE5115480ACD7
:10187E0010FDE4F516C3E516948074809480501D17
:10188E00ED2516F582E43CF583E493FF748025166E
:10189E00F582E43400F583EFF0051680D8E4F516F2
:1018AE00E516C395155023AB12AA13A914851682FB
:1018BE00758300120B0CFFE51725162480F582E4C4
:1018CE003400F583EFF0051680D6E5115480F5A6A9
:1018DE00E510F5A775AF2275AEFFA2AF920CC2AFA1
:1018EE0075C7AA75C75543A401A20C92AF75AF2157
:1018FE00E4F516C3E51694807480948050277480A6
:10190E002516F582E43400F583E0F5AEA2AF920C15
:10191E00C2AF75C7AA75C75543A401A20C92AF05F5
:10192E00A6051680CEE4F516AF167E00C3EF9480A2
:10193E00748094805021ED2516F582E43CF583E405
:10194E0093FB74802516F582E43400F583E0FAEB00
:10195E00B50204051680D1EF64804E60030218D8DC
:10196E00A2AF920CC2AF75C7AA75C755539FFEA200
:05197E000C92AFAF1553
:011983002241
:1021FB00A2AF920CC2AF75C7AA75C755439F01A278
:10220B000C92AF75A604E4F5A775AE0F75AFE1A2FE
:10221B00AF920CC2AF75C7AA75C75543A504A20CE4
:10222B0092AFA2AF920CC2AF75C7AA75C75543A4A4
:10223B0001A20C92AFE59F5440644060F8A2AF92AC
:10224B000CC2AF75C7AA75C75553A5FBA20C92AFAD
:10225B00A2AF920CC2AF75C7AA75C755539FFEA20A
:10226B000C92AF75C7AA75C75575AA07A2AF920C8A
:10227B00C2AF75C7AA75C75543AA40A20C92AFAFA0
:10228B00AAEF44BF74FF60F7D2AFA2AF920CC2AFFC
:0E229B0075C7AA75C75543AA80A20C92AF2240
:0C2A0C00C109C10A024C0000024E00008B
:102B6D00E54D2480FFE4354CFEC3EF954FFFEE9508
:062B7D004EEF547FFF2221
:10006200E54D2401FFE4354CFEEFB54F08EEB54EE9
:08007200047F0180027F0022DF
:102B3F00E4F54CF54DF54EF54FFE7F80FD7B017AA8
:072B4F00017900120F37228B
:102A8000EFF5827583007E00FDC3E54D9DFDE54CAD
:102A90009400FC74002DF974013CFA7B017D001256
:032AA0000F3722CB
:102BC200E54DB54F09E54CB54E047F0180027F000B
:012BD20022E0
:102BD300AE4CAF4D74FF2FF58274003EF583E0FFDA
:012BE30022CF
:102A5B00AD07120062EF701C054DE54DAE4C7002D8
:102A6B00054C142400F58274013EF583EDF0534DB3
:052A7B007F754C0022F4
:102A3500122BC2EF60037F0022054FE54FAE4E70AB
:102A450002054E142400F58274013EF583E0FF5320
:052A55004F7F754E00EB
:012A5A002259
:030023000228A60A
:1028A600C0E0C083C082C0D075D000C005C006C0DD
:1028B60007C09130980CD20A85994AAF4A122A5B12
:1028C600C298309905200902C299D091D007D00646
:0B28D600D005D0D0D082D083D0E032FB
:03007B00022B56FF
:102B5600C09130F807859A4BD20BC2F830F90520A0
:072B66000902C2F9D091320F
:101984008F258E248D238C22E52614605214700337
:10199400021A7624026003021AF0759850438920D3
:1019A400438780438E10A2AF920CC2AF75C7AA754D
:1019B400C755E4F591A20C92AF53C4DF7B10FAF93A
:1019C400F8AF25AE24AD23AC22120BF8AB2AAA291A
:1019D400A928A827120BF8EFF404F58DD28E2275EE
:1019E400985043878053C4F8A2AF920CC2AF75C716
:1019F400AA75C755E4F591A20C92AF43C4207B109D
:101A0400FAF9F8AF25AE24AD23AC22120BF8AB2AB9
:101A1400AA29A928A827120BF8C3E49FFFE49EFE75
:101A240074019DFDE49CFC7808120CA08FC6E47B35
:101A340010FAF9F8AF25AE24AD23AC22120BF8ABA3
:101A44002AAA29A928A827120BF8C3E49FFFE49E19
:101A5400FE74019DFDE49CFCEFE48FC5A2AF920CE3
:101A6400C2AF75C7AA75C755F591A20C92AF43C40E
:101A7400082275F85075C480E47B10FAF9F8AF2594
:101A8400AE24AD23AC22120BF8AB2AAA29A928A8AC
:101A940027120BF8C3E49FFFE49EFE74019DFDE44E
:101AA4009CFC7808120CA08FC6E47B10FAF9F8AFFE
:101AB40025AE24AD23AC22120BF8AB2AAA29A928FF
:101AC400A827120BF8C3E49FFFE49EFE74019DFD5A
:101AD400E49CFCEFE48FC5A2AF920CC2AF75C7AA19
:0D1AE40075C755F591A20C92AF43C40822BE
:0D2C1200EF1460060470058D99228D9A2242
:10295200A2AF920CC2AF75C7AA75C755E4F591A292
:102962000C92AF53B1BF53B2BFF526F52A7529C2F7
:10297200752801F527FF7E367D6E7C01121984D2FF
:0429820099D20922BB
:102B830075BE2753B3F753B4F753B3EF53B4EFD230
:062B930093D294D2C62289
:081C27008F2B8B2C8A2D892ED6
:101C2F00AFBDEF64F860037F0022C2C4D2C5C2C348
:101C3F00753100753201E4F53320C315E5324531B6
:101C4F007005753301800A0532E532700205318067
:101C5F00E8E53360061229B67F0022AFBDEF6408B6
:101C6F0060061229B67F0022C2C5C2C475BCD0C29D
:101C7F00C3753100753201E4F53320C315E53245E4
:101C8F00317005753301800A0532E5327002053176
:101C9F0080E8E53360061229B67F0022AFBDEF64FE
:101CAF001860061229B67F0022C2C5C2C4852BBC9C
:101CBF00C2C3753100753201E4F53320C315E53227
:101CCF0045317005753301800A0532E53270020522
:101CDF003180E8E53360061229B67F0022AFBDEFF1
:101CEF00642860061229B67F0022E4F530E530C380
:101CFF00952F504FAB2CAA2DA92E853082758300BE
:101D0F00120B0CF5BCC2C3753100753201E4F5330B
:101D1F0020C315E53245317005753301800A053250
:101D2F00E5327002053180E8E53360061229B67F8F
:101D3F000022AFBDEF642860061229B67F0022058E
:061D4F003080AA1229B643
:011D5500226B
:081594008F298B2A8A2B892C78
:10159C00AFBDEF64F860037F0022C2C4D2C5C2C3E2
:1015AC00752F00753001E4F53120C315E530452F5A
:1015BC007005753101800A0530E5307002052F8009
:1015CC00E8E53160061229B67F0022AFBDEF640852
:1015DC0060061229B67F0022C2C5C2C475BCD0C237
:1015EC00C3752F00753001E4F53120C315E5304586
:1015FC002F7005753101800A0530E5307002052F1A
:10160C0080E8E53160061229B67F0022AFBDEF6499
:10161C001860061229B67F0022C2C5C2C48529BC37
:10162C00C2C3752F00753001E4F53120C315E530C8
:10163C00452F7005753101800A0530E530700205C3
:10164C002F80E8E53160061229B67F0022AFBDEF8E
:10165C00642860061229B67F0022C2C4D2C5C2C358
:10166C00752F00753001E4F53120C315E530452F99
:10167C007005753101800A0530E5307002052F8048
:10168C00E8E53160061229B67F0022AFBDEF641089
:10169C0060061229B67F0022C2C5C2C475BCD1C275
:1016AC00C3752F00753001E4F53120C315E53045C5
:1016BC002F7005753101800A0530E5307002052F59
:1016CC0080E8E53160061229B67F0022AFBDEF64D9
:1016DC004060061229B67F0022E4F52EE52D14FF9A
:1016EC00E52EC39F5051D2C2C2C3752F0075300175
:1016FC00E4F53120C315E530452F700575310180B7
:10170C000A0530E5307002052F80E8E531600612DD
:10171C0029B67F0022AFBDEF645060061229B67F58
:10172C000022AB2AAA2BA92C852E82758300E5BC3E
:10173C00120B4B052E80A5C2C2C2C3752F0075308B
:10174C0001E4F53120C315E530452F7005753101E5
:10175C00800A0530E5307002052F80E8E53160061F
:10176C001229B67F0022AFBDEF645860061229B66D
:10177C007F0022AB2AAA2BA92C852E82758300E52B
:07178C00BC120B4B1229B641
:011793002233
:10212B00AFBDEF64F860037F0022C2C4D2C5C2C347
:10213B00755000755101E4F55220C315E55145501A
:10214B007005755201800A0551E5517002055080EA
:10215B00E8E55260061229B67F0022AFBDEF640896
:10216B0060061229B67F0022C2C5C2C475BCD1C29B
:10217B00C3755000755101E4F55220C315E5514567
:10218B00507005755201800A0551E55170020550DA
:10219B0080E8E55260061229B67F0022AFBDEF64DE
:1021AB004060061229B67F0022C2C2C2C37550001E
:1021BB00755101E4F55220C315E551455070057575
:1021CB005201800A0551E5517002055080E8E55235
:1021DB0060061229B67F0022AFBDEF64586006126D
:0F21EB0029B67F0022AFBC7550008F511229B664
:0121FA0022C2
:1029B600C2C5D2C4C2C37F017E00E4FDACBDEC64D7
:1029C600F8600FEF4E70047D0180070FBF00010E07
:0B29D60080EAED70047F0180027F00AA
:0129E10022D3
:102AE700AE07EFC3940A748094804012EF75F00A22
:102AF70084FEEF75F00A84EEC454F045F0FEAF068D
:012B070022AB
:0E2BF400EFC4540F75F00AA4FEEF540F2EFF2D
:012C020022AF
:062645008B258A2689277F
:10264B00120AF3FF122AE78F2A532A7F7B007A00A4
:10265B00792A752F01E4FF121C27AB25AA26A9277F
:10266B00900001120B0CFF122AE78F297B007A00D6
:10267B007929752F017F01121C27AB25AA26A927C3
:10268B00900002120B0CFF122AE78F28AB25AA260B
:10269B00A927900003120B0CFF7E006402700553F8
:1026AB0028BF80114328BFEF64014E7005432820DB
:1026BB0080035328DF7B007A007928752F017F0276
:0326CB00121C27B7
:0126CE0022E9
:062753008B438A44894516
:10275900120AF3FF122AE78F467B007A0079467541
:102769002F017F03121C27AB43AA44A945900001FE
:10277900120B0CFF122AE78F477B007A0079477505
:102789002F017F04121C27AB43AA44A945900002DC
:10279900120B0CFF122AE78F487B007A00794875E3
:1027A9002F017F05121C27AB43AA44A945900003BA
:1027B900120B0CFF122AE78F497B007A00794975C1
:0727C9002F017F06121C27FF
:0127D00022E6
:062401008B228A238924CE
:102407007B007A007927752D01E4FF121594532775
:102417007FAF27122BF4AB22AA23A924EF120B3983
:102427007B007A007926752D017F01121594AF265E
:10243700122BF4AB22AA23A924900001EF120B4B15
:102447007B007A007925752D017F02121594E52509
:1024570030E62254207003D38001C340047F0180FB
:10246700027F00AB22AA23A924900003EF120B4B93
:1024770053259F800EAB22AA23A924900003740240
:10248700120B4BAF25122BF4AB22AA23A9249000E1
:0524970002EF120B4BE7
:01249C00221D
:0626CF008B228A238924FE
:1026D5007B007A007925752D017F03121594AF25AE
:1026E500122BF4AB22AA23A924EF120B397B007A13
:1026F500007926752D017F04121594AF26122BF44F
:10270500AB22AA23A924900001EF120B4B7B007A80
:10271500007927752D017F05121594AF27122BF42B
:10272500AB22AA23A924900002EF120B4B7B007A5F
:10273500007928752D017F06121594AF28122BF408
:0D274500AB22AA23A924900003EF120B4B36
:012752002264
:102B990053890F438910438E10758DC4758B17D2D5
:062BA900ABD2AFD28E2278
:092C2900122B24122C1F80FB2247
:102045002443004F4B0D0A002453004E4F54204F9C
:102055004B203D3E20445552494E472054494D455D
:10206500520D0A0024450024410044495341424C85
:10207500450D0A00454E41424C450D0A0053455455
:102085002054494D4552204552524F520D0A0031B8
:102095000D0A004A756D7020696E746F2061637456
:1020A500697665206D6F646520310D0A00320D0A71
:1020B500004A756D7020696E746F2061637469766E
:1020C50065206D6F646520320D0A0031320D0A00FE
:1020D5004A756D70206F757420616374697665202B
:1020E5006D6F64652031203C200D0A004A756D70C6
:1020F500206F757420616374697665206D6F646502
:102105002031203E200D0A0032310D0A004A756D3E
:1021150070206F757420616374697665206D6F64D6
:062125006520320D0A00E6
:102A18000256000041019E004101830141018202EA
:0C2A28004101990041018402410181003C
:102B24007F07121E62122357122AA3122BE4122BC0
:0B2B34008312298612249D122B992287
:0A2C1F00121F5D12130712007E223F
:102AA300752601E4752A80752925F528F527FF7E0B
:102AB300247DF4FC121984D299D209D2ACD2AF127C
:032AC3002B3F2284
:101F5D00E4F522F523900182E0640260030220443F
:101F6D00A3E06401705C309050D2927F0AFE1200A3
:101F7D000330904EE523B4D02FE522B4072AC29149
:101F8D00D2929001837402F07F087E30122C32754C
:101F9D0024008F25E52564024524600C900183E023
:101FAD00FD7F087E30121AF17F017E0012000305BD
:101FBD0023E5237002052280B8308003D38001C34E
:101FCD009292900183E06402706D309068D2917F9F
:101FDD000AFE120003E4F522F52330905AE523643E
:101FED00D07004E5226407703BC292D2917F64FEEB
:101FFD00120003C2917F647E00120003D291900102
:10200D00837401F07F087E30122C327524008F25E9
:10201D00E52564014524600C900183E0FD7F087E79
:10202D0030121AF17F017E001200030523E52370A3
:07203D0002052280A5C291FB
:012044002279
:102986007F087E30122C32EFF46005900183EFF061
:10299600900183E0FF7E0064017005D291C292220D
:0F29A600EF64024E7005C291D29222D291C2927A
:0129B50022FF
:10249D007F207E30122C329001A0EFF07F217E3014
:1024AD00122C32900198EFF07F227E30122C329058
:1024BD000186EFF07430FFFE122C32900185EFF0A3
:1024CD007F317E30122C32900180EFF07F327E30E2
:1024DD00122C3290019FEFF07F427E30122C32EFA2
:1024ED00F46005900184EFF07F407E30122C32EFC6
:1024FD00F46005900182EFF07F417E30122C32EFB7
:10250D00F46005900199EFF0900182E0FF7E006488
:10251D00017005D291C29222EF4E7004C291C29207
:01252D00228B
:10130700122BD3EF64236003021593122B6DEF604A
:101317001A122A35BF24F4900181E0FF04F0748B80
:101327002FF582E43401F5837424F0122B6DEF60FE
:1013370018122A35900181E0FE04F0748B2EF58295
:10134700E43401F583EFF080E2900181E0248BF52E
:1013570082E43401F583E4F07F0D122A80752801B9
:10136700752901752AA4752B01752C01752DA77593
:101377002E01752F017530AA75310175320175334C
:101387008B7B017A0179A1121D5678A17C017D0121
:101397007BFF7A207945120E31EF703F7B017A018E
:1013A70079A41222A990019CEFF07B017A0179A719
:1013B7001222A990019BEFF07B017A0179AA1222F0
:1013C700A990019AEFF07B017A01799A1226457B61
:1013D700FF7A20794812100D02158178A17C017DD2
:1013E700017BFF7A20794D120E31EF706C900199D5
:1013F700E0705A7B017A0179A41222A99001A0EF2B
:10140700F07B017A0179A71222A9900198EFF07B6E
:10141700017A0179AA1222A9900186EFF09001A022
:10142700E0FD7F207E30121AF1900198E0FD7F21C8
:101437007E30121AF1900186E0FD7F227E30121A6B
:10144700F17BFF7A20794812100D0215817BFF7A14
:1014570020795012100D02158178A17C017D017B46
:10146700FF7A207969120E31EF706C900199E07064
:101477005A7B017A0179A41222A9900185EFF07BAA
:10148700017A0179A71222A9900180EFF07B017AF6
:101497000179AA1222A990019FEFF0900185E0FD42
:1014A7007430FFFE121AF1900180E0FD7F317E302B
:1014B700121AF190019FE0FD7F327E30121AF17B04
:1014C700FF7A20794812100D0215817BFF7A207967
:1014D7005012100D02158178A17C017D017BFF7AE6
:0C14E70020796C120E31EF6003021581B9
:1014F3007B017A0179A41222A98F227B017A0179D7
:10150300A71222A98F237B017A0179AA1222A98F1C
:1015130024E5227030E523702CEF7029900199F0B7
:101523009001827402F0FD7F407E30121AF1900127
:1015330099E0FD7F417E30121AF17BFF7A20796FAB
:1015430012100D8039E522640B7033E523640B70B0
:101553002DE524640B702790019904F0E490018237
:10156300F0FD7F407E30121AF1900199E0FD7F413A
:0E1573007E30121AF17BFF7A20797912100D6A
:10158100E4900181F0FE7F0DFD7B017A01798B12E0
:021591000F3712
:011593002235
:061D56008B258A26892777
:101D5C00E94A4B7003021E61E52A452945287003A8
:101D6C00021E61E52D452C452B7003021E61E530EA
:101D7C00452F452E7003021E61E533453245317007
:101D8C0003021E61AB31AA32A9338B348A358936F2
:101D9C008B378A3889397D2C122B088B348A3589FC
:101DAC0036E94A4B6013E4120B39A827AC26AD2553
:101DBC00AB37AA38A939120F1AAB34E5362401F91E
:101DCC00E43535FA8B3AF53B893C7D2C122B088B8C
:101DDC00348A358936E94A4B6013E4120B39A82A48
:101DEC00AC29AD28AB3AAA3BA93C120F1AAB34E58F
:101DFC00362401F9E43535FA8B3DF53E893F7D2CCF
:101E0C00122B088B348A358936E94A4B6013E4125D
:101E1C000B39A82DAC2CAD2BAB3DAA3EA93F120F14
:101E2C001AAB34E5362401F9E43535FA8B40F5412B
:101E3C0089427D23122B088B348A358936E94A4B2B
:101E4C006013E4120B39A830AC2FAD2EAB40AA4175
:051E5C00A942120F1A5B
:011E6100225E
:10007E0090019EE064016003020AF2900199E0642F
:10008E00016003020AED7B017A01799A1224017B49
:10009E00017A0179871226CF900182E06003020572
:1000AE00B6900180E0FFE4FCFDFE7B3CFAF9F8120D
:1000BE000B6DC004C005C006C007900185E0FFE4CB
:1000CE00FCFDFE7B107A0EF9F8120B6DD003D002F8
:1000DE00D001D000EF2BFBEE3AFAED39F9EC38F8FF
:1000EE0090019FE0FFE4FCFDFEEB2FFFEE3AFEEDEC
:1000FE0039FDEC38FCC004C005C006C0079001985D
:10010E00E0FFE4FCFDFE7B3CFAF9F8120B6DC00437
:10011E00C005C006C0079001A0E0FFE4FCFDFE7B19
:10012E00107A0EF9F8120B6DD003D002D001D00068
:10013E00EF2BFBEE3AFAED39F9EC38F8900186E048
:10014E00FFE4FCFDFEEB2FFBEE3AFAED39F9EC384D
:10015E00F8D007D006D005D004C3120C8A701790C1
:10016E0001827402F0FD7F407E30121AF17BFF7A1D
:10017E0020798212100D900180E0FFE4FCFDFE7BE1
:10018E003CFAF9F8120B6DC004C005C006C007900A
:10019E000185E0FFE4FCFDFE7B107A0EF9F8120BF0
:1001AE006DD003D002D001D000EF2BFBEE3AFAED6A
:1001BE0039F9EC38F890019FE0FFE4FCFDFEEB2FDF
:1001CE00FFEE3AFEED39FDEC38FCC004C005C0066A
:1001DE00C007900198E0FFE4FCFDFE7B3CFAF9F8C5
:1001EE00120B6DC004C005C006C0079001A0E0FF51
:1001FE00E4FCFDFE7B107A0EF9F8120B6DD003D0E5
:10020E0002D001D000EF2BFBEE3AFAED39F9EC38C3
:10021E00F8900186E0FFE4FCFDFEEB2FFBEE3AFAD0
:10022E00ED39F9EC38F8D007D006D005D004C3125A
:10023E000C8A40030203FE7BFF7A20799412100D84
:10024E00900198E0FFE4FCFDFE7B3CFAF9F8120BFE
:10025E006DC004C005C006C0079001A0E0FFE4FC1D
:10026E00FDFE7B107A0EF9F8120B6DD003D002D082
:10027E0001D000EF2BFBEE3AFAED39F9EC38F8909D
:10028E000186E0FFE4FCFDFEEB2FFFEE3AFEED39BA
:10029E00FDEC38FCC004C005C006C00790019BE011
:1002AE00FFE4FCFDFE7B3CFAF9F8120B6DC004C0B6
:1002BE0005C006C00790019CE0FFE4FCFDFE7B102C
:1002CE007A0EF9F8120B6DD003D002D001D000EFE8
:1002DE002BFBEE3AFAED39F9EC38F890019AE0FF83
:1002EE00E4FCFDFEEB2FFBEE3AFAED39F9EC38F8B3
:1002FE00D007D006D005D004D3120C8A50030203C7
:10030E00FE900180E0FFE4FCFDFE7B3CFAF9F81262
:10031E000B6DC004C005C006C007900185E0FFE468
:10032E00FCFDFE7B107A0EF9F8120B6DD003D00295
:10033E00D001D000EF2BFBEE3AFAED39F9EC38F89C
:10034E0090019FE0FFE4FCFDFEEB2FFFEE3AFEED89
:10035E0039FDEC38FCC004C005C006C00790019BF7
:10036E00E0FFE4FCFDFE7B3CFAF9F8120B6DC004D5
:10037E00C005C006C00790019CE0FFE4FCFDFE7BBB
:10038E00107A0EF9F8120B6DD003D002D001D00006
:10039E00EF2BFBEE3AFAED39F9EC38F890019AE0D2
:1003AE00FFE4FCFDFEEB2FFBEE3AFAED39F9EC38EB
:1003BE00F8D007D006D005D004C3120C8A5031D223
:1003CE0091C2929001827402F09001847404F07DC7
:1003DE00027F407E30121AF1900184E0FD7F427E52
:1003EE0030121AF11229867BFF7A20799812100D9D
:1003FE00900180E0FFE4FCFDFE7B3CFAF9F8120B65
:10040E006DC004C005C006C007900185E0FFE4FC86
:10041E00FDFE7B107A0EF9F8120B6DD003D002D0D0
:10042E0001D000EF2BFBEE3AFAED39F9EC38F890EB
:10043E00019FE0FFE4FCFDFEEB2FFFEE3AFEED39EF
:10044E00FDEC38FCC004C005C006C007900198E062
:10045E00FFE4FCFDFE7B3CFAF9F8120B6DC004C004
:10046E0005C006C0079001A0E0FFE4FCFDFE7B1076
:10047E007A0EF9F8120B6DD003D002D001D000EF36
:10048E002BFBEE3AFAED39F9EC38F8900186E0FFE5
:10049E00E4FCFDFEEB2FFBEE3AFAED39F9EC38F801
:1004AE00D007D006D005D004D3120C8A5003020513
:1004BE00B67BFF7A2079B212100D900198E0FFE41E
:1004CE00FCFDFE7B3CFAF9F8120B6DC004C005C0B2
:1004DE0006C0079001A0E0FFE4FCFDFE7B107A0E43
:1004EE00F9F8120B6DD003D002D001D000EF2BFB28
:1004FE00EE3AFAED39F9EC38F8900186E0FFE4FCBB
:10050E00FDFEEB2FFFEE3AFEED39FDEC38FCC0049C
:10051E00C005C006C00790019BE0FFE4FCFDFE7B1A
:10052E003CFAF9F8120B6DC004C005C006C0079066
:10053E00019CE0FFE4FCFDFE7B107A0EF9F8120B35
:10054E006DD003D002D001D000EF2BFBEE3AFAEDC6
:10055E0039F9EC38F890019AE0FFE4FCFDFEEB2F40
:10056E00FBEE3AFAED39F9EC38F8D007D006D005A3
:10057E00D004D3120C8A4030D291C2929001827470
:10058E0002F090018404F07D027F407E30121AF159
:10059E00900184E0FD7F427E30121AF11229867B93
:1005AE00FF7A2079B612100D900182E0640260038A
:1005BE00020AED900180E0FFE4FCFDFE7B3CFAF9BF
:1005CE00F8120B6DC004C005C006C007900185E08F
:1005DE00FFE4FCFDFE7B107A0EF9F8120B6DD003D2
:1005EE00D002D001D000EF2BFBEE3AFAED39F9EC48
:1005FE0038F890019FE0FFE4FCFDFEEB2FFFEE3A92
:10060E00FEED39FDEC38FCC004C005C006C00790F5
:10061E000198E0FFE4FCFDFE7B3CFAF9F8120B6D4D
:10062E00C004C005C006C0079001A0E0FFE4FCFDB9
:10063E00FE7B107A0EF9F8120B6DD003D002D001AA
:10064E00D000EF2BFBEE3AFAED39F9EC38F89001C9
:10065E0086E0FFE4FCFDFEEB2FFBEE3AFAED39F9F6
:10066E00EC38F8D007D006D005D004C3120C8A405F
:10067E000302086C900184E06404600302086C7B42
:10068E00FF7A2079D012100D900198E0FFE4FCFD66
:10069E00FE7B3CFAF9F8120B6DC004C005C006C013
:1006AE00079001A0E0FFE4FCFDFE7B107A0EF9F846
:1006BE00120B6DD003D002D001D000EF2BFBEE3A1F
:1006CE00FAED39F9EC38F8900186E0FFE4FCFDFE16
:1006DE00EB2FFFEE3AFEED39FDEC38FCC004C00501
:1006EE00C006C00790019BE0FFE4FCFDFE7B3CFAD8
:1006FE00F9F8120B6DC004C005C006C00790019C2E
:10070E00E0FFE4FCFDFE7B107A0EF9F8120B6DD0C3
:10071E0003D002D001D000EF2BFBEE3AFAED39F9FF
:10072E00EC38F890019AE0FFE4FCFDFEEB2FFBEEB7
:10073E003AFAED39F9EC38F8D007D006D005D004E6
:10074E00C3120C8A502DC291C292E4900182F09095
:10075E0001847402F0E4FD7F407E30121AF19001A4
:10076E0084E0FD7F427E30121AF17BFF7A2079D52C
:10077E0012100D900180E0FFE4FCFDFE7B3CFAF9C7
:10078E00F8120B6DC004C005C006C007900185E0CD
:10079E00FFE4FCFDFE7B107A0EF9F8120B6DD00310
:1007AE00D002D001D000EF2BFBEE3AFAED39F9EC86
:1007BE0038F890019FE0FFE4FCFDFEEB2FFFEE3AD0
:1007CE00FEED39FDEC38FCC004C005C006C0079034
:1007DE00019BE0FFE4FCFDFE7B3CFAF9F8120B6D89
:1007EE00C004C005C006C00790019CE0FFE4FCFDFC
:1007FE00FE7B107A0EF9F8120B6DD003D002D001E9
:10080E00D000EF2BFBEE3AFAED39F9EC38F8900107
:10081E009AE0FFE4FCFDFEEB2FFBEE3AFAED39F920
:10082E00EC38F8D007D006D005D004D3120C8A408D
:10083E002DC291C292E4900182F09001847402F074
:10084E00E4FD7F407E30121AF1900184E0FD7F427C
:10085E007E30121AF17BFF7A2079F112100D900181
:10086E0080E0FFE4FCFDFE7B3CFAF9F8120B6DC054
:10087E0004C005C006C007900185E0FFE4FCFDFE44
:10088E007B107A0EF9F8120B6DD003D002D001D086
:10089E0000EF2BFBEE3AFAED39F9EC38F890019FA8
:1008AE00E0FFE4FCFDFEEB2FFFEE3AFEED39FDEC32
:1008BE0038FCC004C005C006C007900198E0FFE4F4
:1008CE00FCFDFE7B3CFAF9F8120B6DC004C005C0AE
:1008DE0006C0079001A0E0FFE4FCFDFE7B107A0E3F
:1008EE00F9F8120B6DD003D002D001D000EF2BFB24
:1008FE00EE3AFAED39F9EC38F8900186E0FFE4FCB7
:10090E00FDFEEB2FFBEE3AFAED39F9EC38F8D00795
:10091E00D006D005D004D3120C8A5003020AED90F3
:10092E000184E064036003020AED7BFF7A21790DF6
:10093E0012100D900198E0FFE4FCFDFE7B3CFAF9ED
:10094E00F8120B6DC004C005C006C0079001A0E0F0
:10095E00FFE4FCFDFE7B107A0EF9F8120B6DD0034E
:10096E00D002D001D000EF2BFBEE3AFAED39F9ECC4
:10097E0038F8900186E0FFE4FCFDFEEB2FFFEE3A27
:10098E00FEED39FDEC38FCC004C005C006C0079072
:10099E00019BE0FFE4FCFDFE7B3CFAF9F8120B6DC7
:1009AE00C004C005C006C00790019CE0FFE4FCFD3A
:1009BE00FE7B107A0EF9F8120B6DD003D002D00127
:1009CE00D000EF2BFBEE3AFAED39F9EC38F8900146
:1009DE009AE0FFE4FCFDFEEB2FFBEE3AFAED39F95F
:1009EE00EC38F8D007D006D005D004C3120C8A40DC
:1009FE0003020AED900180E0FFE4FCFDFE7B3CFA71
:100A0E00F9F8120B6DC004C005C006C00790018531
:100A1E00E0FFE4FCFDFE7B107A0EF9F8120B6DD0B0
:100A2E0003D002D001D000EF2BFBEE3AFAED39F9EC
:100A3E00EC38F890019FE0FFE4FCFDFEEB2FFFEE9B
:100A4E003AFEED39FDEC38FCC004C005C006C00707
:100A5E0090019BE0FFE4FCFDFE7B3CFAF9F8120BE3
:100A6E006DC004C005C006C00790019CE0FFE4FC09
:100A7E00FDFE7B107A0EF9F8120B6DD003D002D06A
:100A8E0001D000EF2BFBEE3AFAED39F9EC38F89085
:100A9E00019AE0FFE4FCFDFEEB2FFBEE3AFAED3996
:100AAE00F9EC38F8D007D006D005D004D3120C8A52
:100ABE00402DC291C292E4900182F09001847402A2
:100ACE00F0E4FD7F407E30121AF1900184E0FD7F4C
:100ADE00427E30121AF17BFF7A21791212100DE448
:050AEE0090019EF022C2
:03001B00020026BA
:10002600C0E0C083C082C0D0C0910557E5577002BA
:100036000556C3E55794E8E5569403400C90019E97
:100046007401F0755600755700758DC4758B17C20F
:0C0056008DD091D0D0D082D083D0E03289
:021E6200A907CE
:101E6400E4F591E924F9600C14600E2402700D75F8
:101E7400A638800875A630800375A630A2AF920CF0
:101E8400C2AF75C7AA75C755439F01A20C92AFE4B0
:101E9400F5A775AF04A2AF920CC2AF75C7AA75C7F8
:101EA4005543A401A20C92AFADAE05A6A2AF920C0D
:101EB400C2AF75C7AA75C75543A401A20C92AFACB3
:101EC400AEE924F8706FED25E0FFE433FEEC540135
:101ED4007A002FFFEA3EFE74F22FFF74FF3EFE7578
:101EE400AF0C75A601E4F5A7A2AF920CC2AF75C7FB
:101EF400AA75C75543A401A20C92AFABAEEB644BD9
:101F0400600EABAEEB64526007ABAEEB6453701B78
:101F1400ED543FC3940774809480500A74F62FFFE5
:101F240074FF3EFE8005EF1F70011EEF5401FCEEAE
:101F3400C313EF13FD75C7AA75C7558D8475C7AA5A
:101F440075C7558C85A2AF920CC2AF75C7AA75C769
:081F540055539FFEA20C92AF51
:011F5C002262
:10284E00EF24FD60121460282402704B7F021228C0
:10285E00E17F021227D1227F031227D1A2AF920C61
:10286E00C2AF75C7AA75C7555397DFA20C92AF2298
:10287E007F021228E17F021227D17F041228E17F06
:10288E00041227D1A2AF920CC2AF75C7AA75C75555
:08289E005397DFA20C92AF2258
:1028E100EF24FC60222402702FA2AF920CC2AF75BC
:1028F100C7AA75C755439720A20C92AFE59644DF4E
:1029010064DF701480F62275C7AA75C7554397C056
:09291100E59644F764F760F82232
:1029E200E4F591EF24FC60182402701DA2AF920C52
:1029F200C2AF75C7AA75C7555397DFA20C92AF2213
:0A2A020075C7AA75C75553973F2208
:1027D100E4F591A2AF920CC2AFEF24FD602F14601B
:1027E1005424027063A2AF920CC2AF75C7AA75C719
:1027F100555396FBA20C92AFA2AF920CC2AF75C714
:10280100AA75C7555396FDA20C92AF803BA2AF9219
:102811000CC2AF75C7AA75C755439604A20C92AFF7
:10282100A2AF920CC2AF75C7AA75C7555396FDA248
:102831000C92AF8013A2AF920CC2AF75C7AA75C735
:0D28410055439608A20C92AFA20C92AF2254
:082C3A003099FDC2998F992227
:10253A00022C29E493A3F8E493A34003F68001F262
:10254A0008DFF48029E493A3F85407240CC8C333A2
:10255A00C4540F4420C8834004F456800146F6DF71
:10256A00E4800B0102040810204080902A0CE47ECB
:10257A00019360BCA3FF543F30E509541FFEE49366
:10258A00A360010ECF54C025E060A840B8E493A32D
:10259A00FAE493A3F8E493A3C8C582C8CAC583CA58
:1025AA00F0A3C8C582C8CAC583CADFE9DEE780BE10
:012A340000A1
:100AF300BB010689828A83E0225002E722BBFE0201
:090B0300E32289828A83E4932233
:100B0C00BB010CE58229F582E5833AF583E022509E
:100B1C0006E92582F8E622BBFE06E92582F8E222E8
:0D0B2C00E58229F582E5833AF583E4932202
:100B3900BB010689828A83F0225002F722BBFE019B
:020B4900F32295
:100B4B00F8BB010DE58229F582E5833AF583E8F0E0
:100B5B00225006E92582C8F622BBFE05E92582C88C
:020B6B00F22274
:100B6D00E88FF0A4CC8BF0A42CFCE98EF0A42CFC27
:100B7D008AF0EDA42CFCEA8EF0A4CDA8F08BF0A4A5
:100B8D002DCC3825F0FDE98FF0A42CCD35F0FCEB04
:100B9D008EF0A4FEA9F0EB8FF0A4CFC5F02ECD39C9
:0F0BAD00FEE43CFCEAA42DCE35F0FDE43CFC2236
:100BBC0075F008758200EF2FFFEE33FECD33CDCCF0
:100BCC0033CCC58233C5829BED9AEC99E582984073
:100BDC000CF582EE9BFEED9AFDEC99FC0FD5F0D650
:100BEC00E4CEFBE4CDFAE4CCF9A88222B800C1B97A
:100BFC000059BA002DEC8BF084CFCECDFCE5F0CBB8
:100C0C00F97818EF2FFFEE33FEED33FDEC33FCEBF0
:100C1C0033FB10D703994004EB99FB0FD8E5E4F9AB
:100C2C00FA227818EF2FFFEE33FEED33FDEC33FC98
:100C3C00C933C910D7059BE99A4007EC9BFCE99A8C
:100C4C00F90FD8E0E4C9FAE4CCFB2275F010EF2FD1
:100C5C00FFEE33FEED33FDCC33CCC833C810D707D1
:100C6C009BEC9AE899400AED9BFDEC9AFCE899F80C
:0E0C7C000FD5F0DAE4CDFBE4CCFAE4C8F9229F
:100C8A00EB9FF5F0EA9E42F0E99D42F0EC6480C8E1
:060C9A0064809845F02281
:100CA000E8600FECC313FCED13FDEE13FEEF13FF32
:030CB000D8F12256
:100FAB00E5342428F8E60534227825300702782822
:100FBB00E475F001120F75020AF32000EB7F2ED2BD
:100FCB00008018EF540F2490D43440D4FF30040B1E
:100FDB00EF24BFB41A0050032461FFE535600215FE
:100FEB00350538E5387002053730070D7825E4757F
:100FFB00F001120F75EF020B39022C3A7403D20772
:10100B008003E4C207F5348B258A268927E4F5355E
:10101B00F537F538E53560077F20120FE680F5755B
:10102B0036FFC201C200C202C203C205C206C20819
:10103B00120FB4FF700D3007057F00120FF7AF389A
:10104B00AE3722B4255FC2D5C204120FB4FF24D031
:10105B00B40A00501A75F00A783530D50508B6FF7A
:10106B000106C6A426F620D5047002D20380D9242B
:10107B00CFB41A00EF5004C2E5D2040211F7D2012B
:10108B0080C6D20080C0D20280BCD2D580BAD20535
:10109B0080B47F20120FE62002077401B5350040A3
:1010AB00F1120FABFF120FE602101FD208D206800F
:1010BB0095120FABFB120FABFA120FABF94A4B7039
:1010CB000679C87A127BFF20022EE535602A7E0056
:1010DB008E82758300120B0C60060EEE653670F077
:1010EB00C2D5EBC0E0EAC0E0E9C0E0EE12123ED0A0
:1010FB00E0F9D0E0FAD0E0FB120AF3FF60AAEBC0F4
:10110B00E0EAC0E0E9C0E0120FE6D0E02401F9D03C
:10111B00E03400FAD0E0FBE5360460DCD536D9804C
:10112B00877BFF7A12793AD202809C791080027900
:10113B0008C206C2088008D2D5790A8004790AC28F
:10114B00D5E536047002F536E4FAFDFEFF120FAB5F
:10115B00FC7B08200113120FABFD7B1030000A1231
:10116B000FABFE120FABFF7B20EC3382D592D55029
:10117B0013C3E43000069FFFE49EFEE42001039DB1
:10118B00FDE49CFCE4CBF8C201EC700CCFCECDCCD3
:10119B00E824F8F870F38017C3EF33FFEE33FEED5E
:1011AB0033FDEC33FCEB33FB994002FB0FD8E9EB3F
:1011BB00300105F8D0E0C448B201C0E00AEC4D4E56
:1011CB004F78207B0070C2EAB5360040BCC0E012FD
:1011DB001240D0F0D0E0200104C4C0E0C4B201C082
:1011EB00F0120FCFD0F0D5F0EB02101F120F8510BD
:1011FB00BC53113658108D4C108942113A4F114285
:0F120B004411424910A243114855112C46112C91
:10121A0045112C4712E85010912D10952E10B82B1D
:10122A0010992310B62012D12A105148000010B08C
:10123A003F3F3F00790AA2D5200314300509B910AF
:10124A00020404B9080104A2D520060250010420B0
:10125A0002689202B535005034C0E07F203003198D
:10126A007F30A20272067205500F121297C202C292
:10127A0006C205C2087F30800F300503E9C0E012BC
:10128A000FE6300503D0E0F9D0E0B535CC300517CC
:10129A007F30B9100C120FE67F583004077F788030
:1012AA0003B90803120FE63002057F2D020FE67F0D
:1012BA00202008F87F2B2006F322920280CF286E86
:1012CA00756C6C2900D201120FAB3001F8C201789B
:1012DA003530D50108F60210512D50434958120FE6
:1012EA00AB2403B405004001E49012E393120FD734
:0D12FA00743A120FD7D20375350402113675
:100CB300E3F5F009E208B5F06D606B80F3E3F5F05E
:100CC30009E608B5F060605E80F387F009E608B5D1
:100CD300F054605280F487F009E208B5F0486046AA
:100CE30080F488828C8387F009E0A3B5F0386036FE
:100CF30080F488828C8387F009E493A3B5F027609E
:100D03002580F388828C83E3F5F009E0A3B5F01620
:100D1300601480F388828C83E3F5F009E493A3B530
:100D2300F004600280F2020DDE808580E7808E8011
:100D3300D2803C8015806C807E809B80B5808B80C8
:100D4300A1804F8070803A020DEA89828A83ECFA8F
:100D5300E493F5F0A3C8C582C8CCC583CCE493A3C0
:100D6300C8C582C8CCC583CCB5F070606E80E189FC
:100D7300828A83E493F5F0A3E208B5F05E605C80B9
:100D8300F289828A83E0F5F0A3E608B5F04D604B63
:100D930080F389828A83E0F5F0A3E208B5F03C6032
:100DA3003A80F389828A83E493F5F0A3E608B5F0E9
:100DB3002A602880F2805389828A83ECFAE493F5CF
:100DC300F0A3C8C582C8CCC583CCE0A3C8C582C87C
:100DD300CCC583CCB5F004600280E27FFFB5F0029E
:100DE3000F2240027F012289828A83ECFAE0F5F028
:100DF300A3C8C582C8CCC583CCE0A3C8C582C8CC70
:100E0300C583CCB5F0D560D380E389828A83ECFABD
:100E1300E0F5F0A3C8C582C8CCC583CCE493A3C8CE
:100E2300C582C8CCC583CCB5F0B160AF80E288F091
:100E3300ED2402B4040050A3F582EB2402B40400B1
:0B0E430050992323458223900D2C734F
:100E4E00E709F60870FA8046E709F20870FA803E64
:100E5E0088828C83E709F0A370FA807EE309F60896
:100E6E0070FA8076E309F20870FA806E88828C83BD
:100E7E00E309F0A370FA806289828A83E0A3F60800
:100E8E0070FA805689828A83E0A3F20870FA804A4B
:100E9E0080D280FA80C680D4806580F28031801046
:100EAE0080A680EA809A80A880DA80E280CA8031AB
:100EBE0089828A83ECFAE493A3C8C582C8CCC58321
:100ECE00CCF0A3C8C582C8CCC583CC70E9800D898F
:100EDE00828A83E493A3F60870F9ECFAA9F0EDFB8D
:100EEE002289828A83ECFAE0A3C8C582C8CCC58366
:100EFE00CCF0A3C8C582C8CCC583CC70EA80DD898E
:100F0E00828A83E493A3F20870F980CE88F0ED24F0
:100F1E0002B4040050C4F582EB2402B4040050BAAB
:090F2E002323458223900E9E73DB
:102B0800E94A4B700122120AF3FF6D700122EF703F
:0C2B180004FBFAF92209E970ED0A80EADA
:1022A9008B258A268927AB25AA26A927120AF3FF97
:1022B900122BAF500D74012527F527E43526F52695
:1022C90080E4D200AB25AA26A927120AF3FF642BC2
:1022D9006004EFB42D1BAB250527E527AA2670025C
:1022E900052614F9120AF3642D6003D38001C39201
:1022F90000E4F528F529AB25AA26A927120AF3FF38
:10230900122C035036AB25AA26A927120AF3FF334C
:1023190095E0FEEF24D0FBEE34FFFAAE28AF297C1E
:10232900007D0A120F63EF2BF529EE3AF5287401A7
:102339002527F527E43526F52680BB300006AE288B
:0E234900AF298009C3E49529FFE49528FE2200
:100F3700EF4E6012EF60010EEDBB010B89828A83D1
:100F4700F0A3DFFCDEFA2289F05007F709DFFCA9DE
:0C0F5700F022BBFEFCF309DFFCA9F02235
:100F6300EF8DF0A4A8F0CF8CF0A428CE8DF0A42EA2
:020F7300FE225C
:100F7500FAE6FB0808E6F925F0F618E6CA3AF6227D
:100F8500D083D082F8E4937012740193700DA3A3FB
:100F950093F8740193F5828883E47374029368600F
:060FA500EFA3A3A380DF0F
:0F2C0300EFC394304007EF943A50028001C32290
:102BAF00EFC394094005EF940E4003BF2003D38079
:032BBF0001C3222D
:00000001FF
