:030000000221A634
:0C21A600787FE4F6D8FD75815C0221ED25
:101FC800A2AF920CC2AF75C7AA75C755E4F591A226
:101FD8000C92AF43B10153B2FEA2AF920CC2AF75DF
:101FE800C7AA75C755F591A20C92AF43B30153B474
:101FF800FEA2AF920CC2AF75C7AA75C755F591A2DC
:102008000C92AF53B3FD43B402A2AF920CC2AF75AA
:10201800C7AA75C755F591A20C92AF53B3FB43B449
:1020280004A2AF920CC2AF75C7AA75C755F591A2A5
:102038000C92AF53B3F753B4F7A2AF920CC2AF757B
:10204800C7AA75C755F591A20C92AF53B3EF53B415
:10205800EFA2AF920CC2AF75C7AA75C755F591A28A
:0A2068000C92AF53B1BF53B2BF2278
:102848004389015389FD438E085389FB5389F72235
:100003008E268F27E5274526600DE52715277002E5
:08001300152612272A80ED22B8
:10272A00E4F58CF58AD28CAF8CEFFEAD8A7C00E49E
:10273A002DFFEC3EFEC3EF9480EE943E40E9C28C3E
:01274A00226C
:06178B008E268F278D2839
:10179100E4F529E5277807CEC313CE13D8F97807E6
:1017A100C333CE33CED8F9F52B8E2AE4F529C3E520
:1017B1002994807480948050217E00E52B2529FF97
:1017C100EE352AFE1228967E0074002529F582E462
:1017D1003400F583EFF0052980D47E00E527547F9E
:1017E1002400F582EE3400F583E528F0E52BF5A61B
:1017F100E52AF5A775AEFFA2AF920CC2AF75C7AAD5
:1018010075C755439F01A20C92AFA2AF920CC2AF14
:1018110075C7AA75C75543A501A20C92AF75AF2232
:10182100A2AF920CC2AF75C7AA75C75543A401A256
:101831000C92AFA2AF920CC2AF75C7AA75C7554340
:101841009F01A20C92AFA2AF920CC2AF75C7AA754D
:10185100C75543A501A20C92AF75AF21E4F529C389
:10186100E529948074809480502FE52B2529F5A6D5
:10187100E52AF5A774002529F582E43400F583E013
:10188100F5AEA2AF920CC2AF75C7AA75C75543A4F6
:1018910001A20C92AF052980C6A2AF920CC2AF750E
:1018A100C7AA75C75553A5FEA20C92AFA2AF920C61
:0F18B100C2AF75C7AA75C755539FFEA20C92AF61
:0118C0002205
:042896008F828E831C
:03289A00E493FFC5
:01289D002218
:0A2232008E088F098B0A8A0B890CB5
:10223C00E5097807CEC313CE13D8F9FDE509250EB1
:10224C00FFE508350DFEEF7807CEC313CE13D8F992
:10225C00F50FED650F6043AB0AAA0BA90C75158041
:10226C00AF09AE0812142EAC07EC2509F509E435BC
:10227C0008F508EC250CF50CE4350BF50BECC3E577
:10228C000E9FF50EE50D9400F50DAE08E5097807E7
:10229C00CEC313CE13D8F9FD80B8E50E450D6010F2
:1022AC00AB0AAA0BA90C850E15AF09AE0812142E99
:0122BC0022FF
:0A2557008E188F198B1A8A1B891C3D
:10256100E4FFFEC3EF951EEE951D5021E5192FFDE9
:10257100E5183E8D82F583E493AB1AAA1BA91C8F43
:0D258100828E8312084D0FBF00010E80D620
:01258E00222A
:0A142E008E108F118B128A1389149F
:10143800A2AF920CC2AF75C7AA75C755439F01A248
:101448000C92AFA2AF920CC2AF75C7AA75C755432D
:10145800A501A20C92AFE511547FF517C3748095CE
:1014680017F516E515D395164003851615AD11AC7D
:1014780010E4F516E516C395155012ED2516F582FC
:10148800E43CF583E493F47004051680E7E51665FB
:1014980015707875AF218511A6E510F5A7E4F51646
:1014A800E516C39515502AAB12AA13A914851682FE
:1014B80075830012080EF5AEA2AF920CC2AF75C7C5
:1014C800AA75C75543A401A20C92AF05A6051680BC
:1014D800CFE4F516E516C395155022AB12AA13A949
:1014E8001485168275830012080EFFED2516F58205
:1014F800E43CF583E493B50704051680D7E5166543
:101508001570030216088003021608E5115480AC12
:1015180010FDE4F516C3E516948074809480501D80
:10152800ED2516F582E43CF583E493FF74802516D7
:10153800F582E43400F583EFF0051680D8E4F5165B
:10154800E516C395155023AB12AA13A91485168264
:1015580075830012080EFFE51725162480F582E42E
:101568003400F583EFF0051680D6E5115480F5A612
:10157800E510F5A775AF2275AEFFA2AF920CC2AF0A
:1015880075C7AA75C75543A401A20C92AF75AF21C0
:10159800E4F516C3E516948074809480502774800F
:1015A8002516F582E43400F583E0F5AEA2AF920C7F
:1015B800C2AF75C7AA75C75543A401A20C92AF055F
:1015C800A6051680CEE4F516AF167E00C3EF94800C
:1015D800748094805021ED2516F582E43CF583E46F
:1015E80093FB74802516F582E43400F583E0FAEB6A
:1015F800B50204051680D1EF64804E6003021572AF
:10160800A2AF920CC2AF75C7AA75C755539FFEA269
:051618000C92AFAF15BC
:01161D0022AA
:101E6C00A2AF920CC2AF75C7AA75C755439F01A20A
:101E7C000C92AF75A604E4F5A775AE0F75AFE1A291
:101E8C00AF920CC2AF75C7AA75C75543A504A20C77
:101E9C0092AFA2AF920CC2AF75C7AA75C75543A437
:101EAC0001A20C92AFE59F5440644060F8A2AF923F
:101EBC000CC2AF75C7AA75C75553A5FBA20C92AF40
:101ECC00A2AF920CC2AF75C7AA75C755539FFEA29D
:101EDC000C92AF75C7AA75C75575AA07A2AF920C1D
:101EEC00C2AF75C7AA75C75543AA40A20C92AFAF33
:101EFC00AAEF44BF74FF60F7D2AFA2AF920CC2AF8F
:0E1F0C0075C7AA75C75543AA80A20C92AF22D2
:0C26C000C109C10A0253000002550000CD
:1027D100E5542480FFE43553FEC3EF9556FFEE9593
:0627E10055EF547FFF22BA
:10006100E5542401FFE43553FEEFB55608EEB555CE
:08007100047F0180027F0022E0
:1027A300E4F553F554F555F556FE7F80FD7B017A2C
:0727B300017900120BF7226F
:1026E400EFF5827583007E00FDC3E5549DFDE5533F
:1026F4009400FC74002DF974013CFA7B017D0012F6
:032704000BF722AE
:10282600E554B55609E553B555047F0180027F008E
:01283600227F
:10283700AE53AF5474FF2FF58274003EF583E0FF6B
:01284700226E
:10269B00AD07120061EF701C0554E554AE53700288
:1026AB000553142400F58274013EF583EDF0535469
:0526BB007F75530022B1
:10267500122826EF60037F00220556E556AE5570F9
:10268500020555142400F58274013EF583E0FF53DD
:05269500567F755500A1
:01269A00221D
:03002300020026B2
:10002600C0E0C083C082C0D075D000C005C006C085
:1000360007C09130980CD20A859951AF5112269B70
:10004600C298309905200902C299D091D007D006EE
:0B005600D005D0D0D082D083D0E032A3
:03007B000227BA9F
:1027BA00C09130F807859A52D20BC2F830F9052039
:0727CA000902C2F9D09132AF
:10161E008F258E248D238C22E526146052147003A0
:10162E000217102402600302178A7598504389200E
:10163E00438780438E10A2AF920CC2AF75C7AA75B6
:10164E00C755E4F591A20C92AF53C4DF7B10FAF9A3
:10165E00F8AF25AE24AD23AC221208BDAB2AAA29C1
:10166E00A928A8271208BDEFF404F58DD28E227595
:10167E00985043878053C4F8A2AF920CC2AF75C77F
:10168E00AA75C755E4F591A20C92AF43C4207B1006
:10169E00FAF9F8AF25AE24AD23AC221208BDAB2A61
:1016AE00AA29A928A8271208BDC3E49FFFE49EFE1D
:1016BE0074019DFDE49CFC78081209608FC6E47BE2
:1016CE0010FAF9F8AF25AE24AD23AC221208BDAB4B
:1016DE002AAA29A928A8271208BDC3E49FFFE49EC1
:1016EE00FE74019DFDE49CFCEFE48FC5A2AF920C4D
:1016FE00C2AF75C7AA75C755F591A20C92AF43C478
:10170E00082275F85075C480E47B10FAF9F8AF25FD
:10171E00AE24AD23AC221208BDAB2AAA29A928A853
:10172E00271208BDC3E49FFFE49EFE74019DFDE4F5
:10173E009CFC78081209608FC6E47B10FAF9F8AFAA
:10174E0025AE24AD23AC221208BDAB2AAA29A928A6
:10175E00A8271208BDC3E49FFFE49EFE74019DFD01
:10176E00E49CFCEFE48FC5A2AF920CC2AF75C7AA82
:0D177E0075C755F591A20C92AF43C4082227
:0D287600EF1460060470058D99228D9A22E2
:10258F00A2AF920CC2AF75C7AA75C755E4F591A259
:10259F000C92AF53B1BF53B2BFF526F52A7529C2BE
:1025AF00752801F527FF7E367D6E7C0112161ED22F
:0425BF0099D2092282
:1027E70075BE2753B3F753B4F753B3EF53B4EFD2D0
:0627F70093D294D2C62229
:0818C1008F2B8B2C8A2D892E40
:1018C900AFBDEF64F860037F0022C2C4D2C5C2C3B2
:1018D900753100753201E4F53320C315E532453120
:1018E9007005753301800A0532E5327002053180D1
:1018F900E8E53360061225F47F0022AFBDEF6408E6
:1019090060061225F47F0022C2C5C2C475BCD0C2CC
:10191900C3753100753201E4F53320C315E532454D
:10192900317005753301800A0532E53270020531DF
:1019390080E8E53360061225F47F0022AFBDEF642D
:101949001860061225F47F0022C2C5C2C4852BBCCB
:10195900C2C3753100753201E4F53320C315E53290
:1019690045317005753301800A0532E5327002058B
:101979003180E8E53360061225F47F0022AFBDEF20
:10198900642860061225F47F0022E4F530E530C3AF
:10199900952F504FAB2CAA2DA92E85308275830027
:1019A90012080EF5BCC2C3753100753201E4F53376
:1019B90020C315E53245317005753301800A0532BA
:1019C900E5327002053180E8E53360061225F47FBF
:1019D9000022AFBDEF642860061225F47F002205BE
:0619E9003080AA1225F473
:0119EF0022D5
:08122E008F298B2A8A2B892CE1
:10123600AFBDEF64F860037F0022C2C4D2C5C2C34B
:10124600752F00753001E4F53120C315E530452FC3
:101256007005753101800A0530E5307002052F8072
:10126600E8E53160061225F47F0022AFBDEF640881
:1012760060061225F47F0022C2C5C2C475BCD0C266
:10128600C3752F00753001E4F53120C315E53045EF
:101296002F7005753101800A0530E5307002052F83
:1012A60080E8E53160061225F47F0022AFBDEF64C9
:1012B6001860061225F47F0022C2C5C2C48529BC67
:1012C600C2C3752F00753001E4F53120C315E53032
:1012D600452F7005753101800A0530E5307002052D
:1012E6002F80E8E53160061225F47F0022AFBDEFBE
:1012F600642860061225F47F0022C2C4D2C5C2C388
:10130600752F00753001E4F53120C315E530452F02
:101316007005753101800A0530E5307002052F80B1
:10132600E8E53160061225F47F0022AFBDEF6410B8
:1013360060061225F47F0022C2C5C2C475BCD1C2A4
:10134600C3752F00753001E4F53120C315E530452E
:101356002F7005753101800A0530E5307002052FC2
:1013660080E8E53160061225F47F0022AFBDEF6408
:101376004060061225F47F0022E4F52EE52D14FFC9
:10138600E52EC39F5051D2C2C2C3752F00753001DE
:10139600E4F53120C315E530452F70057531018020
:1013A6000A0530E5307002052F80E8E53160061247
:1013B60025F47F0022AFBDEF645060061225F47F4E
:1013C6000022AB2AAA2BA92C852E82758300E5BCA8
:1013D60012084D052E80A5C2C2C2C3752F007530F6
:1013E60001E4F53120C315E530452F70057531014F
:1013F600800A0530E5307002052F80E8E531600689
:101406001225F47F0022AFBDEF645860061225F462
:101416007F0022AB2AAA2BA92C852E82758300E594
:07142600BC12084D1225F471
:01142D00229C
:101CCF00AFBDEF64F860037F0022C2C4D2C5C2C3A8
:101CDF00755700755801E4F55920C315E558455758
:101CEF007005755901800A0558E55870020557802F
:101CFF00E8E55960061225F47F0022AFBDEF6408B6
:101D0F0060061225F47F0022C2C5C2C475BCD1C2C1
:101D1F00C3755700755801E4F55920C315E55845AB
:101D2F00577005755901800A0558E5587002055717
:101D3F0080E8E55960061225F47F0022AFBDEF64FD
:101D4F004060061225F47F0022C2C2C2C37557003D
:101D5F00755801E4F55920C315E5584557700575B9
:101D6F005901800A0558E5587002055780E8E55972
:101D7F0060061225F47F0022AFBDEF645860061293
:0F1D8F0025F47F0022AFBC7557008F581225F442
:011D9E002222
:1025F400C2C5D2C4C2C37F017E00E4FDACBDEC649D
:10260400F8600FEF4E70047D0180070FBF00010ECC
:0B26140080EAED70047F0180027F006F
:01261F002298
:10274B00AE07EFC3940A748094804012EF75F00AC1
:10275B0084FEEF75F00A84EEC454F045F0FEAF062C
:01276B00224B
:0E285800EFC4540F75F00AA4FEEF540F2EFFCC
:01286600224F
:0622BD008B258A2689270B
:1022C3001207F5FF12274B8F2A532A7F7B007A00D0
:1022D300792A752F01E4FF1218C1AB25AA26A92775
:1022E30090000112080EFF12274B8F297B007A0002
:1022F3007929752F017F011218C1AB25AA26A927B9
:1023030090000212080EFF12274B8F28AB25AA2636
:10231300A92790000312080EFF7E00640270055384
:1023230028BF80114328BFEF64014E700543282066
:1023330080035328DF7B007A007928752F017F0201
:032343001218C1AC
:012346002274
:0623CB008B438A448945A2
:1023D1001207F5FF12274B8F467B007A007946756D
:1023E1002F017F031218C1AB43AA44A945900001F4
:1023F10012080EFF12274B8F477B007A0079477531
:102401002F017F041218C1AB43AA44A945900002D1
:1024110012080EFF12274B8F487B007A007948750E
:102421002F017F051218C1AB43AA44A945900003AF
:1024310012080EFF12274B8F497B007A00794975EC
:072441002F017F061218C1F4
:012448002271
:062072008B228A23892461
:102078007B007A007927752D01E4FF12122E532771
:102088007FAF27122858AB22AA23A924EF12083BB6
:102098007B007A007926752D017F0112122EAF265A
:1020A800122858AB22AA23A924900001EF12084D48
:1020B8007B007A007925752D017F0212122EE52505
:1020C80030E62254207003D38001C340047F01808E
:1020D800027F00AB22AA23A924900003EF12084D27
:1020E80053259F800EAB22AA23A9249000037402D3
:1020F80012084DAF25122858AB22AA23A924900014
:0521080002EF12084D7A
:01210D0022AF
:062347008B228A23892489
:10234D007B007A007925752D017F0312122EAF25A2
:10235D00122858AB22AA23A924EF12083B7B007A3E
:10236D00007926752D017F0412122EAF26122858E2
:10237D00AB22AA23A924900001EF12084D7B007A0D
:10238D00007927752D017F0512122EAF27122858BF
:10239D00AB22AA23A924900002EF12084D7B007AEC
:1023AD00007928752D017F0612122EAF281228589C
:0D23BD00AB22AA23A924900003EF12084DC3
:0123CA0022F0
:1027FD0053890F438910438E10758DC4758B17D275
:06280D00ABD2AFD28E2217
:09288D0012278812288380FB2227
:101D9F002443000A4F4B0A002453002445002441DA
:101DAF00000A44495341424C450A000A454E4142FC
:101DBF004C450A005345542054494D455220455235
:101DCF00524F520A00310A000A204A756D7020697D
:101DDF006E746F20616374697665206D6F64652022
:101DEF00310A00320A000A204A756D7020696E743C
:101DFF006F20616374697665206D6F646520320AA8
:101E0F000031320A000A204A756D70206F757420F8
:101E1F00616374697665206D6F64652031203C20A5
:101E2F000A000A204A756D70206F75742061637403
:101E3F00697665206D6F64652031203E200A00327F
:101E4F00310A000A204A756D70206F757420616326
:0D1E5F0074697665206D6F646520320A009D
:1026CC00024D0000015000014B01014A02014F0074
:0726DC00014C0241018200E4
:102788007F07121AFC121FC812270712284812279F
:0B279800E712262012210E1227FD225E
:0A288300121BF7120FB512007E229F
:10270700752601E4752A80752925F528F527FF7EAA
:10271700247DF4FC12161ED299D209D2ACD2AF1284
:0327270027A322C3
:101BF700E4F522F523E54A64026003021CCEE54BB7
:101C07006401705630904AD2927F0AFE1200033068
:101C17009048E523B4D029E522B40724C291D29293
:101C2700754B027F087E301228967524008F25E5B4
:101C370025640245246009AD4B7F087E3012178B5F
:101C47007F017E001200030523E523700205228031
:101C5700BE308003D38001C39292E54B6402706764
:101C6700309062D2917F0AFE120003E4F522F52339
:101C7700309054E52364D07004E52264077035C2C0
:101C870092D2917F64FE120003C2917F647E00129C
:101C97000003D291754B017F087E30122896752478
:101CA700008F25E525640145246009AD4B7F087E3B
:101CB7003012178B7F017E001200030523E5237086
:071CC70002052280ABC2916F
:011CCE0022F3
:102620007F087E30122896EFF460028F4BAF4B7E0E
:1026300000EF64017005D291C29222EF64024E70E5
:0A26400005C291D29222D291C292FB
:01264A00226D
:10210E007F207E301228969001A0E4F0A3EFF07F9E
:10211E00217E30122896900198E4F0A3EFF07F22F2
:10212E007E30122896900185E4F0A3EFF07430FF14
:10213E00FE122896900183E4F0A3EFF07F317E30FB
:10214E00122896900180E4F0A3EFF07F327E3012D9
:10215E00289690019EE4F0A3EFF07F427E30122885
:10216E0096EFF460028F4C7F407E30122896EFF48B
:10217E0060028F4A7F417E30122896EFF460028F04
:10218E004FAF4A7E00EF64017005D291C29222EFEA
:07219E004E7004C291C292D1
:0121A5002217
:100FB500122837EF6423600302122D1227D1EF6048
:100FC5001A122675BF24F4900182E0FF04F0748B99
:100FD5002FF582E43401F5837424F01227D1EF60F4
:100FE50018122675900182E0FE04F0748B2EF582AE
:100FF500E43401F583EFF080E2900182E0248BF583
:1010050082E43401F583E4F07F0D1226E4752801AE
:10101500752901752AA5752B01752C01752DA875E6
:101025002E01752F017530AB7531017532017533A0
:101035008B7B017A0179A21219F078A27C017D01DE
:101045007BFF7A1D799F120AF1EF703F7B017A01D0
:1010550079A5121F1A90019CEFF07B017A0179A8FE
:10106500121F1A90019BEFF07B017A0179AB121FD9
:101075001A90019AEFF07B017A01799A1222BD7BD1
:10108500FF7A1D79A2120CBB02121B78A27C017D8E
:10109500017BFF7A1D79A7120AF1EF70697B017A4E
:1010A5000179A5121F1A9001A0EEF0A3EFF07B01C4
:1010B5007A0179A8121F1A900198EEF0A3EFF07B40
:1010C500017A0179AB121F1A900185EEF0A3EFF0BA
:1010D5009001A0E0A3E0FD7F207E3012178B9001E8
:1010E50098E0A3E0FD7F217E3012178B900185E00B
:1010F500A3E0FD7F227E3012178B7BFF7A1D79A23C
:10110500120CBB02121B78A27C017D017BFF7A1DAC
:1011150079AA120AF1EF70697B017A0179A5121F8C
:101125001A900183EEF0A3EFF07B017A0179A81202
:101135001F1A900180EEF0A3EFF07B017A0179ABE5
:10114500121F1A90019EEEF0A3EFF0900183E0A329
:10115500E0FD7430FFFE12178B900180E0A3E0FDE7
:101165007F317E3012178B90019EE0A3E0FD7F3228
:101175007E3012178B7BFF7A1D79A2120CBB0212EF
:101185001B78A27C017D017BFF7A1D79AD120AF1E6
:06119500EF600302121BD3
:10119B007B017A0179A5121F1A8F227B017A0179C3
:1011AB00A8121F1A8F237B017A0179AB121F1A8F9A
:1011BB0024E5227029E5237025EF7022F54F754A3F
:1011CB0002AD4A7F407E3012178BAD4F7F417E3090
:1011DB0012178B7BFF7A1D79B0120CBB8032E52284
:1011EB00640B702CE523640B7026E524640B7020D4
:1011FB00754F01F54AAD4A7F407E3012178BAD4FCC
:10120B007F417E3012178B7BFF7A1D79BA120CBB94
:10121B00E4900182F0FE7F0DFD7B017A01798B1248
:02122B000BF7BF
:01122D00229E
:0619F0008B258A268927E1
:1019F600E94A4B7003021AFBE52A4529452870037C
:101A0600021AFBE52D452C452B7003021AFBE53027
:101A1600452F452E7003021AFBE5334532453170DA
:101A260003021AFBAB31AA32A9338B348A358936C5
:101A36008B378A3889397D2C12276C8B348A358905
:101A460036E94A4B6013E412083BA827AC26AD25BD
:101A5600AB37AA38A939120BDAAB34E5362401F9CB
:101A6600E43535FA8B3AF53B893C7D2C12276C8B95
:101A7600348A358936E94A4B6013E412083BA82AB2
:101A8600AC29AD28AB3AAA3BA93C120BDAAB34E53C
:101A9600362401F9E43535FA8B3DF53E893F7D2C38
:101AA60012276C8B348A358936E94A4B6013E41267
:101AB600083BA82DAC2CAD2BAB3DAA3EA93F120B83
:101AC600DAAB34E5362401F9E43535FA8B40F541D5
:101AD60089427D2312276C8B348A358936E94A4B35
:101AE6006013E412083BA830AC2FAD2EAB40AA41E0
:051AF600A942120BDA09
:011AFB0022C8
:10007E00AF50EF640160030207F4E54F64016003C3
:10008E000207F17B017A01799A1220727B017A01C3
:10009E007987122347E54A6003020442900180E00B
:1000AE00FEA3E0FF7C007D3C12086FAA06AB079012
:1000BE000183E0FEA3E0FF7C0E7D1012086FEF2B94
:1000CE00FFEE3AFE90019FE02FFF90019EE03EFE74
:1000DE003395E0FDFCC004C005C006C00790019832
:1000EE00E0FEA3E0FF7C007D3C12086FAA06AB0782
:1000FE009001A0E0FEA3E0FF7C0E7D1012086FEFD2
:10010E002BFFEE3AFE900186E02FFF900185E03E38
:10011E00FEAB07FA3395E0F9F8D007D006D005D03C
:10012E0004C312094F7015754A02AD4A7F407E30E6
:10013E0012178B7BFF7A1D79C3120CBB900180E0E6
:10014E00FEA3E0FF7C007D3C12086FAA06AB079071
:10015E000183E0FEA3E0FF7C0E7D1012086FEF2BF3
:10016E00FFEE3AFE90019FE02FFF90019EE03EFED3
:10017E003395E0FDFCC004C005C006C00790019891
:10018E00E0FEA3E0FF7C007D3C12086FAA06AB07E1
:10019E009001A0E0FEA3E0FF7C0E7D1012086FEF31
:1001AE002BFFEE3AFE900186E02FFF900185E03E98
:1001BE00FEAB07FA3395E0F9F8D007D006D005D09C
:1001CE0004C312094F40030203067BFF7A1D79D444
:1001DE00120CBB90019CE0FF7E007C0E7D1012087D
:1001EE006FAC06AD0790019BE075F03CA42DFFECC3
:1001FE0035F0FE90019AE07C002FFFEC3EFEE4FD10
:10020E00C004C005C006C007900198E0FEA3E0FF41
:10021E007D3C12086FAA06AB079001A0E0FEA3E09A
:10022E00FF7C0E7D1012086FEF2BFFEE3AFE900151
:10023E0086E02FFF900185E03EFEAB07FA3395E096
:10024E00F9F8D007D006D005D004C312094F4003E9
:10025E0002030690019CE0FF7E007C0E7D101208CA
:10026E006FAC06AD0790019BE075F03CA42DFFEC42
:10027E0035F0FE90019AE07C002FFFEC3EFEE4FD8F
:10028E00C004C005C006C007900180E0FEA3E0FFD9
:10029E007D3C12086FAA06AB07900183E0FEA3E037
:1002AE00FF7C0E7D1012086FEF2BFFEE3AFE9001D1
:1002BE009FE02FFF90019EE03EFEAB07FA3395E0E4
:1002CE00F9F8D007D006D005D004D312094F402834
:1002DE00D291C292754A02754C04AD4A7F407E306F
:1002EE0012178BAD4C7F427E3012178B1226207B5D
:1002FE00FF7A1D79D7120CBB900180E0FEA3E0FFC0
:10030E007C007D3C12086FAA06AB07900183E0FECD
:10031E00A3E0FF7C0E7D1012086FEF2BFFEE3AFE6E
:10032E0090019FE02FFF90019EE03EFE3395E0FD91
:10033E00FCC004C005C006C007900198E0FEA3E013
:10034E00FF7C007D3C12086FAA06AB079001A0E06F
:10035E00FEA3E0FF7C0E7D1012086FEF2BFFEE3A2E
:10036E00FE900186E02FFF900185E03EFEAB07FA7E
:10037E003395E0F9F8D007D006D005D004D3120992
:10038E004F50030204427BFF7A1D79F2120CBB9090
:10039E00019CE0FF7E007C0E7D1012086FAC06AD56
:1003AE000790019BE075F03CA42DFFEC35F0FE901C
:1003BE00019AE07C002FFFEC3EFEE4FDC004C00578
:1003CE00C006C007900198E0FEA3E0FF7D3C120836
:1003DE006FAA06AB079001A0E0FEA3E0FF7C0E7DA6
:1003EE001012086FEF2BFFEE3AFE900186E02FFF02
:1003FE00900185E03EFEAB07FA3395E0F9F8D007A1
:10040E00D006D005D004C312094F5028D291C29203
:10041E00754A02754C03AD4A7F407E3012178BAD84
:10042E004C7F427E3012178B1226207BFF7A1D796D
:10043E00F5120CBBE54A640260030207F1900180DD
:10044E00E0FEA3E0FF7C007D3C12086FAA06AB071E
:10045E00900183E0FEA3E0FF7C0E7D1012086FEF8B
:10046E002BFFEE3AFE90019FE02FFF90019EE03EA3
:10047E00FE3395E0FDFCC004C005C006C007900128
:10048E0098E0FEA3E0FF7C007D3C12086FAA06AB4D
:10049E00079001A0E0FEA3E0FF7C0E7D1012086F16
:1004AE00EF2BFFEE3AFE900186E02FFF900185E0E4
:1004BE003EFEAB07FA3395E0F9F8D007D006D0052B
:1004CE00D004C312094F400302062FE54C640460AA
:1004DE000302062F7BFF7A1E7910120CBB90019C33
:1004EE00E0FF7E007C0E7D1012086FAC06AD07900B
:1004FE00019BE075F03CA42DFFEC35F0FE90019AC7
:10050E00E07C002FFFEC3EFEE4FDC004C005C006FB
:10051E00C007900198E0FEA3E0FF7D3C12086FAA91
:10052E0006AB079001A0E0FEA3E0FF7C0E7D10124B
:10053E00086FEF2BFFEE3AFE900186E02FFF900141
:10054E0085E03EFEAB07FA3395E0F9F8D007D0060A
:10055E00D005D004D312094F4025C291C292E4F5C2
:10056E004A754C02AD4A7F407E3012178BAD4C7FE0
:10057E00427E3012178B7BFF7A1E7914120CBB90C1
:10058E00019CE0FF7E007C0E7D1012086FAC06AD64
:10059E000790019BE075F03CA42DFFEC35F0FE902A
:1005AE00019AE07C002FFFEC3EFEE4FDC004C00586
:1005BE00C006C007900180E0FEA3E0FF7D3C12085C
:1005CE006FAA06AB07900183E0FEA3E0FF7C0E7DD1
:1005DE001012086FEF2BFFEE3AFE90019FE02FFFF7
:1005EE0090019EE03EFEAB07FA3395E0F9F8D00796
:1005FE00D006D005D004C312094F5025C291C29225
:10060E00E4F54A754C02AD4A7F407E3012178BAD31
:10061E004C7F427E3012178B7BFF7A1E7931120C83
:10062E00BB900180E0FEA3E0FF7C007D3C12086FD2
:10063E00AA06AB07900183E0FEA3E0FF7C0E7D10BF
:10064E0012086FEF2BFFEE3AFE90019FE02FFF9006
:10065E00019EE03EFE3395E0FDFCC004C005C006E1
:10066E00C007900198E0FEA3E0FF7C007D3C1208DD
:10067E006FAA06AB079001A0E0FEA3E0FF7C0E7D03
:10068E001012086FEF2BFFEE3AFE900186E02FFF5F
:10069E00900185E03EFEAB07FA3395E0F9F8D007FE
:1006AE00D006D005D004D312094F50030207F1E54E
:1006BE004C640360030207F17BFF7A1E794E120C25
:1006CE00BB90019CE0FF7E007C0E7D1012086FAC8B
:1006DE0006AD0790019BE075F03CA42DFFEC35F0C4
:1006EE00FE90019AE07C002FFFEC3EFEE4FDC0047C
:1006FE00C005C006C007900198E0FEA3E0FF7D3C58
:10070E0012086FAA06AB079001A0E0FEA3E0FF7CE3
:10071E000E7D1012086FEF2BFFEE3AFE900186E071
:10072E002FFF900185E03EFEAB07FA3395E0F9F816
:10073E00D007D006D005D004D312094F50030207BC
:10074E00F190019CE0FF7E007C0E7D1012086FACD4
:10075E0006AD0790019BE075F03CA42DFFEC35F043
:10076E00FE90019AE07C002FFFEC3EFEE4FDC004FB
:10077E00C005C006C007900180E0FEA3E0FF7D3CEF
:10078E0012086FAA06AB07900183E0FEA3E0FF7C80
:10079E000E7D1012086FEF2BFFEE3AFE90019FE0D8
:1007AE002FFF90019EE03EFEAB07FA3395E0F9F87D
:1007BE00D007D006D005D004C312094F5025C291E0
:1007CE00C292E4F54A754C02AD4A7F407E30121754
:1007DE008BAD4C7F427E3012178B7BFF7A1E795287
:0707EE00120CBBE4F55022E0
:03001B000225C3F8
:1025C300C0E0C0D0C091054EE54E7002054DC3E595
:1025D3004E94E8E54D94034009755001754D00751F
:1025E3004E00758DC4758B17C28DD091D0D0D0E0BD
:0125F30032B5
:021AFC00A90738
:101AFE00E4F591E924F9600C14600E2402700D7562
:101B0E00A638800875A630800375A630A2AF920C59
:101B1E00C2AF75C7AA75C755439F01A20C92AFE419
:101B2E00F5A775AF04A2AF920CC2AF75C7AA75C761
:101B3E005543A401A20C92AFADAE05A6A2AF920C76
:101B4E00C2AF75C7AA75C75543A401A20C92AFAC1C
:101B5E00AEE924F8706FED25E0FFE433FEEC54019E
:101B6E007A002FFFEA3EFE74F22FFF74FF3EFE75E1
:101B7E00AF0C75A601E4F5A7A2AF920CC2AF75C764
:101B8E00AA75C75543A401A20C92AFABAEEB644B42
:101B9E00600EABAEEB64526007ABAEEB6453701BE2
:101BAE00ED543FC3940774809480500A74F62FFF4F
:101BBE0074FF3EFE8005EF1F70011EEF5401FCEE18
:101BCE00C313EF13FD75C7AA75C7558D8475C7AAC4
:101BDE0075C7558C85A2AF920CC2AF75C7AA75C7D3
:081BEE0055539FFEA20C92AFBB
:011BF60022CC
:1024C600EF24FD60121460282402704B7F0212254F
:1024D6001E7F02122449227F03122449A2AF920CC6
:1024E600C2AF75C7AA75C7555397DFA20C92AF2224
:1024F6007F0212251E7F021224497F0412251E7FA9
:1025060004122449A2AF920CC2AF75C7AA75C7556B
:082516005397DFA20C92AF22E3
:10251E00EF24FC60222402702FA2AF920CC2AF7582
:10252E00C7AA75C755439720A20C92AFE59644DF14
:10253E0064DF701480F62275C7AA75C7554397C01D
:09254E00E59644F764F760F822F9
:10264B00E4F591EF24FC60182402701DA2AF920CEC
:10265B00C2AF75C7AA75C7555397DFA20C92AF22AD
:0A266B0075C7AA75C75553973F22A3
:10244900E4F591A2AF920CC2AFEF24FD602F1460A6
:102459005424027063A2AF920CC2AF75C7AA75C7A4
:10246900555396FBA20C92AFA2AF920CC2AF75C79F
:10247900AA75C7555396FDA20C92AF803BA2AF92A5
:102489000CC2AF75C7AA75C755439604A20C92AF83
:10249900A2AF920CC2AF75C7AA75C7555396FDA2D4
:1024A9000C92AF8013A2AF920CC2AF75C7AA75C7C1
:0D24B90055439608A20C92AFA20C92AF22E0
:08289E003099FDC2998F9922C7
:1021B20002288DE493A3F8E493A34003F68001F28E
:1021C20008DFF48029E493A3F85407240CC8C3332E
:1021D200C4540F4420C8834004F456800146F6DFFD
:1021E200E4800B01020408102040809026C0E47EA7
:1021F200019360BCA3FF543F30E509541FFEE493F2
:10220200A360010ECF54C025E060A840B8E493A3B8
:10221200FAE493A3F8E493A3C8C582C8CAC583CAE3
:10222200F0A3C8C582C8CAC583CADFE9DEE780BE9B
:0126E30000F6
:1007F500BB010689828A83E0225002E722BBFE0202
:09080500E32289828A83E4932234
:10080E00BB010CE58229F582E5833AF583E022509F
:10081E0006E92582F8E622BBFE06E92582F8E222E9
:0D082E00E58229F582E5833AF583E4932203
:10083B00BB010689828A83F0225002F722BBFE019C
:02084B00F32296
:10084D00F8BB010DE58229F582E5833AF583E8F0E1
:10085D00225006E92582C8F622BBFE05E92582C88D
:02086D00F22275
:10086F00EF8DF0A4A8F0CF8CF0A428CE8DF0A42E9D
:02087F00FE2257
:1008810075F008758200EF2FFFEE33FECD33CDCC2E
:1008910033CCC58233C5829BED9AEC99E5829840B1
:1008A1000CF582EE9BFEED9AFDEC99FC0FD5F0D68E
:1008B100E4CEFBE4CDFAE4CCF9A88222B800C1B9B8
:1008C1000059BA002DEC8BF084CFCECDFCE5F0CBF6
:1008D100F97818EF2FFFEE33FEED33FDEC33FCEB2F
:1008E10033FB10D703994004EB99FB0FD8E5E4F9EA
:1008F100FA227818EF2FFFEE33FEED33FDEC33FCD7
:10090100C933C910D7059BE99A4007EC9BFCE99ACA
:10091100F90FD8E0E4C9FAE4CCFB2275F010EF2F0F
:10092100FFEE33FEED33FDCC33CCC833C810D7070F
:100931009BEC9AE899400AED9BFDEC9AFCE899F84A
:0E0941000FD5F0DAE4CDFBE4CCFAE4C8F922DD
:10094F00EB9FF5F0EA9E42F0E99D42F0E89C45F0FE
:01095F002275
:10096000E8600FECC313FCED13FDEE13FEEF13FF75
:03097000D8F12299
:100C5900E5342428F8E60534227825300702782877
:100C6900E475F001120C230207F52000EB7F2ED268
:100C7900008018EF540F2490D43440D4FF30040B73
:100C8900EF24BFB41A0050032461FFE53560021553
:100C9900350538E5387002053730070D7825E475D4
:100CA900F001120C23EF02083B02289E7403D207BD
:100CB9008003E4C207F5348B258A268927E4F535B4
:100CC900F537F538E53560077F20120C9480F57506
:100CD90036FFC201C200C202C203C205C206C2086F
:100CE900120C62FF700D3007057F00120CA5AF389A
:100CF900AE3722B4255FC2D5C204120C62FF24D0DC
:100D0900B40A00501A75F00A783530D50508B6FFCF
:100D19000106C6A426F620D5047002D20380D92480
:100D2900CFB41A00EF5004C2E5D204020EA5D201D5
:100D390080C6D20080C0D20280BCD2D580BAD2058A
:100D490080B47F20120C942002077401B53500404D
:100D5900F1120C59FF120C94020CCDD208D2068064
:100D690095120C59FB120C59FA120C59F94A4B708D
:100D79000679767A0F7BFF20022EE535602A7E0000
:100D89008E8275830012080E60060EEE653670F0CD
:100D9900C2D5EBC0E0EAC0E0E9C0E0EE120EECD04B
:100DA900E0F9D0E0FAD0E0FB1207F5FF60AAEBC04A
:100DB900E0EAC0E0E9C0E0120C94D0E02401F9D0E7
:100DC900E03400FAD0E0FBE5360460DCD536D980A2
:100DD900877BFF7A0E79E8D202809C7910800279AC
:100DE90008C206C2088008D2D5790A8004790AC2E5
:100DF900D5E536047002F536E4FAFDFEFF120C590A
:100E0900FC7B08200113120C59FD7B1030000A12DB
:100E19000C59FE120C59FF7B20EC3382D592D55028
:100E290013C3E43000069FFFE49EFEE42001039D06
:100E3900FDE49CFCE4CBF8C201EC700CCFCECDCC28
:100E4900E824F8F870F38017C3EF33FFEE33FEEDB3
:100E590033FDEC33FCEB33FB994002FB0FD8E9EB94
:100E6900300105F8D0E0C448B201C0E00AEC4D4EAB
:100E79004F78207B0070C2EAB5360040BCC0E01252
:100E89000EEED0F0D0E0200104C4C0E0C4B201C02D
:100E9900F0120C7DD0F0D5F0EB020CCD120C330D15
:100EA9006A530DE4580D3B4C0D37420DE84F0DF0D8
:0F0EB900440DF0490D50430DF6550DDA460DDA94
:100EC800450DDA470F96500D3F2D0D432E0D662B1D
:100ED8000D47230D64200F7F2A0CFF4800000D5E8C
:100EE8003F3F3F00790AA2D5200314300509B91005
:100EF800020404B9080104A2D52006025001042006
:100F080002689202B535005034C0E07F20300319E2
:100F18007F30A20272067205500F120F45C202C23C
:100F280006C205C2087F30800F300503E9C0E01211
:100F38000C94300503D0E0F9D0E0B535CC30051776
:100F48007F30B9100C120C947F583004077F7880DA
:100F580003B90803120C943002057F2D020C947F0C
:100F6800202008F87F2B2006F322920280CF286EDB
:100F7800756C6C2900D201120C593001F8C2017845
:100F88003530D50108F6020CFF2D50434958120C94
:100F9800592403B405004001E4900F9193120C8585
:0D0FA800743A120C85D203753504020DE475
:10097300E3F5F009E208B5F06D606B80F3E3F5F0A1
:1009830009E608B5F060605E80F387F009E608B514
:10099300F054605280F487F009E208B5F0486046ED
:1009A30080F488828C8387F009E0A3B5F038603641
:1009B30080F488828C8387F009E493A3B5F02760E1
:1009C3002580F388828C83E3F5F009E0A3B5F01664
:1009D300601480F388828C83E3F5F009E493A3B574
:1009E300F004600280F2020A9E808580E7808E8098
:1009F300D2803C8015806C807E809B80B5808B800C
:100A0300A1804F8070803A020AAA89828A83ECFA15
:100A1300E493F5F0A3C8C582C8CCC583CCE493A303
:100A2300C8C582C8CCC583CCB5F070606E80E1893F
:100A3300828A83E493F5F0A3E208B5F05E605C80FC
:100A4300F289828A83E0F5F0A3E608B5F04D604BA6
:100A530080F389828A83E0F5F0A3E208B5F03C6075
:100A63003A80F389828A83E493F5F0A3E608B5F02C
:100A73002A602880F2805389828A83ECFAE493F512
:100A8300F0A3C8C582C8CCC583CCE0A3C8C582C8BF
:100A9300CCC583CCB5F004600280E27FFFB5F002E1
:100AA3000F2240027F012289828A83ECFAE0F5F06B
:100AB300A3C8C582C8CCC583CCE0A3C8C582C8CCB3
:100AC300C583CCB5F0D560D380E389828A83ECFA01
:100AD300E0F5F0A3C8C582C8CCC583CCE493A3C812
:100AE300C582C8CCC583CCB5F0B160AF80E288F0D5
:100AF300ED2402B4040050A3F582EB2402B40400F5
:0B0B0300509923234582239009EC73D6
:100B0E00E709F60870FA8046E709F20870FA803EA7
:100B1E0088828C83E709F0A370FA807EE309F608D9
:100B2E0070FA8076E309F20870FA806E88828C8300
:100B3E00E309F0A370FA806289828A83E0A3F60843
:100B4E0070FA805689828A83E0A3F20870FA804A8E
:100B5E0080D280FA80C680D4806580F28031801089
:100B6E0080A680EA809A80A880DA80E280CA8031EE
:100B7E0089828A83ECFAE493A3C8C582C8CCC58364
:100B8E00CCF0A3C8C582C8CCC583CC70E9800D89D2
:100B9E00828A83E493A3F60870F9ECFAA9F0EDFBD0
:100BAE002289828A83ECFAE0A3C8C582C8CCC583A9
:100BBE00CCF0A3C8C582C8CCC583CC70EA80DD89D1
:100BCE00828A83E493A3F20870F980CE88F0ED2434
:100BDE0002B4040050C4F582EB2402B4040050BAEF
:090BEE002323458223900B5E7362
:10276C00E94A4B7001221207F5FF6D700122EF70E0
:0C277C0004FBFAF92209E970ED0A80EA7A
:101F1A008B258A268927AB25AA26A9271207F5FF2A
:101F2A00122813500D74012527F527E43526F526C6
:101F3A0080E4D200AB25AA26A9271207F5FF642B55
:101F4A006004EFB42D1BAB250527E527AA267002EE
:101F5A00052614F91207F5642D6003D38001C39294
:101F6A0000E4F528F529AB25AA26A9271207F5FFCB
:101F7A001228675036AB25AA26A9271207F5FF3380
:101F8A0095E0FEEF24D0FBEE34FFFAAE28AF297CB1
:101F9A00007D0A12086FEF2BF529EE3AF528740135
:101FAA002527F527E43526F52680BB300006AE281E
:0E1FBA00AF298009C3E49529FFE49528FE2293
:100BF700EF4E6012EF60010EEDBB010B89828A8315
:100C0700F0A3DFFCDEFA2289F05007F709DFFCA921
:0C0C1700F022BBFEFCF309DFFCA9F02278
:100C2300FAE6FB0808E6F925F0F618E6CA3AF622D2
:100C3300D083D082F8E4937012740193700DA3A350
:100C430093F8740193F5828883E473740293686064
:060C5300EFA3A3A380DF64
:0F286700EFC394304007EF943A50028001C32230
:10281300EFC394094005EF940E4003BF2003D38018
:0328230001C322CC
:00000001FF
