:0300000002278450
:0C278400787FE4F6D8FD75815F0227CB5A
:10263E00A2AF920CC2AF75C7AA75C755E4F591A2A9
:10264E000C92AF43B10153B2FEA2AF920CC2AF7562
:10265E00C7AA75C755F591A20C92AF43B30153B4F7
:10266E00FEA2AF920CC2AF75C7AA75C755F591A25F
:10267E000C92AF53B3FD43B402A2AF920CC2AF752E
:10268E00C7AA75C755F591A20C92AF53B3FB43B4CD
:10269E0004A2AF920CC2AF75C7AA75C755F591A229
:1026AE000C92AF53B3F753B4F7A2AF920CC2AF75FF
:1026BE00C7AA75C755F591A20C92AF53B3EF53B499
:1026CE00EFA2AF920CC2AF75C7AA75C755F591A20E
:0A26DE000C92AF53B1BF53B2BF22FC
:102E67004389015389FD438E085389FB5389F72210
:100003008E268F27E5274526600DE52715277002E5
:080013001526122D7080ED226C
:102D7000E4F58CF58AD28CAF8CEFFEAD8A7C00E452
:102D80002DFFEC3EFEC3EF9480EE943E40E9C28CF2
:012D90002220
:061D0D008E268F278D28B1
:101D1300E4F529E5277807CEC313CE13D8F978075E
:101D2300C333CE33CED8F9F52B8E2AE4F529C3E598
:101D33002994807480948050217E00E52B2529FF0F
:101D4300EE352AFE122EC47E0074002529F582E4A6
:101D53003400F583EFF0052980D47E00E527547F16
:101D63002400F582EE3400F583E528F0E52BF5A693
:101D7300E52AF5A775AEFFA2AF920CC2AF75C7AA4D
:101D830075C755439F01A20C92AFA2AF920CC2AF8D
:101D930075C7AA75C75543A501A20C92AF75AF22AB
:101DA300A2AF920CC2AF75C7AA75C75543A401A2CF
:101DB3000C92AFA2AF920CC2AF75C7AA75C75543B9
:101DC3009F01A20C92AFA2AF920CC2AF75C7AA75C6
:101DD300C75543A501A20C92AF75AF21E4F529C302
:101DE300E529948074809480502FE52B2529F5A64E
:101DF300E52AF5A774002529F582E43400F583E08C
:101E0300F5AEA2AF920CC2AF75C7AA75C75543A46E
:101E130001A20C92AF052980C6A2AF920CC2AF7586
:101E2300C7AA75C75553A5FEA20C92AFA2AF920CD9
:0F1E3300C2AF75C7AA75C755539FFEA20C92AFD9
:011E4200227D
:042EC4008F828E83E8
:032EC800E493FF91
:012ECB0022E4
:0A2810008E088F098B0A8A0B890CD1
:10281A00E5097807CEC313CE13D8F9FDE509250ECD
:10282A00FFE508350DFEEF7807CEC313CE13D8F9AE
:10283A00F50FED650F6043AB0AAA0BA90C7515805D
:10284A00AF09AE081219B0AC07EC2509F509E43551
:10285A0008F508EC250CF50CE4350BF50BECC3E593
:10286A000E9FF50EE50D9400F50DAE08E509780703
:10287A00CEC313CE13D8F9FD80B8E50E450D60100E
:10288A00AB0AAA0BA90C850E15AF09AE081219B02E
:01289A00221B
:0A2BED008E188F198B1A8A1B891CA1
:102BF700E4FFFEC3EF951EEE951D5021E5192FFD4D
:102C0700E5183E8D82F583E493AB1AAA1BA91C8FA6
:0D2C1700828E83120BA20FBF00010E80D62B
:012C2400228D
:0A19B0008E108F118B128A13891418
:1019BA00A2AF920CC2AF75C7AA75C755439F01A2C1
:1019CA000C92AFA2AF920CC2AF75C7AA75C75543A6
:1019DA00A501A20C92AFE511547FF517C374809547
:1019EA0017F516E515D395164003851615AD11ACF6
:1019FA0010E4F516E516C395155012ED2516F58275
:101A0A00E43CF583E493F47004051680E7E5166573
:101A1A0015707875AF218511A6E510F5A7E4F516BE
:101A2A00E516C39515502AAB12AA13A91485168276
:101A3A00758300120B63F5AEA2AF920CC2AF75C7E5
:101A4A00AA75C75543A401A20C92AF05A605168034
:101A5A00CFE4F516E516C395155022AB12AA13A9C1
:101A6A0014851682758300120B63FFED2516F58225
:101A7A00E43CF583E493B50704051680D7E51665BB
:101A8A00157003021B8A8003021B8AE5115480AC7D
:101A9A0010FDE4F516C3E516948074809480501DF9
:101AAA00ED2516F582E43CF583E493FF7480251650
:101ABA00F582E43400F583EFF0051680D8E4F516D4
:101ACA00E516C395155023AB12AA13A914851682DD
:101ADA00758300120B63FFE51725162480F582E44F
:101AEA003400F583EFF0051680D6E5115480F5A68B
:101AFA00E510F5A775AF2275AEFFA2AF920CC2AF83
:101B0A0075C7AA75C75543A401A20C92AF75AF2138
:101B1A00E4F516C3E5169480748094805027748087
:101B2A002516F582E43400F583E0F5AEA2AF920CF7
:101B3A00C2AF75C7AA75C75543A401A20C92AF05D7
:101B4A00A6051680CEE4F516AF167E00C3EF948084
:101B5A00748094805021ED2516F582E43CF583E4E7
:101B6A0093FB74802516F582E43400F583E0FAEBE2
:101B7A00B50204051680D1EF64804E6003021AF4A0
:101B8A00A2AF920CC2AF75C7AA75C755539FFEA2E2
:051B9A000C92AFAF1535
:011B9F002223
:1024E200A2AF920CC2AF75C7AA75C755439F01A28E
:1024F2000C92AF75A604E4F5A775AE0F75AFE1A215
:10250200AF920CC2AF75C7AA75C75543A504A20CFA
:1025120092AFA2AF920CC2AF75C7AA75C75543A4BA
:1025220001A20C92AFE59F5440644060F8A2AF92C2
:102532000CC2AF75C7AA75C75553A5FBA20C92AFC3
:10254200A2AF920CC2AF75C7AA75C755539FFEA220
:102552000C92AF75C7AA75C75575AA07A2AF920CA0
:10256200C2AF75C7AA75C75543AA40A20C92AFAFB6
:10257200AAEF44BF74FF60F7D2AFA2AF920CC2AF12
:0E25820075C7AA75C75543AA80A20C92AF2256
:0C002600C109C10A02540000025600008B
:102E1400E5552480FFE43554FEC3EF9557FFEE9546
:062E240056EF547FFF226F
:102DCE00E5552401FFE43554FEEFB55708EEB55630
:082DDE00047F0180027F002246
:102DE600E4F554F555F556F557FE7F80FD7B017ADF
:072DF600017900120F8E228B
:102D2A00EFF5827583007E00FDC3E5579DFDE556EC
:102D3A009400FC74002DF974013CFA7B017D0012A9
:032D4A000F8E22C7
:102E5600E555B55709E554B556047F0180027F0054
:012E66002249
:0F2E770074FF2555F58274003554F583E0FF2272
:102D0500AD07122DCEEF701C0555E555AE5470027A
:102D15000554142400F58274013EF583EDF05355F6
:052D25007F755400223F
:102CDF00122E56EF60037F00220557E557AE567050
:102CEF00020556142400F58274013EF583E0FF536C
:052CFF00577F7556002F
:012D040022AC
:03002300022B7934
:102B7900C0E0C083C082C0D075D000C005C006C007
:102B890007C09130980CD20A859952AF52122D057F
:102B9900C298309905200902C299D091D007D00670
:0B2BA900D005D0D0D082D083D0E03225
:03007B00022DFD56
:102DFD00C09130F807859A53D20BC2F830F90520EF
:072E0D000902C2F9D0913265
:101BA0008F258E248D238C22E52614605214700319
:101BB000021C9224026003021D0C75985043892078
:101BC000438780438E10A2AF920CC2AF75C7AA752F
:101BD000C755E4F591A20C92AF53C4DF7B10FAF91C
:101BE000F8AF25AE24AD23AC22120C4FAB2AAA29A4
:101BF000A928A827120C4FEFF404F58DD28E227578
:101C0000985043878053C4F8A2AF920CC2AF75C7F7
:101C1000AA75C755E4F591A20C92AF43C4207B107E
:101C2000FAF9F8AF25AE24AD23AC22120C4FAB2A43
:101C3000AA29A928A827120C4FC3E49FFFE49EFEFF
:101C400074019DFDE49CFC7808120CF78FC6E47BC0
:101C500010FAF9F8AF25AE24AD23AC22120C4FAB2D
:101C60002AAA29A928A827120C4FC3E49FFFE49EA3
:101C7000FE74019DFDE49CFCEFE48FC5A2AF920CC5
:101C8000C2AF75C7AA75C755F591A20C92AF43C4F0
:101C9000082275F85075C480E47B10FAF9F8AF2576
:101CA000AE24AD23AC22120C4FAB2AAA29A928A836
:101CB00027120C4FC3E49FFFE49EFE74019DFDE4D8
:101CC0009CFC7808120CF78FC6E47B10FAF9F8AF89
:101CD00025AE24AD23AC22120C4FAB2AAA29A92889
:101CE000A827120C4FC3E49FFFE49EFE74019DFDE4
:101CF000E49CFCEFE48FC5A2AF920CC2AF75C7AAFB
:0D1D000075C755F591A20C92AF43C408229F
:0D2EA400EF1460060470058D99228D9A22AE
:102C2500A2AF920CC2AF75C7AA75C755E4F591A2BC
:102C35000C92AF53B1BF53B2BFF526F52A7529C221
:102C4500752801F527FF7E367D6E7C01121BA0D20B
:042C550099D20922E5
:102E2A0075BE2753B3F753B4F753B3EF53B4EFD286
:062E3A0093D294D2C622DF
:081E43008F2C8B2D8A2E892FB4
:101E4B00AFBDEF64F860037F0022C2C4D2C5C2C32A
:101E5B00753200753301E4F53420C315E533453293
:101E6B007005753401800A0533E533700205328045
:101E7B00E8E5346006122C897F0022AFBDEF6408C1
:101E8B006006122C897F0022C2C5C2C475BCD0C2A9
:101E9B00C3753200753301E4F53420C315E53345C2
:101EAB00327005753401800A0533E5337002053253
:101EBB0080E8E5346006122C897F0022AFBDEF6409
:101ECB00186006122C897F0022C2C5C2C4852CBCA7
:101EDB00C2C3753200753301E4F53420C315E53305
:101EEB0045327005753401800A0533E53370020500
:101EFB003280E8E5346006122C897F0022AFBDEFFB
:101F0B0064286006122C897F0022E4F531E531C389
:101F1B009530504FAB2DAA2EA92F8531827583009A
:101F2B00120B63F5BCC2C3753200753301E4F53493
:101F3B0020C315E53345327005753401800A05332E
:101F4B00E5337002053280E8E5346006122C897F98
:101F5B000022AFBDEF64286006122C897F0022059A
:061F6B003180AA122C894E
:011F7100224D
:0817B0008F288B298A2A892B5E
:1017B800AFBDEF64F860037F0022C2C4D2C5C2C3C4
:1017C800752E00752F01E4F53020C315E52F452E41
:1017D8007005753001800A052FE52F7002052E80EF
:1017E800E8E5306006122C897F0022AFBDEF64085F
:1017F8006006122C897F0022C2C5C2C475BCD0C243
:10180800C3752E00752F01E4F53020C315E52F456B
:101818002E7005753001800A052FE52F7002052E00
:1018280080E8E5306006122C897F0022AFBDEF64A6
:10183800186006122C897F0022C2C5C2C48528BC44
:10184800C2C3752E00752F01E4F53020C315E52FAE
:10185800452E7005753001800A052FE52F700205A9
:101868002E80E8E5306006122C897F0022AFBDEF9C
:1018780064286006122C897F0022C2C4D2C5C2C364
:10188800752E00752F01E4F53020C315E52F452E80
:101898007005753001800A052FE52F7002052E802E
:1018A800E8E5306006122C897F0022AFBDEF641096
:1018B8006006122C897F0022C2C5C2C475BCD1C281
:1018C800C3752E00752F01E4F53020C315E52F45AB
:1018D8002E7005753001800A052FE52F7002052E40
:1018E80080E8E5306006122C897F0022AFBDEF64E6
:1018F800406006122C897F0022E4F52DE52C14FFA8
:10190800E52DC39F5051D2C2C2C3752E00752F0159
:10191800E4F53020C315E52F452E7005753001809C
:101928000A052FE52F7002052E80E8E530600612C3
:101938002C897F0022AFBDEF64506006122C897F8E
:101948000022AB29AA2AA92B852D82758300E5BC24
:10195800120BA2052D80A5C2C2C2C3752E00752F19
:1019680001E4F53020C315E52F452E7005753001CB
:10197800800A052FE52F7002052E80E8E530600605
:10198800122C897F0022AFBDEF64586006122C89A3
:101998007F0022AB29AA2AA92B852D82758300E511
:0719A800BC120BA2122C89F6
:0119AF002215
:10241200AFBDEF64F860037F0022C2C4D2C5C2C35D
:10242200755800755901E4F55A20C315E559455808
:102432007005755A01800A0559E5597002055880E0
:10244200E8E55A6006122C897F0022AFBDEF6408CE
:102452006006122C897F0022C2C5C2C475BCD1C2DB
:10246200C3755800755901E4F55A20C315E559455D
:10247200587005755A01800A0559E55970020558C8
:1024820080E8E55A6006122C897F0022AFBDEF6416
:10249200406006122C897F0022C2C2C2C375580056
:1024A200755901E4F55A20C315E55945587005756B
:1024B2005A01800A0559E5597002055880E8E55A23
:1024C2006006122C897F0022AFBDEF6458600612AD
:0F24D2002C897F0022AFBC7558008F59122C89BE
:0124E10022D8
:102C8900C2C5D2C4C2C37F017E00E4FDACBDEC6401
:102C9900F8600FEF4E70047D0180070FBF00010E31
:0B2CA90080EAED70047F0180027F00D4
:012CB40022FD
:102D9100AE07EFC3940A748094804012EF75F00A75
:102DA10084FEEF75F00A84EEC454F045F0FEAF06E0
:012DB10022FF
:0E2E8600EFC4540F75F00AA4FEEF540F2EFF98
:012E9400221B
:06289B008B268A27892824
:1028A100120B4AFF122D918F2B532B7F7B007A0045
:1028B100792B753001E4FF121E43AB26AA27A92804
:1028C100900001120B63FF122D918F2A7B007A0079
:1028D100792A7530017F01121E43AB26AA27A92848
:1028E100900002120B63FF122D918F29AB26AA27AC
:1028F100A928900003120B63FF7E00640270055348
:1029010029BF80114329BFEF64014E70054329207F
:1029110080035329DF7B007A0079297530017F021A
:03292100121E4340
:012924002290
:0629A9008B448A458946BB
:1029AF00120B4AFF122D918F477B007A00794775E2
:1029BF0030017F03121E43AB44AA45A94690000184
:1029CF00120B63FF122D918F487B007A00794875A7
:1029DF0030017F04121E43AB44AA45A94690000262
:1029EF00120B63FF122D918F497B007A0079497585
:1029FF0030017F05121E43AB44AA45A94690000340
:102A0F00120B63FF122D918F4A7B007A00794A7562
:072A1F0030017F06121E4387
:012A2600228D
:0626E8008B228A238924E5
:1026EE007B007A007927752C01E4FF1217B053276F
:1026FE007FAF27122E86AB22AA23A924EF120B90AE
:10270E007B007A007926752C017F011217B0AF2657
:10271E00122E86AB22AA23A924900001EF120BA23F
:10272E007B007A007925752C017F021217B0E52502
:10273E0030E62254207003D38001C340047F018011
:10274E00027F00AB22AA23A924900003EF120BA252
:10275E0053259F800EAB22AA23A924900003740256
:10276E00120BA2AF25122E86AB22AA23A92490000B
:05277E0002EF120BA2A6
:012783002233
:062925008B4B8A4C894D2A
:10292B007B007A00794E752C017F031217B0AF4EE6
:10293B00122E86AB4BAA4CA94DEF120B907B007A53
:10294B0000794F752C017F041217B0AF4F122E86F2
:10295B00AB4BAA4CA94D900001EF120BA27B007A56
:10296B00007950752C017F051217B0AF50122E86CF
:10297B00AB4BAA4CA94D900002EF120BA27B007A35
:10298B00007951752C017F061217B0AF51122E86AC
:0D299B00AB4BAA4CA94D900003EF120BA20C
:0129A800220C
:102E400053890F438910438E10758DC4758B17D22B
:062E5000ABD2AFD28E22CE
:092EBB00122AFC122EB180FB2248
:102179002443004F4B0D0A002453004E4F54204F67
:102189004B203D3E20445552494E472054494D4528
:10219900520D0A0024450024410044495341424C50
:1021A900450D0A00454E41424C450D0A0053455420
:1021B9002054494D4552204552524F520D0A003183
:1021C9000D0A004A756D7020696E746F2061637421
:1021D900697665206D6F646520310D0A00320D0A3C
:1021E900004A756D7020696E746F20616374697639
:1021F90065206D6F646520320D0A0031320D0A00C9
:102209004A756D70206F75742061637469766520F5
:102219006D6F64652031203C200D0A004A756D7090
:10222900206F757420616374697665206D6F6465CC
:102239002031203E200D0A0032310D0A004A756D09
:1022490070206F757420616374697665206D6F64A1
:062259006520320D0A00B1
:100032004101A00041019800410186004101850073
:100042004101800041019F00025E000041019E00CB
:10005200410183014101820241019900410184026F
:0400620041018100D7
:102AFC007F0712207E12263E122D4D122E67122EAB
:102B0C002AE490019CF090019BF090019AF07B01DB
:102B1C007A01799A12289B7F647E001200037B0154
:102B2C007A01799A1226E8122C5912233E122E4061
:012B3C002276
:0A2EB10012225F12100212007E22AE
:102D4D00752601E4752A80752925F528F527FF7E5E
:102D5D00247DF4FC121BA0D299D209D2ACD2AF12B1
:032D6D002DE6222E
:10225F00E4F522F523900183E06401705C30905027
:10226F00D2927F0AFE12000330904EE523B4D02F96
:10227F00E522B4072AC291D2929001837402F07FB3
:10228F00087E30122EC47524008F25E52564024583
:10229F0024600C900183E0FD7F087E30121D0D7FBE
:1022AF00017E001200030523E5237002052280B88A
:1022BF00308003D38001C39292900183E064027057
:1022CF006D309068D2917F0AFE120003E4F522F57B
:1022DF002330905AE52364D07004E5226407703BE5
:1022EF00C292D2917F64FE120003C2917F647E007E
:1022FF00120003D2919001837401F07F087E301297
:10230F002EC47524008F25E52564014524600C90AB
:10231F000183E0FD7F087E30121D0D7F017E0012CC
:0E232F0000030523E5237002052280A5C2915C
:01233D00227D
:102C59007F087E30122EC4EFF46005900183EFF0F7
:102C6900900183E0FF7E0064017005D291C2922237
:0F2C7900EF64024E7005C291D29222D291C292A4
:012C88002229
:10233E007F207E30122EC4EFF460059001A0EFF0E6
:10234E007F217E30122EC4EFF46005900198EFF0DD
:10235E007F227E30122EC4EFF46005900186EFF0DE
:10236E007430FFFE122EC4EFF46005900185EFF07D
:10237E007F317E30122EC4EFF46005900180EFF0B5
:10238E007F327E30122EC4EFF4600590019FEFF085
:10239E007F427E30122EC4EFF46005900184EFF080
:1023AE007F407E30122EC4EFF46005900182EFF074
:1023BE007F417E30122EC4EFF46005900199EFF04C
:1023CE00900199E06401703B900184E0FF6403602A
:1023DE0005EF64047014D291C2927D017F087E30A5
:1023EE00121D0D9001837401F022900182E0701392
:1023FE00C291C2927D017F087E30121D0D90018325
:03240E007401F066
:0124110022A8
:10100200E4F522122E77EF64236003021453122EAA
:1010120014EF601A122CDFBF24F4900181E0FF0468
:10102200F0748B2FF582E43401F5837424F0122ED0
:1010320014EF602B122CDF900181E0FE04F0748B20
:101042002EF582E43401F583EFF0900181E0248AE9
:10105200F582E43401F583E0B423D3800280CF909B
:101062000181E0248BF582E43401F583E4F07F0D05
:10107200122D2A752901752A01752BA4752C01756B
:101082002D01752EA7752F017530017531AA7532A4
:101092000175330175348B7B017A0179A1121F72BC
:1010A20078A17C017D017BFF7A217979120E88EF8C
:1010B200703F7B017A0179A412259090019CEFF098
:1010C2007B017A0179A712259090019BEFF07B01B9
:1010D2007A0179AA12259090019AEFF07B017A01A8
:1010E200799A12289B7BFF7A21797C1214B602141A
:1010F2004178A17C017D017BFF7A217981120E88E2
:10110200EF706C900199E0705A7B017A0179A41218
:1011120025909001A0EFF07B017A0179A71225902A
:10112200900198EFF07B017A0179AA122590900143
:1011320086EFF09001A0E0FD7F207E30121D0D9021
:101142000198E0FD7F217E30121D0D900186E0FDA9
:101152007F227E30121D0D7BFF7A21797C1214B61C
:101162000214417BFF7A2179841214B60214417869
:10117200A17C017D017BFF7A21799D120E88EF709F
:101182006C900199E0705A7B017A0179A412259042
:10119200900185EFF07B017A0179A71225909001E9
:1011A20080EFF07B017A0179AA12259090019FEFDE
:1011B200F0900185E0FD7430FFFE121D0D9001805C
:1011C200E0FD7F317E30121D0D90019FE0FD7F32E8
:1011D2007E30121D0D7BFF7A21797C1214B6021427
:1011E200417BFF7A2179841214B602144178A17CE2
:1011F200017D017BFF7A2179A0120E88EF60030244
:02120200144195
:101204007B017A0179A41225908F237B017A0179DD
:10121400A71225908F247B017A0179AA1225908F39
:1012240025E5237034E5247030EF702D900199F09A
:101234009001827402F0FD7F407E30121D0D9001FA
:1012440099E0FD7F417E30121D0D122C597BFF7AEF
:101254002179A31214B6021441E523640B6003023E
:101264001441E524640B6003021441E525640B601A
:101274000302144190019904F0E4900182F0FD7F8F
:10128400407E30121D0D900199E0FD7F417E3012A9
:101294001D0D900180E0FFE4FCFDFE7B3CFAF9F8B3
:1012A400120BC4C004C005C006C007900185E0FF4E
:1012B400E4FCFDFE7B107A0EF9F8120BC4D003D0C7
:1012C40002D001D000EF2BFBEE3AFAED39F9EC38FD
:1012D400F890019FE0FFE4FCFDFEEB2FFFEE3AFEE9
:1012E400ED39FDEC38FCC004C005C006C007900110
:1012F40098E0FFE4FCFDFE7B3CFAF9F8120BC4C055
:1013040004C005C006C0079001A0E0FFE4FCFDFE98
:101314007B107A0EF9F8120BC4D003D002D001D09E
:1013240000EF2BFBEE3AFAED39F9EC38F890018630
:10133400E0FFE4FCFDFEEB2FFBEE3AFAED39F9ECAD
:1013440038F8D007D006D005D004C3120CE15013EE
:10135400C291C2927D017F087E30121D0D900183DF
:101364007401F0900180E0FFE4FCFDFE7B3CFAF99F
:10137400F8120BC4C004C005C006C007900185E084
:10138400FFE4FCFDFE7B107A0EF9F8120BC4D003C7
:10139400D002D001D000EF2BFBEE3AFAED39F9EC94
:1013A40038F890019FE0FFE4FCFDFEEB2FFFEE3ADE
:1013B400FEED39FDEC38FCC004C005C006C0079042
:1013C4000198E0FFE4FCFDFE7B3CFAF9F8120BC443
:1013D400C004C005C006C0079001A0E0FFE4FCFD06
:1013E400FE7B107A0EF9F8120BC4D003D002D001A0
:1013F400D000EF2BFBEE3AFAED39F9EC38F8900116
:1014040086E0FFE4FCFDFEEB2FFBEE3AFAED39F942
:10141400EC38F8D007D006D005D004D3120CE14044
:1014240013C291C2927D017F087E30121D0D90017E
:0D143400837401F07BFF7A2179AD1214B6AC
:10144100E4900181F0FE7F0DFD7B017A01798B1221
:021451000F8EFC
:011453002276
:061F72008B268A27892856
:101F7800E94A4B700302207DE52B452A4529700369
:101F880002207DE52E452D452C700302207DE5318C
:101F98004530452F700302207DE5344533453270C6
:101FA8000302207DAB32AA33A9348B358A368937B0
:101FB8008B388A39893A7D2C122DB28B358A36892D
:101FC80037E94A4B6013E4120B90A828AC27AD26DA
:101FD800AB38AA39A93A120F71AB35E5372401F9A4
:101FE800E43536FA8B3BF53C893D7D2C122DB28BBE
:101FF800358A368937E94A4B6013E4120B90A82BCF
:10200800AC2AAD29AB3BAA3CA93D120F71AB35E513
:10201800372401F9E43536FA8B3EF53F89407D2CAB
:10202800122DB28B358A368937E94A4B6013E41290
:102038000B90A82EAC2DAD2CAB3EAA3FA940120F99
:1020480071AB35E5372401F9E43536FA8B41F542B1
:1020580089437D23122DB28B358A368937E94A4B5D
:102068006013E4120B90A831AC30AD2FAB41AA42FB
:05207800A943120F71E5
:01207D002240
:10007E0090019EE064016003020B49900199E064D7
:10008E00016003020B447B017A01799A1226E890F3
:10009E000182E060030205C8900180E0FFE4FCFDF0
:1000AE00FE7B3CFAF9F8120BC4C004C005C006C0B2
:1000BE0007900185E0FFE4FCFDFE7B107A0EF9F857
:1000CE00120BC4D003D002D001D000EF2BFBEE3ABE
:1000DE00FAED39F9EC38F890019FE0FFE4FCFDFEF3
:1000EE00EB2FFFEE3AFEED39FDEC38FCC004C005F7
:1000FE00C006C007900198E0FFE4FCFDFE7B3CFAD1
:10010E00F9F8120BC4C004C005C006C0079001A0C8
:10011E00E0FFE4FCFDFE7B107A0EF9F8120BC4D062
:10012E0003D002D001D000EF2BFBEE3AFAED39F9F5
:10013E00EC38F8900186E0FFE4FCFDFEEB2FFBEEC1
:10014E003AFAED39F9EC38F8D007D006D005D004DC
:10015E00C3120CE170097BFF7A2179B61214B690A6
:10016E000180E0FFE4FCFDFE7B3CFAF9F8120BC4C3
:10017E00C004C005C006C007900185E0FFE4FCFD89
:10018E00FE7B107A0EF9F8120BC4D003D002D00108
:10019E00D000EF2BFBEE3AFAED39F9EC38F890017E
:1001AE009FE0FFE4FCFDFEEB2FFFEE3AFEED39FD86
:1001BE00EC38FCC004C005C006C007900198E0FFF3
:1001CE00E4FCFDFE7B3CFAF9F8120BC4C004C0053A
:1001DE00C006C0079001A0E0FFE4FCFDFE7B107A94
:1001EE000EF9F8120BC4D003D002D001D000EF2BC1
:1001FE00FBEE3AFAED39F9EC38F8900186E0FFE4BF
:10020E00FCFDFEEB2FFBEE3AFAED39F9EC38F8D0A7
:10021E0007D006D005D004C3120CE140030203FB45
:10022E007BFF7A2179C81214B6900198E0FFE4FCA6
:10023E00FDFE7B3CFAF9F8120BC4C004C005C006E3
:10024E00C0079001A0E0FFE4FCFDFE7B107A0EF9E2
:10025E00F8120BC4D003D002D001D000EF2BFBEE6E
:10026E003AFAED39F9EC38F8900186E0FFE4FCFD3E
:10027E00FEEB2FFFEE3AFEED39FDEC38FCC004C06C
:10028E0005C006C00790019BE0FFE4FCFDFE7B3C31
:10029E00FAF9F8120BC4C004C005C006C0079001DD
:1002AE009CE0FFE4FCFDFE7B107A0EF9F8120BC405
:1002BE00D003D002D001D000EF2BFBEE3AFAED398D
:1002CE00F9EC38F890019AE0FFE4FCFDFEEB2FFB11
:1002DE00EE3AFAED39F9EC38F8D007D006D005D061
:1002EE0004D3120CE150030203FB900180E0FFE403
:1002FE00FCFDFE7B3CFAF9F8120BC4C004C005C02D
:10030E0006C007900185E0FFE4FCFDFE7B107A0E2F
:10031E00F9F8120BC4D003D002D001D000EF2BFBA2
:10032E00EE3AFAED39F9EC38F890019FE0FFE4FC73
:10033E00FDFEEB2FFFEE3AFEED39FDEC38FCC0046E
:10034E00C005C006C00790019BE0FFE4FCFDFE7BEC
:10035E003CFAF9F8120BC4C004C005C006C00790E1
:10036E00019CE0FFE4FCFDFE7B107A0EF9F8120B07
:10037E00C4D003D002D001D000EF2BFBEE3AFAED41
:10038E0039F9EC38F890019AE0FFE4FCFDFEEB2F12
:10039E00FBEE3AFAED39F9EC38F8D007D006D00575
:1003AE00D004C3120CE15045D291C29290018274D6
:1003BE0001F09001847404F07D017F407E30121DA7
:1003CE000D900184E0FD7F427E30121D0D90018361
:1003DE00E06402700F7D017F087E30121D0D9001CA
:1003EE00837401F07BFF7A2179CC1214B6900180D0
:1003FE00E0FFE4FCFDFE7B3CFAF9F8120BC4C004EE
:10040E00C005C006C007900185E0FFE4FCFDFE7B41
:10041E00107A0EF9F8120BC4D003D002D001D0001E
:10042E00EF2BFBEE3AFAED39F9EC38F890019FE03C
:10043E00FFE4FCFDFEEB2FFFEE3AFEED39FDEC384E
:10044E00FCC004C005C006C007900198E0FFE4FCA4
:10045E00FDFE7B3CFAF9F8120BC4C004C005C006C1
:10046E00C0079001A0E0FFE4FCFDFE7B107A0EF9C0
:10047E00F8120BC4D003D002D001D000EF2BFBEE4C
:10048E003AFAED39F9EC38F8900186E0FFE4FCFD1C
:10049E00FEEB2FFBEE3AFAED39F9EC38F8D007D037
:1004AE0006D005D004D3120CE150030205C87BFF21
:1004BE007A2179E61214B6900198E0FFE4FCFDFE75
:1004CE007B3CFAF9F8120BC4C004C005C006C00785
:1004DE009001A0E0FFE4FCFDFE7B107A0EF9F8120D
:1004EE000BC4D003D002D001D000EF2BFBEE3AFAB2
:1004FE00ED39F9EC38F8900186E0FFE4FCFDFEEBF7
:10050E002FFFEE3AFEED39FDEC38FCC004C005C0FD
:10051E0006C00790019BE0FFE4FCFDFE7B3CFAF970
:10052E00F8120BC4C004C005C006C00790019CE0C1
:10053E00FFE4FCFDFE7B107A0EF9F8120BC4D0031B
:10054E00D002D001D000EF2BFBEE3AFAED39F9ECE8
:10055E0038F890019AE0FFE4FCFDFEEB2FFBEE3A3B
:10056E00FAED39F9EC38F8D007D006D005D004D31F
:10057E00120CE14045D291C2929001827401F0902A
:10058E0001847403F07D017F407E30121D0D9001B9
:10059E0084E0FD7F427E30121D0D900183E06402E7
:1005AE00700F7D017F087E30121D0D900183740146
:1005BE00F07BFF7A2179EA1214B6900182E0640191
:1005CE006003020B44900180E0FFE4FCFDFE7B3CE7
:1005DE00FAF9F8120BC4C004C005C006C00790019A
:1005EE0085E0FFE4FCFDFE7B107A0EF9F8120BC4D9
:1005FE00D003D002D001D000EF2BFBEE3AFAED394A
:10060E00F9EC38F890019FE0FFE4FCFDFEEB2FFFC4
:10061E00EE3AFEED39FDEC38FCC004C005C006C054
:10062E0007900198E0FFE4FCFDFE7B3CFAF9F8121E
:10063E000BC4C004C005C006C0079001A0E0FFE4D3
:10064E00FCFDFE7B107A0EF9F8120BC4D003D0021B
:10065E00D001D000EF2BFBEE3AFAED39F9EC38F879
:10066E00900186E0FFE4FCFDFEEB2FFBEE3AFAED87
:10067E0039F9EC38F8D007D006D005D004C3120CE7
:10068E00E140030208AC900184E0640460030208B8
:10069E00AC7BFF7A2279041214B6900198E0FFE445
:1006AE00FCFDFE7B3CFAF9F8120BC4C004C005C079
:1006BE0006C0079001A0E0FFE4FCFDFE7B107A0E61
:1006CE00F9F8120BC4D003D002D001D000EF2BFBEF
:1006DE00EE3AFAED39F9EC38F8900186E0FFE4FCD9
:1006EE00FDFEEB2FFFEE3AFEED39FDEC38FCC004BB
:1006FE00C005C006C00790019BE0FFE4FCFDFE7B39
:10070E003CFAF9F8120BC4C004C005C006C007902D
:10071E00019CE0FFE4FCFDFE7B107A0EF9F8120B53
:10072E00C4D003D002D001D000EF2BFBEE3AFAED8D
:10073E0039F9EC38F890019AE0FFE4FCFDFEEB2F5E
:10074E00FBEE3AFAED39F9EC38F8D007D006D005C1
:10075E00D004C3120CE15044C291C292E4900182C3
:10076E00F09001847402F0E4FD7F407E30121D0D86
:10077E00900184E0FD7F427E30121D0D900183E0DA
:10078E006402700F7D017F087E30121D0D90018373
:10079E007401F07BFF7A2279091214B6900180E081
:1007AE00FFE4FCFDFE7B3CFAF9F8120BC4C004C05A
:1007BE0005C006C007900185E0FFE4FCFDFE7B103E
:1007CE007A0EF9F8120BC4D003D002D001D000EF8C
:1007DE002BFBEE3AFAED39F9EC38F890019FE0FF79
:1007EE00E4FCFDFEEB2FFFEE3AFEED39FDEC38FC9E
:1007FE00C004C005C006C00790019BE0FFE4FCFDED
:10080E00FE7B3CFAF9F8120BC4C004C005C006C04A
:10081E000790019CE0FFE4FCFDFE7B107A0EF9F8D8
:10082E00120BC4D003D002D001D000EF2BFBEE3A56
:10083E00FAED39F9EC38F890019AE0FFE4FCFDFE90
:10084E00EB2FFBEE3AFAED39F9EC38F8D007D0067B
:10085E00D005D004D3120CE14044C291C292E49070
:10086E000182F09001847402F0E4FD7F407E30122C
:10087E001D0D900184E0FD7F427E30121D0D900112
:10088E0083E06402700F7D017F087E30121D0D9093
:10089E0001837401F07BFF7A2279251214B6900140
:1008AE0080E0FFE4FCFDFE7B3CFAF9F8120BC4C0BD
:1008BE0004C005C006C007900185E0FFE4FCFDFE04
:1008CE007B107A0EF9F8120BC4D003D002D001D0EF
:1008DE0000EF2BFBEE3AFAED39F9EC38F890019F68
:1008EE00E0FFE4FCFDFEEB2FFFEE3AFEED39FDECF2
:1008FE0038FCC004C005C006C007900198E0FFE4B4
:10090E00FCFDFE7B3CFAF9F8120BC4C004C005C016
:10091E0006C0079001A0E0FFE4FCFDFE7B107A0EFE
:10092E00F9F8120BC4D003D002D001D000EF2BFB8C
:10093E00EE3AFAED39F9EC38F8900186E0FFE4FC76
:10094E00FDFEEB2FFBEE3AFAED39F9EC38F8D00755
:10095E00D006D005D004D3120CE15003020B449004
:10096E000184E064036003020B447BFF7A22794129
:10097E001214B6900198E0FFE4FCFDFE7B3CFAF900
:10098E00F8120BC4C004C005C006C0079001A0E059
:10099E00FFE4FCFDFE7B107A0EF9F8120BC4D003B7
:1009AE00D002D001D000EF2BFBEE3AFAED39F9EC84
:1009BE0038F8900186E0FFE4FCFDFEEB2FFFEE3AE7
:1009CE00FEED39FDEC38FCC004C005C006C0079032
:1009DE00019BE0FFE4FCFDFE7B3CFAF9F8120BC430
:1009EE00C004C005C006C00790019CE0FFE4FCFDFA
:1009FE00FE7B107A0EF9F8120BC4D003D002D00190
:100A0E00D000EF2BFBEE3AFAED39F9EC38F8900105
:100A1E009AE0FFE4FCFDFEEB2FFBEE3AFAED39F91E
:100A2E00EC38F8D007D006D005D004C3120CE14044
:100A3E0003020B44900180E0FFE4FCFDFE7B3CFAD8
:100A4E00F9F8120BC4C004C005C006C0079001859A
:100A5E00E0FFE4FCFDFE7B107A0EF9F8120BC4D019
:100A6E0003D002D001D000EF2BFBEE3AFAED39F9AC
:100A7E00EC38F890019FE0FFE4FCFDFEEB2FFFEE5B
:100A8E003AFEED39FDEC38FCC004C005C006C007C7
:100A9E0090019BE0FFE4FCFDFE7B3CFAF9F8120BA3
:100AAE00C4C004C005C006C00790019CE0FFE4FC72
:100ABE00FDFE7B107A0EF9F8120BC4D003D002D0D3
:100ACE0001D000EF2BFBEE3AFAED39F9EC38F89045
:100ADE00019AE0FFE4FCFDFEEB2FFBEE3AFAED3956
:100AEE00F9EC38F8D007D006D005D004D3120CE1BB
:100AFE004044C291C292E4900182F090018474024B
:100B0E00F0E4FD7F407E30121D0D900184E0FD7FEC
:100B1E00427E30121D0D900183E06402700F7D0144
:100B2E007F087E30121D0D9001837401F07BFF7AD9
:0C0B3E002279461214B6E490019EF022C9
:03001B00022B3D78
:102B3D00C0E0C083C082C0D0C091055FE55F700268
:102B4D00055EC3E55F94E8E55E9403400C90019E3D
:102B5D007401F0755E00755F00758DC4758B17C2BD
:0C2B6D008DD091D0D0D082D083D0E03247
:02207E00A907B0
:10208000E4F591E924F9600C14600E2402700D75DA
:10209000A638800875A630800375A630A2AF920CD2
:1020A000C2AF75C7AA75C755439F01A20C92AFE492
:1020B000F5A775AF04A2AF920CC2AF75C7AA75C7DA
:1020C0005543A401A20C92AFADAE05A6A2AF920CEF
:1020D000C2AF75C7AA75C75543A401A20C92AFAC95
:1020E000AEE924F8706FED25E0FFE433FEEC540117
:1020F0007A002FFFEA3EFE74F22FFF74FF3EFE755A
:10210000AF0C75A601E4F5A7A2AF920CC2AF75C7DC
:10211000AA75C75543A401A20C92AFABAEEB644BBA
:10212000600EABAEEB64526007ABAEEB6453701B5A
:10213000ED543FC3940774809480500A74F62FFFC7
:1021400074FF3EFE8005EF1F70011EEF5401FCEE90
:10215000C313EF13FD75C7AA75C7558D8475C7AA3C
:1021600075C7558C85A2AF920CC2AF75C7AA75C74B
:0821700055539FFEA20C92AF33
:012178002244
:102AA400EF24FD60121460282402704B7F02122B65
:102AB400B47F02122A27227F03122A27A2AF920C84
:102AC400C2AF75C7AA75C7555397DFA20C92AF2240
:102AD4007F02122BB47F02122A277F04122BB47FA9
:102AE40004122A27A2AF920CC2AF75C7AA75C755A4
:082AF4005397DFA20C92AF2200
:102BB400EF24FC60222402702FA2AF920CC2AF75E6
:102BC400C7AA75C755439720A20C92AFE59644DF78
:102BD40064DF701480F62275C7AA75C7554397C081
:092BE400E59644F764F760F8225D
:102CB500E4F591EF24FC60182402701DA2AF920C7C
:102CC500C2AF75C7AA75C7555397DFA20C92AF223D
:0A2CD50075C7AA75C75553973F2233
:102A2700E4F591A2AF920CC2AFEF24FD602F1460C2
:102A37005424027063A2AF920CC2AF75C7AA75C7C0
:102A4700555396FBA20C92AFA2AF920CC2AF75C7BB
:102A5700AA75C7555396FDA20C92AF803BA2AF92C1
:102A67000CC2AF75C7AA75C755439604A20C92AF9F
:102A7700A2AF920CC2AF75C7AA75C7555396FDA2F0
:102A87000C92AF8013A2AF920CC2AF75C7AA75C7DD
:0D2A970055439608A20C92AFA20C92AF22FC
:082ECC003099FDC2998F992293
:10279000022EBBE493A3F8E493A34003F68001F276
:1027A00008DFF48029E493A3F85407240CC8C3334A
:1027B000C4540F4420C8834004F456800146F6DF19
:1027C000E4800B0102040810204080900026E47E83
:1027D000019360BCA3FF543F30E509541FFEE4930E
:1027E000A360010ECF54C025E060A840B8E493A3D5
:1027F000FAE493A3F8E493A3C8C582C8CAC583CA00
:10280000F0A3C8C582C8CAC583CADFE9DEE780BEB7
:010066000099
:100B4A00BB010689828A83E0225002E722BBFE02A9
:090B5A00E32289828A83E49322DC
:100B6300BB010CE58229F582E5833AF583E0225047
:100B730006E92582F8E622BBFE06E92582F8E22291
:0D0B8300E58229F582E5833AF583E49322AB
:100B9000BB010689828A83F0225002F722BBFE0144
:020BA000F3223E
:100BA200F8BB010DE58229F582E5833AF583E8F089
:100BB200225006E92582C8F622BBFE05E92582C835
:020BC200F2221D
:100BC400E88FF0A4CC8BF0A42CFCE98EF0A42CFCD0
:100BD4008AF0EDA42CFCEA8EF0A4CDA8F08BF0A44E
:100BE4002DCC3825F0FDE98FF0A42CCD35F0FCEBAD
:100BF4008EF0A4FEA9F0EB8FF0A4CFC5F02ECD3972
:0F0C0400FEE43CFCEAA42DCE35F0FDE43CFC22DE
:100C130075F008758200EF2FFFEE33FECD33CDCC98
:100C230033CCC58233C5829BED9AEC99E58298401B
:100C33000CF582EE9BFEED9AFDEC99FC0FD5F0D6F8
:100C4300E4CEFBE4CDFAE4CCF9A88222B800C1B922
:100C53000059BA002DEC8BF084CFCECDFCE5F0CB60
:100C6300F97818EF2FFFEE33FEED33FDEC33FCEB99
:100C730033FB10D703994004EB99FB0FD8E5E4F954
:100C8300FA227818EF2FFFEE33FEED33FDEC33FC41
:100C9300C933C910D7059BE99A4007EC9BFCE99A35
:100CA300F90FD8E0E4C9FAE4CCFB2275F010EF2F7A
:100CB300FFEE33FEED33FDCC33CCC833C810D7077A
:100CC3009BEC9AE899400AED9BFDEC9AFCE899F8B5
:0E0CD3000FD5F0DAE4CDFBE4CCFAE4C8F92248
:100CE100EB9FF5F0EA9E42F0E99D42F0EC6480C88A
:060CF10064809845F0222A
:100CF700E8600FECC313FCED13FDEE13FEEF13FFDB
:030D0700D8F122FE
:10145400E5352429F8E6053522782630070278296F
:10146400E475F001120FCC020B4A2000EB7F2ED260
:10147400008018EF540F2490D43440D4FF30040B70
:10148400EF24BFB41A0050032461FFE5366002154F
:10149400360539E5397002053830070D7826E475CC
:1014A400F001120FCCEF020B90022ECC7403D20782
:1014B4008003E4C207F5358B268A278928E4F536AC
:1014C400F538F539E53660077F2012148F80F575FD
:1014D40037FFC201C200C202C203C205C206C2086B
:1014E40012145DFF700D3007057F001214A0AF3990
:1014F400AE3822B4255FC2D5C20412145DFF24D0D5
:10150400B40A00501A75F00A783630D50508B6FFCB
:101514000106C6A426F620D5047002D20380D9247D
:10152400CFB41A00EF5004C2E5D2040216A0D201CF
:1015340080C6D20080C0D20280BCD2D580BAD20587
:1015440080B47F2012148F2002077401B536004046
:10155400F1121454FF12148F0214C8D208D2068058
:1015640095121454FB121454FA121454F94A4B7081
:101574000679717A177BFF20022EE536602A7E00F9
:101584008E82758300120B6360060EEE653770F071
:10159400C2D5EBC0E0EAC0E0E9C0E0EE1216E7D045
:1015A400E0F9D0E0FAD0E0FB120B4AFF60AAEBC0EE
:1015B400E0EAC0E0E9C0E012148FD0E02401F9D0E1
:1015C400E03400FAD0E0FBE5370460DCD537D9809D
:1015D400877BFF7A1679E3D202809C7910800279A6
:1015E40008C206C2088008D2D5790A8004790AC2E2
:1015F400D5E537047002F537E4FAFDFEFF12145402
:10160400FC7B08200113121454FD7B1030000A12D5
:101614001454FE121454FF7B20EC3382D592D5501F
:1016240013C3E43000069FFFE49EFEE42001039D03
:10163400FDE49CFCE4CBF8C201EC700CCFCECDCC25
:10164400E824F8F870F38017C3EF33FFEE33FEEDB0
:1016540033FDEC33FCEB33FB994002FB0FD8E9EB91
:10166400300105F8D0E0C448B201C0E00AEC4D4EA8
:101674004F78207B0070C2EAB5370040BCC0E0124E
:1016840016E9D0F0D0E0200104C4C0E0C4B201C027
:10169400F0121478D0F0D5F0EB0214C8120FDC1558
:1016A400655315DF5815364C15324215E34F15EBCB
:0F16B4004415EB49154B4315F15515D54615D582
:1016C3004515D547179150153A2D153E2E15612B0B
:1016D300154223155F20177A2A14FA48000015597A
:1016E3003F3F3F00790AA2D5200314300509B91002
:1016F300020404B9080104A2D52006025001042003
:1017030002689202B536005034C0E07F20300319DE
:101713007F30A20272067205500F121740C202C236
:1017230006C205C2087F30800F300503E9C0E0120E
:10173300148F300503D0E0F9D0E0B536CC3005176F
:101743007F30B9100C12148F7F583004077F7880D4
:1017530003B9080312148F3002057F2D02148F7F03
:10176300202008F87F2B2006F322920280CF286ED8
:10177300756C6C2900D2011214543001F8C201783F
:101783003630D50108F60214FA2D50434958121485
:10179300542403B405004001E490178C9312148081
:0D17A300743A121480D2037536040215DF6B
:100D0A00E3F5F009E208B5F06D606B80F3E3F5F006
:100D1A0009E608B5F060605E80F387F009E608B579
:100D2A00F054605280F487F009E208B5F048604652
:100D3A0080F488828C8387F009E0A3B5F0386036A6
:100D4A0080F488828C8387F009E493A3B5F0276046
:100D5A002580F388828C83E3F5F009E0A3B5F016C9
:100D6A00601480F388828C83E3F5F009E493A3B5D9
:100D7A00F004600280F2020E35808580E7808E8062
:100D8A00D2803C8015806C807E809B80B5808B8071
:100D9A00A1804F8070803A020E4189828A83ECFAE0
:100DAA00E493F5F0A3C8C582C8CCC583CCE493A369
:100DBA00C8C582C8CCC583CCB5F070606E80E189A5
:100DCA00828A83E493F5F0A3E208B5F05E605C8062
:100DDA00F289828A83E0F5F0A3E608B5F04D604B0C
:100DEA0080F389828A83E0F5F0A3E208B5F03C60DB
:100DFA003A80F389828A83E493F5F0A3E608B5F092
:100E0A002A602880F2805389828A83ECFAE493F577
:100E1A00F0A3C8C582C8CCC583CCE0A3C8C582C824
:100E2A00CCC583CCB5F004600280E27FFFB5F00246
:100E3A000F2240027F012289828A83ECFAE0F5F0D0
:100E4A00A3C8C582C8CCC583CCE0A3C8C582C8CC18
:100E5A00C583CCB5F0D560D380E389828A83ECFA66
:100E6A00E0F5F0A3C8C582C8CCC583CCE493A3C877
:100E7A00C582C8CCC583CCB5F0B160AF80E288F03A
:100E8A00ED2402B4040050A3F582EB2402B404005A
:0B0E9A0050992323458223900D8373A1
:100EA500E709F60870FA8046E709F20870FA803E0D
:100EB50088828C83E709F0A370FA807EE309F6083F
:100EC50070FA8076E309F20870FA806E88828C8366
:100ED500E309F0A370FA806289828A83E0A3F608A9
:100EE50070FA805689828A83E0A3F20870FA804AF4
:100EF50080D280FA80C680D4806580F280318010EF
:100F050080A680EA809A80A880DA80E280CA803153
:100F150089828A83ECFAE493A3C8C582C8CCC583C9
:100F2500CCF0A3C8C582C8CCC583CC70E9800D8937
:100F3500828A83E493A3F60870F9ECFAA9F0EDFB35
:100F45002289828A83ECFAE0A3C8C582C8CCC5830E
:100F5500CCF0A3C8C582C8CCC583CC70EA80DD8936
:100F6500828A83E493A3F20870F980CE88F0ED2499
:100F750002B4040050C4F582EB2402B4040050BA54
:090F85002323458223900EF5732D
:102DB200E94A4B700122120B4AFF6D700122EF703B
:0C2DC20004FBFAF92209E970ED0A80EA2E
:102590008B268A278928AB26AA27A928120B4AFF4F
:1025A000120067500D74012528F528E43527F5271A
:1025B00080E4D200AB26AA27A928120B4AFF642B7D
:1025C0006004EFB42D1BAB260528E528AA2770026E
:1025D000052714F9120B4A642D6003D38001C392BE
:1025E00000E4F529F52AAB26AA27A928120B4AFFF1
:1025F000122E955036AB26AA27A928120B4AFF3374
:1026000095E0FEEF24D0FBEE34FFFAAE29AF2A7C32
:10261000007D0A120FBAEF2BF52AEE3AF529740164
:102620002528F528E43527F52780BB300006AE299C
:0E263000AF2A8009C3E4952AFFE49529FE2213
:100F8E00EF4E6012EF60010EEDBB010B89828A837A
:100F9E00F0A3DFFCDEFA2289F05007F709DFFCA987
:0C0FAE00F022BBFEFCF309DFFCA9F022DE
:100FBA00EF8DF0A4A8F0CF8CF0A428CE8DF0A42E4B
:020FCA00FE2205
:100FCC00FAE6FB0808E6F925F0F618E6CA3AF62226
:100FDC00D083D082F8E4937012740193700DA3A3A4
:100FEC0093F8740193F5828883E4737402936860B8
:060FFC00EFA3A3A380DFB8
:0F2E9500EFC394304007EF943A50028001C322FC
:10006700EFC394094005EF940E4003BF2003D380EC
:0300770001C322A0
:00000001FF
